:100000000C94130F0C94CD110C94FE110C942F1220
:100010000C9460120C9491120C94C2120C94F31272
:100020000C9424130C94440F0C94440F0C94440F20
:100030000C94440F0C9421810C94440F0C94440FA5
:100040000C94440F0C94675B0C94440F0C94440F75
:100050000C94440F0C94440F0C94396D0C94460F7F
:100060000C94440F0C94BE360C94440F0C94440F23
:100070000C94440F0C94440F0C94440F0C94440FB4
:100080000C94440F0C94440F0C94440F0C94440FA4
:100090000C94440F0C94440F0C94440F0C94440F94
:1000A0000C94440F0C94440F0C94440F0C94440F84
:1000B0000C94440F0C94440F0C94440F0C94440F74
:1000C0000C94440F0C94440F0C94440F0C94440F64
:1000D0000C94440F0C94440F0C94440F0C94440F54
:1000E0000C94440F78107D1082108C10051196101E
:1000F0009E10A610B010BA10C410D310DD10051158
:10010000E710F110FB102311261119111D115D11BB
:100110002A112E11341138113C11421146114A1185
:100120005D11501154115811EE1FEE1FF91FF91FE8
:10013000F91F04200420042019200F200F200F2075
:10014000826D916DAD6DBC6DD66DE56DFF6D036E0D
:100150000B6E084AD73B3BCE016E84BCBFFDC12F5E
:100160003D6C74319ABD56833DDA3D00C77F11BEA8
:10017000D9E4BB4C3E916BAAAABE000000803F05AB
:10018000A84CCDB2D44EB93836A9020C50B99186DC
:1001900088083CA6AAAA2ABE000000803F000009E9
:1001A0000A02080B0C0D0706030401000000000002
:1001B000000000000000000000000000000000003F
:1001C00000000000000000000011100F00000000FF
:1001D000000000000000000000000000000000001F
:1001E00000000001021020200808102040102040CC
:1001F00080020102010804020101020408102040EB
:100200008080402010080402018004020180402008
:100210001008040201080402010102040810204031
:100220008001020408102040800505050507050827
:10023000080808020202020A0A0808040404040169
:10024000010101010101010303030303030303048B
:100250000707070C0C0C0C0C0C0C0C02020202061B
:10026000060606060606060B0B0B0B0B0B0B0B000C
:10027000002200250028002B002E0031003400024F
:10028000010000050108010B0100002100240027E6
:10029000002A002D00300033000101000004010796
:1002A000010A0153544F505045442E2000507269AA
:1002B0006E7465722073746F707065642064756508
:1002C00020746F206572726F72732E2046697820D9
:1002D000746865206572726F7220616E6420757338
:1002E00065204D39393920746F20726573746172DD
:1002F000742E202854656D70657261747572652066
:1003000069732072657365742E2053657420697457
:100310002061667465722072657374617274696EAF
:100320006729004B494C4C45442E20005072696EA1
:100330007465722068616C7465642E206B696C6CE6
:1003400028292063616C6C656421006F6B00526525
:1003500073656E643A20002200556E6B6E6F776E87
:1003600020636F6D6D616E643A2022004368616E98
:1003700067652066696C616D656E74005A204F6612
:1003800066736574203A20007A5F6D61783A2000C8
:100390007A5F6D696E3A20005A204F666673657405
:1003A000005A204F6666736574206F6B007A5F6D2C
:1003B000696E3A2000795F6D696E3A2000785F6D52
:1003C000696E3A2000205A3A0020593A0020436FC3
:1003D000756E7420583A200020453A00205A3A00A1
:1003E00020593A00583A004649524D574152455F0C
:1003F0004E414D453A4D61726C696E2056313B203D
:10040000537072696E7465722F6772626C206D61D1
:100410007368757020666F722067656E3620464976
:10042000524D574152455F55524C3A687474703A78
:100430002F2F6669726D776172652E756C74696DA8
:10044000616B65722E636F6D2050524F544F434F56
:100450004C5F56455253494F4E3A312E30204D4154
:100460004348494E455F545950453A556C74696D3F
:10047000616B65722045585452554445525F434F55
:10048000554E543A3120555549443A303030303089
:100490003030302D303030302D303030302D303065
:1004A00030302D3030303030303030303030300A75
:1004B00000556C74696D616B6572204F66662E0025
:1004C00042656420646F6E652E0020423A0020452C
:1004D0003A00543A004265642048656174696E6769
:1004E0002E0048656174696E6720646F6E652E002A
:1004F00020573A0020453A00543A00486561746933
:100500006E672E2E2E002042403A0020403A0020F6
:100510002F003A00205400202F0020423A00202FC4
:10052000006F6B20543A002569206D696E2C2025E0
:10053000692073656300456E642066696C65206C94
:1005400069737400426567696E2066696C65206C2A
:10055000697374004E6F206D6F76652E005265735F
:10056000756D696E67207072696E74005761697489
:1005700020666F7220757365722E2E2E00536C6587
:1005800065702E2E2E00256920686F7572732025E8
:1005900069206D696E7574657300446F6E652070B7
:1005A00072696E74696E672066696C650053544F9A
:1005B000505045442E20005072696E74657220734D
:1005C000746F707065642064756520746F20657247
:1005D000726F72732E204669782074686520657288
:1005E000726F7220616E6420757365204D393939E0
:1005F00020746F20726573746172742E20285465A4
:100600006D706572617475726520697320726573AF
:1006100065742E2053657420697420616674657258
:100620002072657374617274696E6729006F6B0064
:100630004E6F204C696E65204E756D626572207735
:1006400069746820636865636B73756D2C204C61F9
:100650007374204C696E653A20004E6F20436865C4
:10066000636B73756D2077697468206C696E6520A3
:100670006E756D6265722C204C617374204C696ECE
:10068000653A2000636865636B73756D206D6973EF
:100690006D617463682C204C617374204C696E65C5
:1006A0003A20004C696E65204E756D626572206956
:1006B00073206E6F74204C617374204C696E6520DA
:1006C0004E756D6265722B312C204C617374204C19
:1006D000696E653A20004D31313000446F6E6520FF
:1006E000736176696E672066696C652E006F6B00BA
:1006F0004D3239002020506C616E6E657242756615
:1007000066657242797465733A20002046726565A9
:10071000204D656D6F72793A20004170722031363C
:10072000203230313500436F6D70696C65643A205A
:100730000028446176696420427261616D2900205D
:100740007C20417574686F723A20004170722031CC
:100750003620323031352031323A33363A303800B3
:10076000204C61737420557064617465643A200094
:10077000312E302E30004D61726C696E0020536F47
:1007800066747761726520526573657400205761E5
:10079000746368646F6720526573657400204272E9
:1007A0006F776E206F7574205265736574002045F5
:1007B000787465726E616C20526573657400506F59
:1007C0007765725570007374617274002200656EF3
:1007D000717565696E672022002200656E7175650E
:1007E000696E67202200FFFFFF0000A0400000A00C
:1007F00040000000400000524300005243000052FD
:100800004300000000000000000000000000005253
:10081000430000524300005243000000000000006B
:1008200000000000006563686F3A004572726F72E5
:100830003A007C3C3E5E2B3D3F2F5B5D3B2C2A22E9
:100840005C0020746F6F206C6F6E67206578747227
:100850007573696F6E2070726576656E746564007D
:1008600020636F6C6420657874727573696F6E2095
:1008700070726576656E746564006563686F3A00D2
:10088000656E6473746F7073206869743A205A00DF
:10089000205A3A00656E6473746F707320686974CF
:1008A0003A20590020593A00656E6473746F707372
:1008B000206869743A20580020583A00656E6473C5
:1008C000746F7073206869743A200024F4D4305037
:1008D000C38E20C2A24017828B7011127A910D81B3
:1008E0006CD90AA861E108C7586607615143061E22
:1008F0004B5D05C145A7041A411104093D980371D8
:100900003931034036DB0265339102D43054028022
:100910002E1D02632CEE01752AC501B028A001101E
:100920002781018F2564012B244B01E0223401AC87
:10093000211F018D200D01801FFC00841EED0097FA
:100940001DDF00B81CD200E61BC600201BBC0064E3
:100950001AB200B219A8000A19A0006A189900D1A9
:1009600017910040178B00B516840031167E00B336
:100970001579003A157300C7146F0058146A00EE19
:100980001366008813630025135E00C7125B006CBA
:1009900012570015125400C111510070114F00215F
:1009A000114B00D61049008D10470046104400023C
:1009B000104200C00F4000800F3E00420F3C000676
:1009C0000F3B00CB0E3800930E37005C0E3500272E
:1009D0000E3400F30D3200C10D3100900D30006077
:1009E0000D2E00320D2D00050D2C00D90C2B00AE64
:1009F0000C2900850C29005C0C2700350C27000E03
:100A00000C2600E80B2400C40B2400A00B23007D5F
:100A10000B23005A0B2100390B2100180B2000F882
:100A20000A1F00D90A1E00BB0A1E009D0A1D008075
:100A30000A1D00630A1C00470A1B002C0A1B001138
:100A40000A1A00F7091A00DD091900C4091900ABD8
:100A5000091900920917007B091800630917004C57
:100A600009160036091600200916000A091500F5B6
:100A7000081500E0081400CC081400B8081400A4FD
:100A8000081400900813007D0812006B081300582A
:100A90000812004608120034081100230811001241
:100AA00008110001081100F0071000E0071000D045
:100AB000071000C0071000B0070F00A10710009139
:100AC000070E0083070F0074070F0065070E00571D
:100AD000070E0049070E003B070D002E070E0020F1
:100AE000070D0013070D0006070D00F9060C00EDB9
:100AF000060D00E0060C00D4060C00C8060C00BC75
:100B0000060C00B0060C00A4060B0099060C008D24
:100B1000060B0082060B0077060B006C060B0061CB
:100B2000060A0057060B004C060A0042060A003867
:100B3000060A002E060A0024060A001A060A0010F9
:100B400006090007060A00FD050900F4050900EB87
:100B5000050900E2050900D9050900D0050900C70B
:100B6000050900BE050900B5050800AD050800A58A
:100B70000509009C050800940508008C0508008400
:100B80000508007C050800740508006C0507006571
:100B90000508005D050700560508004E05070047DB
:100BA0000507004005080038050700310507002A41
:100BB000050700230507001C050600160507000FA2
:100BC0000507000805060002050700FB040600F5FE
:100BD000040700EE040600E8040600E2040700DB58
:100BE000040600D5040600CF040600C9040600C3AD
:100BF000040600BD040600B7040600B1040500ACFD
:100C0000040600A6040600A00405009B0406009547
:100C1000040500900406008A040500850405008090
:100C20000406007A04050075040500700405006BD5
:100C300004050066040500610405005C0405005716
:100C4000040500520405004D040500480405004356
:100C50000405003E0404003A040500350405003094
:100C60000404002C04050027040400230405001ECE
:100C70000404001A04040016040500110404000D05
:100C8000040400090405000404040000040400FC3A
:100C9000030400F8030400F4030400F0030400EC70
:100CA000030400E8030400E4030400E0030400DCA0
:100CB000030400D8030400D4030400D0030400CCD0
:100CC000030400C8030300C503030024F404D9206F
:100CD0001BC40C5C0E9804C4095F0265077101F423
:100CE00005F900FB04B30048048700C103690058FC
:100CF00003550003034500BE023A0084023100534D
:100D0000022A002902250004022000E4011C00C878
:100D1000011900AF0117009801140084011300713C
:100D20000110006101100051010E0043010D003659
:100D3000010B002B010B0020010B00150109000C19
:100D400001090003010800FB000800F3000800EBA4
:100D5000000700E4000600DE000600D8000600D20E
:100D6000000600CC000500C7000500C2000500BD5C
:100D7000000400B9000400B5000400B1000400AD97
:100D8000000400A9000400A5000300A20003009FC6
:100D90000004009B000300980003009500020093EC
:100DA000000300900003008D0002008B0003008808
:100DB0000002008600020084000300810002007F20
:100DC0000002007D0002007B000200790002007733
:100DD0000001007600020074000200720001007140
:100DE0000002006F0002006D0001006C0002006A4A
:100DF0000001006900020067000100660001006553
:100E00000001006400020062000100610001006056
:100E10000001005F0002005D0001005C0001005B5A
:100E20000001005A0001005900010058000100575C
:100E3000000100560001005500010054000100535C
:100E40000000005300010052000100510001005059
:100E50000001004F0001004E0000004E0001004D57
:100E60000001004C0001004B0000004B0001004A53
:100E7000000100490001004800000048000100474F
:100E8000000100460000004600010045000000454A
:100E90000001004400010043000000430001004243
:100EA000000000420001004100000041000100403C
:100EB0000001003F0000003F0001003E0000003E36
:100EC0000001003D0000003D0001003C0000003C2E
:100ED0000000003C0001003B0000003B0001003A24
:100EE0000000003A0001003900000039000100381C
:100EF0000000003800000038000100370000003713
:100F00000001003600000036000000360001003508
:100F100000000035000000350001003400000034FE
:100F200000000034000100330000003300000033F3
:100F300000010032000000320000003200010031E8
:100F400000000031000000310001003000000030DE
:100F5000000000300001002F0000002F0000002FD3
:100F60000000002F0001002E0000002E0000002EC7
:100F70000001002D0000002D0000002D0000002DBC
:100F80000001002C0000002C0000002C0000002CB0
:100F90000001002B0000002B0000002B0000002BA4
:100FA0000001002A0000002A0000002A0000002A98
:100FB000000100290000002900000029000000298C
:100FC000000000290001002800000028000000287F
:100FD0000000002800000028000100270000002772
:100FE0000000002700000027000000270001002665
:100FF0000000002600000026000000260000002659
:10100000000100250000002500000025000000254B
:10101000000000250000002500010024000000243D
:101020000000002400000024000000240001002330
:101030000000002300000023000000230000002324
:101040000000002300000023000100220000002215
:101050000000002200000022000000220000002208
:1010600000010021000000210000002100000021FB
:1010700000000021000000210000002100010020EC
:1010800000000020000000200000002000000020E0
:101090000000002000000020000000200001001FD0
:1010A0000000001F0000001F0000001F0000001FC4
:1010B0000000001F0000001F0001001E0000001EB5
:1010C0000000001E0000001E0000006563686F3A0B
:1010D000004572723A204D415854454D50204245CA
:1010E000440054656D706572617475726520686541
:1010F00061746564206265642073776974636865F0
:1011000064206F66662E204D415854454D50207422
:101110007269676765726564202121004572723AC1
:10112000204D494E54454D50003A20457874727513
:10113000646572207377697463686564206F66669E
:101140002E204D494E54454D502074726967676595
:101150007265642021004572723A204D4158544511
:101160004D50003A2045787472756465722073772B
:10117000697463686564206F66662E204D4158541B
:10118000454D50207472696767657265642021005F
:1011900048656174696E67206661696C65640020EA
:1011A0002D20496E76616C6964206578747275646F
:1011B0006572206E756D6265722021005049442071
:1011C0004175746F74756E652066696E69736865C4
:1011D00064212050757420746865206C61737420DC
:1011E0004B702C204B6920616E64204B6420636F30
:1011F0006E7374616E74732066726F6D2061626FBE
:10120000766520696E746F20436F6E6669677572CC
:101210006174696F6E2E6800504944204175746F87
:1012200074756E65206661696C6564212074696DF2
:10123000656F75740020403A006F6B20543A006F60
:101240006B20423A00504944204175746F74756EAA
:1012500065206661696C6564212054656D706572F6
:10126000617475726520746F6F206869676800200B
:101270004B643A2000204B693A2000204B703A2002
:101280000020436C6173736963205049442000203F
:1012900054753A2000204B753A2000206D61783A51
:1012A0002000206D696E3A200020643A2000206200
:1012B0006961733A20006563686F3A004572726F26
:1012C000723A0000000000300E0100C00E0A00500B
:1012D0000F1400D00F1E0060102800E010320070C4
:1012E000113C00F01146007012500000135A0080AB
:1012F00013640000146E00901478001015820090A2
:10130000158C00101696009016A0001017AA0090D9
:1013100017B4001018BE009018C8001019D2009021
:1013200019DC00101AE600801AF000001BFA008099
:101330001B0401F01B0E01701C1801F01C2201603F
:101340001D2C01E01D3601501E4001D01E4A0140F7
:101350001F5401B01F5E0130206801A020720110EF
:10136000217C0190218601002290016026F40190E9
:101370002A5802802EBC0250322003E035840350EC
:1013800039E803803C4C044D383420582059205A09
:1013900020450043616E6E6F7420656E7465722027
:1013A0007375626469723A20004D3234004D3233F5
:1013B000202573006175746F25692E670065727250
:1013C0006F722077726974696E6720746F20666926
:1013D0006C65004E6F74205344207072696E74699E
:1013E0006E67002F005344207072696E74696E67D7
:1013F000206279746520002E0044656C6574696F05
:101400006E206661696C65642C2046696C653A20C3
:101410000046696C652064656C657465643A002EED
:10142000006F70656E206661696C65642C2046698A
:101430006C653A200057726974696E6720746F207A
:1014400066696C653A20002E006F70656E206661DB
:10145000696C65642C2046696C653A20002E006F2B
:1014600070656E206661696C65642C2046696C65E8
:101470003A200046696C652073656C656374656429
:10148000002053697A653A200046696C65206F70C8
:10149000656E65643A20002E006F70656E2066618F
:1014A000696C65642C2046696C653A20004E6F7744
:1014B0002066726573682066696C653A20004E6F1D
:1014C0007720646F696E672066696C653A20002238
:1014D00020706F73002220706172656E743A220072
:1014E000535542524F5554494E452043414C4C2090
:1014F0007461726765743A2200747279696E67204C
:10150000746F2063616C6C207375622D67636F6408
:10151000652066696C6573207769746820746F6FE5
:10152000206D616E79206C6576656C732E204D415F
:1015300058206C6576656C2069733A0053442063CB
:10154000617264206F6B006F70656E526F6F7420F4
:101550006661696C656400766F6C756D652E696E89
:101560006974206661696C656400534420696E6922
:1015700074206661696C006563686F3A0045727239
:101580006F723A0048617264636F646564204465F9
:101590006661756C742053657474696E6773204C52
:1015A0006F616465640053746F7265642073657461
:1015B00074696E677320726574726965766564001C
:1015C0002044002049002020204D3330312050009D
:1015D0005049442073657474696E67733A00205AE9
:1015E0000020590020204D323036205800486F6DC1
:1015F00065206F666673657420286D6D293A00203A
:101600004500205A0020580020420020540020208D
:101610004D323035205300416476616E636564203D
:101620007661726961626C65733A20533D4D696EF3
:1016300020666565647261746520286D6D2F73295D
:101640002C20543D4D696E2074726176656C206665
:101650006565647261746520286D6D2F73292C2077
:10166000423D6D696E696D756D207365676D656E60
:10167000742074696D6520286D73292C20583D6D88
:101680006178696D756D205859206A65726B2028E4
:101690006D6D2F73292C20205A3D6D6178696D7511
:1016A0006D205A206A65726B20286D6D2F73292C6E
:1016B0002020453D6D6178696D756D2045206A6516
:1016C000726B20286D6D2F73290020540020204D4F
:1016D000323034205300416363656C657261746914
:1016E0006F6E3A20533D616363656C657261746926
:1016F0006F6E2C20543D7265747261637420616357
:1017000063656C65726174696F6E00204500205AD4
:101710000020590020204D3230312058004D617892
:10172000696D756D20416363656C65726174696F85
:101730006E20286D6D2F7332293A00204500205A03
:101740000020590020204D3230332058004D617860
:10175000696D756D206665656472617465732028B6
:101760006D6D2F73293A00204500205A0020590042
:1017700020204D39322058005374657073207065F5
:101780007220756E69743A0053657474696E67737C
:101790002053746F726564006563686F3A0002439A
:1017A0006172642072656D6F766564004361726476
:1017B00020696E736572746564002D2D3A2D2D00BD
:1017C0002D2D2D0053440020590001200001200040
:1017D0004D363030004368616E67652066696C6124
:1017E0006D656E7400466C6F7700466C6F770046CF
:1017F000616E2073706565640046616E207370656C
:1018000065640042656400426564004E6F7A7A6CDC
:1018100065004E6F7A7A6C6500537065656400539D
:1018200070656564004D61696E004D383420583034
:1018300020593000473238005A005072656865619F
:101840007420504C412042656400507265686561A7
:101850007420504C412031005072657061726500F7
:10186000507265686561742041425320426564008E
:101870005072656865617420414253203100507296
:10188000657061726500580059005A00457874729D
:1018900075646572004578747275646572004D6F89
:1018A0007665205A004D6F76652059004D6F76653C
:1018B0002058004D6F76652061786973004D6F7612
:1018C0006520302E316D6D004D6F766520316D6D68
:1018D000004D6F76652031306D6D0050726570611E
:1018E0007265004D6F7665206178697300436F6F94
:1018F0006C646F776E005072656865617420414258
:1019000053005072656865617420504C41004D6F02
:101910007665205A004175746F20686F6D65004DC3
:1019200038340044697361626C652073746570704B
:10193000657273004D61696E0053746F7265206D3E
:10194000656D6F72790042656400426564004E6F98
:101950007A7A6C65004E6F7A7A6C650046616E200B
:1019600073706565640046616E2073706565640020
:1019700054656D70657261747572650053746F7231
:1019800065206D656D6F7279004265640042656423
:10199000004E6F7A7A6C65004E6F7A7A6C650046FD
:1019A000616E2073706565640046616E20737065BA
:1019B00065640054656D7065726174757265005080
:1019C0007265686561742041425320636F6E6600E2
:1019D0005072656865617420504C4120636F6E667B
:1019E000005049442D43005049442D430050494480
:1019F0002D44005049442D44005049442D49005085
:101A000049442D49005049442D50005049442D501F
:101A10000046616E2073706565640046616E2073D8
:101A2000706565640042656400426564004E6F7ACB
:101A30007A6C65004E6F7A7A6C6500436F6E7472D3
:101A40006F6C004573746570732F6D6D0045737412
:101A50006570732F6D6D005A73746570732F6D6DA3
:101A6000005A73746570732F6D6D005973746570CF
:101A7000732F6D6D005973746570732F6D6D005801
:101A800073746570732F6D6D005873746570732F68
:101A90006D6D00412D7265747261637400412D7229
:101AA00065747261637400416D6178206500416DF9
:101AB0006178206500416D6178207A00416D617820
:101AC000207A00416D6178207900416D617820793C
:101AD00000416D6178207800416D61782078005672
:101AE00054726176206D696E005654726176206D75
:101AF000696E00566D696E00566D696E00566D61B7
:101B000078206500566D6178206500566D617820FB
:101B10007A00566D6178207A00566D6178207900E0
:101B2000566D6178207900566D6178207800566D89
:101B3000617820780056652D6A65726B0056652DB8
:101B40006A65726B00567A2D6A65726B00567A2D43
:101B50006A65726B005678792D6A65726B005678EB
:101B6000792D6A65726B00416363656C0041636344
:101B7000656C00436F6E74726F6C0041707220313F
:101B80003620323031352031323A33363A31310075
:101B90003235303030305F73696E676C6500556C7C
:101BA00074696D616B65722B3A31352E30340046A5
:101BB00069726D776172652076657273696F6E0008
:101BC0004669726D776172652076657273696F6EB2
:101BD00000526573746F7265206661696C7361662B
:101BE00065004C6F6164206D656D6F727900537490
:101BF0006F7265206D656D6F7279004D6F74696FDE
:101C00006E0054656D7065726174757265004D612A
:101C1000696E004D383420582059205A2045004D17
:101C20003234004D323320257300052E2E004D61D5
:101C3000696E004E6F2053442063617264005072DD
:101C4000696E742066726F6D2053440053746F7018
:101C5000207072696E7400526573756D65207072C4
:101C6000696E74005061757365207072696E7400DE
:101C7000436F6E74726F6C005072657061726500B4
:101C800054756E6500496E666F2073637265656E8C
:101C9000004E414E494E495459494E46CDCCCC3D5B
:101CA0000AD7233C17B7D13877CC2B329595E62449
:101CB0001FB14F0A000020410000C84200401C46EE
:101CC00020BCBE4CCA1B0E5AAEC59D740C944FAAC4
:101CD0000C9419200C94C4100C947D830C940B6EFE
:101CE0000C948C100C94F1100C94B38C0C94B39F46
:101CF0000C94A1B00C9475AC0C94A6100C942EB25C
:101D00000C94B0100C94429B0C9496100C94FB1005
:101D10000C9437440C94AA860C9455130C945D11C2
:101D20000C94E56D0C94D66D0C9405110C94341143
:101D30000C944D8F0C9404200C94826D0C947810AC
:101D40000C94745A0C944A110C9401B20C947DA614
:101D50000C9446110C94B8AE0C942A110C946A8B16
:101D60000C94F91F0C94EE1F0C94FEAF0C945011C0
:101D70000C949CAA0C94E2870C9423110C941911D6
:101D80000C94916D0C946C990C9442110C94BA10B3
:101D90000C949C860C94C2930C9423AD0C94581113
:101DA0000C949C880C9496970C94E3840C94B6360F
:101DB0000C945BAF0C947DB60C9419AB0C942E1163
:101DC0000C946D910C94BC6D0C941D110C94FF6DD2
:101DD0000C94C7AB0C947D100C94BA360C9426115D
:101DE0000C94036E0C94AD6D0C949E100C943811F1
:101DF0000C940F200C943C110C9454110C94B88644
:101E00000C94A1AD0C94DD100C9421AE0C948210B6
:101E10000C9449B10C94E7100C94D3100C94CE8719
:101E2000B6364FAABA3611241FBECFEFD1E2DEBFBD
:101E3000CDBF00E00CBF14E0A0E0B2E0EAE0F4E8BF
:101E400001E00BBF02C007900D92A03AB107D9F78D
:101E500012E1A0EAB4E001C01D92A334B107E1F79A
:101E60001EE1C4E2DEE100E006C022970109FE01A6
:101E70000BBF0E94ADBBC032D10780E00807A9F7B5
:101E80000E9483B60C94F3C10C9400001F920F9231
:101E90000FB60F9211242F933F938F939F93AF937D
:101EA000BF938091A1049091A204A091A304B0914A
:101EB000A4043091A00423E0230F2D3720F40196D1
:101EC000A11DB11D05C026E8230F0296A11DB11D5D
:101ED0002093A0048093A1049093A204A093A30450
:101EE000B093A4048091A5049091A604A091A704A6
:101EF000B091A8040196A11DB11D8093A5049093F3
:101F0000A604A093A704B093A804BF91AF919F919A
:101F10008F913F912F910F900FBE0F901F901895AA
:101F20002FB7F8946091A1047091A2048091A3044A
:101F30009091A4042FBF08953FB7F8948091A50411
:101F40009091A604A091A704B091A80426B5A89BDF
:101F500005C02F3F19F00196A11DB11D3FBF662797
:101F6000782F892F9A2F620F711D811D911D42E0DC
:101F7000660F771F881F991F4A95D1F70895CF9252
:101F8000DF92EF92FF92CF93DF936B017C010E946F
:101F90009C0FEB01C114D104E104F10479F00E941B
:101FA0009C0F6C1B7D0B683E7340A0F381E0C81A48
:101FB000D108E108F108C851DC4FECCFDF91CF9197
:101FC000FF90EF90DF90CF9008950197009739F040
:101FD000880F991F880F991F02970197F1F70895AD
:101FE000789484B5826084BD84B5816084BD85B5F4
:101FF000826085BD85B5816085BDEEE6F0E08081BB
:1020000081608083E1E8F0E01082808182608083DB
:10201000808181608083E0E8F0E08081816080835E
:10202000E1EBF0E0808184608083E0EBF0E0808190
:1020300081608083E1E9F0E080818260808380813B
:1020400081608083E0E9F0E0808181608083E1EA63
:10205000F0E0808182608083808181608083E0EA1B
:10206000F0E0808181608083E1E2F1E08081826044
:102070008083808181608083E0E2F1E08081816003
:102080008083EAE7F0E080818460808380818260E1
:1020900080838081816080838081806880831092CA
:1020A000C10008951F93CF93DF93182FEB0161E0D8
:1020B0000E945E11209711F460E004C0CF3FD1056B
:1020C00039F461E0812FDF91CF911F910C9497112A
:1020D000E12FF0E0E356FE4F449150E0FA013197D2
:1020E000E131F10508F091C0EE58FF4F0C9498BB18
:1020F00084B5806884BDC7BD8DC084B5806284BD51
:10210000C8BD88C080918000806880938000D09393
:102110008900C09388007EC0809180008062809397
:102120008000D0938B00C0938A0074C08091B0006F
:1021300080688093B000C093B3006CC08091B00001
:1021400080628093B000C093B40064C0809190001E
:10215000806880939000D0939900C09398005AC0F3
:1021600080919000806280939000D0939B00C093F8
:102170009A0050C080919000886080939000D09326
:102180009D00C0939C0046C08091A0008068809311
:10219000A0008091A0008F7B8093A000D093A90025
:1021A000C093A80037C08091A00080628093A000F7
:1021B000D093AB00C093AA002DC08091A00088608E
:1021C0008093A000D093AD00C093AC0023C0809159
:1021D0002001806880932001D0932901C0932801B9
:1021E00019C080912001806280932001D0932B013F
:1021F000C0932A010FC08091200188608093200144
:10220000D0932D01C0932C0105C0C038D1050CF02E
:1022100058CF52CFDF91CF911F91089590E0FC01EC
:102220003197E131F10508F048C0ED57FF4F0C94AC
:1022300098BB809180008F7703C0809180008F7D54
:1022400080938000089584B58F7702C084B58F7D18
:1022500084BD08958091B0008F7703C08091B00055
:102260008F7D8093B0000895809190008F7707C094
:10227000809190008F7D03C080919000877F809334
:10228000900008958091A0008F7707C08091A000F2
:102290008F7D03C08091A000877F8093A000089568
:1022A000809120018F7707C0809120018F7D03C02E
:1022B00080912001877F809320010895CF93DF9341
:1022C00090E0FC01ED51FE4F2491FC01E75DFD4FD4
:1022D0008491882349F190E0880F991FFC01E7570A
:1022E000FD4FA591B49181599D4FFC01C591D491A9
:1022F0009FB7611108C0F8948C91209582238C932C
:10230000888182230AC0623051F4F8948C91322F74
:10231000309583238C938881822B888304C0F89422
:102320008C91822B8C939FBFDF91CF9108950F9357
:102330001F93CF93DF931F92CDB7DEB7282F30E0E6
:10234000F901E356FE4F8491F901ED51FE4F1491CE
:10235000F901E75DFD4F04910023C9F0882321F0C6
:1023600069830E940E116981E02FF0E0EE0FFF1FDC
:10237000E159FD4FA591B4919FB7F8948C916111EB
:1023800003C01095812301C0812B8C939FBF0F90B8
:10239000DF91CF911F910F9108951F920F920FB669
:1023A0000F9211240BB60F922F933F934F935F938D
:1023B0006F937F938F939F93AF93BF93EF93FF930D
:1023C0008091AD049091AE04892B29F0E091AD0489
:1023D000F091AE041995FF91EF91BF91AF919F914C
:1023E0008F917F916F915F914F913F912F910F90BE
:1023F0000BBE0F900FBE0F901F9018951F920F925B
:102400000FB60F9211240BB60F922F933F934F9359
:102410005F936F937F938F939F93AF93BF93EF934C
:10242000FF938091AF049091B004892B29F0E09143
:10243000AF04F091B0041995FF91EF91BF91AF9166
:102440009F918F917F916F915F914F913F912F91CC
:102450000F900BBE0F900FBE0F901F9018951F92FC
:102460000F920FB60F9211240BB60F922F933F933A
:102470004F935F936F937F938F939F93AF93BF938C
:10248000EF93FF938091B1049091B204892B29F0CE
:10249000E091B104F091B2041995FF91EF91BF91D1
:1024A000AF919F918F917F916F915F914F913F91EC
:1024B0002F910F900BBE0F900FBE0F901F9018958D
:1024C0001F920F920FB60F9211240BB60F922F93FB
:1024D0003F934F935F936F937F938F939F93AF93AC
:1024E000BF93EF93FF938091B3049091B404892B31
:1024F00029F0E091B304F091B4041995FF91EF91A4
:10250000BF91AF919F918F917F916F915F914F910B
:102510003F912F910F900BBE0F900FBE0F901F9009
:1025200018951F920F920FB60F9211240BB60F92AF
:102530002F933F934F935F936F937F938F939F93CB
:10254000AF93BF93EF93FF938091A9049091AA0456
:10255000892B29F0E091A904F091AA041995FF9123
:10256000EF91BF91AF919F918F917F916F915F910B
:102570004F913F912F910F900BBE0F900FBE0F9078
:102580001F9018951F920F920FB60F9211240BB641
:102590000F922F933F934F935F936F937F938F93FC
:1025A0009F93AF93BF93EF93FF938091AB04909170
:1025B000AC04892B29F0E091AB04F091AC0419959F
:1025C000FF91EF91BF91AF919F918F917F916F910B
:1025D0005F914F913F912F910F900BBE0F900FBEC7
:1025E0000F901F9018951F920F920FB60F92112403
:1025F0000BB60F922F933F934F935F936F937F93FD
:102600008F939F93AF93BF93EF93FF938091B50404
:102610009091B604892B29F0E091B504F091B604AD
:102620001995FF91EF91BF91AF919F918F917F91FC
:102630006F915F914F913F912F910F900BBE0F9033
:102640000FBE0F901F9018951F920F920FB60F920A
:1026500011240BB60F922F933F934F935F936F9379
:102660007F938F939F93AF93BF93EF93FF9380914B
:10267000B7049091B804892B29F0E091B704F09148
:10268000B8041995FF91EF91BF91AF919F918F91F0
:102690007F916F915F914F913F912F910F900BBE62
:1026A0000F900FBE0F901F901895CF92DF92EF9270
:1026B000FF920F931F93CF93DF936C017A01EB018D
:1026C000E60EF71E00E010E0CE15DF0561F069911F
:1026D000D601ED91FC910190F081E02DC601199594
:1026E000080F191FF1CFC801DF91CF911F910F91F2
:1026F000FF90EF90DF90CF9008956115710581F004
:10270000DB010D900020E9F7AD0141505109461B56
:10271000570BDC01ED91FC910280F381E02D1994BF
:1027200080E090E008950C947D13DC01ED91FC9124
:102730000190F081E02D1994FC01659175918591CE
:1027400094910895CF92DF92EF92FF920F931F938F
:10275000CF93DF93EC01CC0FDD1FCC0FDD1FCE013B
:102760008F5F974F0E949C13FE01EC55F94FC0807C
:10277000D180E280F3808E010055194FA7019601A8
:102780000E9491B6F8016083718382839383CE01A6
:10279000875E974F0E949C138E010856194FA70120
:1027A00096010E9491B6F8016083718382839383BE
:1027B000CE01835F974F0E949C13CB5EDD4FA70134
:1027C00096010E9491B6688379838A839B83DF9107
:1027D000CF911F910F91FF90EF90DF90CF900895D0
:1027E0002F923F924F925F926F927F928F929F9221
:1027F000AF92BF92CF92DF92EF92FF920F931F930F
:10280000CF93DF9300D000D0CDB7DEB79A83898312
:10281000FC01EA51F84F94905C01AA0CBB1CAA0C75
:10282000BB1CC5018055994F1C01DC011D921D92F6
:102830001D921C9213972CEB36E048EB56E064EBAC
:1028400076E080EB96E00E94A259C5018B50984F2C
:102850000E949C136B017C01692D772767FD7095A1
:10286000872F972F0E940CB82B013C01F501E258ED
:10287000F94FFC83EB8320E030E040EC5FE3C701DD
:10288000B6010E943FBAA30192010E943FBAAB81F8
:10289000BC816D937D938D939C931397F501E55DBA
:1028A000FD4FFE83ED83608171818281938160930E
:1028B0000F0270931002809311029093120220E095
:1028C00030E040E752E40E9471B720E9C22E26E0D2
:1028D000D22E7B018C012AE836E046E856E062E819
:1028E00076E08EE796E00E9408500E94E861D101F0
:1028F0001D921D921D921C9213972CEB36E048EB13
:1029000056E064EB76E080EB96E00E94A259C501A8
:102910008751984F0E949C134B015C019058A30172
:1029200092010E943FBAEB81FC81608371838283B4
:10293000938320E030E040E752E460910F02709111
:10294000100280911102909112020E9471B77B01D6
:102950008C012AE836E046E856E062E876E08EE749
:1029600096E00E9408500E94E861A5019401C5010B
:10297000B4010E9491B6A30192010E943FBAAB81BB
:10298000BC816D937D938D939C93139720E030E0F1
:1029900040E05FE3ED81FE816081718182819381FE
:1029A0000E943FBA60930F0270931002809311024D
:1029B0009093120220E030E040E752E40E9471B7A9
:1029C0007B018C012AE836E046E856E062E876E0D2
:1029D0008EE796E00E9408500E94E86189819A8102
:1029E0000E94A213F10180819181A281B381EB81C8
:1029F000FC8180839183A283B38310920F02109293
:102A0000100210921102109212020E94575BE9818B
:102A1000FA81EB56F94F81E0808326960FB6F89441
:102A2000DEBF0FBECDBFDF91CF911F910F91FF9001
:102A3000EF90DF90CF90BF90AF909F908F907F905E
:102A40006F905F904F903F902F900895FC012491DC
:102A5000222341F03091C00035FFFCCF2093C60007
:102A60000196F4CF22E030E083E599E00C94EF3852
:102A7000FC012491222341F03091C00035FFFCCFAE
:102A80002093C6000196F4CF2AE030E083E599E078
:102A90000C943E38CF93DF931F921F92CDB7DEB7D1
:102AA00080913D1290913E129E012F5F3F4F009703
:102AB00019F42354324102C0281B390B3A8329836D
:102AC00089819A810F900F90DF91CF910895209185
:102AD000D3043091D404243031050CF06AC0409105
:102AE000D5045091D60460E6649F9001659F300D37
:102AF0001124BC01C90183529B4F0E94E6BEE5E24E
:102B0000F8E08491882341F09091C00095FFFCCFBC
:102B10008093C6003196F5CFEBEDF7E084918823E2
:102B200041F09091C00095FFFCCF8093C600319694
:102B3000F5CF8091D5049091D60420E6289FF0012E
:102B4000299FF00D1124E352FB4F8191882339F026
:102B50009091C00095FFFCCF8093C600F6CFE9EDC1
:102B6000F7E08491882341F09091C00095FFFCCF5D
:102B70008093C6003196F5CF8091C00085FFFCCFD1
:102B80008AE08093C6008091D5049091D604019686
:102B900064E070E00E9443BB9093D6048093D50418
:102BA0008091D3049091D40401969093D40480939F
:102BB000D30408952091D3043091D40424303105F6
:102BC0000CF06AC04091D5045091D60460E6649F31
:102BD0009001659F300D1124BC01C90183529B4FA8
:102BE0000E9472BEE5E2F8E08491882341F0909162
:102BF000C00095FFFCCF8093C6003196F5CFEEEC78
:102C0000F7E08491882341F09091C00095FFFCCFBC
:102C10008093C6003196F5CF8091D5049091D6046B
:102C200020E6289FF001299FF00D1124E352FB4F6D
:102C30008191882339F09091C00095FFFCCF80935B
:102C4000C600F6CFECECF7E08491882341F0909138
:102C5000C00095FFFCCF8093C6003196F5CF8091E0
:102C6000C00085FFFCCF8AE08093C6008091D50428
:102C70009091D604019664E070E00E9443BB90936B
:102C8000D6048093D5048091D3049091D404019606
:102C90009093D4048093D304089540E950ED63E009
:102CA00070E083E599E00E94F736E6ECF7E0849166
:102CB000882341F09091C00095FFFCCF8093C6001F
:102CC0003196F5CF8091C00085FFFCCF8AE08093DC
:102CD000C60085E298E0FC012491222341F0309166
:102CE000C00035FFFCCF2093C6003196F5CF24B746
:102CF00020FF14C0EEEBF7E03491332341F0409114
:102D0000C00045FFFCCF3093C6003196F5CF30911F
:102D1000C00035FFFCCF3AE03093C60021FF14C05D
:102D2000EEEAF7E03491332341F04091C00045FFD3
:102D3000FCCF3093C6003196F5CF3091C00035FFFF
:102D4000FCCF3AE03093C60022FF14C0EDE9F7E073
:102D50003491332341F04091C00045FFFCCF3093C4
:102D6000C6003196F5CF3091C00035FFFCCF3AE078
:102D70003093C60023FF14C0EDE8F7E0349133230D
:102D800041F04091C00045FFFCCF3093C600319622
:102D9000F5CF3091C00035FFFCCF3AE03093C6004C
:102DA00025FF14C0EDE7F7E02491222341F0309194
:102DB000C00035FFFCCF2093C6003196F5CF20919F
:102DC000C00025FFFCCF2AE02093C60014BEE6E732
:102DD000F7E02491222341F03091C00035FFFCCF71
:102DE0002093C6003196F5CFE0E7F7E02491222347
:102DF00041F03091C00035FFFCCF2093C6003196E2
:102E0000F5CF2091C00025FFFCCF2AE02093C6001B
:102E1000FC012491E5E2F8E0222349F03091C00062
:102E200035FFFCCF2093C60031962491F5CFE0E624
:102E3000F7E02491222341F03091C00035FFFCCF10
:102E40002093C6003196F5CFEBE4F7E024912223DE
:102E500041F03091C00035FFFCCF2093C600319681
:102E6000F5CFEFE3F7E02491222341F03091C00049
:102E700035FFFCCF2093C6003196F5CFE1E3F7E0B4
:102E80002491222341F03091C00035FFFCCF2093E4
:102E9000C6003196F5CF2091C00025FFFCCF2AE077
:102EA0002093C600E6E2F7E02491222341F030911E
:102EB000C00035FFFCCF2093C6003196F5CFEAE184
:102EC000F7E02491222341F03091C00035FFFCCF80
:102ED0002093C6003196F5CF2091C00025FFFCCF8E
:102EE0002AE02093C600FC018491E5E2F8E0882303
:102EF00049F09091C00095FFFCCF8093C6003196B9
:102F00008491F5CFEBE0F7E08491882341F0909134
:102F1000C00095FFFCCF8093C6003196F5CF0E948C
:102F20004A154AE050E0BC0183E599E00E940F3861
:102F3000E4EFF6E08491882341F09091C00095FF82
:102F4000FCCF8093C6003196F5CF4AE050E060EDAB
:102F500074E083E599E00E940F388091C00085FFFE
:102F6000FCCF8AE08093C6001092D9041092DA0454
:102F70001092DB041092DC040E94CE7F0E94426714
:102F80000E94B84F0E94CD800E94E3620E948B9500
:102F9000FFEF23ED80E3F15020408040E1F700C0D7
:102FA000000008958091CD049091CE0460E070E01F
:102FB00001960C94B1BB8091CD049091CE044AE06F
:102FC00050E060E070E001960C942EBD682F70E038
:102FD0002091D7043091D80440E6429FC001439F1E
:102FE000900D112483529B4F0E94DBBE9093CE0420
:102FF0008093CD0421E0892B09F420E0822F0895ED
:103000000E94900F6093C9047093CA048093CB040C
:103010009093CC0408950E94900F6093C90470931C
:10302000CA048093CB049093CC04E091D704F09130
:10303000D804E752FB4F8081811114C0EBE4F3E028
:103040008491882341F09091C00095FFFCCF80933C
:10305000C6003196F5CF8091C00085FFFCCF8AE095
:103060008093C600089583E599E00E944937EEE415
:10307000F3E08491882341F09091C00095FFFCCF4C
:103080008093C6003196F5CF409162065091630659
:1030900060916406709165064F5F5F4F6F4F7F4F81
:1030A0002AE030E083E599E00E94E8378091C00093
:1030B00085FFFCCF8AE08093C6000C940B182F92FA
:1030C0003F924F925F926F927F928F929F92AF92B8
:1030D000BF92CF92DF92EF92FF920F931F93CF9305
:1030E000DF93CDB7DEB76F970FB6F894DEBF0FBE94
:1030F000CDBF60E6D62E74E0E72EF12CE7EBF5E0CD
:10310000B490EAE0CE2EEDE2F6E0A49099249394F8
:103110008091D4099091D5092091D6093091D70991
:10312000821B930B8F779927892B39F08091D304D9
:103130009091D40404970CF44DC08091C806882364
:1031400009F48CC38091D0049091D104892B09F0AB
:1031500085C38091D3049091D404892B11F41092EB
:10316000B904EAE9F5E024904CE3C42ED12CE12C1B
:10317000F12C50E1452E5EE0552E612C712C8E0114
:103180000F5F1F4F30E6332EE5E2F8E094919F8FFA
:103190004091490950914A0960914B0970914C093D
:1031A0008091410990914209A0914309B09144094D
:1031B000481759076A077B0708F050C38091D3046A
:1031C0009091D40404970CF049C38091B904811103
:1031D00045C321C283E599E00E942D378093D20434
:1031E0002091D0043091D1048A3061F08D3051F0BB
:1031F0008A3321F49091CF04992321F02F353105A2
:103200000CF48DC12115310509F4A7C18091D504B5
:103210009091D604D89E8001D99E100D1124F801FA
:10322000E20FF31FE352FB4F10822091CF042111D4
:1032300071C11092CF04FC01E752FB4F108298013C
:1032400023523B4F39016EE470E0C9010E94DBBE9E
:10325000009709F4A2C09093CE048093CD04861900
:103260009709800F911F4AE050E060E070E08252C1
:103270009B4F0E942EBD60936606709367068093F5
:1032800068069093690640906206509063066090CD
:103290006406709065063FEF431A530A630A730A87
:1032A0000091D5041091D60464157505860597051F
:1032B00009F456C1D09EC001D19E900D112466ED37
:1032C00076E083529B4F0E94A0BE892B09F048C133
:1032D000EBE2F8E08491882341F09091C00095FFE3
:1032E000FCCF8093C6003196F5CFE3EAF6E08491F7
:1032F000882341F09091C00095FFFCCF8093C600D9
:103300003196F5CF40916206509163066091640654
:10331000709165062AE030E083E599E00E94E83785
:103320008091C00085FFFCCF32C09093CE04809383
:10333000CD0484199509860D971D60E070E08252D6
:103340009B4F0E94B1BB0E94D9B7212F30E02617B6
:10335000370709F45EC0EBE2F8E0849181114BC1BC
:10336000E4E8F6E0849181114EC1409162065091EB
:10337000630660916406709165062AE030E083E59B
:1033800099E00E94E8378091C00085FFFCCF8AE079
:103390008093C6000E94331837C06AE270E0C30110
:1033A0000E94DBBE892B09F444C0EBE2F8E0849173
:1033B000882341F09091C00095FFFCCF8093C60018
:1033C0003196F5CFE0E3F6E08491882341F09091C7
:1033D000C00095FFFCCF8093C6003196F5CF409199
:1033E00062065091630660916406709165062AE05A
:1033F00030E083E599E00E94E8378091C00085FFC6
:10340000FCCF8AE08093C6001092D1041092D004C1
:1034100025C28091660690916706A0916806B091DA
:1034200069068093620690936306A0936406B09346
:1034300065068091D5049091D604D89E8001D99ECE
:10344000100D1124C80183529B4F3C0167E470E0CA
:103450000E94DBBE009709F448C09093CE0480938D
:10346000CD0486199709800F911F60E070E08252A9
:103470009B4F0E94B1BB0E94D9B764307105A8F57B
:103480008091BB04811119C08091C60681112DC0A5
:103490008A2DEDE2F6E0882349F09091C00095FF77
:1034A000FCCF8093C60031968491F5CF8091C00007
:1034B00085FFFCCFC092C60018C08B2DE7EBF5E06E
:1034C000882349F09091C00095FFFCCF8093C600FF
:1034D00031968491F5CF8091C00085FFFCCFC092DA
:1034E000C6008DEA95E00E941A958091D5049091CE
:1034F000D6040196B7010E9443BB9093D6048093F3
:10350000D5048091D3049091D40401969093D4046F
:103510008093D3041092D1041092D004F9CD8B3350
:1035200011F49092CF049091CF049111F1CD40917C
:10353000D5045091D604B9016F5F7F4F7093D104C9
:103540006093D004D49EF001D59EF00D1124E20FBB
:10355000F31FE352FB4F8083DBCD1092CF047EC17B
:10356000D09E3001D19E700C1124930123523B4F09
:1035700029016AE270E0C9010E94DBBE009769F58B
:10358000EBE2F8E08491882341F09091C00095FF30
:10359000FCCF8093C6003196F5CFEAE5F6E0849142
:1035A000882341F09091C00095FFFCCF8093C60026
:1035B0003196F5CF409162065091630660916406A2
:1035C000709165062AE030E083E599E00E94E837D3
:1035D0008091C00085FFFCCFDACE20E010E0F3013F
:1035E000E20FF11DE352FB4F30813A3209F49DCED8
:1035F0002F5F1327F4CF9091C00095FFFCCF8093ED
:10360000C6003196AACE9091C00095FFFCCF809362
:10361000C6003196A7CE80919C0890919D08A091FC
:103620009E08B0919F088093490990934A09A093FE
:103630004B09B0934C0984E998E00E94DF3D482F84
:103640008093D2048A30B9F04D30A9F0433229F486
:103650002091CF04222379F002C04A33C9F320918C
:10366000D0043091D1042F3531052CF48F3FAFEFCA
:103670009A0709F0D4C04091490950914A096091D4
:103680004B0970914C098091410990914209A09198
:103690004309B0914409481759076A077B0708F4A2
:1036A00082C0822DEAE9F5E0882349F09091C000BC
:1036B00095FFFCCF8093C60031968491F5CF809121
:1036C000C00085FFFCCF8AE08093C6000E94900F67
:1036D0006093BD047093BE048093BF049093C004B4
:1036E0008090C1049090C204A090C304B090C40420
:1036F000681979098A099B0928EE33E040E050E017
:103700000E9457BB49015A01CA01B901A70196019C
:103710000E9457BBCA01B901A70196010E9457BB7D
:103720007F936F93C501B401A30192010E9457BB1F
:103730003F932F93A6E8B5E0BF93AF931F930F93EA
:103740000E940ABF8F8D0FB6F894DEBF0FBECDBFAB
:10375000E5E2F8E0882349F09091C00095FFFCCFA6
:103760008093C60031968491F5CFF801819188232A
:1037700039F09091C00095FFFCCF8093C600F6CF42
:103780008091C00085FFFCCF8AE08093C600C8010D
:103790000E940B9586EC96E00E94EC7961E086EC45
:1037A00096E00E944F778091D204833219F481E031
:1037B0008093B9042091D0043091D10421153105B2
:1037C00009F4CBCE8091D5049091D604389EF001B7
:1037D000399EF00D1124E20FF31FE352FB4F1082CC
:1037E000FC01E752FB4F21E020832091D30430916C
:1037F000D4042F5F3F4F3093D4042093D304019619
:1038000064E070E00E9443BB9093D6048093D5049B
:103810001092CF041092D1041092D004B9CC4B3343
:1038200019F441E04093CF044091CF044111AACC58
:103830004091D5045091D604B9016F5F7F4F7093CA
:10384000D1046093D004349EF001359EF00D112414
:10385000E20FF31FE352FB4F80839ACC6F960FB6B3
:10386000F894DEBF0FBECDBFDF91CF911F910F91B6
:10387000FF90EF90DF90CF90BF90AF909F908F9090
:103880007F906F905F904F903F902F9008958F9210
:103890009F92AF92BF92CF92DF92EF92FF920F93DF
:1038A0001F93CF93DF93F7E1EF2EF4E0FF2E00EBB1
:1038B00016E0CEE7D6E0A2ECCA2EA6E0DA2EF7019B
:1038C00081917F010E94E617882319F10E94D21787
:1038D0004B015C01F6018081811103C060915D069E
:1038E00001C061E070E080E090E00E940CB8F80157
:1038F00020813181428153810E943FBA9B01AC01FA
:10390000C501B4010E9491B6688379838A839B8341
:1039100009C0F80180819181A281B3818883998354
:10392000AA83BB830C5F1F4F2496FFEFCF1ADF0AD9
:103930008BE1E81684E0F80611F686E40E94E617AB
:103940008823D9F00E94D2176B017C0160936E0628
:1039500070936F06809370069093710620E030E0BC
:10396000A9010E946DB9181644F4C0920F02D092BA
:103970001002E0921102F0921202DF91CF911F919A
:103980000F91FF90EF90DF90CF90BF90AF909F90FE
:103990008F9008950E94471C89E40E94E6178823AF
:1039A00059F00E94D2176093720670937306809349
:1039B00074069093750608C01092720610927306F2
:1039C00010927406109275068AE40E94E617882306
:1039D00059F00E94D2176093760670937706809311
:1039E00078069093790608951092760610927706DD
:1039F00010927806109279060895CF92DF92EF9296
:103A0000FF92CF93DF93EC01C0909806D090990677
:103A1000E0909A06F0909B06A70196016881798153
:103A20008A819B810E946AB787FF04C0C882D982BD
:103A3000EA82FB82C0909C06D0909D06E0909E0694
:103A4000F0909F06A70196016C817D818E819F81F8
:103A50000E946AB787FF04C0CC82DD82EE82FF82BB
:103A6000C090A006D090A106E090A206F090A30618
:103A7000A7019601688579858A859B850E946AB72A
:103A800087FF04C0C886D986EA86FB86C0901502E7
:103A9000D0901602E0901702F0901802A70196014C
:103AA000688179818A819B810E946DB9181624F4FE
:103AB000C882D982EA82FB82C0901902D0901A0291
:103AC000E0901B02F0901C02A70196016C817D81A1
:103AD0008E819F810E946DB9181624F4CC82DD82FC
:103AE000EE82FF82C0901D02D0901E02E0901F0265
:103AF000F0902002A7019601688579858A859B85CB
:103B00000E946DB9181624F4C886D986EA86FB8609
:103B1000DF91CF91FF90EF90DF90CF900895CF92FB
:103B2000DF92EF92FF920F931F938EE796E00E9431
:103B3000FD1C0E94900F6093C9047093CA04809387
:103B4000CB049093CC0420917E0630917F06409167
:103B50008006509181066091B0067091B106809107
:103B6000B2069091B3060E946AB7811179C0209184
:103B700082063091830640918406509185066091BB
:103B8000B4067091B5068091B6069091B7060E9472
:103B90006AB7811165C020E030E040E752E46091EF
:103BA0000F027091100280911102909112020E94F6
:103BB00071B7B0E9CB2EB6E0DB2E7B018C012AE891
:103BC00036E046E856E062E876E08EE796E00E944E
:103BD000085080917E0690917F06A0918006B0915A
:103BE00081068093B0069093B106A093B206B0937D
:103BF000B3068091820690918306A0918406B091CD
:103C000085068093B4069093B506A093B606B0934C
:103C1000B7068091860690918706A0918806B0919C
:103C200089068093B8069093B906A093BA06B0931C
:103C3000BB0680918A0690918B06A0918C06B0916C
:103C40008D068093BC069093BD06A093BE06B093EC
:103C5000BF061F910F91FF90EF90DF90CF900895D6
:103C60006091290270912A02882777FD8095982F0C
:103C70000E940CB820910F02309110024091110265
:103C8000509112020E943FBA20E030E040E752E437
:103C90000E9471B720E030E048EC52E488CFAF9248
:103CA000BF92CF92DF92EF92FF920F931F93CF9329
:103CB000DF93D82F209176063091770640917806D1
:103CC0005091790660917206709173068091740626
:103CD000909175060E947AB9C62F172F082FF92EDA
:103CE0006091290270912A02882777FD8095982F8C
:103CF0000E940CB820910F023091100240911102E5
:103D0000509112020E943FBA20E030E040E752E4B6
:103D10000E9471B720E030E048EC52E40E9471B795
:103D2000209190062F93DF93FF920F931F93CF93D1
:103D30005B016C01C2E0EC2E01E020E042E756E0BE
:103D40006EE776E080EB96E00E94E74880917E0681
:103D500090917F06A0918006B09181068093B00675
:103D60009093B106A093B206B093B30680918206F9
:103D700090918306A0918406B09185068093B40645
:103D80009093B506A093B606B093B70680918606C9
:103D900090918706A0918806B09189068093B80615
:103DA0009093B906A093BA06B093BB0680918A0699
:103DB00090918B06A0918C06B0918D068093BC06E5
:103DC0009093BD06A093BE06B093BF060E94900FCD
:103DD0006093C9047093CA048093CB049093CC047D
:103DE0000F900F900F900F900F900F90DF91CF9149
:103DF0001F910F91FF90EF90DF90CF90BF90AF9009
:103E00000895F8940E942768159A10929506469A8C
:103E100010929606439A10929706409AEBE2F8E0C9
:103E20008491882341F09091C00095FFFCCF80934E
:103E3000C6003196F5CFECE2F3E08491882341F09F
:103E40009091C00095FFFCCF8093C6003196F5CFCE
:103E50008091C00085FFFCCF8AE08093C60083E29A
:103E600093E00E942995FFCFCF92DF92EF92FF92CD
:103E70000F931F930E94900F0091C5041091C604E8
:103E80002091C7043091C804C090C904D090CA04DE
:103E9000E090CB04F090CC046C197D098E099F0949
:103EA000061717072807390730F4012B022B032BBD
:103EB00011F00E94011F80910B0290910C02A091C1
:103EC0000D02B0910E02892B8A2B8B2B09F10E94D7
:103ED000900F0091C9041091CA042091CB04309135
:103EE000CC04601B710B820B930B00910B021091A1
:103EF0000C0220910D0230910E02061717072807B9
:103F0000390730F49091E60B8091E50B981741F05A
:103F10001F910F91FF90EF90DF90CF900C94EC4F9A
:103F2000159A10929506469A10929606439A109208
:103F30009706409AEDCF0E9427688091BB048111BB
:103F400038C081E08093BB04809162069091630643
:103F5000A0916406B091650680935E0690935F061B
:103F6000A0936006B0936106EBE2F8E084918823A9
:103F700041F09091C00095FFFCCF8093C600319630
:103F8000F5CFEDEAF2E08491882341F09091C000F2
:103F900095FFFCCF8093C6003196F5CF8091C0008D
:103FA00085FFFCCF8AE08093C60083EA92E00C9400
:103FB0001A9508958091BB04089567707727E82FBC
:103FC000F0E0E356FE4F849190E0FC013697EC3030
:103FD000F10578F5EC56FF4F0C9498BB8091B10039
:103FE000887F8093B1008091B100862B8093B100CF
:103FF000089580919100887F809391008091910035
:10400000862B8093910008958091A100887F8093F2
:10401000A1008091A100862B8093A100089580913A
:104020002101887F8093210180912101862B80933B
:1040300021010895CF93DF93EC0180919006809346
:10404000BC0484E50E94E617811102C080E075C0BF
:104050000E94D2170E94DEB76093BC046623B1F3BE
:10406000E5E2F8E08491882341F09091C00095FF4B
:10407000FCCF8093C6003196F5CFCD36D105B9F08F
:1040800054F4C836D105B1F0C936D10509F045C0A0
:10409000E8E3F3E021C0CA3DD10531F0CD3DD105C3
:1040A000E1F5E3EFF2E036C0EAE0F3E029C0E1E257
:1040B000F3E01CC0EFE4F3E08191882371F190916B
:1040C000C00095FFFCCF8093C600F6CF9091C00052
:1040D00095FFFCCF8093C60081918111F7CF1DC061
:1040E0009091C00095FFFCCF8093C6008191811113
:1040F000F7CF13C09091C00095FFFCCF8093C6000E
:1041000081918111F7CF09C09091C00095FFFCCF3C
:104110008093C60081918111F7CF40E050E060911B
:10412000BC0483E599E00E944A388091C00085FF75
:10413000FCCF8AE08093C60081E0DF91CF910895A3
:104140002F923F924F925F926F927F928F929F92A7
:10415000AF92BF92CF92DF92EF92FF920F931F9395
:10416000CF93DF93CDB7DEB7E5970FB6F894DEBFF8
:104170000FBECDBF87E40E94E617882309F489C3E8
:104180000E94D2170E94D9B764307105D9F144F466
:104190006230710521F15CF577FF17C00C9429346A
:1041A0006A35710509F421C334F46C31710509F4E1
:1041B00071C00C9429346B35710509F41AC36C3540
:1041C000710509F41BC30C9429348091BB0481113F
:1041D00006C00E94471C0E948F1D0C94BE35809122
:1041E000BB04811104C00E94CA1C81E007C08091F9
:1041F000BB04811107C00E94CA1C80E00E944F1EB0
:104200000C94BE358DE795E00E941A9580E50E94DA
:10421000E617882339F00E94D2170E94DEB74B01BF
:104220005C0103C0812C912C540183E50E94E617A8
:10423000882361F00E94D21720E030E04AE754E47E
:104240000E943FBA0E94DEB74B015C010E94E86108
:104250000E94900F6B017C01C80CD91CEA1CFB1C4E
:104260000E94900F6093C9047093CA048093CB049A
:104270009093CC040E94900F6C157D058E059F05D0
:1042800010F00C9429340E94FE640E94341F0E9496
:10429000AE95F0CF80910F0290911002A091110283
:1042A000B091120280936A0690936B06A0936C06FD
:1042B000B0936D068091290290912A029093C106D5
:1042C0008093C00684E690E090932A0280932902AE
:1042D0000E94900F6093C9047093CA048093CB042A
:1042E0009093CC0481E00E945E5B8091B006909137
:1042F000B106A091B206B091B30680937E0690936A
:104300007F06A0938006B09381068091B4069091B9
:10431000B506A091B606B091B70680938206909339
:104320008306A0938406B09385068091B806909189
:10433000B906A091BA06B091BB0680938606909309
:104340008706A0938806B09389068091BC06909159
:10435000BD06A091BE06B091BF0680938A069093D9
:104360008B06A0938C06B0938D0610920F021092CC
:104370001002109211021092120288E50E94E617B4
:10438000882311F090E00AC089E50E94E6178111A8
:10439000F9CF8AE50E94E61791E0982790931302DF
:1043A00091110CC088E50E94E617882309F46CC1BE
:1043B00089E50E94E617882309F466C11092B006C9
:1043C0001092B1061092B2061092B3061092B40683
:1043D0001092B5061092B6061092B706E6EEF7E018
:1043E00014912CEB36E048EB56E064EB76E080EB82
:1043F00096E00E94A25985EF97E00E949C136B0102
:104400007C0120E030E040EC5FE30E943FBA4B01CA
:104410005C01612F772767FD7095872F972F0E948A
:104420000CB89B01AC01C501B4010E943FBA609376
:104430007E0670937F06809380069093810689EFB5
:1044400097E00E949C134B015C01E7EEF7E01491AA
:1044500020E030E040EC5FE30E943FBA2B013C01DA
:10446000612F772767FD7095872F972F0E940CB8D3
:104470009B01AC01C301B2010E943FBA6093820666
:1044800070938306809384069093850620912B0277
:1044900030912C0240912D0250912E0220930F0258
:1044A00030931002409311025093120240902F0259
:1044B000509030026090310270903202C301B2011C
:1044C0000E946AB787FF08C040920F025092100204
:1044D0006092110270921202A5019401C701B60107
:1044E0000E946DB9181614F00C942C34A701960193
:1044F000C501B4010E9471B79B01AC010E943FBA93
:1045000020E030E040E85FE30E9491B60E94ACBA40
:104510009B01AC0160910F02709110028091110219
:10452000909112020E943FBA60930F0270931002A2
:10453000809311029093120220E030E040E752E4B1
:1045400060910F02709110028091110290911202FD
:104550000E9471B7E0E9CE2EE6E0DE2E7B018C01F1
:104560002AE836E046E856E062E876E08EE796E034
:104570000E9408500E94E86180E090E00E94A2132F
:1045800081E090E00E94A2132CEB36E048EB56E06D
:1045900064EB76E080EB96E00E94A2598091B00631
:1045A0009091B106A091B206B091B30680937E06B9
:1045B00090937F06A0938006B09381068091B40605
:1045C0009091B506A091B606B091B7068093820689
:1045D00090938306A0938406B093850620E030E094
:1045E00040E752E460910F02709110028091110235
:1045F000909112020E9471B77B018C012AE836E08B
:1046000046E856E062E876E08EE796E00E940850C1
:1046100010920F02109210021092110210921202C8
:104620000E94E8610E94575B80917E0690917F0610
:10463000A0918006B09181068093B0069093B10658
:10464000A093B206B093B306809182069091830640
:10465000A0918406B09185068093B4069093B50628
:10466000A093B606B093B706809186069091870610
:10467000A0918806B09189068093B8069093B906F8
:10468000A093BA06B093BB068091130281110C94DB
:10469000323488E50E94E61781110C9432348091FF
:1046A000130281110C94383489E50E94E6178111B8
:1046B0000C94383488E50E94E6178823D1F00E94D4
:1046C000DB17672B682B692BA1F00E94D217209172
:1046D000A4063091A5064091A6065091A7060E9417
:1046E00091B66093B0067093B1068093B206909332
:1046F000B30689E50E94E6178823D1F00E94DB17F4
:10470000672B682B692BA1F00E94D2172091A80675
:104710003091A9064091AA065091AB060E9491B62D
:104720006093B4067093B5068093B6069093B7066F
:104730008091130281110C943E348AE50E94E617A1
:1047400081110C943E348AE50E94E6178823D1F04B
:104750000E94DB17672B682B692BA1F00E94D217F0
:104760002091AC063091AD064091AE065091AF0657
:104770000E9491B66093B8067093B9068093BA060A
:104780009093BB062CEB36E048EB56E064EB76E00A
:1047900080EB96E00E94A25980E00E945E5B8091CF
:1047A0006A0690916B06A0916C06B0916D0680939D
:1047B0000F0290931002A0931102B0931202809105
:1047C000C0069091C10690932A02809329020E940C
:1047D000900F6093C9047093CA048093CB049093A4
:1047E000CC040E94575B0C94293410925D060C9403
:1047F000293481E080935D060C94293485E40E947D
:10480000E617811102C00E94E86167E1C62E64E0EC
:10481000D62E74EAE72E76E0F72E00EB16E0B12CE8
:10482000F60181916F010E94E617882339F1F3E0C8
:10483000BF120CC00E94D217F8016083718382837B
:1048400093838CEB96E00E94475A18C00E94D217BF
:10485000F70120813181428153810E9491B6F80194
:1048600060837183828393832CEB36E048EB56E0C0
:1048700064EB76E080EB96E00E94A259B394F4E0FA
:10488000EF0EF11C0C5F1F4F24E0B212C9CF0C9445
:1048900029348DE40E94E617882311F40C945833D0
:1048A0000E94D2170E94D9B76237710509F4A4C7D4
:1048B0000CF0BBC06E31710509F467C20CF046C044
:1048C0006631710509F4F2C1BCF46131710509F476
:1048D000AFC134F46230710508F44FC10C9429342F
:1048E0006431710509F4AEC10CF0DAC162317105B1
:1048F00009F4A4C60C9429346931710509F4F5C191
:10490000CCF46731710509F4D7C16831710511F034
:104910000C94293486EC96E00E94CF710E94900F8F
:104920006093C1047093C2048093C3049093C40441
:104930000C9429346B31710509F4EBC10CF4DBC123
:104940006C31710509F4EBC10C942934643571059F
:1049500009F474C6ACF56A32710509F450C354F415
:104960006F31710509F4EEC26032710509F44CC271
:104970000C9429346235710509F457C60CF059C6F8
:104980006135710511F00C9429340E9427680E944A
:10499000E861409A0E94516210928F0610928E0632
:1049A00068EE73E080E090E00E94BF0F1092140266
:1049B00081EB94E00E941A950E94AE950C942934E4
:1049C0006936710509F475C324F56C35710509F470
:1049D0006DC66836710509F43DC36535710511F082
:1049E0000C94293483E50E94E6170E94D21720E038
:1049F00030E04AE754E40E943FBA0E94DEB7609379
:104A0000C5047093C6048093C7049093C8040C94A3
:104A100029346B36710509F402C60CF4D0C56D3625
:104A2000710509F453C40C9429346D3D710511F4DA
:104A30000C94C02E0CF048C06E3B710509F4BFC445
:104A4000ECF46737710509F495C054F463377105C8
:104A500009F4AEC66537710509F4B9C60C9429345A
:104A60006937710511F40C94DF2C14F40C94DB2CD1
:104A70006C38710509F40CC30C9429346C3C710535
:104A800011F40C94172E8CF4693C710511F40C94FC
:104A9000DB2D6B3C710511F40C94FB2D683C71050A
:104AA00011F00C9429340C94632D6E3C710511F4B3
:104AB0000C94952E14F40C94372E6C3D710511F462
:104AC0000C94B12E0C942934653F31E0730711F436
:104AD0000C94233034F56E3291E0790711F40C9484
:104AE000D72F64F4623E710511F40C94E62E6D32FA
:104AF000714011F40C94112F0C942934603921E089
:104B0000720711F40C941D30643F31E0730711F407
:104B10000C9420306F32714011F00C9429340C94B5
:104B2000E52F633593E0790711F40C942C3084F46D
:104B3000673FF1E07F0711F40C94293014F40C94D2
:104B400026306835724011F40C9401310C942934EC
:104B5000603A83E0780709F4C1C1673E93E07907C2
:104B600011F40C9441336B38734011F00C942934D8
:104B70000C941B33E5E7F3E02CC78CE695E00E942C
:104B80001A9580E50E94E617882339F00E94D21713
:104B90000E94DEB76B017C0103C0C12CD12C7601D1
:104BA00083E50E94E617882361F00E94D21720E077
:104BB00030E04AE754E40E943FBA0E94DEB76B013E
:104BC0007C010E94E8610E94900F6093C904709379
:104BD000CA048093CB049093CC04C114D104E104A3
:104BE000F104A9F00E94900F4B015C018C0C9D1CFC
:104BF000AE1CBF1C0E94900F681579058A059B05A5
:104C000088F40E94739681110DC00C9444340E9464
:104C10007396811107C00E94FE640E94341F0E9497
:104C2000AE95F5CF8DE595E00E941A950C94293448
:104C300084E595E00E941A95159846984398409807
:104C40000C942934E4E4F5E08491882341F09091B8
:104C5000C00095FFFCCF8093C6003196F5CF8091C0
:104C6000C00085FFFCCF8AE08093C60086EC96E00A
:104C70000E94AD70E6E3F5E08491882341F09091C5
:104C8000C00095FFFCCF8093C6003196F5CF809190
:104C9000C00085FFFCCF8AE08093C6000C942934C5
:104CA00086EC96E00E9404710C94293486EC96E020
:104CB0000E94CB710C9429340091CD041091CE0444
:104CC0000C5F1F4F6AE270E0C8010E94DBBE0097D4
:104CD00019F0FC013197108221E041E0B80186EC27
:104CE00096E00E943A720C94293486EC96E00E9479
:104CF000D6710C9429348091C906882311F40C9440
:104D0000293483E50E94E61781110C944C340C94ED
:104D1000293486EC96E00E9489760C94293480919F
:104D2000CD049091CE046AE270E004960E94DBBE4E
:104D30008C010097E1F02091D7043091D80440E62F
:104D4000429FC001439F900D11246EE470E0835296
:104D50009B4F0E94DBBE60E270E00E94DBBE0196CA
:104D60009093CE048093CD04F80131971082609126
:104D7000CD047091CE046C5F7F4F21E040E086EC63
:104D800096E00E943A720C9429348091C9068823D7
:104D900011F40C94293460E086EC96E00E9442788D
:104DA0008091CD049091CE046AE270E004960E9456
:104DB000DBBE8C010097E1F02091D7043091D8043C
:104DC00040E6429FC001439F900D11246EE470E0C5
:104DD00083529B4F0E94DBBE60E270E00E94DBBE0C
:104DE00001969093CE048093CD04F8013197108200
:104DF0006091CD047091CE046C5F7F4F86EC96E09D
:104E00000E944F750C9429348091C80681110E942C
:104E1000E8610091CD041091CE040C5F1F4F6AE24F
:104E200070E0C8010E94DBBE7C0161E270E0C80155
:104E30000E94DBBE009719F08C010F5F1F4FE11439
:104E4000F10419F0F7013197108280E50E94E6170E
:104E5000F82E2091CD043091CE040217130708F4E8
:104E6000F12C8091C906882311F40C94293421E097
:104E70002F2541E0B80186EC96E00E943A7283E566
:104E80000E94E6178823B9F02091CD043091CE041A
:104E90002017310780F40E94DB17AB01BC0140935F
:104EA000490950934A0960934B0970934C0984E96E
:104EB00098E00E94AB3E86EC96E00E94CF71F11024
:104EC0000C9429340E94900F6093C1047093C20423
:104ED0008093C3049093C4040C9429348091CD042E
:104EE0009091CE046AE270E005960E94DBBE8C01D0
:104EF0000097E1F02091D7043091D80440E6429F1A
:104F0000C001439F900D11246EE470E083529B4FCB
:104F10000E94DBBE60E270E00E94DBBE01969093CF
:104F2000CE048093CD04F801319710826091CD04B6
:104F30007091CE046B5F7F4F86EC96E00E944975BE
:104F40000C9429340E94900F6093BD047093BE04AA
:104F50008093BF049093C0040091C1041091C204D7
:104F60002091C3043091C404601B710B820B930B1E
:104F700028EE33E040E050E00E9457BBCA01B9017F
:104F80002CE330E040E050E00E9457BB7F936F93EA
:104F90003F932F9387E295E09F938F938E010F5F4E
:104FA0001F4F1F930F930E940ABFE5E2F8E0849120
:104FB0000FB6F894DEBF0FBECDBF882349F09091A5
:104FC000C00095FFFCCF8093C60031968491F5CF49
:104FD000F8018191882339F09091C00095FFFCCFB2
:104FE0008093C600F6CF8091C00085FFFCCF8AE099
:104FF0008093C600C8010E940B950C94293483E568
:105000000E94E617882311F40C9429340E94D217C9
:105010006B017C0180E50E94E617882351F0C701EF
:10502000B6010E94D9B76F3F710509F010F40C94D6
:105030005D3468E070E020E0E22FEE0FFF0BE152FC
:10504000FC4F808191818617970711F40C942934C5
:105050002F5FF2CF88E690E00E941A2081110C9415
:10506000293483E50E94E617882371F00091BC047F
:105070000E94D21710E0000F111F0A521E4E0E940C
:10508000D9B7F801718360830E94EC670C942934CE
:1050900083E50E94E617882311F40C9429340E94BA
:1050A000D2170E94D9B77093D5116093D4110C9484
:1050B000293489E690E00E941A2081110C94293449
:1050C000E1E2F5E08491882341F09091C00095FFE2
:1050D000FCCF8093C6003196F5CFE091BC0424E06C
:1050E000E29FF0011124E253FE4E40815181628122
:1050F000738121E030E083E599E00E94EF38EEE132
:10510000F5E08491882341F09091C00095FFFCCF99
:105110008093C6003196F5CFE091BC04F0E0EE0F2D
:10512000FF1FEA52FE4E60817181882777FD8095CE
:10513000982F0E940CB8AB01BC0121E030E083E560
:1051400099E00E94EF38EAE1F5E08491882341F08C
:105150009091C00095FFFCCF8093C6003196F5CFAB
:105160004091C8115091C9116091CA117091CB1131
:1051700021E030E083E599E00E94EF38E7E1F5E0D7
:105180008491882341F09091C00095FFFCCF8093DB
:10519000C6003196F5CF6091D4117091D511882752
:1051A00077FD8095982F0E940CB8AB01BC0121E0DF
:1051B00030E083E599E00E94EF38E4E1F5E0849186
:1051C000882341F09091C00095FFFCCF8093C600EA
:1051D0003196F5CF4AE050E060E070E083E599E079
:1051E0000E940F38E2E1F5E08491882341F090912C
:1051F000C00095FFFCCF8093C6003196F5CF40915B
:10520000CE115091CF116091D0117091D11121E048
:1052100030E083E599E00E94EF38EFE0F5E084911B
:10522000882341F09091C00095FFFCCF8093C60089
:105230003196F5CF6091D6117091D711882777FDFF
:105240008095982F0E940CB8AB01BC0121E030E0A2
:1052500083E599E00E94EF38EBE0F5E08491882344
:1052600041F09091C00095FFFCCF8093C60031962D
:10527000F5CF8091BC0490E00E94F3644AE050E0D6
:10528000BC0183E599E00E940F38E6E0F5E08491E7
:10529000882341F09091C00095FFFCCF8093C60019
:1052A0003196F5CF8FEF9FEF0E94F3644AE050E014
:1052B000BC0183E599E00E940F388091C00085FF12
:1052C000FCCF8AE08093C6000C94BE358DE690E05A
:1052D0000E941A2081110C9429348BEF94E00E94D3
:1052E0001A9583E50E94E617882391F00091BC048B
:1052F0000E94D21710E0000F111F0A521E4E0E948A
:10530000D9B7F8017183608381E080930A0215C0E8
:1053100082E50E94E617882381F00091BC040E9478
:10532000D21710E0000F111F0A521E4E0E94D9B76B
:10533000F8017183608310920A020E94EC670E9458
:10534000900F4B015C010091BC0410E0F801EE0FDE
:10535000FF1FEA52FE4E60817181882777FD80959C
:10536000982F0E940CB8F801EE0FFF1FEE0FFF1FE1
:10537000E253FE4E11E020813181428153810E942F
:105380006DB918160CF010E01093BA04CC24CA942E
:10539000DC2C7601E8EFF4E024912FA7E4EFF4E0B1
:1053A000349139ABE0EFF4E0249078EE472E73E0CF
:1053B000572E612C712CEAE03E2E0C94C03485ED02
:1053C00094E00E941A9583E50E94E617882361F015
:1053D0000E94D2170E94D9B77093D5116093D4114F
:1053E00081E080930A020FC082E50E94E6178823BD
:1053F00051F00E94D2170E94D9B77093D5116093D3
:10540000D41110920A020E94900F6B017C016091EE
:10541000D4117091D511882777FD8095982F0E941F
:105420000CB811E02091C8113091C9114091CA11F6
:105430005091CB110E946DB918160CF010E010932A
:10544000BA04E2EDF4E01491EEECF4E00491EAEC3D
:10545000F4E0B4909AE0A92E8091BA046091D4113E
:105460007091D511882309F483C0882777FD809532
:10547000982F0E940CB82091C8113091C911409109
:10548000CA115091CB110E946DB918160CF087C04B
:105490000E94900F6C197D098E099F09693E734027
:1054A0008105910508F45DC0E091900634E0E39F2A
:1054B000F0011124E253FE4E4081518162817381DB
:1054C000812FE2EDF4E0882349F09091C00095FF30
:1054D000FCCF8093C60031968491F5CF22E030E076
:1054E00083E599E00E94EF38802FEEECF4E088230A
:1054F00049F09091C00095FFFCCF8093C600319693
:105500008491F5CF6091900670E04AE050E083E529
:1055100099E00E940F388B2DEAECF4E0882349F0E3
:105520009091C00095FFFCCF8093C6003196849186
:10553000F5CF4091C8115091C9116091CA11709175
:10554000CB1121E030E083E599E00E94EF388091B3
:10555000C00085FFFCCFA092C6000E94900F6B0197
:105560007C010E94FE640E94341F0E94AE9574CF9D
:10557000882777FD8095982F0E940CB82091C8113C
:105580003091C9114091CA115091CB110E946AB754
:1055900087FF05C080910A02882309F479CF80EC47
:1055A00094E00E941A950E94900F6093C904709332
:1055B000CA048093CB049093CC040C94293483E5E3
:1055C0000E94E617882319F10E94D21720E030E0EC
:1055D000A9010E946AB787FD0FC00E94D21720E080
:1055E00030E04FE753E40E946DB9181644F00E9472
:1055F000D2170E94D9B705C060E070E002C06FEF1B
:1056000070E070938F0660938E060C9429348FEFB0
:1056100090E090938F0680938E060C94293410921C
:105620008F0610928E060C9429341092C5060C94A5
:10563000293481E08093C5060C94293483E50E94C7
:10564000E6178823A1F00E94D21720E030E04AE755
:1056500054E40E943FBA0E94DEB760930B0270933D
:105660000C0280930D0290930E020C94293488E56D
:105670000E94E61781110C949C3589E50E94E6177B
:1056800081110C949C358AE50E94E61781110C94D7
:105690009C3585E40E94E61781110C949C350E948C
:1056A000E861409A0E9451620C94293487E194E0A9
:1056B00098AB8FA707E111E1B7E28B2EB1E19B2EEA
:1056C0008BEDA82E80E1B82E312CEFA5F8A98191A1
:1056D000F8ABEFA70E94E617882309F45BC0F3E05C
:1056E0003F1251C00E94D2176B017C0120E030E0D4
:1056F00040EA51E40E946AB787FF3FC0A7019601C4
:10570000F80160817181828193810E9471B72B01C0
:105710003C019B01AC016091EF107091F010809101
:10572000F1109091F2100E943FBA6093EF107093C5
:10573000F0108093F1109093F210A3019201F40104
:1057400060817181828193810E943FBAF4016083FC
:10575000718382839383F50160817181828193815A
:105760000E940AB8A30192010E943FBA0E94DEB7CC
:10577000F5016083718382839383F801C082D182B3
:10578000E282F38207C00E94D217F801608371831E
:105790008283938333940C5F1F4FF4E08F0E911C30
:1057A00024E0A20EB11C34E033128FCF0C942934C4
:1057B000E7EEF3E08491882311F40C94293490915E
:1057C000C00095FFFCCF8093C6003196F3CF0091C7
:1057D000CD041091CE040B5F1F4F6AE270E0C80148
:1057E0000E94DBBE009719F0FC0131971082C801BE
:1057F0000E940B950C942934E4EEF3E08491882305
:1058000041F09091C00095FFFCCF8093C600319687
:10581000F5CF4091B0065091B1066091B2067091FB
:10582000B30622E030E083E599E00E94EF38E0EE35
:10583000F3E08491882341F09091C00095FFFCCF64
:105840008093C6003196F5CF4091B4065091B506CD
:105850006091B6067091B70622E030E083E599E0EA
:105860000E94EF38ECEDF3E08491882341F09091B1
:10587000C00095FFFCCF8093C6003196F5CF4091D4
:10588000B8065091B9066091BA067091BB0622E045
:1058900030E083E599E00E94EF38E8EDF3E0849191
:1058A000882341F09091C00095FFFCCF8093C60003
:1058B0003196F5CF4091BC065091BD066091BE0671
:1058C0007091BF0622E030E083E599E00E94EF3856
:1058D000EDECF3E08491882341F09091C00095FFB6
:1058E000FCCF8093C6003196F5CF0E9443620E94A0
:1058F0000CB8209117113091181140911911509145
:105900001A110E9471B7AB01BC0122E030E083E5BF
:1059100099E00E94EF38E9ECF3E08491882341F0AC
:105920009091C00095FFFCCF8093C6003196F5CFD3
:1059300081E00E9443620E940CB820911B113091BB
:105940001C1140911D1150911E110E9471B7AB01A5
:10595000BC0122E030E083E599E00E94EF38E5ECFD
:10596000F3E08491882341F09091C00095FFFCCF33
:105970008093C6003196F5CF82E00E9443620E9478
:105980000CB820911F11309120114091211150919C
:1059900022110E9471B7AB01BC0122E030E083E527
:1059A00099E00E94EF388091C00085FFFCCF8AE02B
:1059B0008093C6004EC780E00E945E5B4AC781E0CC
:1059C0000E945E5B46C79091C00095FFFCCF80931C
:1059D000C60081918111F7CF8091C00085FFFCCF77
:1059E0008AE08093C600EDEBF3E08491882341F0D8
:1059F0009091C00095FFFCCF8093C6003196F5CF03
:105A0000009903C0E6E6F3E009C0E0E7F3E006C072
:105A10009091C00095FFFCCF8093C60081918111C9
:105A2000F7CF8091C00085FFFCCF8AE08093C6004D
:105A3000E5EBF3E08491882341F09091C00095FF5D
:105A4000FCCF8093C6003196F5CF049903C0E6E6FB
:105A5000F3E009C0E0E7F3E006C09091C00095FFD5
:105A6000FCCF8093C60081918111F7CF8091C00057
:105A700085FFFCCF8AE08093C600EDEAF3E08491D5
:105A8000882341F09091C00095FFFCCF8093C60021
:105A90003196F5CF079903C0E6E6F3E009C0E0E7E9
:105AA000F3E006C09091C00095FFFCCF8093C60044
:105AB00081918111F7CF8091C00085FFFCCF8AE0F2
:105AC0008093C600C6C684E40E94E617882309F4C2
:105AD000C0C60E94D21720E030E040E05FE30E94A1
