:100000000C94510F0C940B120C943C120C946D1226
:100010000C949E120C94CF120C9400130C94311378
:100020000C9462130C94820F0C94820F0C94820F28
:100030000C94820F0C9499840C94820F0C94820F70
:100040000C94820F0C94225D0C94820F0C94820FFE
:100050000C94820F0C94820F0C947D700C94840F7E
:100060000C94820F0C9469380C94820F0C94820FBC
:100070000C94820F0C94820F0C94820F0C94820FBC
:100080000C94820F0C94820F0C94820F0C94820FAC
:100090000C94820F0C94820F0C94820F0C94820F9C
:1000A0000C94820F0C94820F0C94820F0C94820F8C
:1000B0000C94820F0C94820F0C94820F0C94820F7C
:1000C0000C94820F0C94820F0C94820F0C94820F6C
:1000D0000C94820F0C94820F0C94820F0C94820F5C
:1000E0000C94820FB610BB10C010CA104311D4106C
:1000F000DC10E410EE10F810021111111B11431165
:1001000025112F1139116111641157115B119B11C8
:1001100068116C11721176117A1180118411881195
:100120009B118E11921196113C203C2047204720B4
:10013000472052205220522067205D205D205D2004
:10014000D670E570017110712A7139715371577150
:100150005F71084AD73B3BCE016E84BCBFFDC12F07
:100160003D6C74319ABD56833DDA3D00C77F11BEA8
:10017000D9E4BB4C3E916BAAAABE000000803F05AB
:10018000A84CCDB2D44EB93836A9020C50B99186DC
:1001900088083CA6AAAA2ABE000000803F000009E9
:1001A0000A02080B0C0D0706030401000000000002
:1001B000000000000000000000000000000000003F
:1001C00000000000000000000011100F00000000FF
:1001D000000000000000000000000000000000001F
:1001E00000000001021020200808102040102040CC
:1001F00080020102010804020101020408102040EB
:100200008080402010080402018004020180402008
:100210001008040201080402010102040810204031
:100220008001020408102040800505050507050827
:10023000080808020202020A0A0808040404040169
:10024000010101010101010303030303030303048B
:100250000707070C0C0C0C0C0C0C0C02020202061B
:10026000060606060606060B0B0B0B0B0B0B0B000C
:10027000002200250028002B002E0031003400024F
:10028000010000050108010B0100002100240027E6
:10029000002A002D00300033000101000004010796
:1002A000010A0153544F505045442E2000507269AA
:1002B0006E7465722073746F707065642064756508
:1002C00020746F206572726F72732E2046697820D9
:1002D000746865206572726F7220616E6420757338
:1002E00065204D39393920746F20726573746172DD
:1002F000742E202854656D70657261747572652066
:1003000069732072657365742E2053657420697457
:100310002061667465722072657374617274696EAF
:100320006729004B494C4C45442E20005072696EA1
:100330007465722068616C7465642E206B696C6CE6
:1003400028292063616C6C656421006F6B00526525
:1003500073656E643A20002200556E6B6E6F776E87
:1003600020636F6D6D616E643A2022004368616E98
:1003700067652066696C616D656E74005A204F6612
:1003800066736574203A20007A5F6D61783A2000C8
:100390007A5F6D696E3A20005A204F666673657405
:1003A000005A204F6666736574206F6B00486F7447
:1003B000656E64206F6666736574733A007A5F6D6C
:1003C000696E3A2000795F6D696E3A2000785F6D42
:1003D000696E3A2000205A3A0020593A0020436FB3
:1003E000756E7420583A200020453A00205A3A0091
:1003F00020593A00583A004649524D574152455FFC
:100400004E414D453A4D61726C696E2056313B202C
:10041000537072696E7465722F6772626C206D61C1
:100420007368757020666F722067656E3620464966
:10043000524D574152455F55524C3A687474703A68
:100440002F2F6669726D776172652E756C74696D98
:10045000616B65722E636F6D2050524F544F434F46
:100460004C5F56455253494F4E3A312E30204D4144
:100470004348494E455F545950453A556C74696D2F
:10048000616B65722045585452554445525F434F45
:10049000554E543A3220555549443A303030303078
:1004A0003030302D303030302D303030302D303055
:1004B00030302D3030303030303030303030300A65
:1004C00000556C74696D616B6572204F66662E0015
:1004D00042656420646F6E652E0020423A0020451C
:1004E0003A00543A004265642048656174696E6759
:1004F0002E0048656174696E6720646F6E652E001A
:1005000020573A0020453A00543A00486561746922
:100510006E672E2E2E002042403A0020403A0020E6
:100520002F003A00205400202F0020423A00202FB4
:10053000006F6B20543A002569206D696E2C2025D0
:10054000692073656300456E642066696C65206C84
:1005500069737400426567696E2066696C65206C1A
:10056000697374004E6F206D6F76652E005265734F
:10057000756D696E67207072696E74005761697479
:1005800020666F7220757365722E2E2E00536C6577
:1005900065702E2E2E00256920686F7572732025D8
:1005A00069206D696E7574657300446F6E652070A7
:1005B00072696E74696E672066696C650053544F8A
:1005C000505045442E20005072696E74657220733D
:1005D000746F707065642064756520746F20657237
:1005E000726F72732E204669782074686520657278
:1005F000726F7220616E6420757365204D393939D0
:1006000020746F20726573746172742E2028546593
:100610006D7065726174757265206973207265739F
:1006200065742E2053657420697420616674657248
:100630002072657374617274696E6729006F6B0054
:100640004E6F204C696E65204E756D626572207725
:1006500069746820636865636B73756D2C204C61E9
:100660007374204C696E653A20004E6F20436865B4
:10067000636B73756D2077697468206C696E652093
:100680006E756D6265722C204C617374204C696EBE
:10069000653A2000636865636B73756D206D6973DF
:1006A0006D617463682C204C617374204C696E65B5
:1006B0003A20004C696E65204E756D626572206946
:1006C00073206E6F74204C617374204C696E6520CA
:1006D0004E756D6265722B312C204C617374204C09
:1006E000696E653A20004D31313000446F6E6520EF
:1006F000736176696E672066696C652E006F6B00AA
:100700004D3239002020506C616E6E657242756604
:1007100066657242797465733A2000204672656599
:10072000204D656D6F72793A20004170722031362C
:10073000203230313500436F6D70696C65643A204A
:100740000028446176696420427261616D2900204D
:100750007C20417574686F723A20004170722031BC
:100760003620323031352031323A33363A313700A3
:10077000204C61737420557064617465643A200084
:10078000312E302E30004D61726C696E0020536F37
:1007900066747761726520526573657400205761D5
:1007A000746368646F6720526573657400204272D9
:1007B0006F776E206F7574205265736574002045E5
:1007C000787465726E616C20526573657400506F49
:1007D0007765725570007374617274002200656EE3
:1007E000717565696E672022002200656E717565FE
:1007F000696E67202200FFFFFF0000A0400000A0FC
:1008000040000000400000524300005243000052EC
:100810004300000000000000000000000000005243
:10082000430000524300005243000000000000005B
:1008300000000000006563686F3A004572726F72D5
:100840003A007C3C3E5E2B3D3F2F5B5D3B2C2A22D9
:100850005C0020746F6F206C6F6E67206578747217
:100860007573696F6E2070726576656E746564006D
:1008700020636F6C6420657874727573696F6E2085
:1008800070726576656E746564006563686F3A00C2
:10089000656E6473746F7073206869743A205A00CF
:1008A000205A3A00656E6473746F707320686974BF
:1008B0003A20590020593A00656E6473746F707362
:1008C000206869743A20580020583A00656E6473B5
:1008D000746F7073206869743A200024F4D4305027
:1008E000C38E20C2A24017828B7011127A910D81A3
:1008F0006CD90AA861E108C7586607615143061E12
:100900004B5D05C145A7041A411104093D980371C7
:100910003931034036DB0265339102D43054028012
:100920002E1D02632CEE01752AC501B028A001100E
:100930002781018F2564012B244B01E0223401AC77
:10094000211F018D200D01801FFC00841EED0097EA
:100950001DDF00B81CD200E61BC600201BBC0064D3
:100960001AB200B219A8000A19A0006A189900D199
:1009700017910040178B00B516840031167E00B326
:100980001579003A157300C7146F0058146A00EE09
:100990001366008813630025135E00C7125B006CAA
:1009A00012570015125400C111510070114F00214F
:1009B000114B00D61049008D10470046104400022C
:1009C000104200C00F4000800F3E00420F3C000666
:1009D0000F3B00CB0E3800930E37005C0E3500271E
:1009E0000E3400F30D3200C10D3100900D30006067
:1009F0000D2E00320D2D00050D2C00D90C2B00AE54
:100A00000C2900850C29005C0C2700350C27000EF2
:100A10000C2600E80B2400C40B2400A00B23007D4F
:100A20000B23005A0B2100390B2100180B2000F872
:100A30000A1F00D90A1E00BB0A1E009D0A1D008065
:100A40000A1D00630A1C00470A1B002C0A1B001128
:100A50000A1A00F7091A00DD091900C4091900ABC8
:100A6000091900920917007B091800630917004C47
:100A700009160036091600200916000A091500F5A6
:100A8000081500E0081400CC081400B8081400A4ED
:100A9000081400900813007D0812006B081300581A
:100AA0000812004608120034081100230811001231
:100AB00008110001081100F0071000E0071000D035
:100AC000071000C0071000B0070F00A10710009129
:100AD000070E0083070F0074070F0065070E00570D
:100AE000070E0049070E003B070D002E070E0020E1
:100AF000070D0013070D0006070D00F9060C00EDA9
:100B0000060D00E0060C00D4060C00C8060C00BC64
:100B1000060C00B0060C00A4060B0099060C008D14
:100B2000060B0082060B0077060B006C060B0061BB
:100B3000060A0057060B004C060A0042060A003857
:100B4000060A002E060A0024060A001A060A0010E9
:100B500006090007060A00FD050900F4050900EB77
:100B6000050900E2050900D9050900D0050900C7FB
:100B7000050900BE050900B5050800AD050800A57A
:100B80000509009C050800940508008C05080084F0
:100B90000508007C050800740508006C0507006561
:100BA0000508005D050700560508004E05070047CB
:100BB0000507004005080038050700310507002A31
:100BC000050700230507001C050600160507000F92
:100BD0000507000805060002050700FB040600F5EE
:100BE000040700EE040600E8040600E2040700DB48
:100BF000040600D5040600CF040600C9040600C39D
:100C0000040600BD040600B7040600B1040500ACEC
:100C1000040600A6040600A00405009B0406009537
:100C2000040500900406008A040500850405008080
:100C30000406007A04050075040500700405006BC5
:100C400004050066040500610405005C0405005706
:100C5000040500520405004D040500480405004346
:100C60000405003E0404003A040500350405003084
:100C70000404002C04050027040400230405001EBE
:100C80000404001A04040016040500110404000DF5
:100C9000040400090405000404040000040400FC2A
:100CA000030400F8030400F4030400F0030400EC60
:100CB000030400E8030400E4030400E0030400DC90
:100CC000030400D8030400D4030400D0030400CCC0
:100CD000030400C8030300C503030024F404D9205F
:100CE0001BC40C5C0E9804C4095F0265077101F413
:100CF00005F900FB04B30048048700C103690058EC
:100D000003550003034500BE023A0084023100533C
:100D1000022A002902250004022000E4011C00C868
:100D2000011900AF0117009801140084011300712C
:100D30000110006101100051010E0043010D003649
:100D4000010B002B010B0020010B00150109000C09
:100D500001090003010800FB000800F3000800EB94
:100D6000000700E4000600DE000600D8000600D2FE
:100D7000000600CC000500C7000500C2000500BD4C
:100D8000000400B9000400B5000400B1000400AD87
:100D9000000400A9000400A5000300A20003009FB6
:100DA0000004009B000300980003009500020093DC
:100DB000000300900003008D0002008B00030088F8
:100DC0000002008600020084000300810002007F10
:100DD0000002007D0002007B000200790002007723
:100DE0000001007600020074000200720001007130
:100DF0000002006F0002006D0001006C0002006A3A
:100E00000001006900020067000100660001006542
:100E10000001006400020062000100610001006046
:100E20000001005F0002005D0001005C0001005B4A
:100E30000001005A0001005900010058000100574C
:100E4000000100560001005500010054000100534C
:100E50000000005300010052000100510001005049
:100E60000001004F0001004E0000004E0001004D47
:100E70000001004C0001004B0000004B0001004A43
:100E8000000100490001004800000048000100473F
:100E9000000100460000004600010045000000453A
:100EA0000001004400010043000000430001004233
:100EB000000000420001004100000041000100402C
:100EC0000001003F0000003F0001003E0000003E26
:100ED0000001003D0000003D0001003C0000003C1E
:100EE0000000003C0001003B0000003B0001003A14
:100EF0000000003A0001003900000039000100380C
:100F00000000003800000038000100370000003702
:100F100000010036000000360000003600010035F8
:100F200000000035000000350001003400000034EE
:100F300000000034000100330000003300000033E3
:100F400000010032000000320000003200010031D8
:100F500000000031000000310001003000000030CE
:100F6000000000300001002F0000002F0000002FC3
:100F70000000002F0001002E0000002E0000002EB7
:100F80000001002D0000002D0000002D0000002DAC
:100F90000001002C0000002C0000002C0000002CA0
:100FA0000001002B0000002B0000002B0000002B94
:100FB0000001002A0000002A0000002A0000002A88
:100FC000000100290000002900000029000000297C
:100FD000000000290001002800000028000000286F
:100FE0000000002800000028000100270000002762
:100FF0000000002700000027000000270001002655
:101000000000002600000026000000260000002648
:10101000000100250000002500000025000000253B
:10102000000000250000002500010024000000242D
:101030000000002400000024000000240001002320
:101040000000002300000023000000230000002314
:101050000000002300000023000100220000002205
:1010600000000022000000220000002200000022F8
:1010700000010021000000210000002100000021EB
:1010800000000021000000210000002100010020DC
:1010900000000020000000200000002000000020D0
:1010A0000000002000000020000000200001001FC0
:1010B0000000001F0000001F0000001F0000001FB4
:1010C0000000001F0000001F0001001E0000001EA5
:1010D0000000001E0000001E0000006563686F3AFB
:1010E000004572723A204D415854454D50204245BA
:1010F000440054656D706572617475726520686531
:1011000061746564206265642073776974636865DF
:1011100064206F66662E204D415854454D50207412
:101120007269676765726564202121004572723AB1
:10113000204D494E54454D50003A20457874727503
:10114000646572207377697463686564206F66668E
:101150002E204D494E54454D502074726967676585
:101160007265642021004572723A204D4158544501
:101170004D50003A2045787472756465722073771B
:10118000697463686564206F66662E204D4158540B
:10119000454D50207472696767657265642021004F
:1011A00048656174696E67206661696C65640020DA
:1011B0002D20496E76616C6964206578747275645F
:1011C0006572206E756D6265722021005049442061
:1011D0004175746F74756E652066696E69736865B4
:1011E00064212050757420746865206C61737420CC
:1011F0004B702C204B6920616E64204B6420636F20
:101200006E7374616E74732066726F6D2061626FAD
:10121000766520696E746F20436F6E6669677572BC
:101220006174696F6E2E6800504944204175746F77
:1012300074756E65206661696C6564212074696DE2
:10124000656F75740020403A006F6B20543A006F50
:101250006B20423A00504944204175746F74756E9A
:1012600065206661696C6564212054656D706572E6
:10127000617475726520746F6F20686967680020FB
:101280004B643A2000204B693A2000204B703A20F2
:101290000020436C6173736963205049442000202F
:1012A00054753A2000204B753A2000206D61783A41
:1012B0002000206D696E3A200020643A20002062F0
:1012C0006961733A20006563686F3A004572726F16
:1012D000723A0000000000300E0100C00E0A0050FB
:1012E0000F1400D00F1E0060102800E010320070B4
:1012F000113C00F01146007012500000135A00809B
:1013000013640000146E0090147800101582009091
:10131000158C00101696009016A0001017AA0090C9
:1013200017B4001018BE009018C8001019D2009011
:1013300019DC00101AE600801AF000001BFA008089
:101340001B0401F01B0E01701C1801F01C2201602F
:101350001D2C01E01D3601501E4001D01E4A0140E7
:101360001F5401B01F5E0130206801A020720110DF
:10137000217C0190218601002290016026F40190D9
:101380002A5802802EBC0250322003E035840350DC
:1013900039E803803C4C044D383420582059205AF9
:1013A00020450043616E6E6F7420656E7465722017
:1013B0007375626469723A20004D3234004D3233E5
:1013C000202573006175746F25692E670065727240
:1013D0006F722077726974696E6720746F20666916
:1013E0006C65004E6F74205344207072696E74698E
:1013F0006E67002F005344207072696E74696E67C7
:10140000206279746520002E0044656C6574696FF4
:101410006E206661696C65642C2046696C653A20B3
:101420000046696C652064656C657465643A002EDD
:10143000006F70656E206661696C65642C2046697A
:101440006C653A200057726974696E6720746F206A
:1014500066696C653A20002E006F70656E206661CB
:10146000696C65642C2046696C653A20002E006F1B
:1014700070656E206661696C65642C2046696C65D8
:101480003A200046696C652073656C656374656419
:10149000002053697A653A200046696C65206F70B8
:1014A000656E65643A20002E006F70656E2066617F
:1014B000696C65642C2046696C653A20004E6F7734
:1014C0002066726573682066696C653A20004E6F0D
:1014D0007720646F696E672066696C653A20002228
:1014E00020706F73002220706172656E743A220062
:1014F000535542524F5554494E452043414C4C2080
:101500007461726765743A2200747279696E67203B
:10151000746F2063616C6C207375622D67636F64F8
:10152000652066696C6573207769746820746F6FD5
:10153000206D616E79206C6576656C732E204D414F
:1015400058206C6576656C2069733A0053442063BB
:10155000617264206F6B006F70656E526F6F7420E4
:101560006661696C656400766F6C756D652E696E79
:101570006974206661696C656400534420696E6912
:1015800074206661696C006563686F3A0045727229
:101590006F723A0048617264636F646564204465E9
:1015A0006661756C742053657474696E6773204C42
:1015B0006F616465640053746F7265642073657451
:1015C00074696E677320726574726965766564000C
:1015D0002044002049002020204D3330312050008D
:1015E0005049442073657474696E67733A00205AD9
:1015F0000020590020204D323036205800486F6DB1
:1016000065206F666673657420286D6D293A002029
:101610004500205A0020580020420020540020207D
:101620004D323035205300416476616E636564202D
:101630007661726961626C65733A20533D4D696EE3
:1016400020666565647261746520286D6D2F73294D
:101650002C20543D4D696E2074726176656C206655
:101660006565647261746520286D6D2F73292C2067
:10167000423D6D696E696D756D207365676D656E50
:10168000742074696D6520286D73292C20583D6D78
:101690006178696D756D205859206A65726B2028D4
:1016A0006D6D2F73292C20205A3D6D6178696D7501
:1016B0006D205A206A65726B20286D6D2F73292C5E
:1016C0002020453D6D6178696D756D2045206A6506
:1016D000726B20286D6D2F73290020540020204D3F
:1016E000323034205300416363656C657261746904
:1016F0006F6E3A20533D616363656C657261746916
:101700006F6E2C20543D7265747261637420616346
:1017100063656C65726174696F6E00204500205AC4
:101720000020590020204D3230312058004D617882
:10173000696D756D20416363656C65726174696F75
:101740006E20286D6D2F7332293A00204500205AF3
:101750000020590020204D3230332058004D617850
:10176000696D756D206665656472617465732028A6
:101770006D6D2F73293A00204500205A0020590032
:1017800020204D39322058005374657073207065E5
:101790007220756E69743A0053657474696E67736C
:1017A0002053746F726564006563686F3A0002438A
:1017B0006172642072656D6F766564004361726466
:1017C00020696E736572746564002D2D3A2D2D00AD
:1017D0002D2D2D0053440001200001200001200088
:1017E0004D363030004368616E67652066696C6114
:1017F0006D656E7400466C6F77203100466C6F77B4
:10180000203100466C6F77203000466C6F772030B7
:101810000046616E2073706565640046616E2073DA
:10182000706565640042656400426564004E6F7ACD
:101830007A6C6532004E6F7A7A6C6532004E6F7A40
:101840007A6C65004E6F7A7A6C65005370656564DA
:10185000005370656564004D61696E004D38342039
:10186000583020593000473238005A0050726568AD
:1018700065617420504C4120426564005072656877
:1018800065617420504C4120416C6C005072656859
:1018900065617420504C412032005072656865616A
:1018A0007420504C412031005072657061726500A7
:1018B000507265686561742041425320426564003E
:1018C000507265686561742041425320416C6C0020
:1018D0005072656865617420414253203200507235
:1018E0006568656174204142532031005072657013
:1018F00061726500580059005A0045787472756429
:101900006572004578747275646572004D6F766516
:10191000205A004D6F76652059004D6F766520582E
:10192000004D6F76652061786973004D6F76652094
:10193000302E316D6D004D6F766520316D6D004D2F
:101940006F76652031306D6D005072657061726523
:10195000004D6F7665206178697300436F6F6C642A
:101960006F776E0050726568656174204142530064
:101970005072656865617420504C41004D6F76650A
:10198000205A004175746F20686F6D65004D3834C2
:101990000044697361626C65207374657070657270
:1019A00073004D61696E0053746F7265206D656DD3
:1019B0006F72790042656400426564004E6F7A7A06
:1019C0006C65004E6F7A7A6C650046616E207370AC
:1019D0006565640046616E207370656564005465DA
:1019E0006D70657261747572650053746F726520F5
:1019F0006D656D6F72790042656400426564004EEA
:101A00006F7A7A6C65004E6F7A7A6C650046616E0B
:101A10002073706565640046616E2073706565644F
:101A20000054656D70657261747572650050726501
:101A3000686561742041425320636F6E6600507286
:101A4000656865617420504C4120636F6E6600507C
:101A500049442D43005049442D43005049442D44EE
:101A6000005049442D44005049442D4900504944F8
:101A70002D49005049442D50005049442D500046F6
:101A8000616E2073706565640046616E20737065D9
:101A900065640042656400426564004E6F7A7A6C4A
:101AA0006532004E6F7A7A6C6532004E6F7A7A6CCE
:101AB00065004E6F7A7A6C6500436F6E74726F6C5E
:101AC000004573746570732F6D6D00457374657098
:101AD000732F6D6D005A73746570732F6D6D005A9E
:101AE00073746570732F6D6D005973746570732F07
:101AF0006D6D005973746570732F6D6D005873743C
:101B00006570732F6D6D005873746570732F6D6DF4
:101B100000412D7265747261637400412D726574A9
:101B20007261637400416D6178206500416D617878
:101B3000206500416D6178207A00416D6178207ADE
:101B400000416D6178207900416D61782079004114
:101B50006D6178207800416D61782078005654726C
:101B60006176206D696E005654726176206D696EE3
:101B700000566D696E00566D696E00566D61782075
:101B80006500566D6178206500566D6178207A0099
:101B9000566D6178207A00566D6178207900566D17
:101BA0006178207900566D6178207800566D6178F3
:101BB00020780056652D6A65726B0056652D6A6542
:101BC000726B00567A2D6A65726B00567A2D6A65C3
:101BD000726B005678792D6A65726B005678792D94
:101BE0006A65726B00416363656C00416363656C99
:101BF00000436F6E74726F6C00417072203136203A
:101C0000323031352031323A33363A3231003235E2
:101C1000303030305F6475616C00556C74696D6193
:101C20006B65722B3A31352E3034004669726D7710
:101C30006172652076657273696F6E004669726DB8
:101C4000776172652076657273696F6E0052657395
:101C5000746F7265206661696C73616665004C6FB4
:101C60006164206D656D6F72790053746F726520C9
:101C70006D656D6F7279004D6F74696F6E0054659C
:101C80006D7065726174757265004D61696E004DAD
:101C9000383420582059205A2045004D3234004D08
:101CA000323320257300052E2E004D61696E004EE3
:101CB0006F2053442063617264005072696E742017
:101CC00066726F6D2053440053746F702070726998
:101CD0006E7400526573756D65207072696E740064
:101CE0005061757365207072696E7400436F6E7415
:101CF000726F6C00507265706172650054756E652C
:101D000000496E666F2073637265656E004E414ECA
:101D1000494E495459494E46CDCCCC3D0AD7233C77
:101D200017B7D13877CC2B329595E6241FB14F0ADF
:101D3000000020410000C84200401C4620BCBE4CB0
:101D4000CA1B0E5AAEC59D740C945F880C942EA0CD
:101D50000C9467200C9402110C9453710C94CA10CB
:101D60000C94F2B60C942F110C94829C0C94577125
:101D70000C94CAB30C941DA50C94E4100C94EE10B2
:101D80000C94D4100C9439110C9412960C94931357
:101D90000C949B110C94348A0C9443110C94721182
:101DA0000C945E8F0C9452200C94B6100C948811F5
:101DB0000C9410710C9461B40C94D68B0C94589EB6
:101DC0000C9484110C94188A0C9470B10C946811C2
:101DD0000C9447200C943C200C948E110C94A7B5C5
:101DE0000C94E2450C94908C0C94E5700C94611169
:101DF0000C9439710C942F5C0C9457110C94D67080
:101E00000C9480110C944AB60C9445B00C94F810C4
:101E10000C94AAB70C94268A0C94C28B0C94E7AB52
:101E20000C9496110C9461380C94CCB20C9404B5BB
:101E30000C94F9860C946C110C941EB20C940171E4
:101E40000C945B110C94C2B00C94BB100C946538CC
:101E50000C94D7970C9464110C94DC100C947611AC
:101E60000C945D200C947A110C94F8910C949211BE
:101E70000C942A710C94F8AF0C941B110C94C010A4
:101E80000C944D940C9425110C94D7B70C9411110B
:101E90000C944AB30C945F710C945ABC6138F8AF3F
:101EA000653811241FBECFEFD1E2DEBFCDBF00E009
:101EB0000CBF14E0A0E0B2E0E4ECFFE801E00BBFEF
:101EC00002C007900D92AA3BB107D9F712E1AAEB25
:101ED000B4E001C01D92A23AB107E1F71EE1C0EAE9
:101EE000DEE100E006C022970109FE010BBF0E945F
:101EF0008AC1CC39D10780E00807A9F70E9460BCED
:101F00000C94D0C70C9400001F920F920FB60F9242
:101F100011242F933F938F939F93AF93BF938091FF
:101F2000BB049091BC04A091BD04B091BE0430915B
:101F3000BA0423E0230F2D3720F40196A11DB11D13
:101F400005C026E8230F0296A11DB11D2093BA04F7
:101F50008093BB049093BC04A093BD04B093BE04D3
:101F60008091BF049091C004A091C104B091C204BB
:101F70000196A11DB11D8093BF049093C004A0934E
:101F8000C104B093C204BF91AF919F918F913F91D3
:101F90002F910F900FBE0F901F9018952FB7F894A8
:101FA0006091BB047091BC048091BD049091BE040B
:101FB0002FBF08953FB7F8948091BF049091C0045B
:101FC000A091C104B091C20426B5A89B05C02F3FC3
:101FD00019F00196A11DB11D3FBF6627782F892FEB
:101FE0009A2F620F711D811D911D42E0660F771FB0
:101FF000881F991F4A95D1F70895CF92DF92EF92EB
:10200000FF92CF93DF936B017C010E94DA0FEB010B
:10201000C114D104E104F10479F00E94DA0F6C1BC1
:102020007D0B683E7340A0F381E0C81AD108E10837
:10203000F108C851DC4FECCFDF91CF91FF90EF90CA
:10204000DF90CF9008950197009739F0880F991F7E
:10205000880F991F02970197F1F70895789484B536
:10206000826084BD84B5816084BD85B5826085BD94
:1020700085B5816085BDEEE6F0E08081816080837A
:10208000E1E8F0E01082808182608083808181605D
:102090008083E0E8F0E0808181608083E1EBF0E024
:1020A000808184608083E0EBF0E0808181608083C8
:1020B000E1E9F0E0808182608083808181608083BB
:1020C000E0E9F0E0808181608083E1EAF0E08081F6
:1020D00082608083808181608083E0EAF0E080819B
:1020E00081608083E1E2F1E0808182608083808191
:1020F00081608083E0E2F1E0808181608083EAE7B3
:10210000F0E0808184608083808182608083808130
:10211000816080838081806880831092C1000895EF
:102120001F93CF93DF93182FEB0161E00E949C1166
:10213000209711F460E004C0CF3FD10539F461E08D
:10214000812FDF91CF911F910C94D511E12FF0E0F9
:10215000E356FE4F449150E0FA013197E131F10529
:1021600008F091C0EE58FF4F0C9475C184B580689B
:1021700084BDC7BD8DC084B5806284BDC8BD88C024
:1021800080918000806880938000D0938900C09304
:1021900088007EC080918000806280938000D09310
:1021A0008B00C0938A0074C08091B00080688093D7
:1021B000B000C093B3006CC08091B0008062809387
:1021C000B000C093B40064C0809190008068809398
:1021D0009000D0939900C09398005AC080919000CD
:1021E000806280939000D0939B00C0939A0050C06F
:1021F00080919000886080939000D0939D00C09360
:102200009C0046C08091A00080688093A0008091CF
:10221000A0008F7B8093A000D093A900C093A8005A
:1022200037C08091A00080628093A000D093AB0063
:10223000C093AA002DC08091A00088608093A00068
:10224000D093AD00C093AC0023C080912001806882
:1022500080932001D0932901C093280119C0809157
:102260002001806280932001D0932B01C0932A012A
:102270000FC080912001886080932001D0932D01B0
:10228000C0932C0105C0C038D1050CF058CF52CFF7
:10229000DF91CF911F91089590E0FC013197E131DA
:1022A000F10508F048C0ED57FF4F0C9475C18091BF
:1022B00080008F7703C0809180008F7D80938000A5
:1022C000089584B58F7702C084B58F7D84BD08954D
:1022D0008091B0008F7703C08091B0008F7D809394
:1022E000B0000895809190008F7707C08091900092
:1022F0008F7D03C080919000877F80939000089528
:102300008091A0008F7707C08091A0008F7D03C0CF
:102310008091A000877F8093A00008958091200184
:102320008F7707C0809120018F7D03C080912001AD
:10233000877F809320010895CF93DF9390E0FC0185
:10234000ED51FE4F2491FC01E75DFD4F8491882300
:1023500049F190E0880F991FFC01E757FD4FA591C7
:10236000B49181599D4FFC01C591D4919FB76111E2
:1023700008C0F8948C91209582238C9388818223C5
:102380000AC0623051F4F8948C91322F3095832337
:102390008C938881822B888304C0F8948C91822B43
:1023A0008C939FBFDF91CF9108950F931F93CF938D
:1023B000DF931F92CDB7DEB7282F30E0F901E35647
:1023C000FE4F8491F901ED51FE4F1491F901E75D43
:1023D000FD4F04910023C9F0882321F069830E94F6
:1023E0004C116981E02FF0E0EE0FFF1FE159FD4F26
:1023F000A591B4919FB7F8948C91611103C0109589
:10240000812301C0812B8C939FBF0F90DF91CF91CF
:102410001F910F9108951F920F920FB60F921124E2
:102420000BB60F922F933F934F935F936F937F93CE
:102430008F939F93AF93BF93EF93FF938091C704C4
:102440009091C804892B29F0E091C704F091C80449
:102450001995FF91EF91BF91AF919F918F917F91CE
:102460006F915F914F913F912F910F900BBE0F9005
:102470000FBE0F901F9018951F920F920FB60F92DC
:1024800011240BB60F922F933F934F935F936F934B
:102490007F938F939F93AF93BF93EF93FF9380911D
:1024A000C9049091CA04892B29F0E091C904F091E4
:1024B000CA041995FF91EF91BF91AF919F918F91B0
:1024C0007F916F915F914F913F912F910F900BBE34
:1024D0000F900FBE0F901F9018951F920F920FB67E
:1024E0000F9211240BB60F922F933F934F935F934C
:1024F0006F937F938F939F93AF93BF93EF93FF93CC
:102500008091CB049091CC04892B29F0E091CB04ED
:10251000F091CC041995FF91EF91BF91AF919F91EC
:102520008F917F916F915F914F913F912F910F907C
:102530000BBE0F900FBE0F901F9018951F920F9219
:102540000FB60F9211240BB60F922F933F934F9318
:102550005F936F937F938F939F93AF93BF93EF930B
:10256000FF938091CD049091CE04892B29F0E091C6
:10257000CD04F091CE041995FF91EF91BF91AF91E9
:102580009F918F917F916F915F914F913F912F918B
:102590000F900BBE0F900FBE0F901F9018951F92BB
:1025A0000F920FB60F9211240BB60F922F933F93F9
:1025B0004F935F936F937F938F939F93AF93BF934B
:1025C000EF93FF938091C3049091C404892B29F069
:1025D000E091C304F091C4041995FF91EF91BF916C
:1025E000AF919F918F917F916F915F914F913F91AB
:1025F0002F910F900BBE0F900FBE0F901F9018954C
:102600001F920F920FB60F9211240BB60F922F93B9
:102610003F934F935F936F937F938F939F93AF936A
:10262000BF93EF93FF938091C5049091C604892BCB
:1026300029F0E091C504F091C6041995FF91EF913E
:10264000BF91AF919F918F917F916F915F914F91CA
:102650003F912F910F900BBE0F900FBE0F901F90C8
:1026600018951F920F920FB60F9211240BB60F926E
:102670002F933F934F935F936F937F938F939F938A
:10268000AF93BF93EF93FF938091CF049091D004C9
:10269000892B29F0E091CF04F091D0041995FF9196
:1026A000EF91BF91AF919F918F917F916F915F91CA
:1026B0004F913F912F910F900BBE0F900FBE0F9037
:1026C0001F9018951F920F920FB60F9211240BB600
:1026D0000F922F933F934F935F936F937F938F93BB
:1026E0009F93AF93BF93EF93FF938091D104909109
:1026F000D204892B29F0E091D104F091D2041995EC
:10270000FF91EF91BF91AF919F918F917F916F91C9
:102710005F914F913F912F910F900BBE0F900FBE85
:102720000F901F901895CF92DF92EF92FF920F9328
:102730001F93CF93DF936C017A01EB01E60EF71E36
:1027400000E010E0CE15DF0561F06991D601ED9152
:10275000FC910190F081E02DC6011995080F191F19
:10276000F1CFC801DF91CF911F910F91FF90EF90B2
:10277000DF90CF9008956115710581F0DB010D9018
:102780000020E9F7AD0141505109461B570BDC0110
:10279000ED91FC910280F381E02D199480E090E0AE
:1027A00008950C94BB13DC01ED91FC910190F08134
:1027B000E02D1994FC01659175918591949108958E
:1027C000CF92DF92EF92FF920F931F93CF93DF93FD
:1027D000EC01CC0FDD1FCC0FDD1FCE018F5E974FBC
:1027E0000E94DA13FE01E253F94FC080D180E280EB
:1027F000F3808E010652194FA70196010E946EBC0C
:10280000F8016083718382839383CE01875D974F44
:102810000E94DA138E010E53194FA70196010E94F0
:102820006EBCF8016083718382839383CE01835EE3
:10283000974F0E94DA13CB5EDD4FA70196010E94ED
:102840006EBC688379838A839B83DF91CF911F91CC
:102850000F91FF90EF90DF90CF9008952F923F92CD
:102860004F925F926F927F928F929F92AF92BF92A0
:10287000CF92DF92EF92FF920F931F93CF93DF934C
:1028800000D000D0CDB7DEB79A838983FC01EA502F
:10289000F84F94905C01AA0CBB1CAA0CBB1CC50190
:1028A0008652994F1C01DC011D921D921D921C92B3
:1028B000139726EE36E042EE56E06EED76E08AEDB6
:1028C00096E00E945D5BC5018B5F974F0E94DA1313
:1028D0006B017C01692D772767FD7095872F972FF6
:1028E0000E94E9BD2B013C01F501E856F94FFC833C
:1028F000EB8320E030E040EC5FE3C701B6010E94CB
:102900001CC0A30192010E941CC0AB81BC816D93CD
:102910007D938D939C931397F501EF5CFD4FFE83A0
:10292000ED83608171818281938160930F02709346
:102930001002809311029093120220E030E040E7F1
:1029400052E40E944EBD2AEAC22E26E0D22E7B011E
:102950008C0124EA36E040EA56E06CE976E088E94A
:1029600096E00E94B3510E94C863D1011D921D924E
:102970001D921C92139726EE36E042EE56E06EED65
:1029800076E08AED96E00E945D5BC5018750984F26
:102990000E94DA134B015C019058A30192010E943E
:1029A0001CC0EB81FC81608371838283938320E070
:1029B00030E040E752E460910F0270911002809184
:1029C0001102909112020E944EBD7B018C0124EAFB
:1029D00036E040EA56E06CE976E088E996E00E944D
:1029E000B3510E94C863A5019401C501B4010E94BE
:1029F0006EBCA30192010E941CC0AB81BC816D938F
:102A00007D938D939C93139720E030E040E05FE34B
:102A1000ED81FE8160817181828193810E941CC061
:102A200060930F0270931002809311029093120230
:102A300020E030E040E752E40E944EBD7B018C0173
:102A400024EA36E040EA56E06CE976E088E996E070
:102A50000E94B3510E94C86389819A810E94E01349
:102A6000F10180819181A281B381EB81FC8180831E
:102A70009183A283B38310920F02109210021092DE
:102A80001102109212020E94125DE981FA81E15452
:102A9000F94F81E0808326960FB6F894DEBF0FBE13
:102AA000CDBFDF91CF911F910F91FF90EF90DF90FD
:102AB000CF90BF90AF909F908F907F906F905F90DE
:102AC0004F903F902F900895FC012491222341F0D4
:102AD0003091C00035FFFCCF2093C6000196F4CFA3
:102AE00022E030E08DE799E00C949A3AFC012491C1
:102AF000222341F03091C00035FFFCCF2093C60067
:102B00000196F4CF2AE030E08DE799E00C94E939A2
:102B1000CF93DF931F921F92CDB7DEB780919C12A7
:102B200090919D129E012F5F3F4F009719F4225AFA
:102B3000324102C0281B390B3A83298389819A814B
:102B40000F900F90DF91CF9108952091ED04309177
:102B5000EE04243031050CF06AC04091EF0450912E
:102B6000F00460E6649F9001659F300D1124BC0164
:102B7000C90189509B4F0E94C3C4E5E3F8E08491EA
:102B8000882341F09091C00095FFFCCF8093C60050
:102B90003196F5CFEBEEF7E08491882341F09091E8
:102BA000C00095FFFCCF8093C6003196F5CF809191
:102BB000EF049091F00420E6289FF001299FF00D8A
:102BC0001124E950FB4F8191882339F09091C00086
:102BD00095FFFCCF8093C600F6CFE9EEF7E0849135
:102BE000882341F09091C00095FFFCCF8093C600F0
:102BF0003196F5CF8091C00085FFFCCF8AE08093AD
:102C0000C6008091EF049091F004019664E070E0BA
:102C10000E9420C19093F0048093EF048091ED0412
:102C20009091EE0401969093EE048093ED04089544
:102C30002091ED043091EE04243031050CF06AC08F
:102C40004091EF045091F00460E6649F9001659F0D
:102C5000300D1124BC01C90189509B4F0E944FC403
:102C6000E5E3F8E08491882341F09091C00095FF5E
:102C7000FCCF8093C6003196F5CFEEEDF7E084915E
:102C8000882341F09091C00095FFFCCF8093C6004F
:102C90003196F5CF8091EF049091F00420E6289FC3
:102CA000F001299FF00D1124E950FB4F81918823F9
:102CB00039F09091C00095FFFCCF8093C600F6CF0D
:102CC000ECEDF7E08491882341F09091C00095FFEE
:102CD000FCCF8093C6003196F5CF8091C00085FF70
:102CE000FCCF8AE08093C6008091EF049091F004BD
:102CF000019664E070E00E9420C19093F0048093FC
:102D0000EF048091ED049091EE0401969093EE040F
:102D10008093ED04089540E950ED63E070E08DE7A5
:102D200099E00E94A238E6EDF7E08491882341F013
:102D30009091C00095FFFCCF8093C6003196F5CFEF
:102D40008091C00085FFFCCF8AE08093C60085E3B8
:102D500098E0FC012491222341F03091C00035FF1E
:102D6000FCCF2093C6003196F5CF24B720FF14C0C6
:102D7000EEECF7E03491332341F04091C00045FF81
:102D8000FCCF3093C6003196F5CF3091C00035FFAF
:102D9000FCCF3AE03093C60021FF14C0EEEBF7E021
:102DA0003491332341F04091C00045FFFCCF309374
:102DB000C6003196F5CF3091C00035FFFCCF3AE028
:102DC0003093C60022FF14C0EDEAF7E034913323BC
:102DD00041F04091C00045FFFCCF3093C6003196D2
:102DE000F5CF3091C00035FFFCCF3AE03093C600FC
:102DF00023FF14C0EDE9F7E03491332341F0409113
:102E0000C00045FFFCCF3093C6003196F5CF30911E
:102E1000C00035FFFCCF3AE03093C60025FF14C058
:102E2000EDE8F7E02491222341F03091C00035FF16
:102E3000FCCF2093C6003196F5CF2091C00025FF2E
:102E4000FCCF2AE02093C60014BEE6E8F7E0249108
:102E5000222341F03091C00035FFFCCF2093C60003
:102E60003196F5CFE0E8F7E02491222341F030914C
:102E7000C00035FFFCCF2093C6003196F5CF2091DE
:102E8000C00025FFFCCF2AE02093C600FC0124915E
:102E9000E5E3F8E0222349F03091C00035FFFCCF94
:102EA0002093C60031962491F5CFE0E7F7E0249116
:102EB000222341F03091C00035FFFCCF2093C600A3
:102EC0003196F5CFEBE5F7E02491222341F03091E4
:102ED000C00035FFFCCF2093C6003196F5CFEFE45C
:102EE000F7E02491222341F03091C00035FFFCCF60
:102EF0002093C6003196F5CFE1E4F7E02491222338
:102F000041F03091C00035FFFCCF2093C6003196D0
:102F1000F5CF2091C00025FFFCCF2AE02093C6000A
:102F2000E6E3F7E02491222341F03091C00035FF21
:102F3000FCCF2093C6003196F5CFEAE2F7E024916A
:102F4000222341F03091C00035FFFCCF2093C60012
:102F50003196F5CF2091C00025FFFCCF2AE02093C9
:102F6000C600FC018491E5E3F8E0882349F09091E4
:102F7000C00095FFFCCF8093C60031968491F5CFB9
:102F8000EBE1F7E08491882341F09091C00095FF38
:102F9000FCCF8093C6003196F5CF0E9488154AE099
:102FA00050E0BC018DE799E00E94BA39E4E0F7E017
:102FB0008491882341F09091C00095FFFCCF8093CD
:102FC000C6003196F5CF4AE050E060ED74E08DE741
:102FD00099E00E94BA398091C00085FFFCCF8AE059
:102FE0008093C6001092F3041092F4041092F5043A
:102FF0001092F6040E9446830E94FE690E9463516B
:103000000E9445840E94CB640E94779AFFEF23EDD3
:1030100080E3F15020408040E1F700C000000895B7
:103020008091E7049091E80460E070E001960C94D0
:103030008EC18091E7049091E8044AE050E060E09E
:1030400070E001960C940BC3682F70E02091F1049E
:103050003091F20440E6429FC001439F900D11243D
:1030600089509B4F0E94B8C49093E8048093E70472
:1030700021E0892B09F420E0822F08950E94CE0FD1
:103080006093E3047093E4048093E5049093E60472
:1030900008950E94CE0F6093E3047093E40480933C
:1030A000E5049093E604E091F104F091F204ED5010
:1030B000FB4F8081811114C0EBE4F3E084918823FD
:1030C00041F09091C00095FFFCCF8093C6003196EF
:1030D000F5CF8091C00085FFFCCF8AE08093C600C9
:1030E00008958DE799E00E94F438EEE4F3E08491CE
:1030F000882341F09091C00095FFFCCF8093C600DB
:103100003196F5CF40917C0650917D0660917E0608
:1031100070917F064F5F5F4F6F4F7F4F2AE030E027
:103120008DE799E00E9493398091C00085FFFCCF24
:103130008AE08093C6000C9449182F923F924F92D8
:103140005F926F927F928F929F92AF92BF92CF9237
:10315000DF92EF92FF920F931F93CF93DF93CDB740
:10316000DEB76F970FB6F894DEBF0FBECDBF60E637
:10317000D62E74E0E72EF12CE7ECF5E0B490EAE00F
:10318000CE2EEDE3F6E0A490992493948091FE096D
:103190009091FF092091000A3091010A821B930B44
:1031A0008F779927892B39F08091ED049091EE0467
:1031B00004970CF44DC08091F206882309F48CC367
:1031C0008091EA049091EB04892B09F085C38091EA
:1031D000ED049091EE04892B11F41092D304EAEAE5
:1031E000F5E024904CE3C42ED12CE12CF12C50E1DD
:1031F000452E5EE0552E612C712C8E010F5F1F4F06
:1032000030E6332EE5E3F8E094919F8F4091730907
:1032100050917409609175097091760980916B09DC
:1032200090916C09A0916D09B0916E0948175907EA
:103230006A077B0708F050C38091ED049091EE047B
:1032400004970CF049C38091D304811145C321C276
:103250008DE799E00E94D8388093EC042091EA042D
:103260003091EB048A3061F08D3051F08A3321F4D3
:103270009091E904992321F02F3531050CF48DC18B
:103280002115310509F4A7C18091EF049091F00454
:10329000D89E8001D99E100D1124F801E20FF31F72
:1032A000E950FB4F10822091E904211171C1109265
:1032B000E904FC01ED50FB4F1082980129503B4F6F
:1032C00039016EE470E0C9010E94B8C4009709F4A6
:1032D000A2C09093E8048093E70486199709800FB1
:1032E000911F4AE050E060E070E088509B4F0E94E0
:1032F0000BC360938006709381068093820690933F
:10330000830640907C0650907D0660907E0670900B
:103310007F063FEF431A530A630A730A0091EF04D2
:103320001091F004641575058605970509F456C1DA
:10333000D09EC001D19E900D112466EE76E089509A
:103340009B4F0E947DC4892B09F048C1EBE3F8E054
:103350008491882341F09091C00095FFFCCF809329
:10336000C6003196F5CFE3EBF6E08491882341F077
:103370009091C00095FFFCCF8093C6003196F5CFA9
:1033800040917C0650917D0660917E0670917F068B
:103390002AE030E08DE799E00E9493398091C000E7
:1033A00085FFFCCF32C09093E8048093E704841932
:1033B0009509860D971D60E070E088509B4F0E9434
:1033C0008EC10E94B6BD212F30E02617370709F4C1
:1033D0005EC0EBE3F8E0849181114BC1E4E9F6E0D3
:1033E000849181114EC140917C0650917D0660917F
:1033F0007E0670917F062AE030E08DE799E00E941A
:1034000093398091C00085FFFCCF8AE08093C6008D
:103410000E94711837C06AE270E0C3010E94B8C40C
:10342000892B09F444C0EBE3F8E08491882341F050
:103430009091C00095FFFCCF8093C6003196F5CFE8
:10344000E0E4F6E08491882341F09091C00095FF7C
:10345000FCCF8093C6003196F5CF40917C06509109
:103460007D0660917E0670917F062AE030E08DE750
:1034700099E00E9493398091C00085FFFCCF8AE0DB
:103480008093C6001092EB041092EA0425C280914A
:10349000800690918106A0918206B0918306809368
:1034A0007C0690937D06A0937E06B0937F06809164
:1034B000EF049091F004D89E8001D99E100D112444
:1034C000C80189509B4F3C0167E470E00E94B8C47A
:1034D000009709F448C09093E8048093E7048619A4
:1034E0009709800F911F60E070E088509B4F0E9409
:1034F0008EC10E94B6BD64307105A8F58091D504D7
:10350000811119C08091F00681112DC08A2DEDE343
:10351000F6E0882349F09091C00095FFFCCF80939E
:10352000C60031968491F5CF8091C00085FFFCCF15
:10353000C092C60018C08B2DE7ECF5E0882349F057
:103540009091C00095FFFCCF8093C6003196849186
:10355000F5CF8091C00085FFFCCFC092C6008DEBF7
:1035600095E00E94069A8091EF049091F0040196F4
:10357000B7010E9420C19093F0048093EF048091E2
:10358000ED049091EE0401969093EE048093ED0487
:103590001092EB041092EA04F9CD8B3311F490925F
:1035A000E9049091E9049111F1CD4091EF0450911B
:1035B000F004B9016F5F7F4F7093EB046093EA04EE
:1035C000D49EF001D59EF00D1124E20FF31FE950B7
:1035D000FB4F8083DBCD1092E9047EC1D09E300189
:1035E000D19E700C1124930129503B4F29016AE2AE
:1035F00070E0C9010E94B8C4009769F5EBE3F8E0F8
:103600008491882341F09091C00095FFFCCF809376
:10361000C6003196F5CFEAE6F6E08491882341F0C2
:103620009091C00095FFFCCF8093C6003196F5CFF6
:1036300040917C0650917D0660917E0670917F06D8
:103640002AE030E08DE799E00E9493398091C00034
:1036500085FFFCCFDACE20E010E0F301E20FF11D90
:10366000E950FB4F30813A3209F49DCE2F5F13278A
:10367000F4CF9091C00095FFFCCF8093C6003196A7
:10368000AACE9091C00095FFFCCF8093C6003196E2
:10369000A7CE8091C6089091C708A091C808B091A4
:1036A000C9088093730990937409A0937509B09326
:1036B00076098EEB98E00E948A3F482F8093EC04B5
:1036C0008A30B9F04D30A9F0433229F42091E90451
:1036D000222379F002C04A33C9F32091EA043091E1
:1036E000EB042F3531052CF48F3FAFEF9A0709F02B
:1036F000D4C040917309509174096091750970911B
:10370000760980916B0990916C09A0916D09B09137
:103710006E09481759076A077B0708F482C0822D93
:10372000EAEAF5E0882349F09091C00095FFFCCFCC
:103730008093C60031968491F5CF8091C00085FFBB
:10374000FCCF8AE08093C6000E94CE0F6093D7041E
:103750007093D8048093D9049093DA048090DB04AA
:103760009090DC04A090DD04B090DE046819790923
:103770008A099B0928EE33E040E050E00E9434C102
:1037800049015A01CA01B901A70196010E9434C139
:10379000CA01B901A70196010E9434C17F936F93BA
:1037A000C501B401A30192010E9434C13F932F933C
:1037B000A6E9B5E0BF93AF931F930F930E94E7C4B0
:1037C0008F8D0FB6F894DEBF0FBECDBFE5E3F8E0F6
:1037D000882349F09091C00095FFFCCF8093C600EC
:1037E00031968491F5CFF8018191882339F0909139
:1037F000C00095FFFCCF8093C600F6CF8091C0003B
:1038000085FFFCCF8AE08093C600C8010E94F7992B
:1038100080EF96E00E94647D61E080EF96E00E9478
:10382000C77A8091EC04833219F481E08093D30449
:103830002091EA043091EB042115310509F4CBCE37
:103840008091EF049091F004389EF001399EF00DC4
:103850001124E20FF31FE950FB4F1082FC01ED50E1
:10386000FB4F21E020832091ED043091EE042F5F87
:103870003F4F3093EE042093ED04019664E070E036
:103880000E9420C19093F0048093EF041092E90409
:103890001092EB041092EA04B9CC4B3319F441E0D6
:1038A0004093E9044091E9044111AACC4091EF040E
:1038B0005091F004B9016F5F7F4F7093EB046093F8
:1038C000EA04349EF001359EF00D1124E20FF31F3F
:1038D000E950FB4F80839ACC6F960FB6F894DEBF09
:1038E0000FBECDBFDF91CF911F910F91FF90EF9051
:1038F000DF90CF90BF90AF909F908F907F906F9010
:103900005F904F903F902F9008958F929F92AF922B
:10391000BF92CF92DF92EF92FF920F931F93CF93BC
:10392000DF93FBE2EF2EF4E0FF2E0AED16E0C8E98C
:10393000D6E0ACEECA2EA6E0DA2EF70181917F0127
:103940000E942418882319F10E9410184B015C0171
:10395000F6018081811103C06091770601C061E0AA
:1039600070E080E090E00E94E9BDF80120813181A3
:10397000428153810E941CC09B01AC01C501B4016E
:103980000E946EBC688379838A839B8309C0F80197
:1039900080819181A281B38188839983AA83BB832B
:1039A0000C5F1F4F2496FFEFCF1ADF0A8FE2E81655
:1039B00084E0F80611F686E40E9424188823D9F0E2
:1039C0000E9410186B017C01609388067093890631
:1039D00080938A0690938B0620E030E0A9010E9434
:1039E0004ABF181644F4C0920F02D0921002E0921F
:1039F0001102F0921202DF91CF911F910F91FF906F
:103A0000EF90DF90CF90BF90AF909F908F900895F0
:103A10000E94851C89E40E942418882359F00E9482
:103A2000101860938C0670938D0680938E06909389
:103A30008F0608C010928C0610928D0610928E068A
:103A400010928F068AE40E942418882359F00E945D
:103A5000101860939006709391068093920690934D
:103A60009306089510929006109291061092920675
:103A7000109293060895CF92DF92EF92FF92CF9328
:103A8000DF93EC01C090C206D090C306E090C4065C
:103A9000F090C506A7019601688179818A819B8192
:103AA0000E9447BD87FF04C0C882D982EA82FB8298
:103AB000C090C606D090C706E090C806F090C90630
:103AC000A70196016C817D818E819F810E9447BDF7
:103AD00087FF04C0CC82DD82EE82FF82C090CA06DE
:103AE000D090CB06E090CC06F090CD06A7019601D1
:103AF000688579858A859B850E9447BD87FF04C0BC
:103B0000C886D986EA86FB86C0901502D090160238
:103B1000E0901702F0901802A70196016881798160
:103B20008A819B810E944ABF181624F4C882D982D8
:103B3000EA82FB82C0901902D0901A02E0901B0228
:103B4000F0901C02A70196016C817D818E819F817E
:103B50000E944ABF181624F4CC82DD82EE82FF82D6
:103B6000C0901D02D0901E02E0901F02F090200233
:103B7000A7019601688579858A859B850E944ABF41
:103B8000181624F4C886D986EA86FB86DF91CF9181
:103B9000FF90EF90DF90CF900895CF92DF92EF9259
:103BA000FF920F931F9388E996E00E943B1D0E94AD
:103BB000CE0F6093E3047093E4048093E504909344
:103BC000E604209198063091990640919A0650910A
:103BD0009B066091DA067091DB068091DC0690917D
:103BE000DD060E9447BD811179C020919C0630916D
:103BF0009D0640919E0650919F066091DE06709151
:103C0000DF068091E0069091E1060E9447BD811198
:103C100065C020E030E040E752E460910F0270910F
:103C2000100280911102909112020E944EBDBAEAD8
:103C3000CB2EB6E0DB2E7B018C0124EA36E040EA95
:103C400056E06CE976E088E996E00E94B3518091F5
:103C5000980690919906A0919A06B0919B06809340
:103C6000DA069093DB06A093DC06B093DD06809124
:103C70009C0690919D06A0919E06B0919F06809310
:103C8000DE069093DF06A093E006B093E1068091F4
:103C9000A0069091A106A091A206B091A3068093E0
:103CA000E2069093E306A093E406B093E5068091C4
:103CB000A4069091A506A091A606B091A7068093B0
:103CC000E6069093E706A093E806B093E9061F91F5
:103CD0000F91FF90EF90DF90CF90089560912F02A9
:103CE00070913002882777FD8095982F0E94E9BD5A
:103CF00020910F0230911002409111025091120256
:103D00000E941CC020E030E040E752E40E944EBD1B
:103D100020E030E048EC52E488CFAF92BF92CF92DF
:103D2000DF92EF92FF920F931F93CF93DF93D82FE1
:103D30002091900630919106409192065091930601
:103D400060918C0670918D0680918E0690918F0601
:103D50000E9457BFC62F172F082FF92E60912F02F0
:103D600070913002882777FD8095982F0E94E9BDD9
:103D700020910F02309110024091110250911202D5
:103D80000E941CC020E030E040E752E40E944EBD9B
:103D900020E030E048EC52E40E944EBD2091AA069B
:103DA0002F93DF93FF920F931F93CF935B016C01CF
:103DB000C2E0EC2E01E020E04CE856E068E976E055
:103DC0008AED96E00E94924A809198069091990619
:103DD000A0919A06B0919B068093DA069093DB0639
:103DE000A093DC06B093DD0680919C0690919D0621
:103DF000A0919E06B0919F068093DE069093DF0609
:103E0000A093E006B093E1068091A0069091A106F0
:103E1000A091A206B091A3068093E2069093E306D8
:103E2000A093E406B093E5068091A4069091A506C0
:103E3000A091A606B091A7068093E6069093E706A8
:103E4000A093E806B093E9060E94CE0F6093E304C6
:103E50007093E4048093E5049093E6040F900F9030
:103E60000F900F900F900F90DF91CF911F910F91B6
:103E7000FF90EF90DF90CF90BF90AF900895F894AF
:103E80000E946B6B159A1092BF06469A1092C0065C
:103E9000439A1092C106409A9FB7F89480910B0103
:103EA000826080930B019FBFEBE3F8E0849188234D
:103EB00041F09091C00095FFFCCF8093C6003196F1
:103EC000F5CFECE2F3E08491882341F09091C000BB
:103ED00095FFFCCF8093C6003196F5CF8091C0004E
:103EE00085FFFCCF8AE08093C60083E293E00E94C6
:103EF000159AFFCFCF92DF92EF92FF920F931F930D
:103F00000E94CE0F0091DF041091E0042091E104A3
:103F10003091E204C090E304D090E404E090E50422
:103F2000F090E6046C197D098E099F0906171707A2
:103F30002807390730F4012B022B032B11F00E94C4
:103F40003F1F80910B0290910C02A0910D02B09145
:103F50000E02892B8A2B8B2B09F10E94CE0F009128
:103F6000E3041091E4042091E5043091E604601B21
:103F7000710B820B930B00910B0210910C0220919C
:103F80000D0230910E02061717072807390730F483
:103F90009091100C80910F0C981741F01F910F9188
:103FA000FF90EF90DF90CF900C949751159A10925C
:103FB000BF06469A1092C006439A1092C106409AD4
:103FC0009FB7F89480910B01826080930B019FBF93
:103FD000E5CF0E946B6B8091D504811138C081E0E0
:103FE0008093D50480917C0690917D06A0917E06F9
:103FF000B0917F068093780690937906A0937A0615
:10400000B0937B06EBE3F8E08491882341F0909134
:10401000C00095FFFCCF8093C6003196F5CFEDEA46
:10402000F2E08491882341F09091C00095FFFCCF8D
:104030008093C6003196F5CF8091C00085FFFCCFFC
:104040008AE08093C60083EA92E00C94069A089571
:104050008091D504089567707727E82FF0E0E35644
:10406000FE4F849190E0FC013697EC30F10578F535
:10407000EC56FF4F0C9475C18091B100887F8093FE
:10408000B1008091B100862B8093B100089580919A
:104090009100887F8093910080919100862B80937E
:1040A000910008958091A100887F8093A100809164
:1040B000A100862B8093A100089580912101887F23
:1040C0008093210180912101862B80932101089505
:1040D000CF93DF93EC018091AA068093D60484E508
:1040E0000E942418811102C080E075C00E9410183F
:1040F0000E94BBBD6093D6046230B0F3E5E3F8E004
:104100008491882341F09091C00095FFFCCF80936B
:10411000C6003196F5CFCD36D105B9F054F4C83686
:10412000D105B1F0C936D10509F045C0E2E4F3E0AC
:1041300021C0CA3DD10531F0CD3DD105E1F5EDEF0E
:10414000F2E036C0E4E1F3E029C0EBE2F3E01CC0AA
:10415000E9E5F3E08191882371F19091C00095FF2A
:10416000FCCF8093C600F6CF9091C00095FFFCCFA6
:104170008093C60081918111F7CF1DC09091C0003E
:1041800095FFFCCF8093C60081918111F7CF13C0BA
:104190009091C00095FFFCCF8093C6008191811162
:1041A000F7CF09C09091C00095FFFCCF8093C60067
:1041B00081918111F7CF40E050E06091D6048DE706
:1041C00099E00E94F5398091C00085FFFCCF8AE01C
:1041D0008093C60081E0DF91CF9108952F923F92A6
:1041E0004F925F926F927F928F929F92AF92BF9207
:1041F000CF92DF92EF92FF920F931F93CF93DF93B3
:10420000CDB7DEB7E5970FB6F894DEBF0FBECDBFD2
:1042100087E40E942418882309F489C30E94101897
:104220000E94B6BD64307105D9F144F46230710565
:1042300021F15CF577FF17C00C94BE356A35710526
:1042400009F421C334F46C31710509F471C00C9484
:10425000BE356B35710509F41AC36C35710509F467
:104260001BC30C94BE358091D504811106C00E94F9
:10427000851C0E94CD1D0C9469378091D504811155
:1042800004C00E94081D81E007C08091D5048111FF
:1042900007C00E94081D80E00E948D1E0C946937A3
:1042A0008DE895E00E94069A80E50E9424188823F4
:1042B00039F00E9410180E94BBBD4B015C0103C085
:1042C000812C912C540183E50E942418882361F0ED
:1042D0000E94101820E030E04AE754E40E941CC01D
:1042E0000E94BBBD4B015C010E94C8630E94CE0FBF
:1042F0006B017C01C80CD91CEA1CFB1C0E94CE0F70
:104300006093E3047093E4048093E5049093E604DF
:104310000E94CE0F6C157D058E059F0510F00C9444
:10432000BE350E9459670E947A1F0E949A9AF0CF68
:1043300080910F0290911002A0911102B09112028F
:104340008093840690938506A0938606B093870693
:1043500080912F02909130029093EB068093EA06B1
:1043600084E690E09093300280932F020E94CE0F5B
:104370006093E3047093E4048093E5049093E6046F
:1043800081E00E94195D8091DA069091DB06A09190
:10439000DC06B091DD068093980690939906A09371
:1043A0009A06B0939B068091DE069091DF06A0915D
:1043B000E006B091E10680939C0690939D06A09341
:1043C0009E06B0939F068091E2069091E306A0912D
:1043D000E406B091E5068093A0069093A106A09311
:1043E000A206B093A3068091E6069091E706A091FD
:1043F000E806B091E9068093A4069093A506A093E1
:10440000A606B093A70610920F0210921002109207
:1044100011021092120288E50E942418882311F0DC
:1044200090E00AC089E50E9424188111F9CF8AE53D
:104430000E94241891E098279093130291110CC0C8
:1044400088E50E942418882309F46CC189E50E943C
:104450002418882309F466C11092DA061092DB064C
:104460001092DC061092DD061092DE061092DF0636
:104470001092E0061092E106E6EFF7E0149126EEC6
:1044800036E042EE56E06EED76E08AED96E00E9470
:104490005D5B85E098E00E94DA136B017C0120E00F
:1044A00030E040EC5FE30E941CC04B015C01612FD7
:1044B000772767FD7095872F972F0E94E9BD9B0195
:1044C000AC01C501B4010E941CC0609398067093B2
:1044D000990680939A0690939B0689E098E00E9443
:1044E000DA134B015C01E7EFF7E0149120E030E0D4
:1044F00040EC5FE30E941CC02B013C01612F772739
:1045000067FD7095872F972F0E94E9BD9B01AC0135
:10451000C301B2010E941CC060939C0670939D066B
:1045200080939E0690939F06209131023091320233
:10453000409133025091340220930F0230931002C5
:10454000409311025093120240903502509036026F
:104550006090370270903802C301B2010E9447BDDB
:1045600087FF08C040920F02509210026092110221
:1045700070921202A5019401C701B6010E944ABFC0
:10458000181614F00C94C135A7019601C501B401A9
:104590000E944EBD9B01AC010E941CC020E030E097
:1045A00040E85FE30E946EBC0E9489C09B01AC01A1
:1045B00060910F027091100280911102909112028D
:1045C0000E941CC060930F0270931002809311022E
:1045D0009093120220E030E040E752E460910F0235
:1045E0007091100280911102909112020E944EBDB2
:1045F000BAEACB2EB6E0DB2E7B018C0124EA36E052
:1046000040EA56E06CE976E088E996E00E94B35112
:104610000E94C86380E090E00E94E01381E090E097
:104620000E94E01326EE36E042EE56E06EED76E0B4
:104630008AED96E00E945D5B8091DA069091DB0640
:10464000A091DC06B091DD068093980690939906C0
:10465000A0939A06B0939B068091DE069091DF06A8
:10466000A091E006B091E10680939C0690939D0690
:10467000A0939E06B0939F0620E030E040E752E40E
:1046800060910F02709110028091110290911202BC
:104690000E944EBD7B018C0124EA36E040EA56E0E0
:1046A0006CE976E088E996E00E94B35110920F021F
:1046B0001092100210921102109212020E94C8630E
:1046C0000E94125D8091980690919906A0919A0699
:1046D000B0919B068093DA069093DB06A093DC06EC
:1046E000B093DD0680919C0690919D06A0919E0658
:1046F000B0919F068093DE069093DF06A093E006BC
:10470000B093E1068091A0069091A106A091A20627
:10471000B091A3068093E2069093E306A093E4068B
:10472000B093E5068091130281110C94C73588E59A
:104730000E94241881110C94C735809113028111B5
:104740000C94CD3589E50E94241881110C94CD3547
:1047500088E50E9424188823D1F00E941918672B3D
:10476000682B692BA1F00E9410182091CE06309181
:10477000CF064091D0065091D1060E946EBC609346
:10478000DA067093DB068093DC069093DD0689E5FC
:104790000E9424188823D1F00E941918672B682BD7
:1047A000692BA1F00E9410182091D2063091D306F7
:1047B0004091D4065091D5060E946EBC6093DE06EF
:1047C0007093DF068093E0069093E10680911302D8
:1047D00081110C94D3358AE50E94241881110C9420
:1047E000D3358AE50E9424188823D1F00E94191835
:1047F000672B682B692BA1F00E9410182091D60618
:104800003091D7064091D8065091D9060E946EBCCF
:104810006093E2067093E3068093E4069093E506C6
:1048200026EE36E042EE56E06EED76E08AED96E05A
:104830000E945D5B80E00E94195D809184069091EA
:104840008506A0918606B091870680930F0290930B
:104850001002A0931102B09312028091EA06909187
:10486000EB069093300280932F020E94CE0F60934C
:10487000E3047093E4048093E5049093E6040E94BB
:10488000125D0C94BE35109277060C94BE3581E013
:10489000809377060C94BE3585E40E94241881111C
:1048A00002C00E94C863FBE2CF2EF4E0DF2EAEEC24
:1048B000EA2EA6E0FA2E0AED16E0B12CF60181915F
:1048C0006F010E942418882339F1F3E0BF120CC055
:1048D0000E941018F801608371838283938386EEAF
:1048E00096E00E94025C18C00E941018F701208117
:1048F0003181428153810E946EBCF80160837183D3
:104900008283938326EE36E042EE56E06EED76E04B
:104910008AED96E00E945D5BB394F4E0EF0EF11C2B
:104920000C5F1F4F24E0B212C9CF0C94BE358DE44A
:104930000E942418882311F40C946D340E941018DE
:104940000E94B6BD6337710511F40C94552C0CF020
:104950008AC06F31710509F43DC3A4F56631710554
:1049600009F4DCC1BCF46131710509F491C134F47E
:104970006230710508F431C10C94BE3564317105A3
:1049800009F498C10CF0C4C16231710509F4D0C6B4
:104990000C94BE356A31710509F4F5C13CF46831F7
:1049A000710509F4DAC10CF4BFC1E7C16C317105BE
:1049B00009F4FDC10CF4F5C16E31710509F42DC285
:1049C0000C94BE356535710509F4E5C6CCF4613546
:1049D000710509F485C654F46032710509F45CC2AE
:1049E0006A32710509F453C30C94BE356335710501
:1049F00009F499C60CF09CC61092EF060C94BE35D3
:104A00006A36710509F43CC6DCF46836710509F4B0
:104A100069C30CF096C36C35710511F00C94BE356A
:104A20008BE294E098AB8FA701E411E1E1E58E2ED3
:104A3000E1E19E2EF5E0AF2EF1E1BF2E312C23C730
:104A40006D36710509F4A3C46237710509F451C7C5
:104A50006B36710511F00C94BE351092A9061092B8
:104A6000A8060C94BE356D3D710511F40C94CD2F44
:104A70000CF05DC0683C710511F40C94DF2D2CF531
:104A80006837710511F40C94592D6CF46537710574
:104A900009F41AC76737710511F00C94BE35EFE7BA
:104AA000F3E00C94642D6C38710509F439C36E3B46
:104AB000710509F4E5C46937710511F00C94BE3530
:104AC00081E00E94195D0C94BE356D3C710511F4B6
:104AD0000C94AE2EACF46B3C710511F40C94722E58
:104AE00014F00C948E2E693C710511F00C94BE35B7
:104AF0000BE214E071E3E72E71E1F72E0C94582ECF
:104B00006A3D710511F40C94232F6C3D710511F46D
:104B10000C94BE2F6E3C710511F00C94BE350BE267
:104B200014E05EECE52E56E0F52E0C94142F653F54
:104B300031E0730711F40C94303134F56E3291E0AA
:104B4000790711F40C94E43064F4623E710511F4B9
:104B50000C94F32F6D32714011F40C941E300C94B0
:104B6000BE35603921E0720711F40C942A31643F9C
:104B700031E0730711F40C942D316F32714011F054
:104B80000C94BE350C94F230633593E0790711F440
:104B90000C94393184F4673FF1E07F0711F40C94F1
:104BA000363114F40C9433316835724011F40C949E
:104BB0000E320C94BE35603A83E0780709F4D6C112
:104BC000673E93E0790711F40C9456346B387340C8
:104BD00011F00C94BE350C9430348CE795E00E94B3
:104BE000069A80E50E942418882339F00E94101844
:104BF0000E94BBBD6B017C0103C0C12CD12C76018E
:104C000083E50E942418882361F00E94101820E098
:104C100030E04AE754E40E941CC00E94BBBD6B0117
:104C20007C010E94C8630E94CE0F6093E3047093DE
:104C3000E4048093E5049093E604C114D104E104F4
:104C4000F104A9F00E94CE0F4B015C018C0C9D1C5D
:104C5000AE1CBF1C0E94CE0F681579058A059B0506
:104C600088F40E945F9B81110DC00C94D9350E947D
:104C70005F9B811107C00E9459670E947A1F0E94A2
:104C80009A9AF5CF8DE695E00E94069A0C94BE356F
:104C900084E695E00E94069A1598469843984098B5
:104CA0009FB7F89480910B018D7F80930B019FBF7C
:104CB0000C94BE35E4E5F5E08491882341F09091B1
:104CC000C00095FFFCCF8093C6003196F5CF809150
:104CD000C00085FFFCCF8AE08093C60080EF96E09D
:104CE0000E942574E6E4F5E08491882341F09091D8
:104CF000C00095FFFCCF8093C6003196F5CF809120
:104D0000C00085FFFCCF8AE08093C6000C94BE35BE
:104D100080EF96E00E947C740C94BE3580EF96E0A4
:104D20000E9443750C94BE350091E7041091E8048D
:104D30000C5F1F4F6AE270E0C8010E94B8C4009780
:104D400019F0FC013197108221E041E0B80180EFB9
:104D500096E00E94B2750C94BE3580EF96E00E94FA
:104D600047750E94CE0F6093DB047093DC04809340
:104D7000DD049093DE040C94BE3580EF96E00E9433
:104D80004E750C94BE358091F306882311F40C9473
:104D9000BE3583E50E94241881110C94E1350C94F2
:104DA000BE3580EF96E00E94017A0C94BE3580916A
:104DB000E7049091E8046AE270E004960E94B8C4A7
:104DC0008C010097E1F02091F1043091F20440E66B
:104DD000429FC001439F900D11246EE470E0895002
:104DE0009B4F0E94B8C460E270E00E94B8C4019674
:104DF0009093E8048093E704F80131971082609162
:104E0000E7047091E8046C5F7F4F21E040E080EFA1
:104E100096E00E94B2750C94BE358091F30688230B
:104E200011F40C94BE3560E080EF96E00E94BA7BEE
:104E30008091E7049091E8046AE270E004960E9491
:104E4000B8C48C010097E1F02091F1043091F20494
:104E500040E6429FC001439F900D11246EE470E034
:104E600089509B4F0E94B8C460E270E00E94B8C4B1
:104E700001969093E8048093E704F801319710823B
:104E80006091E7047091E8046C5F7F4F80EF96E0DB
:104E90000E94C7780C94BE358091F20681110E9461
:104EA000C8630091E7041091E8040C5F1F4F6AE2A9
:104EB00070E0C8010E94B8C47C0161E270E0C801E2
:104EC0000E94B8C4009719F08C010F5F1F4FE114C6
:104ED000F10419F0F7013197108280E50E9424183F
:104EE000F82E2091E7043091E8040217130708F424
:104EF000F12C8091F306882311F40C94BE3521E047
:104F00002F2541E0B80180EF96E00E94B27583E55D
:104F10000E9424188823B9F02091E7043091E80416
:104F20002017310780F40E941918AB01BC0140938F
:104F300073095093740960937509709376098EEB29
:104F400098E00E94564080EF96E00E944775F1106D
:104F50000C94BE350E94CE0F6093DB047093DC048A
:104F60008093DD049093DE040C94BE358091E704B9
:104F70009091E8046AE270E005960E94B8C48C0142
:104F80000097E1F02091F1043091F20440E6429F55
:104F9000C001439F900D11246EE470E089509B4F37
:104FA0000E94B8C460E270E00E94B8C40196909379
:104FB000E8048093E704F801319710826091E704D8
:104FC0007091E8046B5F7F4F80EF96E00E94C1789C
:104FD0000C94BE350E94CE0F6093D7047093D80412
:104FE0008093D9049093DA040091DB041091DC04DF
:104FF0002091DD043091DE04601B710B820B930B5A
:1050000028EE33E040E050E00E9434C1CA01B9010B
:105010002CE330E040E050E00E9434C17F936F9376
:105020003F932F9387E395E09F938F938E010F5FBC
:105030001F4F1F930F930E94E7C4E5E3F8E08491AC
:105040000FB6F894DEBF0FBECDBF882349F0909114
:10505000C00095FFFCCF8093C60031968491F5CFB8
:10506000F8018191882339F09091C00095FFFCCF21
:105070008093C600F6CF8091C00085FFFCCF8AE008
:105080008093C600C8010E94F7990C94BE3583E551
:105090000E942418882311F40C94BE350E94101825
:1050A0006B017C0180E50E942418882351F0C70120
:1050B000B6010E94B6BD6F3F710509F010F40C9463
:1050C000F23568E070E020E0E22FEE0FFF0BE551D3
:1050D000FC4F808191818617970711F40C94BE359F
:1050E0002F5FF2CF88E690E00E94682081110C9437
:1050F000BE3583E50E942418882371F00091D60400
:105100000E94101810E0000F111F0D5C1D4E0E9430
:10511000B6BDF801718360830E94FE6A0C94BE35AF
:1051200083E50E942418882311F40C94BE350E9454
:1051300010180E94B6BD70933212609331120C9415
:10514000BE3589E690E00E94682081110C94BE353E
:10515000E1E3F5E08491882341F09091C00095FF50
:10516000FCCF8093C6003196F5CFE091D60424E0C1
:10517000E29FF0011124EB5DFD4E4081518162817F
:10518000738121E030E08DE799E00E949A3AEEE2E7
:10519000F5E08491882341F09091C00095FFFCCF09
:1051A0008093C6003196F5CFE091D604F0E0EE0F83
:1051B000FF1FED5CFD4E60817181882777FD809532
:1051C000982F0E94E9BDAB01BC0121E030E08DE7E2
:1051D00099E00E949A3AEAE2F5E08491882341F04E
:1051E0009091C00095FFFCCF8093C6003196F5CF1B
:1051F00040911F1250912012609121127091221241
:1052000021E030E08DE799E00E949A3AE7E2F5E08C
:105210008491882341F09091C00095FFFCCF80934A
:10522000C6003196F5CF6091311270913212882705
:1052300077FD8095982F0E94E9BDAB01BC0121E06C
:1052400030E08DE799E00E949A3A33E3E32E32E1B1
:10525000F32E45E2C42E42E1D42E00E010E0E4E259
:10526000F5E0B490E2E2F5E0A490EFE1F5E094908F
:105270008B2DE4E2F5E0882349F09091C00095FF82
:10528000FCCF8093C60031968491F5CF4AE050E080
:10529000B8018DE799E00E94BA398A2DE2E2F5E083
:1052A000882349F09091C00095FFFCCF8093C60001
:1052B00031968491F5CFF6014191519161917191AF
:1052C0006F0121E030E08DE799E00E949A3A892D44
:1052D000EFE1F5E0882349F09091C00095FFFCCF05
:1052E0008093C60031968491F5CFF7016191719159
:1052F0007F01882777FD8095982F0E94E9BDAB013B
:10530000BC0121E030E08DE799E00E949A3A0F5FFE
:105310001F4F0230110509F0ABCFEBE1F5E08491AE
:10532000882341F09091C00095FFFCCF8093C60088
:105330003196F5CF8091D60490E00E944E674AE006
:1053400050E0BC018DE799E00E94BA39E6E1F5E052
:105350008491882341F09091C00095FFFCCF809309
:10536000C6003196F5CF8FEF9FEF0E944E674AE05F
:1053700050E0BC018DE799E00E94BA398091C000ED
:1053800085FFFCCF8AE08093C6000C9469378DE6D8
:1053900090E00E94682081110C94BE358BE095E06E
:1053A0000E94069A83E50E942418882391F00091B8
:1053B000D6040E94101810E0000F111F0D5C1D4E46
:1053C0000E94B6BDF8017183608381E080930A0278
:1053D00015C082E50E942418882381F00091D6042C
:1053E0000E94101810E0000F111F0D5C1D4E0E944E
:1053F000B6BDF8017183608310920A020E94FE6AB2
:105400000E94CE0F4B015C010091D60410E0F80120
:10541000EE0FFF1FED5CFD4E60817181882777FDE7
:105420008095982F0E94E9BDF801EE0FFF1FEE0F47
:10543000FF1FEB5DFD4E11E02081318142815381E0
:105440000E944ABF18160CF010E01093D404CC242C
:10545000CA94DC2C7601E8E0F5E024912FA7E4E083
:10546000F5E0349139ABE0E0F5E0249048EE442ECD
:1054700043E0542E612C712C5AE0352E0C94553695
:1054800085EE94E00E94069A83E50E942418882302
:1054900061F00E9410180E94B6BD709332126093A2
:1054A000311281E080930A020FC082E50E94241825
:1054B000882351F00E9410180E94B6BD70933212DA
:1054C0006093311210920A020E94CE0F6B017C0190
:1054D0006091311270913212882777FD8095982F54
:1054E0000E94E9BD11E020911F12309120124091DD
:1054F0002112509122120E944ABF18160CF010E09F
:105500001093D404E2EEF4E01491EEEDF4E0049193
:10551000EAEDF4E0B490AAE0AA2E8091D404609160
:10552000311270913212882309F483C0882777FDE5
:105530008095982F0E94E9BD20911F123091201272
:1055400040912112509122120E944ABF18160CF06D
:1055500087C00E94CE0F6C197D098E099F09693E94
:1055600073408105910508F45DC0E091AA0634E01E
:10557000E39FF0011124EB5DFD4E4081518162817A
:105580007381812FE2EEF4E0882349F09091C0000E
:1055900095FFFCCF8093C60031968491F5CF22E031
:1055A00030E08DE799E00E949A3A802FEEEDF4E02A
:1055B000882349F09091C00095FFFCCF8093C600EE
:1055C00031968491F5CF6091AA0670E04AE050E0F0
:1055D0008DE799E00E94BA398B2DEAEDF4E088233B
:1055E00049F09091C00095FFFCCF8093C6003196A2
:1055F0008491F5CF40911F12509120126091211299
:105600007091221221E030E08DE799E00E949A3AF1
:105610008091C00085FFFCCFA092C6000E94CE0FF3
:105620006B017C010E9459670E947A1F0E949A9A1E
:1056300074CF882777FD8095982F0E94E9BD20912F
:105640001F123091201240912112509122120E947B
:1056500047BD87FF05C080910A02882309F479CFEE
:1056600080ED94E00E94069A0E94CE0F6093E304BE
:105670007093E4048093E5049093E6040C94BE35A3
:1056800083E50E942418882319F10E94101820E055
:1056900030E0A9010E9447BD87FD0FC00E9410188D
:1056A00020E030E04FE753E40E944ABF181644F070
:1056B0000E9410180E94B6BD05C060E070E002C0F4
:1056C0006FEF70E07093A9066093A8060C94BE3546
:1056D0008FEF90E09093A9068093A8060C94BE35B6
:1056E0000E946B6B0E94C863409A9FB7F8948091A8
:1056F0000B01826080930B019FBF0E943164109266
:10570000A9061092A80668EE73E080E090E00E947F
:10571000FD0F1092140281EC94E00E94069A0E9400
:105720009A9A0C94BE3581E08093EF060C94BE35B6
:1057300083E50E9424188823A1F00E94101820E01D
:1057400030E04AE754E40E941CC00E94BBBD609355
:105750000B0270930C0280930D0290930E020C9436
:10576000BE3588E50E94241881110C94313789E5F3
:105770000E94241881110C9431378AE50E94241864
:1057800081110C94313785E40E94241881110C9406
:1057900031370C945B3783E50E9424180E9410185F
:1057A00020E030E04AE754E40E941CC00E94BBBDE8
:1057B0006093DF047093E0048093E1049093E2042B
:1057C0000C94BE35F3E03F1268C00E9410186B01C4
:1057D0007C0120E030E040EA51E40E9447BD87FFB1
:1057E0003FC0A7019601F801608171818281938198
:1057F0000E944EBD2B013C019B01AC01609119112F
:1058000070911A1180911B1190911C110E941CC063
:105810006093191170931A1180931B1190931C11AE
:10582000A3019201F40160817181828193810E94C0
:105830001CC0F4016083718382839383F5016081CE
:105840007181828193810E94E7BDA30192010E9430
:105850001CC00E94BBBDF50160837183828393836A
:10586000F801C082D182E282F38233940C5F1F4F31
:10587000F4E08F0E911C24E0A20EB11C34E033162C
:1058800011F40C94BE35EFA5F8A98191F8ABEFA700
:105890000E942418882349F395CF0E941018F8011C
:1058A0006083718382839383E0CFE7EFF3E0849199
:1058B000882311F40C94BE359091C00095FFFCCF65
:1058C0008093C6003196F3CF0091E7041091E8046D
:1058D0000B5F1F4F6AE270E0C8010E94B8C40097D6
:1058E00019F0FC0131971082C8010E94F7990C94BD
:1058F000BE35E4EFF3E08491882341F09091C0003D
:1059000095FFFCCF8093C6003196F5CF4091DA0623
:105910005091DB066091DC067091DD0622E030E0FC
:105920008DE799E00E949A3AE0EFF3E084918823B2
:1059300041F09091C00095FFFCCF8093C600319656
:10594000F5CF4091DE065091DF066091E006709140
:10595000E10622E030E08DE799E00E949A3AECEE11
:10596000F3E08491882341F09091C00095FFFCCF33
:105970008093C6003196F5CF4091E2065091E30640
:105980006091E4067091E50622E030E08DE799E051
:105990000E949A3AE8EEF3E08491882341F09091D6
:1059A000C00095FFFCCF8093C6003196F5CF4091A3
:1059B000E6065091E7066091E8067091E90622E05C
:1059C00030E08DE799E00E949A3AEDEDF3E08491A2
:1059D000882341F09091C00095FFFCCF8093C600D2
:1059E0003196F5CF0E9423640E94E9BD20914111B8
:1059F0003091421140914311509144110E944EBD8B
:105A0000AB01BC0122E030E08DE799E00E949A3AB8
:105A1000E9EDF3E08491882341F09091C00095FF77
:105A2000FCCF8093C6003196F5CF81E00E942364BD
:105A30000E94E9BD209145113091461140914711D6
:105A4000509148110E944EBDAB01BC0122E030E0F4
:105A50008DE799E00E949A3AE5EDF3E0849188237E
:105A600041F09091C00095FFFCCF8093C600319625
:105A7000F5CF82E00E9423640E94E9BD2091491184
:105A800030914A1140914B1150914C110E944EBDE2
:105A9000AB01BC0122E030E08DE799E00E949A3A28
:105AA0008091C00085FFFCCF8AE08093C6000C94F3
:105AB000BE3580E00E94195D0C94BE359091C00007
:105AC00095FFFCCF8093C60081918111F7CF809123
:105AD000C00085FFFCCF8AE08093C600EDECF3E0C8
