:100000000C94ED0E0C94A7110C94D8110C940912B9
:100010000C943A120C946B120C949C120C94CD120A
:100020000C94FE120C941E0F0C941E0F0C941E0FB9
:100030000C941E0F0C94FF860C941E0F0C941E0F34
:100040000C941E0F0C94725D0C941E0F0C941E0FDA
:100050000C941E0F0C941E0F0C9409700C94200F1E
:100060000C941E0F0C940D380C941E0F0C941E0F44
:100070000C941E0F0C941E0F0C941E0F0C941E0F4C
:100080000C941E0F0C941E0F0C941E0F0C941E0F3C
:100090000C941E0F0C941E0F0C941E0F0C941E0F2C
:1000A0000C941E0F0C941E0F0C941E0F0C941E0F1C
:1000B0000C941E0F0C941E0F0C941E0F0C941E0F0C
:1000C0000C941E0F0C941E0F0C941E0F0C941E0FFC
:1000D0000C941E0F0C941E0F0C941E0F0C941E0FEC
:1000E0000C941E0F521057105C106610DF10701029
:1000F000781080108A1094109E10AD10B710DF1089
:10010000C110CB10D510FD100011F310F7103711EE
:10011000041108110E11121116111C1120112411B5
:1001200037112A112E113211531F531F5E1F5E1FEC
:100130005E1F691F691F691F7E1F741F741F741F54
:10014000627071708D709C70B670C570DF70E370F6
:10015000EB70084AD73B3BCE016E84BCBFFDC12F7C
:100160003D6C74319ABD56833DDA3D00C77F11BEA8
:10017000D9E4BB4C3E916BAAAABE000000803F05AB
:10018000A84CCDB2D44EB93836A9020C50B99186DC
:1001900088083CA6AAAA2ABE000000803F000009E9
:1001A0000A02080B0C0D0706030401000000000002
:1001B000000000000000000000000000000000003F
:1001C00000000000000000000011100F00000000FF
:1001D000000000000000000000000000000000001F
:1001E00000000001021020200808102040102040CC
:1001F00080020102010804020101020408102040EB
:100200008080402010080402018004020180402008
:100210001008040201080402010102040810204031
:100220008001020408102040800505050507050827
:10023000080808020202020A0A0808040404040169
:10024000010101010101010303030303030303048B
:100250000707070C0C0C0C0C0C0C0C02020202061B
:10026000060606060606060B0B0B0B0B0B0B0B000C
:10027000002200250028002B002E0031003400024F
:10028000010000050108010B0100002100240027E6
:10029000002A002D00300033000101000004010796
:1002A000010A0153544F505045442E2000507269AA
:1002B0006E7465722073746F707065642064756508
:1002C00020746F206572726F72732E2046697820D9
:1002D000746865206572726F7220616E6420757338
:1002E00065204D39393920746F20726573746172DD
:1002F000742E202854656D70657261747572652066
:1003000069732072657365742E2053657420697457
:100310002061667465722072657374617274696EAF
:100320006729004B494C4C45442E20005072696EA1
:100330007465722068616C7465642E206B696C6CE6
:1003400028292063616C6C656421006F6B00526525
:1003500073656E643A20002200556E6B6E6F776E87
:1003600020636F6D6D616E643A2022004368616E98
:1003700067652066696C616D656E74005A204F6612
:1003800066736574203A20007A5F6D61783A2000C8
:100390007A5F6D696E3A20005A204F666673657405
:1003A000005A204F6666736574206F6B00486F7447
:1003B000656E64206F6666736574733A007A5F6D6C
:1003C00061783A20007A5F6D696E3A2000795F6D3E
:1003D00061783A2000795F6D696E3A2000785F6D30
:1003E00061783A2000785F6D696E3A2000205A3AB1
:1003F0000020593A0020436F756E7420583A20004F
:1004000020453A00205A3A0020593A00583A00460E
:1004100049524D574152455F4E414D453A4D6172EB
:100420006C696E2056313B20537072696E74657230
:100430002F6772626C206D617368757020666F72D1
:100440002067656E36204649524D574152455F55EB
:10045000524C3A687474703A2F2F6669726D7761E6
:1004600072652E756C74696D616B65722E636F6D4C
:100470002050524F544F434F4C5F56455253494FB3
:100480004E3A312E30204D414348494E455F545934
:1004900050453A556C74696D616B657220455854CE
:1004A00052554445525F434F554E543A32205555AC
:1004B00049443A30303030303030302D3030303008
:1004C0002D303030302D303030302D303030303035
:1004D000303030303030300A00556C74696D616BEB
:1004E0006572204F66662E00556C74696D616B6590
:1004F000722072656164792E0042656420646F6EBB
:10050000652E0020423A0020453A00543A004265E8
:10051000642048656174696E672E0048656174697E
:100520006E6720646F6E652E0020573A0020453AB2
:1005300000543A0048656174696E672E2E2E0020C3
:1005400042403A0020403A00202F003A0020540058
:10055000202F0020423A00202F006F6B20543A00D9
:100560002569206D696E2C2025692073656300451F
:100570006E642066696C65206C69737400426567FF
:10058000696E2066696C65206C697374004E6F201B
:100590006D6F76652E00526573756D696E6720709C
:1005A00072696E74005761697420666F722075738A
:1005B00065722E2E2E00536C6565702E2E2E002532
:1005C0006920686F757273202569206D696E757476
:1005D000657300446F6E65207072696E74696E6732
:1005E0002066696C650053544F505045442E2000DE
:1005F0005072696E7465722073746F7070656420D8
:1006000064756520746F206572726F72732E204658
:10061000697820746865206572726F7220616E64FB
:1006200020757365204D39393920746F20726573D8
:10063000746172742E202854656D706572617475D2
:1006400072652069732072657365742E205365741A
:1006500020697420616674657220726573746172BA
:1006600074696E6729006F6B004E6F204C696E6570
:10067000204E756D626572207769746820636865C5
:10068000636B73756D2C204C617374204C696E65BF
:100690003A20004E6F20436865636B73756D207759
:1006A000697468206C696E65206E756D6265722C68
:1006B000204C617374204C696E653A200063686554
:1006C000636B73756D206D69736D617463682C2045
:1006D0004C617374204C696E653A20004C696E65FC
:1006E000204E756D626572206973206E6F74204CA8
:1006F000617374204C696E65204E756D6265722B56
:10070000312C204C617374204C696E653A20004D89
:1007100031313000446F6E6520736176696E6720F9
:1007200066696C652E006F6B004D323900202050D9
:100730006C616E6E6572427566666572427974654B
:10074000733A20002046726565204D656D6F7279A1
:100750003A2000417072203136203230313500436A
:100760006F6D70696C65643A200028446176696435
:1007700020427261616D2900207C20417574686F90
:10078000723A2000417072203136203230313520EB
:1007900031323A33353A333300204C61737420558B
:1007A0007064617465643A2000312E302E30004D43
:1007B00061726C696E0020536F6674776172652098
:1007C000526573657400205761746368646F6720B5
:1007D0005265736574002042726F776E206F757476
:1007E000205265736574002045787465726E616C83
:1007F00020526573657400506F7765725570007391
:1008000074617274002200656E717565696E67208F
:1008100022002200656E717565696E67202200FFF7
:10082000FFFF0000A0400000A040000000400000CA
:100830004D4300004D43000048430000000000000D
:1008400000000000000000004D4300004D43000088
:100850004843000000000000000000000000656345
:10086000686F3A004572726F723A0041414141E14E
:10087000414143454545454949494944EE4F4F4F5C
:100880004FEF784F555555F55954E261616161E17B
:10089000616163656565656969696964EE6F6F6F5C
:1008A0006FEFFD6F757575F5797479007C3C3E5E70
:1008B0002B3D3F2F5B5D3B2C2A225C0020746F6F29
:1008C000206C6F6E6720657874727573696F6E2027
:1008D00070726576656E7465640020636F6C642069
:1008E000657874727573696F6E2070726576656E67
:1008F000746564006563686F3A00656E6473746F55
:100900007073206869743A205A00205A3A00656E64
:100910006473746F7073206869743A2059002059A9
:100920003A00656E6473746F7073206869743A205E
:10093000580020583A00656E6473746F70732068B5
:1009400069743A200024F4D43050C38E20C2A240EF
:1009500017828B7011127A910D816CD90AA861E10E
:1009600008C7586607615143061E4B5D05C145A780
:10097000041A411104093D9803713931034036DBF3
:100980000265339102D4305402802E1D02632CEE96
:1009900001752AC501B028A001102781018F2564A7
:1009A000012B244B01E0223401AC211F018D200DCD
:1009B00001801FFC00841EED00971DDF00B81CD2D3
:1009C00000E61BC600201BBC00641AB200B219A8C6
:1009D000000A19A0006A189900D117910040178BDE
:1009E00000B516840031167E00B31579003A1573F0
:1009F00000C7146F0058146A00EE13660088136372
:100A00000025135E00C7125B006C125700151254CC
:100A100000C111510070114F0021114B00D6104937
:100A2000008D1047004610440002104200C00F40E5
:100A300000800F3E00420F3C00060F3B00CB0E38FB
:100A400000930E37005C0E3500270E3400F30D3294
:100A500000C10D3100900D3000600D2E00320D2DC3
:100A600000050D2C00D90C2B00AE0C2900850C299B
:100A7000005C0C2700350C27000E0C2600E80B2428
:100A800000C40B2400A00B23007D0B23005A0B2174
:100A900000390B2100180B2000F80A1F00D90A1E8C
:100AA00000BB0A1E009D0A1D00800A1D00630A1C6F
:100AB00000470A1B002C0A1B00110A1A00F7091A2A
:100AC00000DD091900C4091900AB091900920917C2
:100AD000007B091800630917004C09160036091637
:100AE00000200916000A091500F5081500E0081491
:100AF00000CC081400B8081400A4081400900813CF
:100B0000007D0812006B08130058081200460812F6
:100B10000034081100230811001208110001081107
:100B200000F0071000E0071000D0071000C0071009
:100B300000B0070F00A107100091070E0083070FF8
:100B40000074070F0065070E0057070E0049070ED7
:100B5000003B070D002E070E0020070D0013070DA8
:100B60000006070D00F9060C00ED060D00E0060C6E
:100B700000D4060C00C8060C00BC060C00B0060C25
:100B800000A4060B0099060C008D060B0082060BD4
:100B90000077060B006C060B0061060A0057060B77
:100BA000004C060A0042060A0038060A002E060A11
:100BB0000024060A001A060A001006090007060AA1
:100BC00000FD050900F4050900EB050900E205092F
:100BD00000D9050900D0050900C7050900BE0509AF
:100BE00000B5050800AD050800A50509009C05082D
:100BF00000940508008C050800840508007C0508A1
:100C000000740508006C050700650508005D050710
:100C100000560508004E0507004705070040050877
:100C20000038050700310507002A050700230507DE
:100C3000001C050600160507000F0507000805063D
:100C40000002050700FB040600F5040700EE040699
:100C500000E8040600E2040700DB040600D50406F1
:100C600000CF040600C9040600C3040600BD040644
:100C700000B7040600B1040500AC040600A6040693
:100C800000A00405009B04060095040500900406DE
:100C9000008A04050085040500800406007A040526
:100CA0000075040500700405006B0405006604056A
:100CB00000610405005C04050057040500520405AA
:100CC000004D04050048040500430405003E0404EB
:100CD000003A04050035040500300404002C040526
:100CE0000027040400230405001E0404001A040461
:100CF0000016040500110404000D04040009040595
:100D0000000404040000040400FC030400F80304CD
:100D100000F4030400F0030400EC030400E80304FF
:100D200000E4030400E0030400DC030400D803042F
:100D300000D4030400D0030400CC030400C8030360
:100D400000C503030024F404D9201BC40C5C0E98D6
:100D500004C4095F0265077101F405F900FB04B3DF
:100D60000048048700C10369005803550003034588
:100D700000BE023A008402310053022A00290225F3
:100D80000004022000E4011C00C8011900AF011793
:100D9000009801140084011300710110006101101A
:100DA0000051010E0043010D0036010B002B010B19
:100DB0000020010B00150109000C010900030108C6
:100DC00000FB000800F3000800EB000700E4000649
:100DD00000DE000600D8000600D2000600CC0005A8
:100DE00000C7000500C2000500BD000400B90004F2
:100DF00000B5000400B1000400AD000400A9000427
:100E000000A5000300A20003009F0004009B000354
:100E10000098000300950002009300030090000377
:100E2000008D0002008B0003008800020086000293
:100E30000084000300810002007F0002007D0002A8
:100E4000007B0002007900020077000100760002BA
:100E5000007400020072000100710002006F0002C5
:100E6000006D0001006C0002006A000100690002D0
:100E700000670001006600010065000100640002D7
:100E8000006200010061000100600001005F0002DB
:100E9000005D0001005C0001005B0001005A0001E0
:100EA00000590001005800010057000100560001E0
:100EB00000550001005400010053000000530001E0
:100EC000005200010051000100500001004F0001DC
:100ED000004E0000004E0001004D0001004C0001DA
:100EE000004B0000004B0001004A000100490001D6
:100EF00000480000004800010047000100460000D3
:100F000000460001004500000045000100440001CA
:100F100000430000004300010042000000420001C5
:100F2000004100000041000100400001003F0000BE
:100F3000003F0001003E0000003E0001003D0000B7
:100F4000003D0001003C0000003C0000003C0001AE
:100F5000003B0000003B0001003A0000003A0001A5
:100F6000003900000039000100380000003800009E
:100F70000038000100370000003700010036000093
:100F8000003600000036000100350000003500008A
:100F9000003500010034000000340000003400017E
:100FA0000033000000330000003300010032000075
:100FB000003200000032000100310000003100006A
:100FC000003100010030000000300000003000015E
:100FD000002F0000002F0000002F0000002F000154
:100FE000002E0000002E0000002E0001002D000049
:100FF000002D0000002D0000002D0001002C00003D
:10100000002C0000002C0000002C0001002B000030
:10101000002B0000002B0000002B0001002A000024
:10102000002A0000002A0000002A00010029000018
:10103000002900000029000000290000002900010B
:101040000028000000280000002800000028000000
:1010500000280001002700000027000000270000F2
:1010600000270000002700010026000000260000E5
:1010700000260000002600000026000100250000D8
:1010800000250000002500000025000000250000CC
:1010900000250001002400000024000000240000BE
:1010A00000240000002400010023000000230000B1
:1010B00000230000002300000023000000230000A4
:1010C0000023000100220000002200000022000096
:1010D0000022000000220000002200010021000088
:1010E000002100000021000000210000002100007C
:1010F000002100000021000100200000002000006D
:10110000002000000020000000200000002000005F
:101110000020000000200001001F0000001F000050
:10112000001F0000001F0000001F0000001F000043
:10113000001F0001001E0000001E0000001E000035
:10114000001E0000006563686F3A004572723A2025
:101150004D494E54454D50003A204578747275649F
:101160006572207377697463686564206F66662EA4
:10117000204D494E54454D50207472696767657221
:1011800065642021004572723A204D415854454D06
:1011900050003A20457874727564657220737769DF
:1011A0007463686564206F66662E204D415854450F
:1011B0004D5020747269676765726564202100482C
:1011C000656174696E67206661696C656400202DD5
:1011D00020496E76616C6964206578747275646507
:1011E00072206E756D626572202100504944204165
:1011F00075746F74756E652066696E697368656471
:10120000212050757420746865206C617374204BC4
:10121000702C204B6920616E64204B6420636F6EDC
:101220007374616E74732066726F6D2061626F7685
:101230006520696E746F20436F6E666967757261B1
:1012400074696F6E2E6800504944204175746F7444
:10125000756E65206661696C6564212074696D65D1
:101260006F75740020403A006F6B20543A006F6B2A
:1012700020423A00504944204175746F74756E6580
:10128000206661696C6564212054656D70657261CA
:101290007475726520746F6F206869676800204BF1
:1012A000643A2000204B693A2000204B703A20001D
:1012B00020436C61737369632050494420002054BB
:1012C000753A2000204B753A2000206D61783A2055
:1012D00000206D696E3A200020643A200020626987
:1012E00061733A20006563686F3A004572726F72ED
:1012F0003A004D383420582059205A204500436187
:101300006E6E6F7420656E746572207375626469A9
:10131000723A20004D3234004D3233202573006183
:1013200075746F25692E67006572726F722077720F
:101330006974696E6720746F2066696C65004E6F12
:1013400074205344207072696E74696E67002F00B8
:101350005344207072696E74696E67206279746597
:1013600020002E0044656C6574696F6E20666169AB
:101370006C65642C2046696C653A200046696C6592
:101380002064656C657465643A002E006F70656E4C
:10139000206661696C65642C2046696C653A2000A2
:1013A00057726974696E6720746F2066696C653A5C
:1013B00020002E006F70656E206661696C65642C7C
:1013C0002046696C653A20002E006F70656E2066BD
:1013D00061696C65642C2046696C653A2000466939
:1013E0006C652073656C6563746564002053697A6D
:1013F000653A200046696C65206F70656E65643AD9
:1014000020002E006F70656E206661696C65642C2B
:101410002046696C653A20004E6F772066726573CE
:10142000682066696C653A20004E6F7720646F69AA
:101430006E672066696C653A20002220706F730029
:101440002220706172656E743A2200535542524FE9
:101450005554494E452043414C4C20746172676598
:10146000743A2200747279696E6720746F20636128
:101470006C6C207375622D67636F64652066696CA0
:101480006573207769746820746F6F206D616E7961
:10149000206C6576656C732E204D4158206C657606
:1014A000656C2069733A0053442063617264206F55
:1014B0006B006F70656E526F6F74206661696C654A
:1014C0006400766F6C756D652E696E697420666157
:1014D000696C656400534420696E697420666169B3
:1014E0006C006563686F3A004572726F723A00482B
:1014F000617264636F6465642044656661756C74D1
:101500002053657474696E6773204C6F6164656401
:101510000053746F7265642073657474696E6773C9
:101520002072657472696576656400204400204904
:10153000002020204D33303120500050494420738A
:10154000657474696E67733A00205A002059002050
:10155000204D323036205800486F6D65206F66662A
:1015600073657420286D6D293A00204500205A00CB
:1015700020580020420020540020204D32303520D9
:101580005300416476616E636564207661726961BF
:10159000626C65733A20533D4D696E2066656564E3
:1015A0007261746520286D6D2F73292C20543D4D78
:1015B000696E2074726176656C206665656472611F
:1015C000746520286D6D2F73292C20423D6D696E46
:1015D000696D756D207365676D656E742074696DD6
:1015E0006520286D73292C20583D6D6178696D75D3
:1015F0006D205859206A65726B20286D6D2F7329F4
:101600002C20205A3D6D6178696D756D205A206AD5
:1016100065726B20286D6D2F73292C2020453D6D40
:101620006178696D756D2045206A65726B20286D43
:101630006D2F73290020540020204D323034205368
:1016400000416363656C65726174696F6E3A205323
:101650003D616363656C65726174696F6E2C2054C3
:101660003D7265747261637420616363656C657259
:101670006174696F6E00204500205A0020590020D7
:10168000204D3230312058004D6178696D756D20E4
:10169000416363656C65726174696F6E20286D6D5E
:1016A0002F7332293A00204500205A00205900208B
:1016B000204D3230332058004D6178696D756D20B2
:1016C00066656564726174657320286D6D2F73297A
:1016D0003A00204500205A0020590020204D393280
:1016E00020580053746570732070657220756E69A0
:1016F000743A0053657474696E67732053746F7223
:101700006564006563686F3A000243617264207229
:10171000656D6F766564004361726420696E736500
:1017200072746564002D2D3A2D2D002D2D2D005342
:1017300044002059000120000120004D36303000C7
:101740004368616E67652066696C616D656E7400E3
:10175000466C6F77203100466C6F77203100466C05
:101760006F77203000466C6F77203000466C6F77C3
:1017700000466C6F770046616E207370656564008B
:1017800046616E207370656564004E6F7A7A6C6591
:1017900032004E6F7A7A6C6532004E6F7A7A6C65E1
:1017A000004E6F7A7A6C6500537065656400537003
:1017B000656564004D61696E0050726568656174AD
:1017C00020504C4120416C6C00507265686561741A
:1017D00020504C4120320050726568656174205081
:1017E0004C41203100507265706172650050726525
:1017F000686561742041425320416C6C00507265F1
:1018000068656174204142532032005072656865FA
:1018100061742041425320310050726570617265DD
:1018200000580059005A004578747275646572005A
:101830004578747275646572004D6F7665205A0044
:101840004D6F76652059004D6F76652058004D6FBD
:1018500076652061786973004D6F766520302E3192
:101860006D6D004D6F766520316D6D004D6F766545
:101870002031306D6D0050726570617265004D6F82
:1018800076652061786973004D383000537769744C
:10189000636820706F776572206F6E004D3831007D
:1018A00053776974636820706F776572206F66661E
:1018B00000436F6F6C646F776E005072656865618E
:1018C0007420414253005072656865617420504C29
:1018D0004100473238004175746F20686F6D6500B4
:1018E0004D38340044697361626C652073746570AF
:1018F00070657273004D61696E0053746F7265207C
:101900006D656D6F7279004E6F7A7A6C65004E6FFF
:101910007A7A6C650046616E207370656564004676
:10192000616E2073706565640054656D70657261E9
:10193000747572650053746F7265206D656D6F729A
:1019400079004E6F7A7A6C65004E6F7A7A6C65001A
:1019500046616E2073706565640046616E20737029
:101960006565640054656D706572617475726500BB
:10197000507265686561742041425320636F6E66E2
:10198000005072656865617420504C4120636F6E31
:1019900066005049442D43005049442D43005049AE
:1019A000442D44005049442D44005049442D4900E1
:1019B0005049442D49005049442D50005049442D70
:1019C000500046616E2073706565640046616E204C
:1019D0007370656564004E6F7A7A6C6532004E6F85
:1019E0007A7A6C6532004E6F7A7A6C65004E6F7A47
:1019F0007A6C6500436F6E74726F6C00457374652A
:101A000070732F6D6D004573746570732F6D6D006D
:101A10005A73746570732F6D6D005A7374657073AB
:101A20002F6D6D005973746570732F6D6D00597350
:101A3000746570732F6D6D005873746570732F6DBE
:101A40006D005873746570732F6D6D00412D726554
:101A5000747261637400412D726574726163740005
:101A6000416D6178206500416D6178206500416DB0
:101A70006178207A00416D6178207A00416D61784B
:101A8000207900416D6178207900416D617820787E
:101A900000416D61782078005654726176206D693E
:101AA0006E005654726176206D696E00566D696ED7
:101AB00000566D696E00566D6178206500566D6147
:101AC00078206500566D6178207A00566D61782027
:101AD0007A00566D6178207900566D617820790022
:101AE000566D6178207800566D61782078005665D3
:101AF0002D6A65726B0056652D6A65726B00567AA9
:101B00002D6A65726B00567A2D6A65726B00567885
:101B1000792D6A65726B005678792D6A65726B0053
:101B2000416363656C00416363656C00436F6E7471
:101B3000726F6C00417072203136203230313520A6
:101B400031323A33353A3336003235303030305F67
:101B50006475616C00556C74696D616B65723A5F98
:101B600031352E3034004669726D776172652076AA
:101B7000657273696F6E004669726D776172652078
:101B800076657273696F6E00526573746F7265204B
:101B90006661696C73616665004C6F6164206D6598
:101BA0006D6F72790053746F7265206D656D6F7221
:101BB00079004D6F74696F6E0054656D7065726168
:101BC00074757265004D61696E004D38342058207F
:101BD00059205A2045004D3234004D3233202573B0
:101BE00000052E2E004D61696E004E6F205344207B
:101BF00063617264005072696E742066726F6D204A
:101C000053440053746F70207072696E7400526593
:101C100073756D65207072696E74005061757365BF
:101C2000207072696E7400436F6E74726F6C005036
:101C30007265706172650054756E6500496E666FFD
:101C40002073637265656E004E414E494E4954598A
:101C5000494E46CDCCCC3D0AD7233C17B7D1387777
:101C6000CC2B329595E6241FB14F0A00002041008D
:101C700000C84200401C4620BCBE4CCA1B0E5AAED7
:101C8000C59D74000C94E3700C947E1F0C949E1000
:101C90000C945BBC0C9466100C947FB30C94DF70B6
:101CA0000C94DCB50C94CB100C94FDB20C94801009
:101CB0000C948A100C94F88D0C9470100C94627033
:101CC0000C94D5100C942E940C942F130C94371163
:101CD0000C9457890C94DF100C940E110C94691F0E
:101CE0000C9452100C9424110C9420110C94041197
:101CF0000C945E1F0C94531F0C947BB20C945DAD3E
:101D00000C942A110C940C8E0C9432460C94A4A1C1
:101D10000C94848C0C94FD100C9471700C940DA098
:101D20000C94C5700C94F3100C941C110C9439B5E0
:101D30000C942FB10C9494100C9432110C947F5C81
:101D40000C94FFB30C9405380C947CB10C948D70FA
:101D50000C94B6700C940CB80C9408110C94F710F9
:101D60000C94928C0C947FB60C9496B40C945710EF
:101D70000C94BD8A0C9409380C944E960C94001166
:101D80000C9478100C94EB700C9412110C94741F3A
:101D90000C9416110C94C68E0C942E110C94D6989B
:101DA0000C949C700C94B7100C9493A60C945C103B
:101DB0000C94DFB70C9494910C94C1100C9427B739
:101DC0000C94AD100C94768C0C94F9B10C94769E16
:101DD0000C945D9A05382FB1093811241FBECFEF3E
:101DE000D1E2DEBFCDBF00E00CBF14E0A0E0B2E066
:101DF000E8EBFFE801E00BBF02C007900D92A23BA9
:101E0000B107D9F712E1A2EBB4E001C01D92A03CEA
:101E1000B107E1F71DE1C8EDDDE100E006C0229762
:101E20000109FE010BBF0E9484C1C43DD10780E0BF
:101E30000807A9F70E9461BC0C94CAC70C94000063
:101E40001F920F920FB60F9211242F933F938F93EF
:101E50009F93AF93BF938091B3049091B404A091EA
:101E6000B504B091B6043091B20423E0230F2D37AE
:101E700020F40196A11DB11D05C026E8230F02968E
:101E8000A11DB11D2093B2048093B3049093B404B8
:101E9000A093B504B093B6048091B7049091B804B0
:101EA000A091B904B091BA040196A11DB11D80930F
:101EB000B7049093B804A093B904B093BA04BF9147
:101EC000AF919F918F913F912F910F900FBE0F90E7
:101ED0001F9018952FB7F8946091B3047091B404D3
:101EE0008091B5049091B6042FBF08953FB7F89440
:101EF0008091B7049091B804A091B904B091BA044C
:101F000026B5A89B05C02F3F19F00196A11DB11D54
:101F10003FBF6627782F892F9A2F620F711D811D71
:101F2000911D42E0660F771F881F991F4A95D1F7D0
:101F30000895CF92DF92EF92FF92CF93DF936B01E0
:101F40007C010E94760FEB01C114D104E104F1047D
:101F500079F00E94760F6C1B7D0B683E7340A0F3F6
:101F600081E0C81AD108E108F108C851DC4FECCF74
:101F7000DF91CF91FF90EF90DF90CF900895019780
:101F8000009739F0880F991F880F991F02970197C2
:101F9000F1F70895789484B5826084BD84B581603A
:101FA00084BD85B5826085BD85B5816085BDEEE661
:101FB000F0E0808181608083E1E8F0E01082808140
:101FC00082608083808181608083E0E8F0E08081AE
:101FD00081608083E1EBF0E0808184608083E0EBCE
:101FE000F0E0808181608083E1E9F0E080818260BF
:101FF0008083808181608083E0E9F0E0808181607E
:102000008083E1EAF0E0808182608083808181606A
:102010008083E0EAF0E0808181608083E1E2F1E0AA
:10202000808182608083808181608083E0E2F1E052
:10203000808181608083EAE7F0E080818460808332
:1020400080818260808380818160808380818068DC
:1020500080831092C10008951F93CF93DF93182FB0
:10206000EB0161E00E943811209711F460E004C098
:10207000CF3FD10539F461E0812FDF91CF911F91DE
:102080000C947111E12FF0E0E356FE4F449150E0C3
:10209000FA013197E131F10508F091C0EE58FF4F98
:1020A0000C946FC184B5806884BDC7BD8DC084B5F4
:1020B000806284BDC8BD88C08091800080688093A4
:1020C0008000D0938900C09388007EC080918000FA
:1020D000806280938000D0938B00C0938A0074C08C
:1020E0008091B00080688093B000C093B3006CC052
:1020F0008091B00080628093B000C093B40064C04F
:1021000080919000806880939000D0939900C09354
:1021100098005AC080919000806280939000D09384
:102120009B00C0939A0050C080919000886080937B
:102130009000D0939D00C0939C0046C08091A00069
:1021400080688093A0008091A0008F7B8093A00086
:10215000D093A900C093A80037C08091A0008062EE
:102160008093A000D093AB00C093AA002DC08091B3
:10217000A00088608093A000D093AD00C093AC0015
:1021800023C080912001806880932001D093290191
:10219000C093280119C080912001806280932001A2
:1021A000D0932B01C0932A010FC080912001886039
:1021B00080932001D0932D01C0932C0105C0C0381D
:1021C000D1050CF058CF52CFDF91CF911F910895D8
:1021D00090E0FC013197E131F10508F048C0ED577E
:1021E000FF4F0C946FC1809180008F7703C0809166
:1021F00080008F7D80938000089584B58F7702C022
:1022000084B58F7D84BD08958091B0008F7703C021
:102210008091B0008F7D8093B000089580919000F0
:102220008F7707C0809190008F7D03C080919000D0
:10223000877F8093900008958091A0008F7707C0DA
:102240008091A0008F7D03C08091A000877F809344
:10225000A0000895809120018F7707C08091200110
:102260008F7D03C080912001877F80932001089596
:10227000CF93DF9390E0FC01ED51FE4F2491FC01E0
:10228000E75DFD4F8491882349F190E0880F991F05
:10229000FC01E757FD4FA591B49181599D4FFC0179
:1022A000C591D4919FB7611108C0F8948C91209585
:1022B00082238C93888182230AC0623051F4F8947F
:1022C0008C91322F309583238C938881822B888345
:1022D00004C0F8948C91822B8C939FBFDF91CF9197
:1022E00008950F931F93CF93DF931F92CDB7DEB75F
:1022F000282F30E0F901E356FE4F8491F901ED51AA
:10230000FE4F1491F901E75DFD4F04910023C9F0E0
:10231000882321F069830E94E8106981E02FF0E0B2
:10232000EE0FFF1FE159FD4FA591B4919FB7F894AF
:102330008C91611103C01095812301C0812B8C9376
:102340009FBF0F90DF91CF911F910F9108951F9222
:102350000F920FB60F9211240BB60F922F933F934B
:102360004F935F936F937F938F939F93AF93BF939D
:10237000EF93FF938091BF049091C004892B29F0C3
:10238000E091BF04F091C0041995FF91EF91BF91C6
:10239000AF919F918F917F916F915F914F913F91FD
:1023A0002F910F900BBE0F900FBE0F901F9018959E
:1023B0001F920F920FB60F9211240BB60F922F930C
:1023C0003F934F935F936F937F938F939F93AF93BD
:1023D000BF93EF93FF938091C1049091C204892B26
:1023E00029F0E091C104F091C2041995FF91EF9199
:1023F000BF91AF919F918F917F916F915F914F911D
:102400003F912F910F900BBE0F900FBE0F901F901A
:1024100018951F920F920FB60F9211240BB60F92C0
:102420002F933F934F935F936F937F938F939F93DC
:10243000AF93BF93EF93FF938091C3049091C40433
:10244000892B29F0E091C304F091C4041995FF9100
:10245000EF91BF91AF919F918F917F916F915F911C
:102460004F913F912F910F900BBE0F900FBE0F9089
:102470001F9018951F920F920FB60F9211240BB652
:102480000F922F933F934F935F936F937F938F930D
:102490009F93AF93BF93EF93FF938091C504909167
:1024A000C604892B29F0E091C504F091C604199562
:1024B000FF91EF91BF91AF919F918F917F916F911C
:1024C0005F914F913F912F910F900BBE0F900FBED8
:1024D0000F901F9018951F920F920FB60F92112414
:1024E0000BB60F922F933F934F935F936F937F930E
:1024F0008F939F93AF93BF93EF93FF938091BB0410
:102500009091BC04892B29F0E091BB04F091BC04AC
:102510001995FF91EF91BF91AF919F918F917F910D
:102520006F915F914F913F912F910F900BBE0F9044
:102530000FBE0F901F9018951F920F920FB60F921B
:1025400011240BB60F922F933F934F935F936F938A
:102550007F938F939F93AF93BF93EF93FF9380915C
:10256000BD049091BE04892B29F0E091BD04F09147
:10257000BE041995FF91EF91BF91AF919F918F91FB
:102580007F916F915F914F913F912F910F900BBE73
:102590000F900FBE0F901F9018951F920F920FB6BD
:1025A0000F9211240BB60F922F933F934F935F938B
:1025B0006F937F938F939F93AF93BF93EF93FF930B
:1025C0008091C7049091C804892B29F0E091C70439
:1025D000F091C8041995FF91EF91BF91AF919F9130
:1025E0008F917F916F915F914F913F912F910F90BC
:1025F0000BBE0F900FBE0F901F9018951F920F9259
:102600000FB60F9211240BB60F922F933F934F9357
:102610005F936F937F938F939F93AF93BF93EF934A
:10262000FF938091C9049091CA04892B29F0E0910D
:10263000C904F091CA041995FF91EF91BF91AF9130
:102640009F918F917F916F915F914F913F912F91CA
:102650000F900BBE0F900FBE0F901F901895CF924A
:10266000DF92EF92FF920F931F93CF93DF936C0152
:102670007A01EB01E60EF71E00E010E0CE15DF0553
:1026800061F06991D601ED91FC910190F081E02D0E
:10269000C6011995080F191FF1CFC801DF91CF911D
:1026A0001F910F91FF90EF90DF90CF9008956115EB
:1026B000710581F0DB010D900020E9F7AD0141507B
:1026C0005109461B570BDC01ED91FC910280F3810F
:1026D000E02D199480E090E008950C945713DC01EC
:1026E000ED91FC910190F081E02D1994FC01659130
:1026F0007591859194910895CF92DF92EF92FF9218
:102700000F931F93CF93DF93EC01CC0FDD1FCC0F02
:10271000DD1FCE01865C974F0E947613FE01EA53BF
:10272000F94FC080D180E280F3808E010E52194FA4
:10273000A70196010E946FBCF801608371838283B8
:102740009383CE018E5A974F0E9476138E010654C2
:10275000194FA70196010E946FBCF8016083718335
:1027600082839383CE018A5B974F0E947613CB5E60
:10277000DD4FA70196010E946FBC688379838A832D
:102780009B83DF91CF911F910F91FF90EF90DF908E
:10279000CF9008952F923F924F925F926F927F92C7
:1027A0008F929F92AF92BF92CF92DF92EF92FF9261
:1027B0000F931F93CF93DF9300D000D0CDB7DEB738
:1027C0009A838983FC01E15EF74F94905C01AA0C27
:1027D000BB1CAA0CBB1CC5018E52994F1C01DC010D
:1027E0001D921D921D921C9213972EED36E04AED1C
:1027F00056E066ED76E082ED96E00E94AD5BC501A5
:10280000825D974F0E9476136B017C01692D7727BB
:1028100067FD7095872F972F0E94EABD2B013C0121
:10282000F501E057F94FFC83EB8320E030E040EC0A
:102830005FE3C701B6010E941DC0A30192010E947F
:102840001DC0AB81BC816D937D938D939C93139739
:10285000F501EF5CFD4FFE83ED8360817181828124
:10286000938160930F0270931002809311029093F2
:10287000120220E030E040E752E40E944FBD22EA1D
:10288000C22E26E0D22E7B018C012CE936E048E9ED
:1028900056E064E976E080E996E00E9403520E94E7
:1028A0005465D1011D921D921D921C9213972EED1D
:1028B00036E04AED56E066ED76E082ED96E00E9465
:1028C000AD5BC5018E5D974F0E9476134B015C0195
:1028D0009058A30192010E941DC0EB81FC8160838E
:1028E00071838283938320E030E040E752E460917B
:1028F0000F027091100280911102909112020E94B9
:102900004FBD7B018C012CE936E048E956E064E9D3
:1029100076E080E996E00E9403520E945465A5018A
:102920009401C501B4010E946FBCA30192010E94F1
:102930001DC0AB81BC816D937D938D939C93139748
:1029400020E030E040E05FE3ED81FE816081718155
:10295000828193810E941DC060930F0270931002C8
:10296000809311029093120220E030E040E752E49D
:102970000E944FBD7B018C012CE936E048E956E00E
:1029800064E976E080E996E00E9403520E94546573
:1029900089819A810E947C13F10180819181A281B9
:1029A000B381EB81FC8180839183A283B3831092F6
:1029B0000F021092100210921102109212020E9445
:1029C000625DE981FA81E954F94F81E080832696BE
:1029D0000FB6F894DEBF0FBECDBFDF91CF911F9130
:1029E0000F91FF90EF90DF90CF90BF90AF909F90AE
:1029F0008F907F906F905F904F903F902F900895B1
:102A0000FC012491222341F03091C00035FFFCCF1E
:102A10002093C6000196F4CF22E030E085E799E0EC
:102A20000C943E3AFC012491222341F03091C000E5
:102A300035FFFCCF2093C6000196F4CF2AE030E0AA
:102A400085E799E00C948D39CF93DF931F921F9205
:102A5000CDB7DEB78091BA129091BB129E012F5F65
:102A60003F4F009719F4205C324102C0281B390BFC
:102A70003A83298389819A810F900F90DF91CF91BA
:102A800008952091E5043091E604243031050CF0DE
:102A90006AC04091E7045091E80460E6649F9001A9
:102AA000659F300D1124BC01C90181519B4F0E94CB
:102AB000BDC4EEE5F8E08491882341F09091C00018
:102AC00095FFFCCF8093C6003196F5CFE4E1F8E0A6
:102AD0008491882341F09091C00095FFFCCF8093B2
:102AE000C6003196F5CF8091E7049091E80420E686
:102AF000289FF001299FF00D1124E151FB4F819196
:102B0000882339F09091C00095FFFCCF8093C600D8
:102B1000F6CFE2E1F8E08491882341F09091C00083
:102B200095FFFCCF8093C6003196F5CF8091C00011
:102B300085FFFCCF8AE08093C6008091E7049091E6
:102B4000E804019664E070E00E941AC19093E804E2
:102B50008093E7048091E5049091E60401969093B8
:102B6000E6048093E50408952091E5043091E6049D
:102B7000243031050CF06AC04091E7045091E8041C
:102B800060E6649F9001659F300D1124BC01C9016E
:102B900081519B4F0E9449C4EEE5F8E0849188235F
:102BA00041F09091C00095FFFCCF8093C600319614
:102BB000F5CFE7E0F8E08491882341F09091C000E0
:102BC00095FFFCCF8093C6003196F5CF8091E70446
:102BD0009091E80420E6289FF001299FF00D112430
:102BE000E151FB4F8191882339F09091C00095FF0E
:102BF000FCCF8093C600F6CFE5E0F8E0849188230F
:102C000041F09091C00095FFFCCF8093C6003196B3
:102C1000F5CF8091C00085FFFCCF8AE08093C6008D
:102C20008091E7049091E804019664E070E00E94CE
:102C30001AC19093E8048093E7048091E504909191
:102C4000E60401969093E6048093E5040895809A43
:102C5000889A269A2E980895809A889808950E94B6
:102C6000271640E950ED63E070E085E799E00E94A7
:102C70004638EFEFF7E08491882341F09091C0004F
:102C800095FFFCCF8093C6003196F5CF8091C000B0
:102C900085FFFCCF8AE08093C6008EE598E0FC01BA
:102CA0002491222341F03091C00035FFFCCF2093C6
:102CB000C6003196F5CF24B720FF14C0E7EFF7E048
:102CC0003491332341F04091C00045FFFCCF309355
:102CD000C6003196F5CF3091C00035FFFCCF3AE009
:102CE0003093C60021FF14C0E7EEF7E034913323A0
:102CF00041F04091C00045FFFCCF3093C6003196B3
:102D0000F5CF3091C00035FFFCCF3AE03093C600DC
:102D100022FF14C0E6EDF7E03491332341F04091F7
:102D2000C00045FFFCCF3093C6003196F5CF3091FF
:102D3000C00035FFFCCF3AE03093C60023FF14C03B
:102D4000E6ECF7E03491332341F04091C00045FFB9
:102D5000FCCF3093C6003196F5CF3091C00035FFDF
:102D6000FCCF3AE03093C60025FF14C0E6EBF7E055
:102D70002491222341F03091C00035FFFCCF2093F5
:102D8000C6003196F5CF2091C00025FFFCCF2AE088
:102D90002093C60014BEEFEAF7E02491222341F00D
:102DA0003091C00035FFFCCF2093C6003196F5CF9F
:102DB000E9EAF7E02491222341F03091C00035FF89
:102DC000FCCF2093C6003196F5CF2091C00025FF9F
:102DD000FCCF2AE02093C600FC012491EEE5F8E048
:102DE000222349F03091C00035FFFCCF2093C6006C
:102DF00031962491F5CFE9E9F7E02491222341F0BF
:102E00003091C00035FFFCCF2093C6003196F5CF3E
:102E1000E4E8F7E02491222341F03091C00035FF2F
:102E2000FCCF2093C6003196F5CFE8E7F7E0249178
:102E3000222341F03091C00035FFFCCF2093C60023
:102E40003196F5CFEAE6F7E02491222341F0309164
:102E5000C00035FFFCCF2093C6003196F5CF2091FE
:102E6000C00025FFFCCF2AE02093C600EFE5F7E085
:102E70002491222341F03091C00035FFFCCF2093F4
:102E8000C6003196F5CFE3E5F7E02491222341F027
:102E90003091C00035FFFCCF2093C6003196F5CFAE
:102EA0002091C00025FFFCCF2AE02093C600FC0142
:102EB0008491EEE5F8E0882349F09091C00095FFF9
:102EC000FCCF8093C60031968491F5CFE4E4F7E01F
:102ED0008491882341F09091C00095FFFCCF8093AE
:102EE000C6003196F5CF0E9424154AE050E0BC019F
:102EF00085E799E00E945E39EDE2F7E0849188234E
:102F000041F09091C00095FFFCCF8093C6003196B0
:102F1000F5CF4AE050E060ED74E085E799E00E946B
:102F20005E398091C00085FFFCCF8AE08093C600A7
:102F30001092EB041092EC041092ED041092EE0447
:102F40000E94C1820E94CF690E94B3510E94C08337
:102F50000E94CA640E94669CFFEF23ED80E3F1505B
:102F600020408040E1F700C0000008958091DF0418
:102F70009091E00460E070E001960C9488C180912B
:102F8000DF049091E0044AE050E060E070E00196D8
:102F90000C9405C3682F70E02091E9043091EA0495
:102FA00040E6429FC001439F900D112481519B4FE9
:102FB0000E94B2C49093E0048093DF0421E0892B47
:102FC00009F420E0822F08950E946A0F6093DB04C9
:102FD0007093DC048093DD049093DE0408950E94D6
:102FE0006A0F6093DB047093DC048093DD0490939C
:102FF000DE04E091E904F091EA04E551FB4F8081A1
:10300000811114C0EBE4F3E08491882341F09091A6
:10301000C00095FFFCCF8093C6003196F5CF80911C
:10302000C00085FFFCCF8AE08093C600089585E745
:1030300099E00E949838EEE4F3E08491882341F00F
:103040009091C00095FFFCCF8093C6003196F5CFDC
:1030500040917406509175066091760670917706DE
:103060004F5F5F4F6F4F7F4F2AE030E085E799E079
:103070000E9437398091C00085FFFCCF8AE08093A1
:10308000C6000C94EF172F923F924F925F926F926F
:103090007F928F929F92AF92BF92CF92DF92EF92E8
:1030A000FF920F931F93CF93DF93CDB7DEB76F9748
:1030B0000FB6F894DEBF0FBECDBF60E6D62E74E02B
:1030C000E72EF12CE0EFF5E0B490EAE0CE2EE6E654
:1030D000F6E0A490992493948091F6099091F709D1
:1030E0002091F8093091F909821B930B8F7799276A
:1030F000892B39F08091E5049091E60404970CF453
:103100004DC08091EA06882309F48CC38091E204C3
:103110009091E304892B09F085C38091E504909197
:10312000E604892B11F41092CB04E3EDF5E0249032
:103130004CE3C42ED12CE12CF12C50E1452E5EE065
:10314000552E612C712C8E010F5F1F4F30E6332EF0
:10315000EEE5F8E094919F8F40916B0950916C09D6
:1031600060916D0970916E09809163099091640975
:10317000A0916509B0916609481759076A077B074E
:1031800008F050C38091E5049091E60404970CF098
:1031900049C38091CB04811145C321C285E799E0E1
:1031A0000E947C388093E4042091E2043091E3048F
:1031B0008A3061F08D3051F08A3321F49091E1042E
:1031C000992321F02F3531050CF48DC121153105DE
:1031D00009F4A7C18091E7049091E804D89E80018A
:1031E000D99E100D1124F801E20FF31FE151FB4F9E
:1031F00010822091E104211171C11092E104FC01BF
:10320000E551FB4F1082980121513B4F39016EE48B
:1032100070E0C9010E94B2C4009709F4A2C0909363
:10322000E0048093DF0486199709800F911F4AE01C
:1032300050E060E070E080519B4F0E9405C36093B6
:1032400078067093790680937A0690937B06409077
:1032500074065090750660907606709077063FEF82
:10326000431A530A630A730A0091E7041091E804B1
:10327000641575058605970509F456C1D09EC001F1
:10328000D19E900D11246FE077E081519B4F0E94F9
:1032900077C4892B09F048C1E4E6F8E084918823DB
:1032A00041F09091C00095FFFCCF8093C60031960D
:1032B000F5CFECEDF6E08491882341F09091C000C9
:1032C00095FFFCCF8093C6003196F5CF40917406F0
:1032D0005091750660917606709177062AE030E08D
:1032E00085E799E00E9437398091C00085FFFCCFC7
:1032F00032C09093E0048093DF0484199509860D11
:10330000971D60E070E080519B4F0E9488C10E9431
:10331000B7BD212F30E02617370709F45EC0E4E679
:10332000F8E0849181114BC1EDEBF6E084918111BD
:103330004EC1409174065091750660917606709169
:1033400077062AE030E085E799E00E9437398091DE
:10335000C00085FFFCCF8AE08093C6000E9417184A
:1033600037C06AE270E0C3010E94B2C4892B09F43D
:1033700044C0E4E6F8E08491882341F09091C000D5
:1033800095FFFCCF8093C6003196F5CFE9E6F6E0D5
:103390008491882341F09091C00095FFFCCF8093E9
:1033A000C6003196F5CF4091740650917506609134
:1033B0007606709177062AE030E085E799E00E9472
:1033C00037398091C00085FFFCCF8AE08093C6002A
:1033D0001092E3041092E20425C280917806909145
:1033E0007906A0917A06B0917B068093740690933B
:1033F0007506A0937606B09377068091E7049091C6
:10340000E804D89E8001D99E100D1124C801815175
:103410009B4F3C0167E470E00E94B2C4009709F43E
:1034200048C09093E0048093DF0486199709800FC9
:10343000911F60E070E080519B4F0E9488C10E9404
:10344000B7BD64307105A8F58091CD04811119C014
:103450008091E80681112DC08A2DE6E6F6E08823EA
:1034600049F09091C00095FFFCCF8093C600319643
:103470008491F5CF8091C00085FFFCCFC092C6003B
:1034800018C08B2DE0EFF5E0882349F09091C00043
:1034900095FFFCCF8093C60031968491F5CF809143
:1034A000C00085FFFCCFC092C60086EE95E00E946A
:1034B000F39B8091E7049091E8040196B7010E9484
:1034C0001AC19093E8048093E7048091E5049091F9
:1034D000E60401969093E6048093E5041092E304D9
:1034E0001092E204F9CD8B3311F49092E1049091A3
:1034F000E1049111F1CD4091E7045091E804B90144
:103500006F5F7F4F7093E3046093E204D49EF001F9
:10351000D59EF00D1124E20FF31FE151FB4F808384
:10352000DBCD1092E1047EC1D09E3001D19E700CA3
:103530001124930121513B4F29016AE270E0C90136
:103540000E94B2C4009769F5E4E6F8E0849188230C
:1035500041F09091C00095FFFCCF8093C60031965A
:10356000F5CFE3E9F6E08491882341F09091C00023
:1035700095FFFCCF8093C6003196F5CF409174063D
:103580005091750660917606709177062AE030E0DA
:1035900085E799E00E9437398091C00085FFFCCF14
:1035A000DACE20E010E0F301E20FF11DE151FB4F14
:1035B00030813A3209F49DCE2F5F1327F4CF9091DA
:1035C000C00095FFFCCF8093C6003196AACE9091A3
:1035D000C00095FFFCCF8093C6003196A7CE8091A6
:1035E000BE089091BF08A091C008B091C108809317
:1035F0006B0990936C09A0936D09B0936E0986EBEB
:1036000098E00E942E3F482F8093E4048A30B9F05E
:103610004D30A9F0433229F42091E104222379F0BE
:1036200002C04A33C9F32091E2043091E3042F35FC
:1036300031052CF48F3FAFEF9A0709F0D4C04091C9
:103640006B0950916C0960916D0970916E098091C0
:10365000630990916409A0916509B09166094817C2
:1036600059076A077B0708F482C0822DE3EDF5E075
:10367000882349F09091C00095FFFCCF8093C6004D
:1036800031968491F5CF8091C00085FFFCCF8AE010
:103690008093C6000E946A0F6093CF047093D00499
:1036A0008093D1049093D2048090D3049090D4045A
:1036B000A090D504B090D604681979098A099B09AD
:1036C00028EE33E040E050E00E942EC149015A014B
:1036D000CA01B901A70196010E942EC1CA01B90110
:1036E000A70196010E942EC17F936F93C501B4017B
:1036F000A30192010E942EC13F932F93AFEBB5E03F
:10370000BF93AF931F930F930E94E1C48F8D0FB6A9
:10371000F894DEBF0FBECDBFEEE5F8E0882349F098
:103720009091C00095FFFCCF8093C60031968491A4
:10373000F5CFF8018191882339F09091C00095FF71
:10374000FCCF8093C600F6CF8091C00085FFFCCFF0
:103750008AE08093C600C8010E94E49B88EE96E050
:103760000E94DF7C61E088EE96E00E94427A8091C0
:10377000E404833219F481E08093CB042091E204C5
:103780003091E3042115310509F4CBCE8091E70493
:103790009091E804389EF001399EF00D1124E20F5B
:1037A000F31FE151FB4F1082FC01E551FB4F21E07B
:1037B00020832091E5043091E6042F5F3F4F309342
:1037C000E6042093E504019664E070E00E941AC1CB
:1037D0009093E8048093E7041092E1041092E304CC
:1037E0001092E204B9CC4B3319F441E04093E10468
:1037F0004091E1044111AACC4091E7045091E804C2
:10380000B9016F5F7F4F7093E3046093E204349ECD
:10381000F001359EF00D1124E20FF31FE151FB4F33
:1038200080839ACC6F960FB6F894DEBF0FBECDBFE3
:10383000DF91CF911F910F91FF90EF90DF90CF908C
:10384000BF90AF909F908F907F906F905F904F90C0
:103850003F902F9008958F929F92AF92BF92CF92F8
:10386000DF92EF92FF920F931F93CF93DF93F3E2D8
:10387000EF2EF4E0FF2E02ED16E0C0E9D6E0A4EE54
:10388000CA2EA6E0DA2EF70181917F010E94CA17A5
:10389000882319F10E94B6174B015C01F601808163
:1038A000811103C060916F0601C061E070E080E0AB
:1038B00090E00E94EABDF80120813181428153816C
:1038C0000E941DC09B01AC01C501B4010E946FBCE8
:1038D000688379838A839B8309C0F8018081918101
:1038E000A281B38188839983AA83BB830C5F1F4F16
:1038F0002496FFEFCF1ADF0A87E2E81684E0F80685
:1039000011F686E40E94CA178823D9F00E94B617E0
:103910006B017C0160938006709381068093820620
:103920009093830620E030E0A9010E944BBF181657
:1039300044F4C0920F02D0921002E0921102F09271
:103940001202DF91CF911F910F91FF90EF90DF90C6
:10395000CF90BF90AF909F908F9008950E942B1CA6
:1039600089E40E94CA17882359F00E94B617609311
:10397000840670938506809386069093870608C018
:103980001092840610928506109286061092870681
:103990008AE40E94CA17882359F00E94B6176093E0
:1039A00088067093890680938A0690938B06089503
:1039B000109288061092890610928A0610928B0641
:1039C00008950895CF92DF92EF92FF920F931F9385
:1039D0000E946A0F6093DB047093DC048093DD0423
:1039E0009093DE04209190063091910640919206CA
:1039F000509193066091D2067091D3068091D406BF
:103A00009091D5060E9448BD811179C020919406FD
:103A10003091950640919606509197066091D60692
:103A20007091D7068091D8069091D9060E9448BD22
:103A3000811165C020E030E040E752E460910F0260
:103A40007091100280911102909112020E944FBD5C
:103A5000B2EACB2EB6E0DB2E7B018C012CE936E0FE
:103A600048E956E064E976E080E996E00E94035276
:103A70008091900690919106A0919206B091930644
:103A80008093D2069093D306A093D406B093D50624
:103A90008091940690919506A0919606B091970614
:103AA0008093D6069093D706A093D806B093D906F4
:103AB0008091980690919906A0919A06B0919B06E4
:103AC0008093DA069093DB06A093DC06B093DD06C4
:103AD00080919C0690919D06A0919E06B0919F06B4
:103AE0008093DE069093DF06A093E006B093E10694
:103AF0001F910F91FF90EF90DF90CF90089560910C
:103B00002F0270913002882777FD8095982F0E94B0
:103B1000EABD20910F0230911002409111025091A4
:103B200012020E941DC020E030E040E752E40E94F3
:103B30004FBD20E030E048EC52E488CFAF92BF9216
:103B4000CF92DF92EF92FF920F931F93CF93DF9369
:103B5000D82F209188063091890640918A0650918D
:103B60008B066091840670918506809186069091FF
:103B700087060E9458BFC62F172F082FF92E609175
:103B80002F0270913002882777FD8095982F0E9430
:103B9000EABD20910F023091100240911102509124
:103BA00012020E941DC020E030E040E752E40E9473
:103BB0004FBD20E030E048EC52E40E944FBD209120
:103BC000A2062F93DF93FF920F931F93CF935B0176
:103BD0006C01C2E0EC2E01E020E044E856E060E930
:103BE00076E082ED96E00E94E24A80919006909104
:103BF0009106A0919206B09193068093D20690937D
:103C0000D306A093D406B093D506809194069091E4
:103C10009506A0919606B09197068093D60690934C
:103C2000D706A093D806B093D906809198069091B4
:103C30009906A0919A06B0919B068093DA0690931C
:103C4000DB06A093DC06B093DD0680919C06909184
:103C50009D06A0919E06B0919F068093DE069093EC
:103C6000DF06A093E006B093E1060E946A0F60931E
:103C7000DB047093DC048093DD049093DE040F90EA
:103C80000F900F900F900F900F90DF91CF911F9199
:103C90000F91FF90EF90DF90CF90BF90AF9008957D
:103CA000F8940E94236B159A1092B706179A1092F7
:103CB000B806429A1092B906A09A9FB7F8948091DC
:103CC0000B01826080930B019FBF60E08CE00E943B
:103CD0003811E4E6F8E08491882341F09091C00027
:103CE00095FFFCCF8093C6003196F5CFECE2F3E070
:103CF0008491882341F09091C00095FFFCCF809380
:103D0000C6003196F5CF8091C00085FFFCCF8AE0D8
:103D10008093C60083E293E00E94029C0E942C16CE
:103D2000FFCFCF92DF92EF92FF920F931F930E94EB
:103D30006A0F0091D7041091D8042091D9043091D2
:103D4000DA04C090DB04D090DC04E090DD04F09055
:103D5000DE046C197D098E099F09061717072807CD
:103D6000390730F4012B022B032B11F00E94501E57
:103D700080910B0290910C02A0910D02B0910E0265
:103D8000892B8A2B8B2B09F10E946A0F0091DB048F
:103D90001091DC042091DD043091DE04601B710B76
:103DA000820B930B00910B0210910C0220910D02DB
:103DB00030910E02061717072807390730F4909143
:103DC000080C8091070C981741F01F910F91FF90FC
:103DD000EF90DF90CF900C94E751159A1092B706B0
:103DE000179A1092B806429A1092B906A09A9FB7F5
:103DF000F89480910B01826080930B019FBFE5CF07
:103E00000E94236B8091CD04811138C081E08093A2
:103E1000CD048091740690917506A0917606B091BC
:103E200077068093700690937106A0937206B09304
:103E30007306E4E6F8E08491882341F09091C00095
:103E400095FFFCCF8093C6003196F5CFEDEAF2E006
:103E50008491882341F09091C00095FFFCCF80931E
:103E6000C6003196F5CF8091C00085FFFCCF8AE077
:103E70008093C60083EA92E00C94F39B08958091AE
:103E8000CD04089567707727E82FF0E0E356FE4FE2
:103E9000849190E0FC013697EC30F10578F5EC5612
:103EA000FF4F0C946FC18091B100887F8093B10067
:103EB0008091B100862B8093B1000895809191008C
:103EC000887F8093910080919100862B8093910050
:103ED00008958091A100887F8093A1008091A10026
:103EE000862B8093A100089580912101887F809383
:103EF000210180912101862B809321010895CF9388
:103F0000DF93EC018091A2068093CE0484E50E94A9
:103F1000CA17811102C080E075C00E94B6170E94C6
:103F2000BCBD6093CE046230B0F3EEE5F8E084915E
:103F3000882341F09091C00095FFFCCF8093C6008C
:103F40003196F5CFCD36D105B9F054F4C836D10548
:103F5000B1F0C936D10509F045C0EAE3F3E021C06C
:103F6000CA3DD10531F0CD3DD105E1F5E5EFF2E0F7
:103F700036C0ECE0F3E029C0E3E2F3E01CC0E1E589
:103F8000F3E08191882371F19091C00095FFFCCFFF
:103F90008093C600F6CF9091C00095FFFCCF809330
:103FA000C60081918111F7CF1DC09091C00095FF8F
:103FB000FCCF8093C60081918111F7CF13C09091FF
:103FC000C00095FFFCCF8093C60081918111F7CF8F
:103FD00009C09091C00095FFFCCF8093C6008191ED
:103FE0008111F7CF40E050E06091CE0485E799E081
:103FF0000E9499398091C00085FFFCCF8AE08093B0
:10400000C60081E0DF91CF9108952F923F924F92A9
:104010005F926F927F928F929F92AF92BF92CF9258
:10402000DF92EF92FF920F931F93CF93DF93CDB761
:10403000DEB7E5970FB6F894DEBF0FBECDBF87E4BD
:104040000E94CA17882309F486C30E94B6170E94EB
:10405000B7BD64307105D9F144F46230710521F1C6
:104060005CF577FF17C00C9470356A35710509F45B
:104070001EC334F46C31710509F471C00C947035B1
:104080006B35710509F417C36C35710509F418C354
:104090000C9470358091CD04811106C00E942B1CB8
:1040A0000E94E21C0C940D378091CD04811104C054
:1040B0000E94AE1C81E007C08091CD04811107C031
:1040C0000E94AE1C80E00E949E1D0C940D3786EB72
:1040D00095E00E94F39B80E50E94CA17882339F07F
:1040E0000E94B6170E94BCBD4B015C0103C0812C2D
:1040F000912C540183E50E94CA17882361F00E9425
:10410000B61720E030E04AE754E40E941DC00E9448
:10411000BCBD4B015C010E9454650E946A0F6B019B
:104120007C01C80CD91CEA1CFB1C0E946A0F60931E
:10413000DB047093DC048093DD049093DE040E9422
:104140006A0F6C157D058E059F0510F00C94703577
:104150000E9463670E94911E0E948F9CF0CF809105
:104160000F0290911002A0911102B091120280935F
:104170007C0690937D06A0937E06B0937F06809187
:104180002F02909130029093E3068093E20684E63A
:1041900090E09093300280932F020E946A0F609308
:1041A000DB047093DC048093DD049093DE0481E0F3
:1041B0000E94695D8091D2069091D306A091D406A9
:1041C000B091D5068093900690939106A0939206A5
:1041D000B09393068091D6069091D706A091D80609
:1041E000B091D9068093940690939506A093960675
:1041F000B09397068091DA069091DB06A091DC06D9
:10420000B091DD068093980690939906A0939A0644
:10421000B0939B068091DE069091DF06A091E006A8
:10422000B091E10680939C0690939D06A0939E0614
:10423000B0939F0610920F0210921002109211027A
:104240001092120288E50E94CA17882311F090E0AC
:104250000AC089E50E94CA178111F9CF8AE50E9438
:10426000CA1791E098279093130291110CC088E52A
:104270000E94CA17882309F46CC189E50E94CA17F5
:10428000882309F466C11092D2061092D3061092C8
:10429000D4061092D5061092D6061092D706109228
:1042A000D8061092D906EFE1F8E014912EED36E031
:1042B0004AED56E066ED76E082ED96E00E94AD5B59
:1042C0008EE298E00E9476136B017C0120E030E0E2
:1042D00040EC5FE30E941DC04B015C01612F77271A
:1042E00067FD7095872F972F0E94EABD9B01AC0157
:1042F000C501B4010E941DC06093900670939106A1
:10430000809392069093930682E398E00E9476133E
:104310004B015C01E0E2F8E0149120E030E040EC79
:104320005FE30E941DC02B013C01612F772767FDD1
:104330007095872F972F0E94EABD9B01AC01C301A6
:10434000B2010E941DC060939406709395068093FD
:104350009606909397062091310230913202409157
:1043600033025091340220930F0230931002409395
:104370001102509312024090350250903602609024
:10438000370270903802C301B2010E9448BD87FF16
:1043900008C040920F025092100260921102709277
:1043A0001202A5019401C701B6010E944BBF181665
:1043B00014F00C947335A7019601C501B4010E9455
:1043C0004FBD9B01AC010E941DC020E030E040E8E1
:1043D0005FE30E946FBC0E948AC09B01AC016091A8
:1043E0000F027091100280911102909112020E94AE
:1043F0001DC060930F02709310028093110290937E
:10440000120220E030E040E752E460910F02709128
:10441000100280911102909112020E944FBDB2EAE7
:10442000CB2EB6E0DB2E7B018C012CE936E048E98F
:1044300056E064E976E080E996E00E9403520E942B
:10444000546580E090E00E947C1381E090E00E943F
:104450007C132EED36E04AED56E066ED76E082ED17
:1044600096E00E94AD5B8091D2069091D306A09118
:10447000D406B091D5068093900690939106A093B0
:104480009206B09393068091D6069091D706A0919C
:10449000D806B091D9068093940690939506A09380
:1044A0009606B093970620E030E040E752E4609132
:1044B0000F027091100280911102909112020E94DD
:1044C0004FBD7B018C012CE936E048E956E064E9F8
:1044D00076E080E996E00E94035210920F0210925B
:1044E000100210921102109212020E9454650E9452
:1044F000625D8091900690919106A0919206B09194
:1045000093068093D2069093D306A093D406B093DB
:10451000D5068091940690919506A0919606B0914B
:1045200097068093D6069093D706A093D806B093AB
:10453000D9068091980690919906A0919A06B0911B
:104540009B068093DA069093DB06A093DC06B0937B
:10455000DD068091130281110C94793588E50E9463
:10456000CA1781110C9479358091130281110C9432
:104570007F3589E50E94CA1781110C947F3588E543
:104580000E94CA178823D1F00E94BF17672B682B9F
:10459000692BA1F00E94B6172091C6063091C7067C
:1045A0004091C8065091C9060E946FBC6093D20624
:1045B0007093D3068093D4069093D50689E50E9424
:1045C000CA178823D1F00E94BF17672B682B692B6D
:1045D000A1F00E94B6172091CA063091CB064091F7
:1045E000CC065091CD060E946FBC6093D6067093A6
:1045F000D7068093D8069093D90680911302811133
:104600000C9485358AE50E94CA1781110C94853572
:104610008AE50E94CA178823D1F00E94BF17672B32
:10462000682B692BA1F00E94B6172091CE0630911D
:10463000CF064091D0065091D1060E946FBC609386
:10464000DA067093DB068093DC069093DD062EED90
:1046500036E04AED56E066ED76E082ED96E00E94A7
:10466000AD5B80917C0690917D06A0917E06B09115
:104670007F0680930F0290931002A0931102B093D3
:1046800012028091E2069091E306909330028093AB
:104690002F020E946A0F6093DB047093DC04809306
:1046A000DD049093DE040E94625D0C9470351092DC
:1046B0006F060C94703581E080936F060C94703512
:1046C00085E40E94CA17811102C00E945465F3E27A
:1046D000CF2EF4E0DF2EA6ECEA2EA6E0FA2E02EDB5
:1046E00016E0B12CF60181916F010E94CA17882350
:1046F00039F1F3E0BF120CC00E94B617F8016083D5
:104700007183828393838EED96E00E94525C18C081
:104710000E94B617F70120813181428153810E94A6
:104720006FBCF80160837183828393832EED36E042
:104730004AED56E066ED76E082ED96E00E94AD5BD4
:10474000B394F4E0EF0EF11C0C5F1F4F24E0B212A3
:10475000C9CF0C9470358DE40E94CA17882311F4D8
:104760000C941F340E94B6170E94B7BD62377105C2
:1047700011F40C94A22B0CF0AFC06F31710509F449
:1047800057C3A4F56631710509F4F6C1BCF4613173
:10479000710509F4ABC134F46230710508F44BC102
:1047A0000C9470356431710509F4B2C10CF0DEC1AE
:1047B0006231710509F4E0C60C9470356A317105F7
:1047C00009F40FC23CF46831710509F4F4C10CF42A
:1047D000D9C101C26C31710509F417C20CF40FC2C2
:1047E0006E31710509F447C20C947035643571055A
:1047F00009F4C2C6E4F56035710509F4A5C654F4A0
:104800006032710509F476C26A32710509F46DC32C
:104810000C9470356235710509F4A5C60CF0A7C675
:104820000E94236B0E945465A09A9FB7F8948091D0
:104830000B01826080930B019FBF0E94BD651092A7
:10484000A1061092A00668EE73E080E090E00E945E
:10485000990F0E9454650E942C161092140289ED43
:1048600094E00E94F39B0E948F9C0C9470356936F3
:10487000710509F494C324F56C35710509F4BCC6BF
:104880006836710509F45CC36535710511F00C9447
:10489000703583E50E94CA170E94B61720E030E009
:1048A0004AE754E40E941DC00E94BCBD6093D70437
:1048B0007093D8048093D9049093DA040C947035E3
:1048C0006B36710509F43AC60CF408C66D367105ED
:1048D00009F48BC40C9470356C3D710511F40C9483
:1048E000662F0CF048C06E3B710509F4F7C4ECF478
:1048F0006737710509F49CC054F46337710509F4F6
:10490000FDC66537710509F408C70C947035693721
:10491000710511F40C94872C14F40C94822C6C38CF
:10492000710509F42BC30C9470356C3C710511F4BE
:104930000C94312E8CF4693C710511F40C94F52D16
:104940006B3C710511F40C94152E683C710511F047
:104950000C9470350C947C2D6E3C710511F40C9404
:10496000AF2E14F40C94512E6A3D710511F40C9481
:10497000CB2E0C947035643F31E0730711F40C9426
:1049800008315CF56D3291E0790711F40C94FC2F3D
:1049900094F4623E710511F40C949B2F6C32F1E09B
:1049A0007F0711F40C94C62F6D3D710511F00C9426
:1049B00070350C94752F6F3221E0720711F40C944E
:1049C000D03014F40C94C2306039714011F00C9462
:1049D00070350E9454650C947035683592E0790703
:1049E00011F40C94E63194F4663FF1E07F0711F482
:1049F0000C940E3114F40C940B31673F714011F09C
:104A00000C9470350E94887E0C947035603A83E077
:104A1000780709F4D9C1673E93E0790711F40C9443
:104A200008346335734011F00C9470350C941131D7
:104A3000E7E7F3E077C785EA95E00E94F39B80E51E
:104A40000E94CA17882339F00E94B6170E94BCBD85
:104A50006B017C0103C0C12CD12C760183E50E943F
:104A6000CA17882361F00E94B61720E030E04AE7B9
:104A700054E40E941DC00E94BCBD6B017C010E94D9
:104A800054650E946A0F6093DB047093DC0480938A
:104A9000DD049093DE04C114D104E104F104A9F013
:104AA0000E946A0F4B015C018C0C9D1CAE1CBF1C4C
:104AB0000E946A0F681579058A059B0588F40E9493
:104AC000539D81110DC00C948B350E94539D811113
:104AD00007C00E9463670E94911E0E948F9CF5CFC1
:104AE00086E995E00E94F39B0C9470358DE895E083
:104AF0000E94F39B159817984298A0989FB7F89436
:104B000080910B018D7F80930B019FBF0C947035BA
:104B1000EDE7F5E08491882341F09091C00095FF86
:104B2000FCCF8093C6003196F5CF8091C00085FF01
:104B3000FCCF8AE08093C60088EE96E00E94A073C6
:104B4000EFE6F5E08491882341F09091C00095FF55
:104B5000FCCF8093C6003196F5CF8091C00085FFD1
:104B6000FCCF8AE08093C6000C94703588EE96E006
:104B70000E94F7730C94703588EE96E00E94BE7424
:104B80000C9470350091DF041091E0040C5F1F4F0E
:104B90006AE270E0C8010E94B2C4009719F0FC01FB
:104BA0003197108221E041E0B80188EE96E00E9442
:104BB0002D750C94703588EE96E00E94C2740E94A8
:104BC0006A0F6093D3047093D4048093D5049093B8
:104BD000D6040C94703588EE96E00E94C9740C944B
:104BE00070358091EB06882311F40C94703583E5C1
:104BF0000E94CA1781110C9493350C94703588EE7D
:104C000096E00E947C790C9470358091DF0490913D
:104C1000E0046AE270E004960E94B2C48C0100973E
:104C2000E1F02091E9043091EA0440E6429FC0019E
:104C3000439F900D11246EE470E081519B4F0E94C0
:104C4000B2C460E270E00E94B2C401969093E004A6
:104C50008093DF04F801319710826091DF04709136
:104C6000E0046C5F7F4F21E040E088EE96E00E9418
:104C70002D750C9470358091EB06882311F40C94FB
:104C8000703560E088EE96E00E94357B8091DF040D
:104C90009091E0046AE270E004960E94B2C48C0134
:104CA0000097E1F02091E9043091EA0440E6429F48
:104CB000C001439F900D11246EE470E081519B4F21
:104CC0000E94B2C460E270E00E94B2C40196909368
:104CD000E0048093DF04F801319710826091DF04D3
:104CE0007091E0046C5F7F4F88EE96E00E944278FE
:104CF0000C9470358091EA0681110E9454650091F0
:104D0000DF041091E0040C5F1F4F6AE270E0C801FD
:104D10000E94B2C47C0161E270E0C8010E94B2C48A
:104D2000009719F08C010F5F1F4FE114F10419F087
:104D3000F7013197108280E50E94CA17F82E209162
:104D4000DF043091E0040217130708F4F12C80917E
:104D5000EB06882311F40C94703521E02F2541E0F7
:104D6000B80188EE96E00E942D7583E50E94CA176F
:104D70008823B9F02091DF043091E0042017310737
:104D800080F40E94BF17AB01BC0140936B095093A4
:104D90006C0960936D0970936E0986EB98E00E9430
:104DA000A64088EE96E00E94C274F1100C94703513
:104DB0000E946A0F6093D3047093D4048093D50447
:104DC0009093D6040C9470358091DF049091E004A8
:104DD0006AE270E005960E94B2C48C010097E1F08F
:104DE0002091E9043091EA0440E6429FC001439FCC
:104DF000900D11246EE470E081519B4F0E94B2C46B
:104E000060E270E00E94B2C401969093E004809347
:104E1000DF04F801319710826091DF047091E004A3
:104E20006B5F7F4F88EE96E00E943C780C94703563
:104E30000E946A0F6093CF047093D0048093D104D2
:104E40009093D2040091D3041091D4042091D504FE
:104E50003091D604601B710B820B930B28EE33E06C
:104E600040E050E00E942EC1CA01B9012CE330E0BD
:104E700040E050E00E942EC17F936F933F932F93A9
:104E800080E695E09F938F938E010F5F1F4F1F93D6
:104E90000F930E94E1C4EEE5F8E084910FB6F89418
:104EA000DEBF0FBECDBF882349F09091C00095FFB3
:104EB000FCCF8093C60031968491F5CFF8018191A3
:104EC000882339F09091C00095FFFCCF8093C600F5
:104ED000F6CF8091C00085FFFCCF8AE08093C600AA
:104EE000C8010E94E49B0C94703583E50E94CA17A8
:104EF000882311F40C9470350E94B6176B017C0165
:104F000080E50E94CA17882351F0C701B6010E94AC
:104F1000B7BD6F3F710509F010F40C94A4356DE036
:104F200070E020E0E22FEE0FFF0BED51FC4F80818F
:104F300091818617970711F40C9470352F5FF2CF8B
:104F400088E690E00E947F1F81110C94703583E504
:104F50000E94CA17882371F00091CE040E94B617F0
:104F600010E0000F111F025D1D4E0E94B7BDF80139
:104F7000718360830E94B66A0C94703583E50E9449
:104F8000CA17882311F40C9470350E94B6170E943A
:104F9000B7BD70932D1260932C120C94703589E676
:104FA00090E00E947F1F81110C947035EAE5F5E0D6
:104FB0008491882341F09091C00095FFFCCF8093AD
:104FC000C6003196F5CFE091CE0424E0E29FF001D7
:104FD0001124E05EFD4E408151816281738121E0A8
:104FE00030E085E799E00E943E3AE7E5F5E08491FC
:104FF000882341F09091C00095FFFCCF8093C600BC
:105000003196F5CFE091CE04F0E0EE0FFF1FE25DA8
:10501000FD4E60817181882777FD8095982F0E94D1
:10502000EABDAB01BC0121E030E085E799E00E94D8
:105030003E3AE3E5F5E08491882341F09091C00089
:1050400095FFFCCF8093C6003196F5CF40911A12A0
:1050500050911B1260911C1270911D1221E030E0E2
:1050600085E799E00E943E3AE0E5F5E084918823E7
:1050700041F09091C00095FFFCCF8093C60031961F
:10508000F5CF60912C1270912D12882777FD8095B5
:10509000982F0E94EABDAB01BC0121E030E085E71A
:1050A00099E00E943E3A3EE2E32E32E1F32E40E2E6
:1050B000C42E42E1D42E00E010E0EDE4F5E0B4901F
:1050C000EBE4F5E0A490E8E4F5E094908B2DEDE4BA
:1050D000F5E0882349F09091C00095FFFCCF8093C4
:1050E000C60031968491F5CF4AE050E0B80185E7DB
:1050F00099E00E945E398A2DEBE4F5E0882349F0BF
:105100009091C00095FFFCCF8093C60031968491AA
:10511000F5CFF60141915191619171916F0121E0BB
:1051200030E085E799E00E943E3A892DE8E4F5E019
:10513000882349F09091C00095FFFCCF8093C60072
:1051400031968491F5CFF701619171917F018827A4
:1051500077FD8095982F0E94EABDAB01BC0121E04C
:1051600030E085E799E00E943E3A0F5F1F4F023022
:10517000110509F0ABCFE4E4F5E08491882341F018
:105180009091C00095FFFCCF8093C6003196F5CF7B
:105190008091CE0490E00E9458674AE050E0BC0144
:1051A00085E799E00E945E39EFE3F5E0849188237A
:1051B00041F09091C00095FFFCCF8093C6003196DE
:1051C000F5CF8FEF9FEF0E9458674AE050E0BC0197
:1051D00085E799E00E945E398091C00085FFFCCF91
:1051E0008AE08093C6000C940D378DE690E00E9413
:1051F0007F1F81110C94703584E395E00E94F39B2E
:1052000083E50E94CA17882391F00091CE040E9482
:10521000B61710E0000F111F025D1D4E0E94B7BDB2
:10522000F8017183608381E080930A0215C082E5F2
:105230000E94CA17882381F00091CE040E94B617FD
:1052400010E0000F111F025D1D4E0E94B7BDF80156
:105250007183608310920A020E94B66A0E946A0FEC
:105260004B015C010091CE0410E0F801EE0FFF1F2E
:10527000E25DFD4E60817181882777FD8095982FD2
:105280000E94EABDF801EE0FFF1FEE0FFF1FE05E68
:10529000FD4E11E020813181428153810E944BBF3C
:1052A00018160CF010E01093CC04CC24CA94DC2C1B
:1052B0007601E1E3F5E024912FA7EDE2F5E03491EA
:1052C00039ABE9E2F5E0249048EE442E43E0542E59
:1052D000612C712C5AE0352E0C9407368EE095E047
:1052E0000E94F39B83E50E94CA17882361F00E9405
:1052F000B6170E94B7BD70932D1260932C1281E0F7
:1053000080930A020FC082E50E94CA17882351F0D9
:105310000E94B6170E94B7BD70932D1260932C1295
:1053200010920A020E946A0F6B017C0160912C129C
:1053300070912D12882777FD8095982F0E94EABDE5
:1053400011E020911A1230911B1240911C125091C1
:105350001D120E944BBF18160CF010E01093CC04E5
:10536000EBE0F5E01491E7E0F5E00491E3E0F5E02F
:10537000B490AAE0AA2E8091CC0460912C12709176
:105380002D12882309F483C0882777FD8095982FF4
:105390000E94EABD20911A1230911B1240911C12FA
:1053A00050911D120E944BBF18160CF087C00E942E
:1053B0006A0F6C197D098E099F09693E734081054A
:1053C000910508F45DC0E091A20634E0E39FF0018E
:1053D0001124E05EFD4E4081518162817381812FF5
:1053E000EBE0F5E0882349F09091C00095FFFCCFF9
:1053F0008093C60031968491F5CF22E030E085E7B6
:1054000099E00E943E3A802FE7E0F5E0882349F0DA
:105410009091C00095FFFCCF8093C6003196849197
:10542000F5CF6091A20670E04AE050E085E799E090
:105430000E945E398B2DE3E0F5E0882349F09091DE
:10544000C00095FFFCCF8093C60031968491F5CFC4
:1054500040911A1250911B1260911C1270911D12F2
:1054600021E030E085E799E00E943E3A8091C0005B
:1054700085FFFCCFA092C6000E946A0F6B017C01E1
:105480000E9463670E94911E0E948F9C74CF8827A0
:1054900077FD8095982F0E94EABD20911A123091D5
:1054A0001B1240911C1250911D120E9448BD87FF93
:1054B00005C080910A02882309F479CF89EF94E02E
:1054C0000E94F39B0E946A0F6093DB047093DC04DC
:1054D0008093DD049093DE040C94703583E50E9484
:1054E000CA17882319F10E94B61720E030E0A901FD
:1054F0000E9448BD87FD0FC00E94B61720E030E033
:105500004FE753E40E944BBF181644F00E94B617B1
:105510000E94B7BD05C060E070E002C06FEF70E0B0
:105520007093A1066093A0060C9470358FEF90E005
:105530009093A1068093A0060C9470351092A1065A
:105540001092A0060C947035269A2E98809A889A0C
:1055500081E08093140288EE94E00E94F39B0E9405
:105560008F9C0C9470351092E7060C94703581E096
:105570008093E7060C94703583E50E94CA17882350
:10558000A1F00E94B61720E030E04AE754E40E9400
:105590001DC00E94BCBD60930B0270930C028093EF
:1055A0000D0290930E020C94703588E50E94CA1784
:1055B00081110C94E33689E50E94CA1781110C947D
:1055C000E3368AE50E94CA1781110C94E33685E41C
:1055D0000E94CA1781110C94E3360E945465A09A68
:1055E0009FB7F89480910B01826080930B019FBF5D
:1055F0000E94BD650C94703583E294E098AB8FA750
:1056000009E311E1E9E48E2EE1E19E2EFDEFAF2EDC
:10561000F0E1BF2E312CEFA5F8A98191F8ABEFA7EF
:105620000E94CA17882309F45BC0F3E03F1251C0FF
:105630000E94B6176B017C0120E030E040EA51E4A3
:105640000E9448BD87FF3FC0A7019601F801608115
:105650007181828193810E944FBD2B013C019B018E
:10566000AC01609111117091121180911311909100
:1056700014110E941DC06093111170931211809338
:10568000131190931411A3019201F40160817181AF
:10569000828193810E941DC0F401608371838283A3
:1056A0009383F50160817181828193810E94E8BDBD
:1056B000A30192010E941DC00E94BCBDF501608340
:1056C000718382839383F801C082D182E282F38264
:1056D00007C00E94B617F8016083718382839383A9
:1056E00033940C5F1F4FF4E08F0E911C24E0A20E48
:1056F000B11C34E033128FCF0C947035EFE0F4E03E
:105700008491882311F40C9470359091C00095FF1A
:10571000FCCF8093C6003196F3CF0091DF04109147
:10572000E0040B5F1F4F6AE270E0C8010E94B2C440
:10573000009719F0FC0131971082C8010E94E49B88
:105740000C947035ECE0F4E08491882341F0909162
:10575000C00095FFFCCF8093C6003196F5CF4091F5
:10576000D2065091D3066091D4067091D50622E0FE
:1057700030E085E799E00E943E3AE8E0F4E0849169
:10578000882341F09091C00095FFFCCF8093C60024
:105790003196F5CF4091D6065091D7066091D80644
:1057A0007091D90622E030E085E799E00E943E3A08
:1057B000E4E0F4E08491882341F09091C00095FFEB
:1057C000FCCF8093C6003196F5CF4091DA06509118
:1057D000DB066091DC067091DD0622E030E085E7B3
:1057E00099E00E943E3AE0E0F4E08491882341F0A1
:1057F0009091C00095FFFCCF8093C6003196F5CF05
:105800004091DE065091DF066091E0067091E1065E
:1058100022E030E085E799E00E943E3AE5EFF3E0D0
:105820008491882341F09091C00095FFFCCF809334
:10583000C6003196F5CF0E94AF650E94EABD209167
:10584000391130913A1140913B1150913C110E9415
:105850004FBDAB01BC0122E030E085E799E00E943A
:105860003E3AE1EFF3E08491882341F09091C0004B
:1058700095FFFCCF8093C6003196F5CF81E00E9462
:10588000AF650E94EABD20913D1130913E114091DB
:105890003F11509140110E944FBDAB01BC0122E06D
:1058A00030E085E799E00E943E3AEDEEF3E0849126
:1058B000882341F09091C00095FFFCCF8093C600F3
:1058C0003196F5CF82E00E94AF650E94EABD20913B
:1058D00041113091421140914311509144110E9465
:1058E0004FBDAB01BC0122E030E085E799E00E94AA
:1058F0003E3A8091C00085FFFCCF8AE08093C600CD
:105900000C94703580E00E94695D0C94703581E0E4
:105910000E94695D0C9470359091C00095FFFCCF9A
:105920008093C60081918111F7CF8091C00085FFDF
:10593000FCCF8AE08093C600E5EEF3E084918823F3
:1059400041F09091C00095FFFCCF8093C600319646
:10595000F5CF009903C0E8E6F3E009C0E2E7F3E021
:1059600006C09091C00095FFFCCF8093C600819146
:105970008111F7CF8091C00085FFFCCF8AE0809332
:10598000C600EDEDF3E08491882341F09091C000D2
:1059900095FFFCCF8093C6003196F5CF029903C0E6
:1059A000E8E6F3E009C0E2E7F3E006C09091C0004A
:1059B00095FFFCCF8093C60081918111F7CF809134
:1059C000C00085FFFCCF8AE08093C600E5EDF3E0E0
:1059D0008491882341F09091C00095FFFCCF809383
:1059E000C6003196F5CF049903C0E8E6F3E009C09C
:1059F000E2E7F3E006C09091C00095FFFCCF8093F2
:105A0000C60081918111F7CF8091C00085FFFCCF46
:105A10008AE08093C600EDECF3E08491882341F0A6
:105A20009091C00095FFFCCF8093C6003196F5CFD2
:105A3000069903C0E8E6F3E009C0E2E7F3E006C038
:105A40009091C00095FFFCCF8093C6008191811199
:105A5000F7CF8091C00085FFFCCF8AE08093C6001D
:105A6000E5ECF3E08491882341F09091C00095FF2C
:105A7000FCCF8093C6003196F5CF379903C0E8E696
:105A8000F3E009C0E2E7F3E006C09091C00095FFA3
:105A9000FCCF8093C60081918111F7CF8091C00027
:105AA00085FFFCCF8AE08093C600EDEBF3E08491A4
:105AB000882341F09091C00095FFFCCF8093C600F1
:105AC0003196F5CF359903C0E8E6F3E009C0E2E787
:105AD000F3E006C09091C00095FFFCCF8093C60014
