:100000000C942A0D0C945B0D0C945B0D0C945B0D01
:100010000C945B0D0C945B0D0C945B0D0C945B0DC0
:100020000C945B0D0C945B0D0C945B0D0C945B0DB0
:100030000C945B0D0C945B0D0C945B0D0C945B0DA0
:100040000C945B0D0C940BD10C945B0D0C945B0D1C
:100050000C945B0D0C945B0D0C9424E40C94E8EC74
:100060000C945B0D0C9411F10C9447F10C945B0D06
:100070000C945B0D0C945B0D0C945B0D0C945B0D60
:100080000C945B0D0C945B0D0C945B0D0C945B0D50
:100090000C945B0D0C945B0D0C945B0D0C94B7EB06
:1000A0000C945B0D0C945B0D0C945B0D0C945B0D30
:1000B0000C945B0D0C945B0D0C945B0D0C945B0D20
:1000C0000C945B0D0C945B0D0C945B0D0C94BEF1C9
:1000D0000C94F4F10C945B0D0C945B0D0C945B0D83
:1000E0000C945B0DACE4B9E4D5E4E2E4FCE409E58E
:1000F00023E525E527E529E531E511EE16EE1BEEB2
:1001000025EE2FEEA8EE39EE41EE49EE53EE5DEE10
:1001100067EE76EE80EEA8EE8AEE94EE9EEECAEEE4
:10012000CDEEBCEEC0EEC6EE04EFD1EED5EEDBEECA
:10013000DFEEE3EEE9EEEDEEF1EE04EFF7EEFBEECF
:10014000FFEE084AD73B3BCE016E84BCBFFDC12FFA
:100150003D6C74319ABD56833DDA3D00C77F11BEB8
:10016000D9E4BB4C3E916BAAAABE000000803F05BB
:10017000A84CCDB2D44EB93836A9020C50B99186EC
:1001800088083CA6AAAA2ABE000000803F000C9462
:100190004BEB0C94ABCB0C94FBEA0C94A8EF0C94B7
:1001A000F3EA0C94D1EE0C9404EF0C9480EE0C94D2
:1001B0001DEB0C9449EE0C944AF00C94DFEE0C9479
:1001C000FCE40C9429E50C94F7EE0C942FEE0C94BF
:1001D000DBEE0C9411EE0C94BCEE0C94EDEE0C9452
:1001E000C0EE0C94F1EE0C94CAEF0C9471F10C94E7
:1001F0001EF20C94B9E40C9439EE0C9409E50C94BD
:10020000CAEE0C949EEE0C9425E50C94B6EF0C947B
:10021000FFEE0C941EEB0C941BEE0C94035D0C94FF
:10022000175D0C9428F20C948AEB0C94D5E40C9492
:10023000E2E40C940EEB0C94FBEE0C94C6EE0C94E2
:10024000D5EE0C945DEE0C9441EE0C9453EE0C94B0
:100250000E3C0C9476EE0C9423E50C9427E50C945C
:100260009DEF0C94A8EE0C94E3EE0C94E9EE0C9444
:1002700028F00C9425EE0C948AEE0C9497230C94A1
:1002800031E50C9494EE0C947BF10C94ACE40C945A
:1002900067EE0C947BF20C94CDEE0C9416EE4D3878
:1002A0003420582059205A2045005430004D323413
:1002B000004D3233202573006175746F25692E67F8
:1002C000006572726F722077726974696E6720744C
:1002D0006F2066696C65004E6F7420534420707205
:1002E000696E74696E67002F005344207072696EE6
:1002F00074696E67206279746520002E0044656C15
:100300006574696F6E206661696C65642C2046694E
:100310006C653A200046696C652064656C6574659F
:10032000643A002E006F70656E206661696C6564CA
:100330002C2046696C653A200057726974696E67B3
:1003400020746F2066696C653A20002E006F70651E
:100350006E206661696C65642C2046696C653A2084
:10036000002E006F70656E206661696C65642C20DC
:1003700046696C653A200046696C652073656C655A
:1003800063746564002053697A653A200046696C9D
:1003900065206F70656E65643A20002E006F706591
:1003A0006E206661696C65642C2046696C653A2034
:1003B000004E6F772066726573682066696C653AD7
:1003C00020004E6F7720646F696E672066696C65E8
:1003D0003A20002220706F73002220706172656ED7
:1003E000743A2200535542524F5554494E452043CA
:1003F000414C4C207461726765743A2200747279C2
:10040000696E6720746F2063616C6C207375622D58
:1004100067636F64652066696C65732077697468CB
:1004200020746F6F206D616E79206C6576656C73DA
:100430002E204D4158206C6576656C2069733A001A
:1004400053442063617264206F6B006F70656E525D
:100450006F6F74206661696C656400766F6C756D92
:10046000652E696E6974206661696C656400534429
:1004700020696E6974206661696C006563686F3A13
:10048000004572726F723A0048617264636F64650E
:10049000642044656661756C742053657474696E7C
:1004A0006773204C6F616465640053746F72656498
:1004B0002073657474696E67732072657472696500
:1004C000766564002044002049002020204D333010
:1004D000312050005049442073657474696E67730D
:1004E0003A00205A0020590020204D323036205842
:1004F00000486F6D65206F666673657420286D6DAA
:10050000293A00204500205A0020580020420020AF
:10051000540020204D323035205300416476616E06
:10052000636564207661726961626C65733A205319
:100530003D4D696E20666565647261746520286D45
:100540006D2F73292C20543D4D696E207472617695
:10055000656C20666565647261746520286D6D2F19
:1005600073292C20423D6D696E696D756D20736530
:10057000676D656E742074696D6520286D73292C14
:1005800020583D6D6178696D756D205859206A65F8
:10059000726B20286D6D2F73292C20205A3D6D61C0
:1005A00078696D756D205A206A65726B20286D6DB3
:1005B0002F73292C2020453D6D6178696D756D2064
:1005C00045206A65726B20286D6D2F7329002054B9
:1005D0000020204D323034205300416363656C6548
:1005E000726174696F6E3A20533D616363656C6537
:1005F000726174696F6E2C20543D72657472616310
:100600007420616363656C65726174696F6E00204C
:100610004500205A0020590020204D32303120580A
:10062000004D6178696D756D20416363656C65721D
:100630006174696F6E20286D6D2F7332293A002026
:100640004500205A0020590020204D3230332058D8
:10065000004D6178696D756D2066656564726174C1
:10066000657320286D6D2F73293A00204500205AAC
:100670000020590020204D393220580053746570F5
:10068000732070657220756E69743A0053657474D6
:10069000696E67732053746F726564006563686F79
:1006A0003A005072696E7465722068616C7465649A
:1006B0002E206B696C6C28292063616C6C65642149
:1006C000006F6B00526573656E643A20000A00206B
:1006D0007A3A200020793A200020783A20004265BA
:1006E00064002200556E6B6E6F776E20636F6D6DC8
:1006F000616E643A202200486F74656E64206F66F4
:1007000066736574733A005A204F66667365742089
:100710003A20007A5F6D61783A20007A5F6D696EE9
:100720003A20005A204F6666736574005A204F665F
:1007300066736574206F6B00486F74656E64206F1C
:100740006666736574733A007A5F6D696E3A20006D
:10075000795F6D61783A2000785F6D61783A2000AA
:10076000785F6D696E3A2000205A3A0020593A00AD
:1007700020436F756E7420583A200020453A0020BF
:100780005A3A0020593A00583A004649524D5741CA
:1007900052455F4E414D453A4D61726C696E20562F
:1007A000313B20537072696E7465722F6772626C90
:1007B000206D617368757020666F722067656E3694
:1007C000204649524D574152455F55524C3A687444
:1007D0007470733A2F2F6769746875622E636F6D3A
:1007E0002F4572696B5A616C6D2F4D61726C696E29
:1007F0002F2050524F544F434F4C5F564552534950
:100800004F4E3A312E30204D414348494E455F54BA
:100810005950453A4D656E64656C204558545255A3
:100820004445525F434F554E543A32205555494442
:100830003A30303030303030302D303030302D30B4
:100840003030302D303030302D30303030303030AE
:1008500030303030300A0020423A0020453A00540F
:100860003A0020573A0020453A00543A00204240CE
:100870003A0020403A00202F003A00205400202F58
:100880000020423A00202F006F6B20543A000A0AE1
:10089000005374616E6461726420446576696174AA
:1008A000696F6E3A20000A004D65616E3A20000AB9
:1008B000002020207A3A200000793A2000783A205F
:1008C000003F537065636966696564206E756D628B
:1008D0006572206F66206C65677320696E206D6F8E
:1008E00076656D656E74206E6F7420706C617573C3
:1008F00061626C652E0A003F5370656369666965C5
:1009000064205920706F736974696F6E206F7574FD
:10091000206F662072616E67652E0A003F53706516
:10092000636966696564205820706F736974696FC4
:100930006E206F7574206F662072616E67652E0A77
:10094000003F5370656369666965642073616D700B
:100950006C652073697A65206E6F7420706C6175A8
:100960007361626C652E0A0046756C6C207375703D
:10097000706F72742061743A20687474703A2F2F0B
:1009800033647072696E74626F6172642E636F6D2E
:100990002F666F72756D2E7068700A004D343820A6
:1009A0005A2D50726F626520526570656174616284
:1009B000696C69747920746573742E2020205665E3
:1009C0007273696F6E20322E30300A003F566572A6
:1009D000626F7365204C6576656C206E6F74207055
:1009E0006C61757361626C652E0A002569206D6902
:1009F0006E2C2025692073656300456E642066694E
:100A00006C65206C69737400426567696E20666965
:100A10006C65206C697374000A00205A3A2000202B
:100A2000593A200020583A200042656400486F6D12
:100A30006520582F59206265666F7265205A000A3A
:100A40000020616E7469686F726172690A3A2000F1
:100A500020686F726172690A20002F3800766F6C0F
:100A6000746573200020566F6C7465732063617227
:100A7000676F6C20333A200020616E7469686F7272
:100A80006172690A3A200020686F726172690A20F7
:100A9000002F3800766F6C746573200020566F6CE1
:100AA00074657320636172676F6C20323A20002096
:100AB000616E7469686F726172690A3A2000206819
:100AC0006F726172690A20002F3800766F6C74654E
:100AD00073200020566F6C74657320636172676FBA
:100AE0006C20313A20000A0020647A333A2000203A
:100AF000647A323A200020647A313A20000A0020D9
:100B00007A633A2000486F6D6520582F592062653E
:100B1000666F7265205A00486F6D6520582F592006
:100B20006265666F7265205A00473238205830205F
:100B3000593000473238205830205930002569207C
:100B4000686F757273202569206D696E75746573A1
:100B500000446F6E65207072696E74696E672066FE
:100B6000696C65005072696E7465722073746F7081
:100B70007065642064756520746F206572726F7291
:100B8000732E2046697820746865206572726F72D2
:100B900020616E6420757365204D39393920746F7A
:100BA00020726573746172742E202854656D7065AF
:100BB0007261747572652069732072657365742E35
:100BC00020536574206974206166746572207265B3
:100BD0007374617274696E6729006F6B004E6F20C9
:100BE0004C696E65204E756D626572207769746818
:100BF00020636865636B73756D2C204C6173742082
:100C00004C696E653A20004E6F20436865636B73D4
:100C1000756D2077697468206C696E65206E756DDE
:100C20006265722C204C617374204C696E653A20A9
:100C300000636865636B73756D206D69736D6174B6
:100C400063682C204C617374204C696E653A2000F7
:100C50004C696E65204E756D626572206973206EF9
:100C60006F74204C617374204C696E65204E756DF5
:100C70006265722B312C204C617374204C696E6557
:100C80003A20004D31313000446F6E65207361763B
:100C9000696E672066696C652E006F6B004D323996
:100CA000007374617274002200656E717565696EFF
:100CB000672022002200656E717565696E672022CB
:100CC000004D383420582059205A204500473433ED
:100CD0000047323800473430004732380047323856
:100CE00020583020593000473238205830205930B1
:100CF000004D3530300047343100473238004D3533
:100D000030300047343000473238205830205930D6
:100D1000005430004D35303000473433005431003A
:100D20004D353030004D353030004D353030004DD0
:100D3000353030004D353030004D353030004D35D8
:100D40003030004D353030004D353030004D3530CD
:100D5000300047343100473238004D3530300047DD
:100D6000343100473238004D3530300047343100DF
:100D7000473238004D353030004734310047323883
:100D8000004D3530300047343100473238004D35A2
:100D900030300047343100473238004734310047A3
:100DA0003238004D3530300047343100473238009A
:100DB0004D3530300047343100473238004D353042
:100DC000300047343100473238004D353030005460
:100DD0003000473238205830205930005430004716
:100DE0003334005430004732380047333400543035
:100DF000004732380047333400543000473238005F
:100E0000473334005430004732380047343300470A
:100E1000333400543000473238004D3234004D3204
:100E200033202573004D383420582059205A20454E
:100E300000543000473238205830205930005430A8
:100E4000005431004D383420582059205A20450094
:100E5000543000473238205830205930004732385B
:100E600000FF01FF0000A0400000A0400000004083
:100E700033339C4300809343000052430000000042
:100E8000008093430000000033339C430080934371
:100E900000005243000000000000000000000000BD
:100EA0006563686F3A004572726F723A0020636F33
:100EB0006C6420657874727573696F6E20707265EA
:100EC00076656E746564006563686F3A007C3C3ECD
:100ED0005E2B3D3F2F5B5D3B2C2A225C00205A3A63
:100EE0000020593A0020583A00656E6473746F70A0
:100EF00073206869743A200024F4D43050C38E20E3
:100F0000C2A24017828B7011127A910D816CD90A9E
:100F1000A861E108C7586607615143061E4B5D058D
:100F2000C145A7041A411104093D980371393103E1
:100F30004036DB0265339102D4305402802E1D020C
:100F4000632CEE01752AC501B028A001102781018C
:100F50008F2564012B244B01E0223401AC211F01B9
:100F60008D200D01801FFC00841EED00971DDF0009
:100F7000B81CD200E61BC600201BBC00641AB200DD
:100F8000B219A8000A19A0006A189900D117910097
:100F900040178B00B516840031167E00B31579001A
:100FA0003A157300C7146F0058146A00EE136600F8
:100FB0008813630025135E00C7125B006C12570094
:100FC00015125400C111510070114F0021114B0036
:100FD000D61049008D104700461044000210420010
:100FE000C00F4000800F3E00420F3C00060F3B0048
:100FF000CB0E3800930E37005C0E3500270E340000
:10100000F30D3200C10D3100900D3000600D2E0047
:10101000320D2D00050D2C00D90C2B00AE0C290033
:10102000850C29005C0C2700350C27000E0C2600CF
:10103000E80B2400C40B2400A00B23007D0B23002D
:101040005A0B2100390B2100180B2000F80A1F0051
:10105000D90A1E00BB0A1E009D0A1D00800A1D0041
:10106000630A1C00470A1B002C0A1B00110A1A0005
:10107000F7091A00DD091900C4091900AB091900A4
:10108000920917007B091800630917004C09160024
:1010900036091600200916000A091500F508150082
:1010A000E0081400CC081400B8081400A4081400C8
:1010B000900813007D0812006B08130058081200F6
:1010C000460812003408110023081100120811000C
:1010D00001081100F0071000E0071000D007100011
:1010E000C0071000B0070F00A107100091070E0005
:1010F00083070F0074070F0065070E0057070E00E7
:1011000049070E003B070D002E070E0020070D00BB
:1011100013070D0006070D00F9060C00ED060D0083
:10112000E0060C00D4060C00C8060C00BC060C003F
:10113000B0060C00A4060B0099060C008D060B00EF
:1011400082060B0077060B006C060B0061060A0096
:1011500057060B004C060A0042060A0038060A0031
:101160002E060A0024060A001A060A0010060900C4
:1011700007060A00FD050900F4050900EB05090052
:10118000E2050900D9050900D0050900C7050900D5
:10119000BE050900B5050800AD050800A505090054
:1011A0009C050800940508008C05080084050800CB
:1011B0007C050800740508006C050700650508003B
:1011C0005D050700560508004E05070047050700A6
:1011D0004005080038050700310507002A0507000B
:1011E000230507001C050600160507000F0507006C
:1011F0000805060002050700FB040600F5040700C9
:10120000EE040600E8040600E2040700DB04060022
:10121000D5040600CF040600C9040600C304060076
:10122000BD040600B7040600B1040500AC040600C6
:10123000A6040600A00405009B0406009504050012
:10124000900406008A040500850405008004060059
:101250007A04050075040500700405006B040500A0
:1012600066040500610405005C04050057040500E0
:10127000520405004D040500480405004304050020
:101280003E0404003A04050035040500300404005F
:101290002C04050027040400230405001E04040098
:1012A0001A04040016040500110404000D040400CF
:1012B000090405000404040000040400FC03040005
:1012C000F8030400F4030400F0030400EC0304003A
:1012D000E8030400E4030400E0030400DC0304006A
:1012E000D8030400D4030400D0030400CC0304009A
:1012F000C8030300C503030024F404D9201BC40C55
:101300005C0E9804C4095F0265077101F405F900D9
:10131000FB04B30048048700C1036900580355006B
:1013200003034500BE023A008402310053022A0042
:101330002902250004022000E4011C00C801190054
:10134000AF0117009801140084011300710110000F
:101350006101100051010E0043010D0036010B0028
:101360002B010B0020010B00150109000C010900E5
:1013700003010800FB000800F3000800EB00070071
:10138000E4000600DE000600D8000600D2000600D9
:10139000CC000500C7000500C2000500BD00040028
:1013A000B9000400B5000400B1000400AD00040061
:1013B000A9000400A5000300A20003009F00040090
:1013C0009B000300980003009500020093000300B7
:1013D000900003008D0002008B00030088000200D3
:1013E0008600020084000300810002007F000200EA
:1013F0007D0002007B0002007900020077000100FE
:101400007600020074000200720001007100020008
:101410006F0002006D0001006C0002006A00010014
:10142000690002006700010066000100650001001C
:101430006400020062000100610001006000010020
:101440005F0002005D0001005C0001005B00010024
:101450005A00010059000100580001005700010026
:101460005600010055000100540001005300000027
:101470005300010052000100510001005000010022
:101480004F0001004E0000004E0001004D00010021
:101490004C0001004B0000004B0001004A0001001D
:1014A0004900010048000000480001004700010019
:1014B0004600000046000100450000004500010014
:1014C000440001004300000043000100420000000E
:1014D0004200010041000000410001004000010005
:1014E0003F0000003F0001003E0000003E00010000
:1014F0003D0000003D0001003C0000003C000000F9
:101500003C0001003B0000003B0001003A000000ED
:101510003A000100390000003900010038000000E5
:1015200038000000380001003700000037000100DB
:1015300036000000360000003600010035000000D3
:1015400035000000350001003400000034000000C8
:1015500034000100330000003300000033000100BC
:1015600032000000320000003200010031000000B3
:1015700031000000310001003000000030000000A8
:10158000300001002F0000002F0000002F0000009D
:101590002F0001002E0000002E0000002E00010090
:1015A0002D0000002D0000002D0000002D00010086
:1015B0002C0000002C0000002C0000002C0001007A
:1015C0002B0000002B0000002B0000002B0001006E
:1015D0002A0000002A0000002A0000002A00010062
:1015E0002900000029000000290000002900000057
:1015F0002900010028000000280000002800000049
:10160000280000002800010027000000270000003B
:10161000270000002700000027000100260000002E
:101620002600000026000000260000002600010021
:101630002500000025000000250000002500000016
:101640002500000025000100240000002400000007
:1016500024000000240000002400010023000000FA
:1016600023000000230000002300000023000000EE
:1016700023000000230001002200000022000000DF
:1016800022000000220000002200000022000100D1
:1016900021000000210000002100000021000000C6
:1016A00021000000210000002100010020000000B6
:1016B00020000000200000002000000020000000AA
:1016C0002000000020000000200001001F0000009A
:1016D0001F0000001F0000001F0000001F0000008E
:1016E0001F0000001F0001001E0000001E0000007F
:1016F0001E0000001E0000006563686F3A0050493C
:1017000044204175746F74756E652066696E6973E7
:10171000686564212050757420746865206C61735D
:1017200074204B702C204B6920616E64204B642028
:10173000636F6E7374616E74732066726F6D206177
:10174000626F766520696E746F20436F6E6669679D
:1017500075726174696F6E2E68005049442041753E
:10176000746F74756E65206661696C6564212074A0
:10177000696D656F75740020403A006F6B20543AB4
:10178000006F6B20423A00504944204175746F74D9
:10179000756E65206661696C6564212054656D70A5
:1017A0006572617475726520746F6F20686967680F
:1017B00000204B643A2000204B693A2000204B70F7
:1017C0003A200020436C61737369632050494420C0
:1017D000002054753A2000204B753A2000206D619E
:1017E000783A2000206D696E3A200020643A20008B
:1017F00020626961733A200070012C019001270179
:10180000B0012201C0011D01F001180110021301F5
:1018100030020E016002090190020401C002FF00C3
:101820000003FA004003F5008003F000D003EB0052
:101830002004E6007004E100E004DC004005D7006D
:10184000C005D2004006CD00D006C8008007C30006
:101850003008BE00F008B900C009B400B00AAF00FB
:10186000B00BAA00D00CA500000EA000500F9B00EA
:10187000C01096005012910000148C00C015870013
:10188000B0178200B0197D00D01B7800001E7300D5
:1018900040206E0090226900F024640040275F0021
:1018A00090295A00E02B5500102E500020304B009C
:1018B00010324600E033410090353C0010373700CD
:1018C00070383200A0392D00B03A2800A03B230028
:1018D000603C1E00103D1900903D1400103E0F00AA
:1018E000703E0A00C03E0500003F000000000A0BE9
:1018F00002090C0D0E08070304010000000000009F
:1019000000000000000000000000000000000000D7
:101910000000000000000000121110000000000094
:1019200000000000000000000000000000000000B7
:1019300000000102102020080810204010204080E4
:101940000201020108040201010204081020408083
:101950008040201008040201800402018040201011
:10196000080402010804020101020408102040805A
:101970000102040810204080050505050705080838
:101980000808020202020A0A080804040404010109
:10199000010101010101030303030303030304071E
:1019A00007070C0C0C0C0C0C0C0C020202020606B5
:1019B0000606060606060B0B0B0B0B0B0B0B0000AB
:1019C00020002300260029002C002F0032000001F7
:1019D0000000030106010901000022002500280083
:1019E0002B002E0031003400020100000501080127
:1019F0000B0100002100240027002A002D003000E8
:101A0000330001010000040107010A014E414E4963
:101A10004E495459494E46CDCCCC3D0AD7233C17AC
:101A2000B7D13877CC2B329595E6241FB14F0A00F9
:101A30000020410000C84200401C4620BCBE4CCAE9
:101A40001B0E5AAEC59D74009723035D8AEB7BF194
:101A500028F2175D11241FBECFEFD1E2DEBFCDBF4C
:101A600000E00CBF1AE0A0E0B2E0E0E2F6E002E045
:101A70000BBF02C007900D92A239B107D9F72AE136
:101A8000A2E9BAE001C01D92AE39B207E1F71AE14E
:101A9000C2E5DAE100E006C022970109FE010BBFB2
:101AA0000E947CFAC834D10780E00807A9F70E9499
:101AB0006CF20D94FE020C940000DC01ED91FC919F
:101AC0000190F081E02D1994FC0114821782138299
:101AD00012828BE09AE09183808308952BE03AE0B4
:101AE000FC01318320832781222319F004960C9472
:101AF00005C70895CF92DF92EF92FF920F931F9345
:101B0000CF93DF93EC01C0960E94640DCE018F5AF3
:101B10009F4F0E94640D7E0120E7E20EF11C8701B9
:101B20006E013AE5C31A3EEFD30AC8010E94640D64
:101B3000015E1F4F0C151D05C1F7FE01E855FE4F54
:101B400089E1818314823596178ACE0185539E4F91
:101B50000E94640DFE01E458FD4F10821182128232
:101B60001382389610821182128213821A821B828B
:101B70001C82188219826E0180E8C81A8DEFD80A7B
:101B8000F6011082118212821382F80111821082F2
:101B9000FE01E651FE4F108286E391E0F7019C01C1
:101BA000119221503040E1F7FE01E857FD4F81E0EE
:101BB00080831FA61EA60E9432ED68577C4E8F4F71
:101BC0009F4FF6016083718382839383DF91CF916E
:101BD0001F910F91FF90EF90DF90CF900895FC013F
:101BE00020E03EE2DB014C91403241F0283011F41C
:101BF00030833196DB014C91408331962F5F6F5FCC
:101C00007F4F2B3079F7108208952F923F924F9299
:101C10005F926F927F928F929F92AF92BF92CF927C
:101C2000DF92EF92FF920F931F93CF93DF93CDB785
:101C3000DEB7C658D1090FB6F894DEBF0FBECDBFD0
:101C40008C016B017A01CA57DF4F1882C658D04009
:101C500084E0E80EF11C1801E2E12E0E311C58015F
:101C6000F7E7AF1AFDEFBF0A380185E7681A8DEF75
:101C7000780A80E4482E512C4C0E5D1EE4E04E0E96
:101C8000511CA101BE016F5F7F4FC7010E946AC551
:101C900018160CF00EC12C85322F3871303109F036
:101CA00099C0F501808191810197029708F492C053
:101CB000BE016F5F7F4FCE0187589F4F0E94EF0D8F
:101CC000A0961FAEA097F6018081811107C061EF39
:101CD00072E0CE01815A9F4F0E94A3FFB601CE0150
:101CE000815A9F4F0E94A3FFBE0167587F4FCE01CC
:101CF000815A9F4F0E94A3FF61EF72E0CE01815A8B
:101D00009F4F0E94A3FFCE01805C9F4F0E94640DF5
:101D100021E0AE0147585F4FB701C2010E940EC9D2
:101D2000811131C0F50180819181892B61F5EBE74B
:101D3000F4E064914F01662369F0772767FD7095A1
:101D40008EE599E10E945D0DFFEF8F1A9F0AF40165
:101D50006491F1CF63EF72E08EE599E10E94B9F2F0
:101D60006AE070E08EE599E10E945D0DBE01675862
:101D70007F4F8EE599E10E94B9F26AE070E08EE54E
:101D800099E10E945D0D8BE1FE01EC5BFF4FDE01EE
:101D9000959601900D928A95E1F724968EAD9FADB0
:101DA00024979CA38BA38BE09AE09AA389A3AE010E
:101DB0004F5D5F4FBE01615A7F4FC8010E94050E03
:101DC000CE0181960E946E0DCE01805C9F4F0E94D5
:101DD0006E0D57CF8981882309F46BC0853E09F4C5
:101DE00050CF8E3209F44DCF8F3509F44ACFF80128
:101DF0008289882331F08E3209F443CF8F3509F47C
:101E000040CF23FD3ECF81E0303109F080E0F80182
:101E100085A7811108C08985873409F032CF8A856A
:101E20008E3709F42ECF4801F5E08F0E911CBE01CC
:101E30006F5F7F4FC4010E94EF0DF501808191819A
:101E4000009789F4B6018EE599E10E94B9F2B401D8
:101E50008EE599E10E94B9F26AE070E08EE599E1C1
:101E60000E945D0D0ECF8130910539F4F301808120
:101E7000918101969183808304CF029709F001CF6D
:101E8000CA57DF4FF881C658D0402F2F30E0F301FA
:101E9000808191812817390761F0CA57DF4FF88197
:101EA000C658D040FF5FCA57DF4FF883C658D040AE
:101EB000E8CECA57DF4F0FB6F894DEBF0FBECDBFD6
:101EC000DF91CF911F910F91FF90EF90DF90CF9016
:101ED000BF90AF909F908F907F906F905F904F904A
:101EE0003F902F900895EF92FF920F931F93CF93FF
:101EF000DF93CDB7DEB76F970FB6F894DEBF0FBE96
:101F0000CDBF8C01FC01E757FD4F118210827C018F
:101F100084E3E80EF11C40E050E0BA01C7010E94E2
:101F20001FC68BE1F701DE01159601900D928A958F
:101F3000E1F7F80182A993A99C838B838BE09AE057
:101F40009A838983AE014F5F5F4F68E479E0C801EF
:101F50000E94050ECE0101960E946E0D6F960FB67F
:101F6000F894DEBF0FBECDBFDF91CF911F910F91CF
:101F7000FF90EF9008952BE1FB013496DC0114965D
:101F800001900D922A95E1F7FB0122813381FC013A
:101F9000338322830895EF92FF920F931F93CF9381
:101FA000DF93EC011C828FA9882321F0CE01C49617
:101FB0000E9405C77E0188E5E81A8EEFF80A45E31E
:101FC00060E0C7010E945DC181113EC0EBE7F4E013
:101FD00064918F01662361F0772767FD70958EE528
:101FE00099E10E945D0D0F5F1F4FF8016491F2CFE0
:101FF000EEE6F4E064918F01662361F0772767FDD8
:1020000070958EE599E10E945D0D0F5F1F4FF801FD
:102010006491F2CF6AE070E08EE599E10E945D0D77
:102020008E01005D1F4FB801CE018F5A9F4F0E9455
:10203000BB0FC15BDF4F19830883DF91CF911F91E5
:102040000F91FF90EF9008958E0103551E4F41E0D0
:10205000B701C8010E941FCF81112CC040E0B70119
:10206000C8010E941FCF811125C0E1E8F4E064910E
:102070008F01662361F0772767FD70958EE599E102
:102080000E945D0D0F5F1F4FF8016491F2CFEBE5E9
:10209000F4E064918F01662309F4BCCF772767FDD4
:1020A00070958EE599E10E945D0D0F5F1F4FF8015D
:1020B0006491F1CFB801CE01C4960E940AC4811187
:1020C00025C0E1E8F4E064918F01662361F0772791
:1020D00067FD70958EE599E10E945D0D0F5F1F4FC2
:1020E000F8016491F2CFEBE4F4E064918F01662390
:1020F00009F490CF772767FD70958EE599E10E94EE
:102100005D0D0F5F1F4FF8016491F1CF81E08C836B
:10211000EBE7F4E064918F01662361F0772767FDB8
:1021200070958EE599E10E945D0D0F5F1F4FF801DC
:102130006491F2CFE0E4F4E064918F01662309F446
:1021400069CF772767FD70958EE599E10E945D0D57
:102150000F5F1F4FF8016491F1CFFC0112821482CE
:102160000895FC018481882319F081E08283138221
:102170000895FC018281882319F0128281E0838313
:102180000895AF92BF92CF92DF92EF92FF920F939A
:102190001F93CF93DF931F92CDB7DEB78C018FE2F1
:1021A000FB0181935F01D12C41E07801FAE5EF1A40
:1021B000FEEFFF0A9FE1C92E2D2D30E0F70180814F
:1021C000918128173907D8F4C29EC001C39E900D93
:1021D00011248C589F4FB501800F911F49830E9495
:1021E000AFC3C50149815C010196F501208122231D
:1021F00021F04D3810F44F5FF6CFD394DDCF47FD7B
:1022000011C0B501C80181539E4F0F90DF91CF914E
:102210001F910F91FF90EF90DF90CF90BF90AF9004
:102220000C94AFC3F50110820F90DF91CF911F91F5
:102230000F91FF90EF90DF90CF90BF90AF900895F7
:102240003F924F925F926F927F928F929F92AF9246
:10225000BF92CF92DF92EF92FF920F931F93CF9393
:10226000DF93CDB7DEB7AC970FB6F894DEBF0FBEE5
:10227000CDBF8C016B01342EFC018481882309F4CD
:10228000EDC2EE52FE4F8081882309F413C1211163
:10229000DAC07801F6E1EF1AFEEFFF0AF70180815C
:1022A000882309F435C0E1E8F4E064918F016623E6
:1022B00061F0772767FD70958EE599E10E945D0DCD
:1022C0000F5F1F4FF8016491F2CFEDEFF3E06491DF
:1022D0008F01662361F0772767FD70958EE599E1A0
:1022E0000E945D0D0F5F1F4FF8016491F2CF4AE02D
:1022F00050E061E070E08EE599E10E948BF36AE0C6
:1023000070E08EE599E10E945D0D0E94BE37A6C285
:10231000EBE7F4E064915F01662369F0772767FDDE
:1023200070958EE599E10E945D0DFFEFAF1ABF0A2F
:10233000F5016491F1CFE4EEF3E064915F0166236F
:1023400069F0772767FD70958EE599E10E945D0D34
:10235000FFEFAF1ABF0AF5016491F1CFB6018EE528
:1023600099E10E94B9F2E9EDF3E064915F0166231F
:1023700069F0772767FD70958EE599E10E945D0D04
:10238000FFEFAF1ABF0AF5016491F1CFF701808129
:102390002DE8B22EB801B89E600D711D1124615157
:1023A0007E4FC8010E94C110F7018081B801B89E1C
:1023B000600D711D112461517E4F8EE599E10E94DF
:1023C000B9F2E3EDF3E064915F01662369F07727EA
:1023D00067FD70958EE599E10E945D0DFFEFAF1AE4
:1023E000BF0AF5016491F1CF5801FCE7AF1AFDEF88
:1023F000BF0AF50140815181628173812AE030E09A
:102400008EE599E10E94ABF36AE070E08EE599E118
:102410000E945D0DF7012081F80184E0289FE00D06
:10242000F11D1124AF0145515E4FF501808191816D
:10243000A281B381FA0180839183A283B3832F5F4A
:10244000F701208331C0EBE7F4E064917F0166235C
:1024500069F0772767FD70958EE599E10E945D0D23
:10246000FFEFEF1AFF0AF7016491F1CFE2ECF3E01E
:1024700064917F01662369F0772767FD70958EE58B
:1024800099E10E945D0DFFEFEF1AFF0AF7016491D9
:10249000F1CFB6018EE599E10E94B9F26AE070E0F1
:1024A0008EE599E10E945D0DC80181539E4F0E9407
:1024B00005C735C0F801E651FE4F1082EBE7F4E0A6
:1024C00064917F01662369F0772767FD70958EE53B
:1024D00099E10E945D0DFFEFEF1AFF0AF701649189
:1024E000F1CFE1EBF3E064917F01662369F0772798
:1024F00067FD70958EE599E10E945D0DFFEFEF1A83
:10250000FF0AF7016491F1CFB6018EE599E10E94CF
:10251000B9F26AE070E08EE599E10E945D0DF80184
:102520001282CE0101965C010E94640D28019FE495
:10253000490E511CC801C096F20191838083F601B7
:1025400080818F3209F07EC06FE270E0C6010E9488
:10255000AEFF01967C01E114F10409F479C06FE249
:1025600070E0C7010E94AEFF4C01009709F471C0F2
:10257000E816F90608F06DC03C016E187F08A3014B
:10258000B701CE0180960E94D7FFE0E2F0E0EC0FA9
:10259000FD1FE60DF71D1082BE01605E7F4F8EE5C8
:1025A00099E10E94B9F26AE070E08EE599E10E943B
:1025B0005D0DF201608171816115710519F06C5F2B
:1025C0007F4F02C060E070E021E0AE01405E5F4FEF
:1025D000CE0105960E940EC981112CC0EDE9F3E0F1
:1025E00064918F01662361F0772767FD70958EE512
:1025F00099E10E945D0D0F5F1F4FF8016491F2CFCA
:10260000BE01605E7F4F8EE599E10E94B9F2EBE971
:10261000F3E064918F01662309F417C1772767FD02
:1026200070958EE599E10E945D0D0F5F1F4FF801D7
:102630006491F1CFF201B182A0827401FFEFEF1A31
:10264000FF0A89CFC8018F5A9F4FF201918380837F
:102650007601C80181539E4F4C01F2016081718166
:10266000332009F4A0C06115710519F06C5F7F4F2C
:1026700002C060E070E021E0A701C4010E940EC921
:10268000882309F466C0F40181899289A389B489F9
:10269000F801E458FD4F80839183A283B383EDE872
:1026A000F3E064914F01C80184589D4F6C0166238B
:1026B00069F0772767FD70958EE599E10E945D0DC1
:1026C0009FEF891A990AF4016491F1CFB7018EE561
:1026D00099E10E94B9F2E5E8F3E064917F01662395
:1026E00069F0772767FD70958EE599E10E945D0D91
:1026F000FFEFEF1AFF0AF7016491F1CFF601408175
:102700005181628173812AE030E08EE599E10E9477
:10271000ABF36AE070E08EE599E10E945D0DF8018F
:10272000EC57FD4F1082118212821382E7E7F3E02B
:1027300064918F01662309F488C0772767FD70953F
:102740008EE599E10E945D0D0F5F1F4FF8016491C6
:10275000F1CFE3E6F3E064918F01662361F0772720
:1027600067FD70958EE599E10E945D0D0F5F1F4F2B
:10277000F8016491F2CFB7018EE599E10E94B9F2B8
:10278000E1E6F3E064918F01662309F45EC07727E8
:1027900067FD70958EE599E10E945D0D0F5F1F4FFB
:1027A000F8016491F1CF6115710519F06C5F7F4FED
:1027B00002C060E070E026E5A701C4010E940EC9D6
:1027C000811129C0EDE4F3E064918F01662361F08B
:1027D000772767FD70958EE599E10E945D0D0F5F8B
:1027E0001F4FF8016491F2CFB7018EE599E10E9485
:1027F000B9F2EBE4F3E064918F01662331F17727BE
:1028000067FD70958EE599E10E945D0D0F5F1F4F8A
:10281000F8016491F2CF81E0F8018083E9E3F3E00D
:1028200064918F01662361F0772767FD70958EE5CF
:1028300099E10E945D0D0F5F1F4FF8016491F2CF87
:10284000B6018EE599E10E94B9F26AE070E08EE58A
:1028500099E10E945D0DC5010E946E0DAC960FB608
:10286000F894DEBF0FBECDBFDF91CF911F910F91C6
:10287000FF90EF90DF90CF90BF90AF909F908F90A0
:102880007F906F905F904F903F90089521E0FC0102
:10289000218340E00C9420114F925F926F927F92BF
:1028A0008F929F92AF92BF92CF92DF92EF92FF9260
:1028B0000F931F93CF93DF93CDB7DEB7AC970FB6CF
:1028C000F894DEBF0FBECDBF7C015B01FC018481AB
:1028D000882309F402C1C70181539E4F0E9405C796
:1028E000F7011282CE0101966C010E94640D27014E
:1028F0009FE4490E511CC701C096F2019183808369
:10290000F50180818F3209F07AC06FE270E0C50175
:102910000E94AEFF8C010F5F1F4F09F476C06FE27B
:1029200070E0C8010E94AEFF4C01009709F46EC030
:102930000817190708F06AC03C01601A710AA30160
:10294000B801CE0180960E94D7FFE0E2F0E0EC0FE4
:10295000FD1FE60DF71D1082BE01605E7F4F8EE504
:1029600099E10E94B9F26AE070E08EE599E10E9477
:102970005D0DF201608171816115710519F06C5F67
:102980007F4F02C060E070E021E0AE01405E5F4F2B
:10299000CE0105960E940EC981112CC0E5E2F3E03C
:1029A00064918F01662361F0772767FD70958EE54E
:1029B00099E10E945D0D0F5F1F4FF8016491F2CF06
:1029C000BE01605E7F4F8EE599E10E94B9F2E3E2BD
:1029D000F3E064918F01662309F476C0772767FDE1
:1029E00070958EE599E10E945D0D0F5F1F4FF80114
:1029F0006491F1CFF201D182C08284018CCFC701F2
:102A00008F5A9F4FF201918380838501F20180816B
:102A10009181009711F0049602C080E090E0B80127
:102A20000E94EEC9882331F1E5E1F3E064915F0192
:102A3000662369F0772767FD70958EE599E10E941E
:102A40005D0DFFEFAF1ABF0AF5016491F1CFB80138
:102A50008EE599E10E94B9F26AE070E08EE599E1B5
:102A60000E945D0DF701EC57FD4F1082118212821A
:102A7000138230C0EDEFF2E064917F01662369F0CC
:102A8000772767FD70958EE599E10E945D0DFFEF58
:102A9000EF1AFF0AF7016491F1CFB8018EE599E1D1
:102AA0000E94B9F2EBEFF2E064918F01662361F0CE
:102AB000772767FD70958EE599E10E945D0D0F5FA8
:102AC0001F4FF8016491F2CF6AE070E08EE599E162
:102AD0000E945D0DC6010E946E0DAC960FB6F89473
:102AE000DEBF0FBECDBFDF91CF911F910F91FF9041
:102AF000EF90DF90CF90BF90AF909F908F907F909E
:102B00006F905F904F9008950F931F93CF93DF9333
:102B1000EC018C81882309F43EC0E9EEF2E0649177
:102B20008F01662361F0772767FD70958EE599E147
:102B30000E945D0D0F5F1F4FF8016491F2CFFE01FF
:102B4000EC57FD4F40815181628173812AE030E072
:102B50008EE599E10E94ABF3E7EEF2E064918F011C
:102B6000662361F0772767FD70958EE599E10E94F5
:102B70005D0D0F5F1F4FF8016491F2CFC458DD4F18
:102B8000488159816A817B812AE030E08EE599E1B4
:102B90000E94ABF311C0E7EDF2E06491EF01662310
:102BA00059F0772767FD70958EE599E10E945D0DDC
:102BB0002196FE016491F3CF6AE070E08EE599E121
:102BC000DF91CF911F910F910C945D0DAF92BF9249
:102BD000CF92DF92EF92FF920F931F93CF93DF93E9
:102BE0005C01EB01FB0101900020E9F78F0101502E
:102BF0001109061B170B6C01F1E3CF1AFEEFDF0A78
:102C0000F60110826EE470E0CE010E94AEFF7C01FE
:102C1000009729F4F8013197EC0FFD1F0DC060E219
:102C200070E00E94AEFFEC0121966AE270E0C701FD
:102C30000E94AEFFFC0131978DE081838AE08283A0
:102C40001382BE01C50185539E4F0E94BDCBF60184
:102C50008081882391F1E1E8F4E06491EF0166233B
:102C600059F0772767FD70958EE599E10E945D0D1B
:102C70002196FE016491F3CFE1ECF2E06491EF0163
:102C8000662359F0772767FD70958EE599E10E94DC
:102C90005D0D2196FE016491F3CF6AE070E08EE550
:102CA00099E1DF91CF911F910F91FF90EF90DF900D
:102CB000CF90BF90AF900C945D0DDF91CF911F919D
:102CC0000F91FF90EF90DF90CF90BF90AF9008955D
:102CD0002F923F924F925F926F927F928F929F922C
:102CE000AF92BF92CF92DF92EF92FF920F931F931A
:102CF000CF93DF93CDB7DEB7CC55D1090FB6F8949B
:102D0000DEBF0FBECDBF8C0188579D4F5C0166238F
:102D100039F0F5011082F801848181111EC015C0BF
:102D2000FC018081882309F4AEC0F801E058FD4F12
:102D3000C080D180E280F3800E9432EDC616D706B3
:102D4000E806F90608F49FC0E4CFC8010E94CB0F43
:102D5000F8018481882309F496C0F80187A58F9330
:102D600086A58F9388EB92E09F938F937E01FFE37C
:102D7000EF0EF11CFF92EF920F9415000F900F9041
:102D80000F900F900F900F90B12CF7010190002041
:102D9000E9F73197EE19FF09BE1684F46701CB0CF1
:102DA000D11CB7FCDA94F6018081992787FD9095B4
:102DB0000E944CFFF6018083B394E7CF4801F4E30F
:102DC0008F0E911C40E050E0BA01C4010E941FC662
:102DD000512CCE0101966C0131EB632E32E0732E43
:102DE0005E0191E2A90EB11C40E050E0B601C401C1
:102DF0000E946AC51816DCF5412CF60101900020EE
:102E0000E9F73197EC19FD094E1674F41601240CFC
:102E1000311C47FC3A94F101808190E00E944CFF04
:102E2000F10180834394E9CF8A858E37E9F245E04A
:102E300050E0B701C6010E94C9FF892BA9F6FF9295
:102E4000EF927F926F92BF92AF920F941500C501DF
:102E50000E940A2A8DEA92E00E94862A0F900F9023
:102E60000F900F900F900F9055245394BDCF511099
:102E700004C08FEF9FEFF80104C0F80186A597A565
:102E8000019697A786A7C45ADF4F0FB6F894DEBF06
:102E90000FBECDBFDF91CF911F910F91FF90EF90AB
:102EA000DF90CF90BF90AF909F908F907F906F906A
:102EB0005F904F903F902F9008950F931F93CF9363
:102EC000DF93EC018C0101531E4FC8010E94B9C66B
:102ED000C8010E9405C718821982DF91CF911F9106
:102EE0000F910895EF92FF920F931F93CF93DF936B
:102EF000CDB7DEB76F970FB6F894DEBF0FBECDBF6C
:102F00008C017C018FE4E80EF11CC8018F5A9F4FA1
:102F1000F70191838083E65CFD4F22E030E031834E
:102F20002083329670E07183608340E050E0BA0104
:102F300004960E941FC6F701808191812BE1FC015C
:102F40003496DE01159601900D922A95E1F7FC0169
:102F5000828193819C838B838BE09AE09A8389831F
:102F6000AE014F5F5F4F68E479E0C8010E94050E33
:102F7000CE0101960E946E0D6F960FB6F894DEBFDB
:102F80000FBECDBFDF91CF911F910F91FF90EF90BA
:102F90000895CF92DF92EF92FF920F931F93CF93FA
:102FA000DF93CDB7DEB76F970FB6F894DEBF0FBED5
:102FB000CDBF8C016C012FE4C20ED11C8F5A9F4FE4
:102FC000F60191838083E65CFD4F21E030E03183A0
:102FD00020837801F5E7EF1AFDEFFF0AF701118270
:102FE000108240E050E0BA0104960E941FC6F6012C
:102FF000808191812BE1FC013496DE0115960190D0
:103000000D922A95E1F7FC01828193819C838B8349
:103010008BE09AE09A838983AE014F5F5F4F68E44B
:1030200079E0C8010E94050ECE0101960E946E0D46
:10303000F701808191816F960FB6F894DEBF0FBEC5
:10304000CDBFDF91CF911F910F91FF90EF90DF9057
:10305000CF900895EF92FF920F931F93CF93DF933A
:10306000EC010E949FD88E0106511E4FF80180810D
:103070009E0121533E4F79018823A9F1C9010E9485
:1030800005C7F801808181508083BE01FDE88F9FD4
:10309000600D711D112461517E4F21E041E0CE0190
:1030A0000E942011F8018081FE0124E0829FE00D42
:1030B000F11D1124E551FE4F4081518162817381E0
:1030C000FE01EC57FD4F4083518362837383C70138
:1030D0000E941FC6CE01DF91CF911F910F91FF90EB
:1030E000EF900C94B1100E9432D9C7010E9405C71D
:1030F0001A8221E030E045E050E06AE070E08FEBBA
:103100009FE00E94EF218AEA92E00E94862A8EE9DF
:1031100092E00E94862A80911F158823F9F0109270
:103120001F15C091CC0CD0E0CC0FDD1FCE56D74E72
:1031300068817981882777FD8095982F0E94EDF628
:1031400020916502309166024091670250916802B9
:103150000E944EF8181614F419821882DF91CF914C
:103160001F910F91FF90EF900895EF92FF920F93B0
:103170001F93CF93DF931F92CDB7DEB78C017B01F6
:10318000460FF70161917F01F801808191814983A8
:103190000F944702F8018081918101969183808389
:1031A00049814E11EECF0F90DF91CF911F910F917A
:1031B000FF90EF900895EF92FF920F931F93CF939C
:1031C000DF931F92CDB7DEB78C017B01460FF8016C
:1031D0008081918149830F943F02F70181937F01A0
:1031E000F8018081918101969183808349814E11FC
:1031F000EECF0F90DF91CF911F910F91FF90EF9045
:1032000008950F931F93CF93DF93CDB7DEB76897E1
:103210000FB6F894DEBF0FBECDBF80E390E3A0E30E
:10322000B0E08D839E83AF83B88704E610E0188FEB
:103230000F8B44E0BE016B5F7F4FCE0147960E942B
:10324000B51840E160E875E1CE0147960E94B518D7
:1032500040E160E975E1CE0147960E94B51840E172
:1032600060E775E1CE0147960E94B51844E068E634
:1032700075E1CE0147960E94B51844E064E675E119
:10328000CE0147960E94B51844E06CE675E1CE0188
:1032900047960E94B51844E064E575E1CE01479673
:1032A0000E94B51844E060EA75E1CE0147960E949D
:1032B000B51844E060E675E1CE0147960E94B51866
:1032C00044E06CE575E1CE0147960E94B51844E0F4
:1032D00068E575E1CE0147960E94B5184CE060EEB6
:1032E0007CE0CE0147960E94B51887ED90E09E8B5A
:1032F0008D8B8DE290E09C8B8B8B1A8A198A80EFE4
:1033000090E0988B8F8786E490E09E878D871C865F
:103310001B8642E0BE016B5E7F4FCE0147960E9446
:10332000B51842E0BE016D5E7F4FCE0147960E9408
:10333000B51842E0BE016F5E7F4FCE0147960E94F6
:10334000B51842E0BE01615F7F4FCE0147960E94F3
:10335000B51842E0BE01635F7F4FCE0147960E94E1
:10336000B51842E0BE01655F7F4FCE0147960E94CF
:10337000B51844E06DEC7CE0CE0147960E94B5188C
:1033800044E06EE172E0CE0147960E94B51844E039
:1033900066E272E0CE0147960E94B51844E06EE204
:1033A00072E0CE0147960E94B51844E068EB72E0E7
:1033B000CE0147960E94B51844E064EB72E0CE015E
:1033C00047960E94B51844E060EB72E0CE01479644
:1033D0000E94B51880E290E09A87898742E0BE019A
:1033E000675F7F4FCE0147960E94B51886E591E34F
:1033F000A0E3B0E089839A83AB83BC83188F0F8BE3
:1034000044E0BE016F5F7F4FCE0147960E94B51822
:10341000ECE9F6E064918F01662361F0772767FDA0
:1034200070958EE599E10E945D0D0F5F1F4FF801C9
:103430006491F2CFECE8F6E064918F01662361F0CD
:10344000772767FD70958EE599E10E945D0D0F5F0E
:103450001F4FF8016491F2CF6AE070E08EE599E1C8
:103460000E945D0D68960FB6F894DEBF0FBECDBF0B
:10347000DF91CF911F910F9108950F931F93CF93D9
:10348000DF93CCE9D6E0FE0164918E01662361F002
:10349000772767FD70958EE599E10E945D0D0F5FBE
:1034A0001F4FF8016491F2CFECE7F6E064918F01D1
:1034B000662361F0772767FD70958EE599E10E949C
:1034C0005D0D0F5F1F4FF8016491F2CF6AE070E06D
:1034D0008EE599E10E945D0DFE0164910CE916E014
:1034E000662361F0772767FD70958EE599E10E946C
:1034F0005D0D0F5F1F4FF8016491F2CF4091801571
:1035000050918115609182157091831584E796E042
:103510000E949E29409184155091851560918615D1
:103520007091871581E796E00E949E294091881549
:103530005091891560918A1570918B158EE696E0F1
:103540000E949E2940918C1550918D1560918E1589
:1035500070918F158BE696E00E949E2968E479E0D1
:103560008EE599E10E94B9F26AE070E08EE599E19A
:103570000E945D0DFE0164910CE916E0662361F086
:10358000772767FD70958EE599E10E945D0D0F5FCD
:103590001F4FF8016491F2CFE1E5F6E064918F01ED
:1035A000662361F0772767FD70958EE599E10E94AB
:1035B0005D0D0F5F1F4FF8016491F2CF6AE070E07C
:1035C0008EE599E10E945D0DFE0164910CE916E023
:1035D000662361F0772767FD70958EE599E10E947B
:1035E0005D0D0F5F1F4FF8016491F2CF4091901570
:1035F00050919115609192157091931588E496E021
:103600000E949E29409194155091951560919615B0
:103610007091971585E496E00E949E294091981537
:103620005091991560919A1570919B1582E496E0DE
:103630000E949E2940919C1550919D1560919E1568
:1036400070919F158FE396E00E949E2968E479E0CF
:103650008EE599E10E94B9F26AE070E08EE599E1A9
:103660000E945D0DFE0164910CE916E0662361F095
:10367000772767FD70958EE599E10E945D0D0F5FDC
:103680001F4FF8016491F2CFE1E2F6E064918F01FF
:10369000662361F0772767FD70958EE599E10E94BA
:1036A0005D0D0F5F1F4FF8016491F2CF6AE070E08B
:1036B0008EE599E10E945D0DFE0164910CE916E032
:1036C000662361F0772767FD70958EE599E10E948A
:1036D0005D0D0F5F1F4FF8016491F2CF409170159F
:1036E00050917115609172157091731588E196E093
:1036F0000E94E629409174155091751560917615D8
:103700007091771585E196E00E94E6294091781541
:103710005091791560917A1570917B1582E196E050
:103720000E94E62940917C1550917D1560917E158F
:1037300070917F158FE096E00E94E62968E479E0B9
:103740008EE599E10E94B9F26AE070E08EE599E1B8
:103750000E945D0DFE0164910CE916E0662361F0A4
:10376000772767FD70958EE599E10E945D0D0F5FEB
:103770001F4FF8016491F2CFEAEDF5E064918F01FB
:10378000662361F0772767FD70958EE599E10E94C9
:103790005D0D0F5F1F4FF8016491F2CF6AE070E09A
:1037A0008EE599E10E945D0DFE0164910CE916E041
:1037B000662361F0772767FD70958EE599E10E9499
:1037C0005D0D0F5F1F4FF8016491F2CF40916815B6
:1037D0005091691560916A1570916B1581ED95E0B6
:1037E0000E949E294091641550916515609166155F
:1037F000709167158EEC95E00E949E2968E479E04F
:103800008EE599E10E94B9F26AE070E08EE599E1F7
:103810000E945D0DFE0164910CE916E0662361F0E3
:10382000772767FD70958EE599E10E945D0D0F5F2A
:103830001F4FF8016491F2CFEBE1F5E064918F0145
:10384000662361F0772767FD70958EE599E10E9408
:103850005D0D0F5F1F4FF8016491F2CF6AE070E0D9
:103860008EE599E10E945D0DFE0164910CE916E080
:10387000662361F0772767FD70958EE599E10E94D8
:103880005D0D0F5F1F4FF8016491F2CF40916C15F1
:1038900050916D1560916E1570916F1582E195E0F4
:1038A0000E949E29409154155091551560915615CE
:1038B000709157158FE095E00E949E294091A015C8
:1038C0005091A1156091A2157091A3158CE095E01F
:1038D0000E94E62940916015509161156091621532
:1038E0007091631589E095E00E949E2940915C15D6
:1038F00050915D1560915E1570915F1586E095E0C1
:103900000E949E29409158155091591560915A1561
:1039100070915B1583E095E00E949E2968E479E050
:103920008EE599E10E94B9F26AE070E08EE599E1D6
:103930000E945D0DFE0164910CE916E0662361F0C2
:10394000772767FD70958EE599E10E945D0D0F5F09
:103950001F4FF8016491F2CFE1EFF4E064918F0121
:10396000662361F0772767FD70958EE599E10E94E7
:103970005D0D0F5F1F4FF8016491F2CF6AE070E0B8
:103980008EE599E10E945D0DFE0164910CE916E05F
:10399000662361F0772767FD70958EE599E10E94B7
:1039A0005D0D0F5F1F4FF8016491F2CF4091E00C65
:1039B0005091E10C6091E20C7091E30C88EE94E080
:1039C0000E949E294091E40C5091E50C6091E60C18
:1039D0007091E70C85EE94E00E949E294091E80CDE
:1039E0005091E90C6091EA0C7091EB0C82EE94E03E
:1039F0000E949E2968E479E08EE599E10E94B9F27F
:103A00006AE070E08EE599E10E945D0DFE0164912F
:103A10000CE916E0662361F0772767FD70958EE567
:103A200099E10E945D0D0F5F1F4FF8016491F2CF85
:103A3000E4EDF4E064918F01662361F0772767FD80
:103A400070958EE599E10E945D0D0F5F1F4FF801A3
:103A50006491F2CF6AE070E08EE599E10E945D0D1D
:103A6000FE01C4910CE916E0CC2369F06C2F772796
:103A700067FD70958EE599E10E945D0D0F5F1F4F08
:103A8000F801C491F1CF4091B8025091B902609110
:103A9000BA027091BB028AEC94E00E949E29609168
:103AA000B4027091B5028091B6029091B7020E9463
:103AB0009EE5AB01BC0187EC94E00E949E296091D9
:103AC000B0027091B1028091B2029091B3020E9453
:103AD000ACE5AB01BC0184EC94E00E949E2968E453
:103AE00079E08EE599E10E94B9F26AE070E08EE536
:103AF00099E1DF91CF911F910F910C945D0DAF92E1
:103B0000BF92CF92DF92EF92FF920F931F93CF93CA
:103B1000DF93CDB7DEB7E0970FB6F894DEBF0FBEE8
:103B2000CDBF80E1ECEBF2E0DE01919601900D92C9
:103B30008A95E1F780E1ECECF2E0DE01519601902C
:103B40000D928A95E1F780E1ECEDF2E0DE0111964D
:103B500001900D928A95E1F76E0181E2C80ED11CA9
:103B600080E8E82E85E1F82E8E010F5E1F4F60E998
:103B700075E1AE014F5F5F4F90E7A92E95E1B92E39
:103B800020E030E0F60181919191A191B1916F0116
:103B9000F70181939193A193B1937F01F8018191F2
:103BA0009191A191B1918F01FB0181939193A19387
:103BB000B193BF01FA0181919191A191B191AF01AE
:103BC000F50181939193A193B1935F012F5F3F4FD3
:103BD00024303105B9F60E941BC080E090E8ABEBC1
:103BE000B4E48093681590936915A0936A15B09317
:103BF0006B1580E090E0AAEFB4E480936415909395
:103C00006515A0936615B093671510926C15109208
:103C10006D1510926E1510926F1580E29EE4A0E073
:103C2000B0E08093A0159093A115A093A215B09336
:103C3000A315109254151092551510925615109206
:103C4000571580E090E0A0EAB0E48093601590936F
:103C50006115A0936215B09363154DEC5CEC6CECB0
:103C60007EE340935C1550935D1560935E157093F1
:103C70005F158093581590935915A0935A15B093DA
:103C80005B151092E80C1092E90C1092EA0C10925D
:103C9000EB0C1092E40C1092E50C1092E60C1092D2
:103CA000E70C1092E00C1092E10C1092E20C1092D2
:103CB000E30C8AE999E9A9E3B0EC8093CD0C9093E9
:103CC000CE0CA093CF0CB093D00C83E393E3ACE97C
:103CD000B3E480931E0290931F02A0932002B0933E
:103CE00021028AE999E9A9E1BEEB8093260290932B
:103CF0002702A0932802B09329028DEC9CECACEC37
:103D0000BDEB80932E0290932F02A0933002B093CC
:103D100031028FE195E8AFE9B1E48093B802909366
:103D2000B902A093BA02B093BB0260E070E080E5F4
:103D300090E40E9497E56093B4027093B50280937B
:103D4000B6029093B7026DE37AE085EF91E40E94AA
:103D5000A5E56093B0027093B1028093B202909394
:103D6000B3020E941BDB80E090E0A0E8BFE38093F9
:103D7000AC029093AD02A093AE02B093AF02ECE917
:103D8000F6E064918F01662361F0772767FD7095F7
:103D90008EE599E10E945D0D0F5F1F4FF801649160
:103DA000F2CFE8E8F4E064918F01662361F07727B1
:103DB00067FD70958EE599E10E945D0D0F5F1F4FC5
:103DC000F8016491F2CF6AE070E08EE599E1E09647
:103DD0000FB6F894DEBF0FBECDBFDF91CF911F911C
:103DE0000F91FF90EF90DF90CF90BF90AF900C9429
:103DF0005D0D0F931F93CF93DF93CDB7DEB7689719
:103E00000FB6F894DEBF0FBECDBF84E690E0988F6A
:103E10008F8B86E591E3A0E3B0E089839A83AB833F
:103E2000BC8344E0BE016B5F7F4FCE0147960E948A
:103E3000DB1843E050E0BE016B5F7F4FCE0101967F
:103E40000E94C9FF892B09F0ECC040E160E875E1F0
:103E5000CE0147960E94DB1840E160E975E1CE0192
:103E600047960E94DB1840E160E775E1CE01479676
:103E70000E94DB180E941BC044E068E675E1CE0199
:103E800047960E94DB1844E064E675E1CE01479650
:103E90000E94DB1844E06CE675E1CE0147960E9473
:103EA000DB1844E064E575E1CE0147960E94DB181B
:103EB00044E060EA75E1CE0147960E94DB1844E0D9
:103EC00060E675E1CE0147960E94DB1844E06CE5A0
:103ED00075E1CE0147960E94DB1844E068E575E184
:103EE000CE0147960E94DB184CE060EE7CE0CE01EC
:103EF00047960E94DB1842E0BE016B5E7F4FCE0109
:103F000047960E94DB1842E0BE016D5E7F4FCE01F6
:103F100047960E94DB1842E0BE016F5E7F4FCE01E4
:103F200047960E94DB1842E0BE01615F7F4FCE01E1
:103F300047960E94DB1842E0BE01635F7F4FCE01CF
:103F400047960E94DB1842E0BE01655F7F4FCE01BD
:103F500047960E94DB1844E06DEC7CE0CE0147966A
:103F60000E94DB1844E06EE172E0CE0147960E94A9
:103F7000DB1844E066E272E0CE0147960E94DB184F
:103F800044E06EE272E0CE0147960E94DB1844E006
:103F900068EB72E0CE0147960E94DB1844E064EBC8
:103FA00072E0CE0147960E94DB1844E060EB72E0BD
:103FB000CE0147960E94DB1842E0BE01675F7F4F4B
:103FC000CE0147960E94DB180E941BDBECE9F6E06D
:103FD00064918F01662361F0772767FD70958EE508
:103FE00099E10E945D0D0F5F1F4FF8016491F2CFC0
:103FF000EAEAF4E064918F01662361F0772767FDB8
:1040000070958EE599E10E945D0D0F5F1F4FF801DD
:104010006491F2CF6AE070E08EE599E10E945D0D57
:1040200002C00E947F1D68960FB6F894DEBF0FBED7
:10403000CDBFDF91CF911F910F910895FC01EB58F7
:10404000FF4F118210823D979C012D593F4F3183C4
:104050002083329628EE33E031832083329611821A
:10406000108232961182108232961082319611821D
:1040700010820895FB01838190E0982F8827248186
:10408000820F911D0895FC01E859FF4FA081B18175
:104090008D599F4F8A179B0780F48FEF8C938081F7
:1040A00091810197918380838091990A90919A0AD6
:1040B000019790939A0A8093990A08950F931F93FA
:1040C000CF93DF938C01EC01CD58DF4F888199812C
:1040D000DC01ED91FC910480F581E02D1995892B8F
:1040E00041F4F801E259FF4F8DEF9FEF91838083F8
:1040F0000AC088819981DC01ED91FC910680F781ED
:10410000E02D19959927DF91CF911F910F91089577
:10411000FC01E259FF4F118210820E945E20089537
:10412000CF93DF93EC01CE59DF4F28812223D1F0CA
:104130009C01205A3F4FF901508146E0FC01459F08
:10414000E00DF11D1124DB0101900D924A95E1F77C
:10415000F90180818F5F8F7080838881815088838F
:1041600081E001C080E0DF91CF910895CF93DF938C
:10417000EC01CE59DF4F28812E30D0F49C012F590D
:104180003F4FF901508146E0DC01459FA00DB11D74
:104190001124FB0101900D924A95E1F7F90180810C
:1041A0008F5F8F70808388818F5F888381E008C0F4
:1041B000FC01E259FF4F2BEF3FEF3183208380E07A
:1041C000DF91CF910895FC01E859FF4F0190F081F4
:1041D000E02D6083635071096230710520F4FC01A9
:1041E000E059FF4F108208952091990A30919A0A60
:1041F0002F5F3F4F30939A0A2093990AFC01E859A8
:10420000FF4F208131812F5F3F4F3183208370E04A
:104210000C94E320CF92DF92EF92FF921F93CF9303
:10422000DF93EC010E948820182F6E018EE6C80EE5
:10423000D11CD6012D913C912D3F3F4F81F4FE01C1
:10424000EE59FF4F8081882309F45EC0C958DF4FC3
:10425000E881F981309709F457C0199555C07E015E
:10426000E8E6EE0EF11CD701ED91FC9180818130E2
:1042700021F0B0F0823091F01EC0173099F0153166
:1042800021F0163009F04AC03BC0CE010E94432005
:104290008CEF9FEFF6019183808340C0153021F0B1
:1042A0001730E1F564E004C0CE010E94432063E0D2
:1042B000CE010E94F420D701ED91FC9180818350C2
:1042C000823008F030C07E01F0E7EF0EF11CD7011C
:1042D0002C91222331F18091980A81278093980AAA
:1042E000E22FF0E0EE56F54F10832530A1F4811156
:1042F0000DC062E97AE0CE010E94B620F70110827B
:10430000CE010E9443200AC080E009C088EF9FEFE1
:10431000D6018D939C932F5FF701208381E090E07D
:1043200002C0812FDBCFDF91CF911F91FF90EF90E3
:10433000DF90CF900895AF92BF92CF92DF92EF922D
:10434000FF920F931F93CF93DF93EC010E9432ED06
:104350006B017C018E0106591F4FD8018D919C91F4
:10436000AA2797FDA095BA2FC80ED91EEA1EFB1EDC
:104370005E01B8E6AB0EB11C0E9432ED6C157D05F6
:104380008E059F05D8F4CE010E940A21019779F489
:104390000E9432ED6B017C01F80180819181AA2796
:1043A00097FDA095BA2FC80ED91EEA1EFB1ED50197
:1043B000ED91FC9180818111DFCF06C0C259DF4FA2
:1043C0008FEF9FEF99838883DF91CF911F910F919A
:1043D000FF90EF90DF90CF90BF90AF900895BF9285
:1043E000CF92DF92EF92FF920F931F93CF93DF93C1
:1043F0008C01D62EC42E79010E949B21F801E2592E
:10440000FF4F11821082E801CD58DF4F88819981DA
:10441000DC01ED91FC910190F081E02D61E01995B6
:1044200088819981DC01ED91FC910190F081E02D72
:104430006D2D199588819981DC01ED91FC91019098
:10444000F081E02D6C2D1995BB24B394BC24BD24C0
:1044500088819981DC01ED91FC910190F081E02D42
:104460006F2D1995BF2488819981FF24DC01ED917E
:10447000FC910190F081E02D6E2D19958881998134
:10448000DC01ED91FC916B2D6E250190F081E02D0A
:10449000199561E0C8010E94F420DF91CF911F912E
:1044A0000F91FF90EF90DF90CF90BF900895AF9263
:1044B000BF92CF92DF92EF92FF920F931F93CF9311
:1044C000DF935C016B017A01EA0109900020E9F7B2
:1044D0002197C41BD50BCF3FD10511F00CF04AC07A
:1044E0000E949B2185010D581F4FD8018D919C91F1
:1044F000DC01ED91FC910190F081E02D62E01995D5
:10450000F80180819181DC01ED91FC910190F081B5
:10451000E02D6C2D1995B2E0CB26F80180819181B8
:10452000DC01ED91FC910190F081E02D6C2F19954B
:10453000CC26DD26D7016C91F80180819181DC01C8
:10454000ED91FC910190F081E02D662351F01995D9
:10455000F70181917F01992787FD9095C826D9267B
:10456000E9CF6C2D199561E0C5010E94F42080E02F
:1045700090E002C08FEF9FEFDF91CF911F910F91DD
:10458000FF90EF90DF90CF90BF90AF900895895843
:104590009F4FFC01718360830895CF93DF93EC01FB
:1045A000FC01ED58FF4F7183608360E00E94F420AE
:1045B000FE01E05AFF4F108231961082CE59DF4F34
:1045C0001882DF91CF9108950F931F93CF93DF93BC
:1045D0008C01C0E8D5E1F8016191719181919191CF
:1045E0008F0129913991499159910E9420F90E9496
:1045F000BAF6F8016487758786879787F5E1C03931
:10460000DF0749F7DF91CF911F910F9108952F9206
:104610003F924F925F926F927F928F929F92AF9252
:10462000BF92CF92DF92EF92FF920F931F93CF939F
:10463000DF93CDB7DEB73C01CB01BA0118012901E8
:10464000F3016083718382839383048315832683BC
:104650003783C086D186E286F38684869586A686D1
:10466000B78611E020E030E0A9010E944BF68111ED
:1046700001C010E020E030E0A901C201B1010E94B8
:104680004BF6882311F092E001C090E0192B20E056
:1046900030E0A901C701B6010E944BF6882311F052
:1046A00094E001C090E0192B20E030E0A901C501A1
:1046B000B4010E944BF6882311F088E001C080E02D
:1046C000182BF30111A3C301DF91CF911F910F911B
:1046D000FF90EF90DF90CF90BF90AF909F908F9022
:1046E0007F906F905F904F903F902F900C94E422BA
:1046F0008F929F92AF92BF92CF92DF92EF92FF92F2
:104700000F931F93CF93DF93CDB7DEB7FC0110A2B9
:104710000E940723DF91CF911F910F91FF90EF909F
:10472000DF90CF90BF90AF909F908F9008958F9221
:104730009F92AF92BF92CF92DF92EF92FF920F9330
:104740001F93812C912C5401750164010AE919E928
:1047500029E13EE3B501A4018BE99AE00E947823A8
:104760001F910F91FF90EF90DF90CF90BF90AF908F
:104770009F908F900895FC0165917591859194911A
:1047800008954F925F926F927F928F929F92AF9215
:10479000BF92CF92DF92EF92FF920F931F934090C0
:1047A0001502509016026090170270901802812C2A
:1047B000912CEAEFAE2EE5E4BE2E80921502909287
:1047C0001602A0921702B09218026093FC0C70932C
:1047D000FD0C8093FE0C9093FF0C2093000D309302
:1047E000010D4093020D5093030DE092040DF092E1
:1047F000050D0093060D1093070DECECFCE0FF9304
:10480000EF93F5E58F2E982CF5E0AF2EF3E4BF2E55
:10481000A8E0CA2EADE0DA2E0E94B4B40E949FD860
:10482000409215025092160260921702709218027E
:104830000F900F901F910F91FF90EF90DF90CF900E
:10484000BF90AF909F908F907F906F905F904F90B0
:1048500008958091150290911602A0911702B091CF
:1048600018028093A00C9093A10CA093A20CB0937B
:10487000A30C80914C0290914D0290930D0D80936A
:104880000C0D84E690E090934D0280934C020E94C0
:1048900032ED6093FF0A7093000B8093010B9093AD
:1048A000020B81E00C9402D180E00E9402D1809141
:1048B000A00C9091A10CA091A20CB091A30C80939C
:1048C000150290931602A0931702B09318028091DC
:1048D0000C0D90910D0D90934D0280934C020E940F
:1048E00032ED6093FF0A7093000B8093010B90935D
:1048F000020B08952F923F924F925F926F927F9298
:104900008F929F92AF92BF92CF92DF92EF92FF92DF
:104910000F931F93CF93DF938DE692E00E9404E9FB
:10492000E6E5F2E0608171818281938160931502F6
:1049300070931602809317029093180220E030E0E3
:1049400040E752E40E9452F64B015C01C0E0DDE01A
:10495000288139814A815B81ECEFFCE060817181C3
:1049600082819381BCEC2B2EBCE03B2E3F922F9298
:1049700018E0C12E1DE0D12EE12CF12C00E211EC4B
:104980000E94B4B40E949FD882E00E9408D94B01D3
:104990005C01288139814A815B81ECEFFCE0608118
:1049A000718182819381850174010E9414BF8CE61C
:1049B0009EE00E94BB239B01AC01C501B4010E9493
:1049C00072F52B013C0120E030E040E752E46091B9
:1049D00015027091160280911702909118020E94A0
:1049E00052F64B015C01288139814A815B81ECEFF1
:1049F000FCE060817181828193813F922F928301DB
:104A000072010E94B4B40E949FD820E030E040E8D8
:104A10005EE3E6E5F2E060817181828193810E942C
:104A200020F94B015C01609315027093160280938C
:104A30001702909318028CE69EE00E94BB236B0144
:104A40007C0120E030E040E752E4C501B4010E945F
:104A500052F64B015C01A7019601C701B6010E9405
:104A600072F59B01AC01C301B2010E9471F57B019B
:104A70008C01288139814A815B81ECEFFCE0608107
:104A80007181828193813F922F92F8E0CF2EFDE0D9
:104A9000DF2E0E94B4B40E949FD882E00E9408D901
:104AA0007B018C016093040D7093050D8093060DBE
:104AB0009093070D288139814A815B81ECEFFCE0FE
:104AC00060817181828193810E9414BF0F900F9049
:104AD0000F900F900F900F90DF91CF911F910F913A
:104AE000FF90EF90DF90CF90BF90AF909F908F900E
:104AF0007F906F905F904F903F902F9008958CE73C
:104B00009EE00E94BB232091E00C3091E10C40918B
:104B1000E20C5091E30C0E9472F50895CF92DF925F
:104B2000EF92FF92892B31F4FF90EF90DF90CF90BE
:104B30000C947F25C0901E02D0901F02E0902002AE
:104B4000F090210220E030E0A901C701B6010E94E7
:104B50004EF818163CF0A3E3CA2EDC2CACE9EA2E82
:104B6000A3E4FA2EC701B601FF90EF90DF90CF903B
:104B700008958F929F92AF92BF92CF92DF92EF9261
:104B8000FF920F931F93CF93DF93009709F0CEC04E
:104B90002091CC0C222329F1822F90E00E948E25B7
:104BA0006093FC0C7093FD0C8093FE0C9093FF0CB3
:104BB0001092D40C1092D50C1092D60C1092D70CE7
:104BC00080911E0290911F02A0912002B0912102BB
:104BD0008093320290933302A0933402B093350253
:104BE000E9C020910E0230910F022230310509F008
:104BF0009DC08CE79EE00E94BB232091E00C309189
:104C0000E10C4091E20C5091E30C0E9472F560932C
:104C1000FC0C7093FD0C8093FE0C9093FF0C84E9C8
:104C20009EE00E94BB232091E00C3091E10C40916A
:104C3000E20C5091E30C0E9472F56093D40C7093D7
:104C4000D50C8093D60C9093D70C88E89EE00E94F8
:104C5000BB232091E00C3091E10C4091E20C50918B
:104C6000E30C0E9472F54B015C0100911E02109151
:104C70001F02D0912002C091210223E333E34CE9CB
:104C800053E4B8018D2F9C2F0E944EF818162CF07B
:104C9000B3E3A3E3FCE9E3E403C0B02FA12FFE01DB
:104CA000C0900602D0900702E0900802F09009023E
:104CB000A70196016B2F7A2F8F2F9E2F0E9471F5DF
:104CC0009B01AC01C501B4010E944BF687FF0FC0E8
:104CD00088E89EE00E94BB232091E00C3091E10C1B
:104CE0004091E20C5091E30C0E9472F516C023E350
:104CF00033E34CE953E4B8018D2F9C2F0E944EF80A
:104D0000181624F003E313E3DCE9C3E4A7019601DA
:104D1000B8018D2F9C2F0E9471F560933202709321
:104D20003302809334029093350244C0EC01CC0FDF
:104D3000DD1FCC0FDD1FCE018458914F0E94BB2395
:104D40009E012450334F79018E010052134FF80118
:104D500020813181428153810E9472F5F701608385
:104D6000718382839383CE018C56914F0E94BB2323
:104D70009E012C52334F7901F8012081318142810B
:104D800053810E9472F5F70160837183828393835C
:104D9000CE018857914F0E94BB23CE5CDD4FF801B6
:104DA00020813181428153810E9472F56883798329
:104DB0008A839B83DF91CF911F910F91FF90EF909A
:104DC000DF90CF90BF90AF909F908F9008952F92DB
:104DD0003F924F925F926F927F928F929F92AF928B
:104DE000BF92CF92DF92EF92FF920F931F93CF93D8
:104DF000DF93CDB7DEB728970FB6F894DEBF0FBEAE
:104E0000CDBF1C01FC01EF59F14F6490009721F0D8
:104E1000772467FC70940BC08091CC0C811104C086
:104E200066246A94762C03C066246394712CC101B5
:104E3000880F991F880F991F98878F838450934FED
:104E40009C838B83DC011D921D921D921C921397F3
:104E5000E090040DF090050D0091060D1091070DE6
:104E60002091000D3091010D4091020D5091030DE4
:104E70006091FC0C7091FD0C8091FE0C9091FF0CE8
:104E8000E8E0CE2EEDE0DE2E0E9414BF8F819885E3
:104E90008059914F0E94BB236B017C01B30188278D
:104EA00077FD8095982F0E94EDF62B013C01EF8154
:104EB000F885E754F34FFA83E98320E030E040ECD3
:104EC0005FE3C701B6010E9420F9A30192010E948D
:104ED00020F9A981BA816D937D938D939C9313974B
:104EE000EF81F885E25BFD4FFE83ED836081718188
:104EF000828193816093150270931602809317024A
:104F00009093180220E030E040E752E40E9452F60D
:104F10004B015C01E090C10CF090C20C0091C30CFD
:104F20001091C40C2091BD0C3091BE0C4091BF0C6F
:104F30005091C00C6091B90C7091BA0C8091BB0C6F
:104F40009091BC0CACECBCE0BF93AF93F5ECCF2ED2
:104F5000FCE0DF2E0E94B4B40E949FD8AB81BC81DC
:104F60001D921D921D921C921397E090040DF090DB
:104F7000050D0091060D1091070D2091000D309147
:104F8000010D4091020D5091030D6091FC0C709148
:104F9000FD0C8091FE0C9091FF0CA8E0CA2EADE0B4
:104FA000DA2E0E9414BFEF81F885EC59F14FF88793
:104FB000EF83CF010E94BB239058A30192010E946E
:104FC00020F9A981BA816D937D938D939C9313975A
:104FD00020E030E040E752E4609115027091160243
:104FE00080911702909118020E9452F64B015C01C9
:104FF000E090C10CF090C20C0091C30C1091C40C55
:105000002091BD0C3091BE0C4091BF0C5091C00C52
:105010006091B90C7091BA0C8091BB0C9091BC0C52
:10502000ACECBCE0BF93AF93B5ECCB2EBCE0DB2E79
:105030000E94B4B40E949FD88F8198850E94BB23A0
:105040009B01AC010E9472F5A30192010E9420F91C
:10505000A981BA816D937D938D939C93139720E0E2
:1050600030E040E05FE3ED81FE816081718182810B
:1050700093810E9420F96093150270931602809329
:1050800017029093180220E030E040E752E40E94BB
:1050900052F64B015C01E090C10CF090C20C009103
:1050A000C30C1091C40C2091BD0C3091BE0C4091EA
:1050B000BF0C5091C00C6091B90C7091BA0C8091EA
:1050C000BB0C9091BC0CACECBCE0BF93AF930E94C6
:1050D000B4B40E949FD8C1010E94B925EB81FC8124
:1050E00080819181A281B381E981FA81808391835A
:1050F000A283B38310921502109216021092170227
:10510000109218020E94FBD0F101EF52F34F81E0A0
:1051100080830F900F900F900F900F900F90289614
:105120000FB6F894DEBF0FBECDBFDF91CF911F91B8
:105130000F91FF90EF90DF90CF90BF90AF909F9036
:105140008F907F906F905F904F903F902F90089539
:105150004F925F926F927F928F929F92AF92BF9287
:10516000CF92DF92EF92FF920F931F93CF93DF9333
:1051700000D01F92CDB7DEB72B013C0149015A0187
:105180002091000D3091010D4091020D5091030DC1
:105190006091FC0C7091FD0C8091FE0C9091FF0CC5
:1051A0000E94C1238091CC0CC090040DD090050DBD
:1051B000E090060DF090070D20E030E040EC51E467
:1051C000811111C0C501B4010E9471F569837A8310
:1051D0008B839C8320E030E044E951E4C301B201B9
:1051E0000E9471F510C0C501B4010E9471F5698378
:1051F0007A838B839C8320E030E04CE851E4C30148
:10520000B2010E9472F58701760129813A814B81B2
:105210005C810E94C1230E947A24C090040DD0902A
:10522000050DE090060DF090070DEEEDF6E06491AF
:105230008F01662361F0772767FD70958EE599E110
:105240000E945D0D0F5F1F4FF8016491F2CFE9EDF1
:10525000F6E064918F01662361F0772767FD709512
:105260008EE599E10E945D0D0F5F1F4FF80164917B
:10527000F2CF22E030E0B301A2018EE599E10E9475
:10528000C0F4E4EDF6E064918F01662361F07727C6
:1052900067FD70958EE599E10E945D0D0F5F1F4FD0
:1052A000F8016491F2CF22E030E0B501A4018EE56F
:1052B00099E10E94C0F4EFECF6E064918F0166235F
:1052C00061F0772767FD70958EE599E10E945D0D8D
:1052D0000F5F1F4FF8016491F2CF22E030E0B70179
:1052E000A6018EE599E10E94C0F4EDECF6E0649130
:1052F0008F01662361F0772767FD70958EE599E150
:105300000E945D0D0F5F1F4FF8016491F2CFC7013E
:10531000B6010F900F900F900F90DF91CF911F91DA
:105320000F91FF90EF90DF90CF90BF90AF909F9044
:105330008F907F906F905F904F900895CF92DF9203
:10534000EF92FF92CF93DF93EC016A017B01FE01A4
:105350006491662349F0772767FD70958EE599E1A2
:105360000E945D0D2196F3CF22E030E0B701A60147
:105370008EE599E1DF91CF91FF90EF90DF90CF9094
:105380000C94C0F4CF92DF92EF92FF92CF93DF9311
:10539000EC016A017B01FE016491662349F07727E5
:1053A00067FD70958EE599E10E945D0D2196F3CF22
:1053B00022E030E0B701A6018EE599E1DF91CF91BF
:1053C000FF90EF90DF90CF900C94C0F4CF92DF92DB
:1053D000EF92FF92CF93DF93EC016A017B01FE0114
:1053E0006491662349F0772767FD70958EE599E112
:1053F0000E945D0D2196F3CF2AE030E0B701A601AF
:105400008EE599E1DF91CF91FF90EF90DF90CF9003
:105410000C94ABF3CF93DF932091090B30910A0BDF
:10542000243031050CF06FC040910B0B50910C0BE8
:1054300060E6649F9001659F300D1124BC01C90195
:105440008D5E944F0E94C2FFE0EAFEE06491EF019E
:10545000662359F0772767FD70958EE599E10E94E4
:105460005D0D2196FE016491F3CFE6EBFCE06491C3
:10547000EF01662359F0772767FD70958EE599E176
:105480000E945D0D2196FE016491F3CF80910B0B7C
:1054900090910C0B20E6289FB001299F700D1124DC
:1054A0006D5E744F8EE599E10E94B9F2E4EBFCE089
:1054B0006491EF01662359F0772767FD70958EE5BB
:1054C00099E10E945D0D2196FE016491F3CF6AE09F
:1054D00070E08EE599E10E945D0D80910B0B90913B
:1054E0000C0B019664E070E00E940EFA90930C0B96
:1054F00080930B0B8091090B90910A0B019690936E
:105500000A0B8093090BDF91CF910895CF93DF931E
:105510002091090B30910A0B243031050CF06FC03B
:1055200040910B0B50910C0B60E6649F9001659FBE
:10553000300D1124BC01C9018D5E944F0E9454FFAF
:10554000E0EAFEE06491EF01662359F0772767FDFA
:1055500070958EE599E10E945D0D2196FE016491A2
:10556000F3CFE9EAFCE06491EF01662359F0772775
:1055700067FD70958EE599E10E945D0D2196FE0113
:105580006491F3CF80910B0B90910C0B20E6289F38
:10559000B001299F700D11246D5E744F8EE599E165
:1055A0000E94B9F2E7EAFCE06491EF01662359F04A
:1055B000772767FD70958EE599E10E945D0D219634
:1055C000FE016491F3CF6AE070E08EE599E10E94FC
:1055D0005D0D80910B0B90910C0B019664E070E0D7
:1055E0000E940EFA90930C0B80930B0B8091090B89
:1055F00090910A0B019690930A0B8093090BDF910F
:10560000CF910895CF93DF9326E040E950ED63E01A
:1056100070E08EE599E10E94AFF0E1EAFCE0649170
:10562000EF01662359F0772767FD70958EE599E1C4
:105630000E945D0D2196FE016491F3CF6AE070E057
:105640008EE599E10E945D0DE0EAFEE06491EF01D4
:10565000662359F0772767FD70958EE599E10E94E2
:105660005D0D2196FE016491F3CF6DE273E08EE54E
:1056700099E10E94D6F26DE373E08EE599E10E9414
:10568000D6F226E040E45DE063E070E08BEF99E164
:105690000E94AFF06BEF79E18FEB9FE00E94CD228B
:1056A0006EE07CE38FEB9FE00E94C72261E089E01F
:1056B0000E9405EF60E089E00E943EEF64E670E042
:1056C00080E090E00E9461ED61E089E00E943EEFA1
:1056D0006CEA7DE080E090E00E9461ED68EE73E0AE
:1056E00080E090E00E9461ED20E030E045E050E095
:1056F0006AE070E08FEB9FE00E94EF2110920F0BA9
:105700001092100B1092110B1092120B0E94F91EA6
:1057100061E08AE00E9405EF60E08AE00E943EEFCF
:1057200061E08AE00E943EEF6FEF70E08CE00E9443
:10573000EBED6FEF70E08BE00E94EBED6FEF70E050
:105740008DE00E94EBED0E9459DE0E94F9B2DF91DC
:10575000CF910C94FFD7AF92BF92CF92DF92EF928E
:10576000FF920F931F93CF93DF93CDB7DEB7DA95F8
:105770000FB6F894DEBF0FBECDBF8091E80A81114D
:105780000DC00E9432ED6093C20A7093C30A8093E9
:10579000C40A9093C50A81E08093E80A8091320D93
:1057A000882309F4D5C00E9432ED0091C20A1091FD
:1057B000C30A2091C40A3091C50A60177107820795
:1057C000930708F4E2C1609188187091891880915C
:1057D0008A1890918B180E94BAF6D62EC72E20E018
:1057E00030E040E05FE360917E1870917F18809117
:1057F0008018909181180E9472F50E94BAF6B62E18
:10580000A72E6091841870918518809186189091C8
:1058100087180E94BAF67F936F9325E4E22E23E067
:10582000F22EFF92EF928E010F5F1F4F1F930F9387
:105830000E94E6FFA80160E070E08FEB9FE00E940D
:105840005722CF92DF92FF92EF921F930F930E9405
:10585000E6FFA80162E270E08FEB9FE00E94572212
:10586000AF92BF928AE493E09F938F931F930F931D
:105870000E94E6FFA80169E070E08FEB9FE00E94C4
:1058800057220FB6F894DEBF0FBECDBF8091020F36
:10589000882319F18091AC0F9091AD0FA091AE0FBC
:1058A000B091AF0F0097A105B105B9F0BC01CD01D2
:1058B0006D597F4F8F4F9F4F24E630E040E050E01E
:1058C0000E9422FA6091B40F7091B50F8091B60FCB
:1058D0009091B70F0E9422FA01C020E01F922F93EF
:1058E0009FE4E92E93E0F92EFF92EF921F930F931E
:1058F0000E94E6FFA80165E270E08FEB9FE00E9446
:10590000572280914D028F9380914C028F93FF928A
:10591000EF921F930F930E94E6FFA80164E270E0EC
:105920008FEB9FE00E9457220E9432ED68577C4E19
:105930008F4F9F4F6093C20A7093C30A8093C40A2B
:105940009093C50A0FB6F894DEBF0FBECDBF1DC140
:1059500080912F0D882309F418C10E9432ED009127
:10596000C20A1091C30A2091C40A3091C50A601777
:1059700071078207930708F408C160918818709135
:10598000891880918A1890918B180E94BAF6D62EA9
:10599000C72E20E030E040E05FE360917E18709118
:1059A0007F1880918018909181180E9472F50E9452
:1059B000BAF6B62EA72E6091841870918518809142
:1059C0008618909187180E94BAF67F936F9385E4AA
:1059D000E82E83E0F82EFF92EF928E010F5F1F4FAB
:1059E0001F930F930E94E6FFA80168E270E08FEB1F
:1059F0009FE00E945722CF92DF92FF92EF921F9377
:105A00000F930E94E6FFA8016AE270E08FEB9FE02F
:105A10000E945722AF92BF928AE493E09F938F93A4
:105A20001F930F930E94E6FFA80169E270E08FEBDD
:105A30009FE00E9457226091FC0C7091FD0C8091B8
:105A4000FE0C9091FF0C0E94BFF69B0140E050E0DD
:105A50006FE070E08FEB9FE00E94EF216091000DFE
:105A60007091010D8091020D9091030D0E94BFF67F
:105A70009B0141E050E06FE070E08FEB9FE00E94FF
:105A8000EF216091040D7091050D8091060D9091AC
:105A9000070D0E94BFF69B0142E050E06FE070E00E
:105AA0008FEB9FE00E94EF21609192187091931804
:105AB000882777FD8095982F0E94EDF620E030E052
:105AC00040EA50E40E9471F59B01AC010FB6F894D6
:105AD000DEBF0FBECDBF6091841870918518809194
