:100000000C940A1B0C94701D0C94A11D0C94D21D11
:100010000C94031E0C94341E0C94651E0C94961EB6
:100020000C94C71E0C943B1B0C943B1B0C943B1B69
:100030000C943B1B0C94BF950C943B1B0C943B1BEA
:100040000C943B1B0C94696E0C943B1B0C943B1B57
:100050000C943B1B0C943B1B0C9460810C943D1B3B
:100060000C943B1B0C94F3480C943B1B0C943B1BD3
:100070000C943B1B0C943B1B0C943B1B0C943B1BA8
:100080000C943B1B0C943B1B0C943B1B0C943B1B98
:100090000C943B1B0C943B1B0C943B1B0C94399F06
:1000A0000C943B1B0C943B1B0C943B1B0C943B1B78
:1000B0000C943B1B0C943B1B0C943B1B0C943B1B68
:1000C0000C943B1B0C943B1B0C943B1B0C943B1B58
:1000D0000C943B1B0C943B1B0C943B1B0C943B1B48
:1000E0000C943B1B1B1C201C251C2F1CA81C391C02
:1000F000411C491C531C5D1C671C761C801CA81CE1
:100100008A1C941C9E1CC61CC91CBC1CC01C001D47
:10011000CD1CD11CD71CDB1CDF1CE51CE91CED1C15
:10012000001DF31CF71CFB1C729475947C94839443
:100130008A949194219598949F94A7942195AF9433
:10014000B894BF94C894CF94D6942195DD94E49448
:10015000ED942195F694FF940195039505950795E7
:1001600009950B950D950F95119513951595179567
:1001700019951B951D958F998F99929995999B9992
:100180009E99A199A499A9999899084AD73B3BCEE1
:10019000016E84BCBFFDC12F3D6C74319ABD568386
:1001A0003DDA3D00C77F11BED9E4BB4C3E916BAA3E
:1001B000AABE000000803F05A84CCDB2D44EB9388D
:1001C00036A9020C50B9918688083CA6AAAA2ABE74
:1001D000000000803F0000090A02080B0C0D070612
:1001E0000304010000000000000000000000000007
:1001F00000000000000000000000000000000000FF
:100200000011100F000000000000000000000000BE
:10021000000000000000000000000001021020208B
:10022000080810204010204080020102010804024A
:1002300001010204081020408080402010080402C0
:100240000180040201804020100804020108040219
:10025000010102040810204080010204081020401F
:100260008005050505070508080808020202020ABC
:100270000A08080404040401010101010101010349
:1002800003030303030303040707070C0C0C0C0C04
:100290000C0C0C0202020206060606060606060BF7
:1002A0000B0B0B0B0B0B0B00002200250028002B67
:1002B000002E003100340002010000050108010B8E
:1002C0000100002100240027002A002D0030003307
:1002D0000001010000040107010A015072696E74F7
:1002E00065722073746F7070656420647565207426
:1002F0006F206572726F72732E2046697820746861
:1003000065206572726F7220616E6420757365205E
:100310004D39393920746F20726573746172742E8F
:10032000202854656D7065726174757265206973FB
:100330002072657365742E20536574206974206182
:10034000667465722072657374617274696E672970
:10035000005072696E7465722068616C7465642EF9
:10036000206B696C6C28292063616C6C65642100CA
:100370006F6B00526573656E643A2000456E64735E
:10038000746F70207374696C6C2070726573736520
:1003900064206166746572206261636B696E6720B8
:1003A0006F66662E20456E6473746F70207374756B
:1003B000636B3F00456E6473746F70206E6F7420C2
:1003C0007072657373656420616674657220686F0E
:1003D0006D696E6720646F776E2E20456E6473744E
:1003E0006F702062726F6B656E3F00456E64737450
:1003F0006F70206E6F742070726573736564206116
:100400006674657220686F6D696E6720646F776EC1
:100410002E20456E6473746F702062726F6B656E10
:100420003F002200556E6B6E6F776E20636F6D6DAF
:10043000616E643A202200456C656374726F6E6968
:1004400063735F746573740020423A300020423A4F
:1004500031006F6B20523A00486F74656E64206FF4
:100460006666736574733A002200556E6B6E6F7723
:100470006E20636F6D6D616E643A2022007A5F6D4D
:1004800061783A2000795F6D61783A2000785F6D7D
:10049000696E3A20005A3A00593A0020436F756E4F
:1004A0007420583A2000453A005A3A00593A005808
:1004B0003A004649524D574152455F4E414D453AEB
:1004C0004D61726C696E20556C74696D616B6572FB
:1004D000323B20537072696E7465722F6772626C62
:1004E000206D617368757020666F722067656E3667
:1004F000204649524D574152455F55524C3A687417
:1005000074703A2F2F6769746875622E636F6D2F50
:10051000556C74696D616B65722050524F544F4336
:100520004F4C5F56455253494F4E3A312E30204D75
:10053000414348494E455F545950453A556C74699A
:100540006D616B65722045585452554445525F4366
:100550004F554E543A320A0020423A0020453A00A4
:10056000543A0020573A0020453A00543A002042BD
:10057000403A0020403A00202F0020423A00202F2D
:10058000006F6B20543A002569206D696E2C202580
:10059000692073656300456E642066696C65206C34
:1005A00069737400426567696E2066696C65206CCA
:1005B00069737400256920686F757273202569203E
:1005C0006D696E7574657300446F6E652070726935
:1005D0006E74696E672066696C65005072696E742E
:1005E00065722073746F7070656420647565207423
:1005F0006F206572726F72732E204669782074685E
:1006000065206572726F7220616E6420757365205B
:100610004D39393920746F20726573746172742E8C
:10062000202854656D7065726174757265206973F8
:100630002072657365742E2053657420697420617F
:10064000667465722072657374617274696E67296D
:10065000006F6B004E6F204C696E65204E756D62A9
:100660006572207769746820636865636B73756D64
:100670002C204C617374204C696E653A20004E6FDB
:1006800020436865636B73756D2077697468206CAF
:10069000696E65206E756D6265722C204C61737495
:1006A000204C696E653A2000636865636B73756DF5
:1006B000206D69736D617463682C204C61737420C4
:1006C0004C696E653A20004C696E65204E756D620E
:1006D0006572206973206E6F74204C617374204CB6
:1006E000696E65204E756D6265722B312C204C61F0
:1006F0007374204C696E653A20004D3131300044EE
:100700006F6E6520736176696E672066696C652E11
:10071000006F6B004D3239002020506C616E6E65A9
:100720007242756666657242797465733A2000207C
:1007300046726565204D656D6F72793A2000417093
:1007400072203136203230313500436F6D70696C64
:1007500065643A200056657273696F6E3A5F313591
:100760002E303400207C20417574686F723A20006E
:1007700041707220313620323031352031323A33F7
:10078000363A333600204C617374205570646174BE
:1007900065643A2000312E302E30004D61726C6954
:1007A0006E200020536F6674776172652052657306
:1007B000657400205761746368646F6720526573C5
:1007C0006574002042726F776E206F7574205265D9
:1007D000736574002045787465726E616C20526593
:1007E00073657400506F7765725570007374617231
:1007F00074002200656E717565696E6720220022A3
:1008000000656E717565696E67202200FF01010049
:1008100000E0400000E0400000E0400000664300CF
:1008200000664300006643000000000000664300CD
:100830000066430000664300006643000066430014
:1008400000000000000000000000006563686F3ACF
:10085000004572726F723A0000002110422063302E
:100860008440A550C660E770088129914AA16BB108
:100870008CC1ADD1CEE1EFF13112100273325222B0
:10088000B5529442F772D662399318837BB35AA358
:10089000BDD39CC3FFF3DEE3622443342004011480
:1008A000E664C774A44485546AA54BB528850995A8
:1008B000EEE5CFF5ACC58DD5533672261116300650
:1008C000D776F6669556B4465BB77AA719973887F8
:1008D000DFF7FEE79DD7BCC7C448E5588668A77810
:1008E0004008611802282338CCC9EDD98EE9AFF948
:1008F000488969990AA92BB9F55AD44AB77A966AF0
:10090000711A500A333A122AFDDBDCCBBFFB9EEB97
:10091000799B588B3BBB1AABA66C877CE44CC55CBF
:10092000222C033C600C411CAEED8FFDECCDCDDDE7
:100930002AAD0BBD688D499D977EB66ED55EF44E8F
:10094000133E322E511E700E9FFFBEEFDDDFFCCF37
:100950001BBF3AAF599F788F8891A981CAB1EBA18B
:100960000CD12DC14EF16FE18010A100C230E32007
:100970000450254046706760B9839893FBA3DAB3AF
:100980003DC31CD37FE35EF3B1029012F322D23257
:100990003542145277625672EAB5CBA5A89589857F
:1009A0006EF54FE52CD50DC5E234C324A0148104A7
:1009B0006674476424540544DBA7FAB79987B8974F
:1009C0005FE77EF71DC73CD7D326F2369106B016F7
:1009D00057667676154634564CD96DC90EF92FE90F
:1009E000C899E9898AB9ABA9445865480678276847
:1009F000C018E1088238A3287DCB5CDB3FEB1EFBEF
:100A0000F98BD89BBBAB9ABB754A545A376A167A96
:100A1000F10AD01AB32A923A2EFD0FED6CDD4DCDBE
:100A2000AABD8BADE89DC98D267C076C645C454CE6
:100A3000A23C832CE01CC10C1FEF3EFF5DCF7CDF8E
:100A40009BAFBABFD98FF89F176E367E554E745E36
:100A5000932EB23ED10EF01E7C3C3E5E2B3D3F2FCE
:100A60005B5D3B2C2A225C0020746F6F206C6F6EE4
:100A70006720657874727573696F6E207072657621
:100A8000656E7465640020636F6C642065787472B1
:100A90007573696F6E2070726576656E746564003B
:100AA0006563686F3A00205A3A0020593A0020588E
:100AB0003A00656E6473746F7073206869743A20CD
:100AC0000024F4D43050C38E20C2A24017828B7011
:100AD00011127A910D816CD90AA861E108C7586694
:100AE00007615143061E4B5D05C145A7041A41111C
:100AF00004093D9803713931034036DB02653391B7
:100B000002D4305402802E1D02632CEE01752AC5DA
:100B100001B028A001102781018F2564012B244BEF
:100B200001E0223401AC211F018D200D01801FFC4A
:100B300000841EED00971DDF00B81CD200E61BC626
:100B400000201BBC00641AB200B219A8000A19A048
:100B5000006A189900D117910040178B00B51684D0
:100B60000031167E00B31579003A157300C7146F73
:100B70000058146A00EE1366008813630025135EA4
:100B800000C7125B006C12570015125400C11151BE
:100B90000070114F0021114B00D61049008D1047F5
:100BA000004610440002104200C00F4000800F3E7B
:100BB00000420F3C00060F3B00CB0E3800930E376F
:100BC000005C0E3500270E3400F30D3200C10D31EC
:100BD00000900D3000600D2E00320D2D00050D2C03
:100BE00000D90C2B00AE0C2900850C29005C0C27C9
:100BF00000350C27000E0C2600E80B2400C40B2443
:100C000000A00B23007D0B23005A0B2100390B2180
:100C100000180B2000F80A1F00D90A1E00BB0A1E8C
:100C2000009D0A1D00800A1D00630A1C00470A1B64
:100C3000002C0A1B00110A1A00F7091A00DD091915
:100C400000C4091900AB091900920917007B0918A3
:100C500000630917004C0916003609160020091612
:100C6000000A091500F5081500E0081400CC081466
:100C700000B8081400A4081400900813007D08129E
:100C8000006B0813005808120046081200340811BF
:100C900000230811001208110001081100F00710CC
:100CA00000E0071000D0071000C0071000B0070FC9
:100CB00000A107100091070E0083070F0074070FB3
:100CC0000065070E0057070E0049070E003B070D91
:100CD000002E070E0020070D0013070D0006070D5C
:100CE00000F9060C00ED060D00E0060C00D4060C21
:100CF00000C8060C00BC060C00B0060C00A4060BD5
:100D00000099060C008D060B0082060B0077060B7F
:100D1000006C060B0061060A0057060B004C060A21
:100D20000042060A0038060A002E060A0024060AB7
:100D3000001A060A001006090007060A00FD050948
:100D400000F4050900EB050900E2050900D90509D1
:100D500000D0050900C7050900BE050900B5050852
:100D600000AD050800A50509009C050800940508CC
:100D7000008C050800840508007C0508007405083F
:100D8000006C050700650508005D050700560508AD
:100D9000004E050700470507004005080038050715
:100DA00000310507002A050700230507001C05067A
:100DB00000160507000F05070008050600020507D5
:100DC00000FB040600F5040700EE040600E8040634
:100DD00000E2040700DB040600D5040600CF040689
:100DE00000C9040600C3040600BD040600B70406DB
:100DF00000B1040500AC040600A6040600A004052A
:100E0000009B04060095040500900406008A040572
:100E10000085040500800406007A040500750405B9
:100E200000700405006B04050066040500610405FC
:100E3000005C04050057040500520405004D04053C
:100E40000048040500430405003E0404003A04057C
:100E50000035040500300404002C040500270404B8
:100E600000230405001E0404001A040400160405EF
:100E700000110404000D0404000904050004040426
:100E80000000040400FC030400F8030400F403045D
:100E900000F0030400EC030400E8030400E403048E
:100EA00000E0030400DC030400D8030400D40304BE
:100EB00000D0030400CC030400C8030300C50303EF
:100EC0000024F404D9201BC40C5C0E9804C4095FF0
:100ED0000265077101F405F900FB04B300480487BB
:100EE00000C10369005803550003034500BE023AE0
:100EF000008402310053022A002902250004022046
:100F000000E4011C00C8011900AF0117009801148A
:100F10000084011300710110006101100051010EE5
:100F20000043010D0036010B002B010B0020010BCB
:100F300000150109000C01090003010800FB00086D
:100F400000F3000800EB000700E4000600DE0006E6
:100F500000D8000600D2000600CC000500C700053E
:100F600000C2000500BD000400B9000400B5000483
:100F700000B1000400AD000400A9000400A50003B6
:100F800000A20003009F0004009B000300980003E0
:100F9000009500020093000300900003008D000202
:100FA000008B00030088000200860002008400031A
:100FB00000810002007F0002007D0002007B000231
:100FC0000079000200770001007600020074000240
:100FD0000072000100710002006F0002006D00014C
:100FE000006C0002006A0001006900020067000155
:100FF000006600010065000100640002006200015B
:101000000061000100600001005F0002005D00015E
:10101000005C0001005B0001005A00010059000162
:101020000058000100570001005600010055000162
:101030000054000100530000005300010052000161
:101040000051000100500001004F0001004E00005F
:10105000004E0001004D0001004C0001004B00005B
:10106000004B0001004A0001004900010048000057
:101070000048000100470001004600000046000152
:10108000004500000045000100440001004300004D
:101090000043000100420000004200010041000046
:1010A0000041000100400001003F0000003F00013E
:1010B000003E0000003E0001003D0000003D000138
:1010C000003C0000003C0000003C0001003B000030
:1010D000003B0001003A0000003A00010039000026
:1010E000003900010038000000380000003800011D
:1010F0000037000000370001003600000036000015
:101100000036000100350000003500000035000108
:1011100000340000003400000034000100330000FF
:1011200000330000003300010032000000320000F4
:1011300000320001003100000031000000310001E8
:10114000003000000030000000300001002F0000DF
:10115000002F0000002F0000002F0001002E0000D3
:10116000002E0000002E0001002D0000002D0000C8
:10117000002D0000002D0001002C0000002C0000BC
:10118000002C0000002C0001002B0000002B0000B0
:10119000002B0000002B0001002A0000002A0000A4
:1011A000002A0000002A0001002900000029000098
:1011B000002900000029000000290001002800008B
:1011C000002800000028000000280000002800017E
:1011D0000027000000270000002700000027000073
:1011E0000027000100260000002600000026000065
:1011F0000026000000260001002500000025000058
:101200000025000000250000002500000025000149
:10121000002400000024000000240000002400003E
:101220000024000100230000002300000023000030
:101230000023000000230000002300000023000121
:101240000022000000220000002200000022000016
:101250000022000000220001002100000021000007
:1012600000210000002100000021000000210000FA
:1012700000210001002000000020000000200000EC
:1012800000200000002000000020000000200000DE
:1012900000200001001F0000001F0000001F0000D0
:1012A000001F0000001F0000001F0000001F0001C1
:1012B000001E0000001E0000001E0000001E0000B6
:1012C000006563686F3A003A20457874727564650A
:1012D00072207377697463686564206F66662E2078
:1012E0004D494E54454D502074726967676572656B
:1012F000642021003A204578747275646572207309
:1013000077697463686564206F66662E204D415866
:1013100054454D5020747269676765726564202179
:101320000054656D706572617475726520686561E1
:1013300074656420626564207377697463686564AA
:10134000206F66662E204D415854454D50207472D2
:101350006967676572656420212100202D20496E30
:1013600076616C6964206578747275646572206E4C
:10137000756D626572202100504944204175746F7B
:1013800074756E652066696E6973686564212050A6
:10139000757420746865204B702C204B6920616E39
:1013A00064204B6420636F6E7374616E7473206984
:1013B0006E746F20436F6E66696775726174696FD2
:1013C0006E2E6800504944204175746F74756E65C7
:1013D000206661696C6564212074696D656F757440
:1013E0000020403A006F6B20543A006F6B20423A65
:1013F00000504944204175746F74756E65206661B4
:10140000696C6564212054656D70657261747572D4
:101410006520746F6F206869676800204B643A200C
:1014200000204B693A2000204B703A200020436C8A
:10143000617369632050494420002054753A2000AC
:10144000204B753A2000206D61783A2000206D69AC
:101450006E3A200020643A200020626961733A20CD
:10146000004572726F723A00000000001807010018
:10147000A807140030082800B8083C0038095000BC
:10148000C0096400480A7800C80A8C00480BA00014
:10149000C80BB400480CC800C80CDC00400DF000BC
:1014A000C00D0401380E1801B00E2C01280F4001A8
:1014B000A00F54011810680188107C0100119001E0
:1014C0003013F401481558024017BC0228192003B4
:1014D000F01A8403A81CE803401E4C044D38342045
:1014E000582059205A20450043616E6E6F74206564
:1014F0006E746572207375626469723A20004D32B1
:1015000034004D3233202573006175746F25692EC8
:1015100067006572726F722077726974696E6720F6
:10152000746F2066696C6500436172642065727235
:101530006F723A004E6F74205344207072696E745B
:10154000696E67002F005344207072696E74696E73
:1015500067206279746520002E0044656C657469AB
:101560006F6E206661696C65642C2046696C653A13
:10157000200046696C652064656C657465643A009A
:101580002E006F70656E206661696C65642C204664
:10159000696C653A200057726974696E6720746FD0
:1015A0002066696C653A20002E006F70656E2066BB
:1015B00061696C65642C2046696C653A20002E00D8
:1015C0006F70656E206661696C65642C2046696C7D
:1015D000653A200046696C652073656C65637465C7
:1015E00064002053697A653A200046696C65206F73
:1015F00070656E65643A20002E006F70656E20661F
:1016000061696C65642C2046696C653A200053441E
:101610002063617264206F6B006F70656E526F6F34
:1016200074206661696C656400766F6C756D652EFB
:10163000696E6974206661696C6564005344206951
:101640006E6974206661696C006563686F3A004575
:1016500072726F723A0048617264636F64656420ED
:1016600044656661756C742053657474696E677344
:10167000204C6F6164656400563031300053746FE4
:101680007265642073657474696E67732072657423
:10169000726965766564002044002049002020209E
:1016A0004D333031205000504944207365747469C3
:1016B0006E67733A00205A0020590020204D3230C6
:1016C00036205800486F6D65206F6666736574201C
:1016D000286D6D293A00204500205A00205800202E
:1016E000420020540020204D323035205300416408
:1016F00076616E636564207661726961626C6573A0
:101700003A20533D4D696E2066656564726174656B
:1017100020286D6D2F73292C20543D4D696E207447
:10172000726176656C2066656564726174652028F7
:101730006D6D2F73292C20423D6D696E696D756D3D
:10174000207365676D656E742074696D6520286D02
:1017500073292C20583D6D6178696D756D2058593D
:10176000206A65726B20286D6D2F73292C20205AFA
:101770003D6D6178696D756D205A206A65726B20C8
:10178000286D6D2F73292C2020453D6D6178696D82
:10179000756D2045206A65726B20286D6D2F732949
:1017A0000020540020204D32303420530041636328
:1017B000656C65726174696F6E3A20533D61636355
:1017C000656C65726174696F6E2C20543D7265742E
:1017D0007261637420616363656C65726174696FC3
:1017E0006E00204500205A0020590020204D323044
:1017F000312058004D6178696D756D2041636365D6
:101800006C65726174696F6E20286D6D2F7332295B
:101810003A00204500205A0020590020204D323047
:10182000332058004D6178696D756D20666565647B
:10183000726174657320286D6D2F73293A002045FD
:1018400000205A0020590020204D393220580053E2
:10185000746570732070657220756E69743A0053F8
:10186000657474696E67732053746F726564006584
:1018700063686F3A00544553540D0A000D0A005531
:101880006E6B6E6F776E20636F6D6D616E643A2064
:10189000000D0A003F0056657273696F6E3A5F3142
:1018A000352E303400025052494E54004D415445BB
:1018B0005249414C004D41494E54454E414E4345DD
:1018C000005072696E74696E67207769746820557C
:1018D00053422E2E2E00756C74696D616B65722EED
:1018E000636F6D2F737570706F727400476F207423
:1018F0006F3A0058206F72205920737769746368BB
:1019000020737475636B0058206F722059207377B1
:10191000697463682062726F6B656E005A2073771A
:101920006974636820737475636B005A20737769F8
:101930007463682062726F6B656E005361666574D4
:1019400079206369726375697400486561746572B2
:10195000206572726F720054656D702073656E73CE
:101960006F72204245440054656D702073656E733C
:101970006F72004552524F52202D2053544F5050F9
:10198000454400801506060606FEFEFEFEFC00002D
:101990000000000000FCFEFEFEFC0000000EFEFE4B
:1019A000FEFE0000E0FCFEFEFCE0E0000000CECE0B
:1019B000CE000000C0C0C0C0C0C080000000000059
:1019C0000080C0C0800000000000008080C0C0C057
:1019D000C0C0C0C080800000000006FEFEFEFE0009
:1019E00000000080C0C0C00000000000008080C077
:1019F000C0C080808000000000C0C0C0C00080C0A7
:101A0000C0C0C08000000000007FFFFFFFFF80001B
:101A10000000000080FFFFFFFFFF00000000FFFF4D
:101A2000FFFF000000FFFFFFFF0000000000FFFFBE
:101A3000FF00000081F1FFFF3F0F3FFFFCF0F0FCD3
:101A4000FF3F0F3FFFFEF880000000C1E1F1F171A0
:101A500031010183FFFFFFFC000000FFFFFFFF00DB
:101A60000C3EFFFFF7C301000000FCFEFF870311DF
:101A70003131333F3F3F1E000001FFFFFFFF0703EF
:101A800001010101000000000000010307070F0F22
:101A90000F0F0F0F0F0707070F0F06000000070FAC
:101AA0000F07000000070F0F0700000000000F0FD6
:101AB0000F0000060F0F070100000001070F0F07BE
:101AC0000100000001070F0F06000003070F0F0EB3
:101AD0000E060703070F0F07000000070F0F070090
:101AE000000000030F0F0F060000000307070F0E92
:101AF0000E0E0E0E0E06000000000F0F0F0F00005E
:101B0000000000000043414E43454C0020736563D4
:101B100000206D696E0020686F75720020686F7517
:101B2000727300000000000000005F00000007006A
:101B30000700147F147F14242A7F2A1223130864B9
:101B40006236495522500005030000001C22410066
:101B50000041221C00082A1C2A0808083E08080028
:101B600050300000080808080800606000002010DD
:101B70000804023E5149453E00427F400042615107
:101B800049462141454B311814127F1027454545E0
:101B9000393C4A49493001710905033649494936FA
:101BA000064949291E00363600000056360000005E
:101BB00008142241141414141441221408000201C0
:101BC000510906324979413E7E1111117E7F494902
:101BD00049363E414141227F4141221C7F494949CA
:101BE000417F090901013E414151327F0808087FC8
:101BF00000417F41002040413F017F081422417F86
:101C0000404040407F0204027F7F0408107F3E4135
:101C100041413E7F090909063E4151215E7F091974
:101C20002946464949493101017F01013F40404071
:101C30003F1F2040201F7F2018207F63140814635B
:101C40000304780403615149454300007F41410288
:101C50000408102041417F000004020102044040BA
:101C6000404040000102040020545454787F48440E
:101C700044383844444420384444487F3854545409
:101C800018087E090102081454543C7F08040478A3
:101C900000447D40002040443D00007F1028440067
:101CA000417F40007C041804787C080404783844A0
:101CB0004444387C14141408081414187C7C080458
:101CC00004084854545420043F4440203C404020E1
:101CD0007C1C2040201C3C4030403C4428102844C0
:101CE0000C5050503C4464544C44000836410000B1
:101CF000007F0000004136080008082A1C08081C64
:101D00002A0808473120462569205A256920582588
:101D1000692059256900473238205A302058302030
:101D20005930006275696C64706C6174652E006F67
:101D3000662061646A757374696E6720796F757265
:101D4000007468726F756768207468652070726FC0
:101D50006365737300492077696C6C2067756964EB
:101D60006520796F7500434F4E54494E55450043E9
:101D7000414E43454C00473238205A3000746F20A2
:101D80007072696E742069742100616E64207072D3
:101D90006573732074686520627574746F6E006F6C
:101DA0006E207468652053442D636172640053652E
:101DB0006C6563742061207072696E742066696C52
:101DC000650032312F3231004C4554275320505298
:101DD000494E540052656164696E672063617264A4
:101DE0002E2E2E0032312F323100796F7572205530
:101DF0006C74696D616B6572322E2E2E0074686191
:101E0000742063616D65207769746800506C65614A
:101E1000736520696E736572742053442D6361721B
:101E2000640032312F3231006D616B6520612033E7
:101E300044205072696E74210049276D20726561DB
:101E40006479206C657427730032302F3231004181
:101E5000524520594F552052454144593F00536542
:101E60006C65637420746865206D61746572696166
:101E70006C006974206973207573696E672E006F3A
:101E800066206D6174657269616C006B6E6F77734B
:101E90002077686174206B696E64004E6F772079DB
:101EA0006F757220556C74696D616B6572320031AB
:101EB000392F323100434F4E54494E554500697316
:101EC00020746869732072696768743F00596F7580
:101ED00020686176652063686F73656E0031382F06
:101EE000323100594553004E4F00206173206D611F
:101EF00074657269616C2C0031372F3231004D41AD
:101F000054455249414C00556C74696D616B657262
:101F1000322E00696E73657274656420696E207478
:101F2000686973006D6174657269616C20796F75A1
:101F30002068617665004E6578742C2073656C6549
:101F40006374207468650031362F32310052454188
:101F500044590066726F6D206E6F7A7A6C652E2E12
:101F60002E006D6174657269616C206578697473A7
:101F7000005075736820627574746F6E20776865A1
:101F80006E0031352F323100434F4E54494E554586
:101F9000004C6F6164696E67206D61746572696180
:101FA0006C2E2E2E0031342F32310061626F766537
:101FB00020746865206172726F772E00796F757278
:101FC00020556C74696D616B6572322C0066726F9E
:101FD0006D207468652072656172206F6600496EBD
:101FE00073657274206E6577206D617465726961C6
:101FF0006C0031332F323100434F4E54494E55451A
:10200000006D6174657269616C206C6F6164696EEA
:1020100067007072696E74686561642068656174D8
:10202000696E6720666F7200506C6561736520771A
:102030006169742C0031322F3231004D3834004741
:102040003120463132303030205831313020593152
:102050003000746F20696E73657274206D617465F1
:102060007269616C2E00746865206E6578742073E7
:1020700074657020697300746865206275696C64AA
:10208000706C617465004E6F77207468617420779E
:1020900065206C6576656C65640031312F323100E6
:1020A000434F4E54494E5545007468652072696728
:1020B000687420636F726E65722E2E2E00526570EA
:1020C000656174207468697320666F720031302F07
:1020D000323100434F4E54494E554500444F4E4512
:1020E00000746865206C65667420636F726E65723B
:1020F0002E2E2E00526570656174207468697320FD
:10210000666F7200392F323100434F4E54494E559D
:10211000450062697420726573697374616E6365EA
:102120002E00756E74696C20796F75206665656C1C
:102130002061006275696C64706C61746520616E09
:1021400064206E6F7A7A6C6500536C6964652061F7
:10215000207061706572206265747765656E003805
:102160002F323100434F4E54494E554500434F4E98
:1021700054494E554500473120462569205A3000C4
:10218000473120462569205825692059256900478F
:102190003120462569205A350074686520627569CA
:1021A0006C64706C617465206C6576656C2E007073
:1021B0006170657220746F2066696E652D74756E2E
:1021C00065006E6F772075736520612073686565A3
:1021D00074206F660052657065617420746869735D
:1021E00020737465702C2062757400372F323100B3
:1021F000434F4E54494E55450066726F6D207468CA
:1022000065206275696C64706C6174652E00697319
:102210002061206D696C6C696D65746572206177F1
:1022200061790073637265772074696C6C207468DF
:1022300065206E6F7A7A6C65005475726E207269D3
:10224000676874206275696C64706C6174650036CF
:102250002F323100434F4E54494E554500473120EF
:10226000462569205A3000473120462569205825E7
:10227000692059256900473120462569205A3500D3
:1022800066726F6D20746865206275696C64706C2D
:102290006174652E0069732061206D696C6C696DD5
:1022A0006574657220617761790073637265772068
:1022B00074696C6C20746865206E6F7A7A6C650046
:1022C0005475726E206C656674206275696C6470FA
:1022D0006C61746500352F323100434F4E54494EC6
:1022E000554500473120462569205A3000473120A6
:1022F000462569205825692059256900473120461F
:102300002569205A350066726F6D207468652062F9
:1023100075696C64706C6174652E0061206D696C08
:102320006C696D65746572206177617900756E7492
:10233000696C20746865206E6F7A7A6C65206973A9
:1023400000526F74617465207468652062757474DE
:102350006F6E00342F323100434F4E54494E554575
:1023600000434F4E54494E5545004731204625699C
:10237000205A256920582569205925690047323897
:1023800020583020593000676F696E6720746F20C5
:10239000646F2074686174206E6F772E0061646AC8
:1023A0007573746D656E74732C207765206172652A
:1023B000007765206E65656420746F20646F2073FC
:1023C0006F6D65004166746572207472616E737022
:1023D0006F72746174696F6E00332F323100434F36
:1023E0004E54494E554500473120462569205A250F
:1023F0006900473238205A30006120666972737470
:102400002072756E2077697A6172642E0077616C34
:102410006B20796F75207468726F756768006669E4
:1024200072737420737461727475702049207769B7
:102430006C6C004265636175736520746869732014
:1024400069732074686500322F323100434F4E5457
:10245000494E554500627574746F6E20746F206329
:102460006F6E74696E756500556C74696D616B652E
:1024700072212050726573732074686500737461F3
:1024800072747570206F6620796F75720057656C75
:10249000636F6D6520746F20746865206669727360
:1024A0007400312F323100434F4E54494E55450090
:1024B0004300432F00436C69636B20746F20726587
:1024C0007475726E004275696C64706C617465201D
:1024D00074656D702E3A003F3F3F00466163746F34
:1024E00072792072657365740052756E74696D65DA
:1024F0002073746174730056657273696F6E004D5A
:102500006F74696F6E2073657474696E67730052BF
:10251000657472616374696F6E2073657474696E3B
:102520006773005365742066616E2073706565641F
:10253000004D6F7665206D6174657269616C20284D
:102540003229004D6F7665206D6174657269616C2A
:102550002028312900496E73657274206D6174659D
:102560007269616C005261697365206275696C649F
:10257000706C617465004C6F776572206275696C70
:1025800064706C61746500486F6D65206865616496
:1025900000486561747570206275696C64706C6167
:1025A000746500486561747570207365636F6E644F
:1025B000206E6F7A7A6C650048656174757020666C
:1025C00069727374206E6F7A7A6C65004C45442092
:1025D00073657474696E6773003C2052455455529C
:1025E0004E0056657273696F6E3A5F31352E303426
:1025F0000025004300432F004300432F00430043C6
:102600002F0025003F3F3F0020476C6F7720776801
:10261000656E20646F6E6500204F6E207768696C70
:1026200065207072696E74696E670020416C776115
:102630007973204F66660020416C77617973204F73
:102640006E004272696768746E657373003C205255
:10265000455455524E002500250042726967687442
:102660006E657373004C4544004300432F00436C78
:1026700069636B20746F2072657475726E004E6FA3
:102680007A7A6C652074656D7065726174757265B7
:102690003A00473238205830205930004300432F49
:1026A00000436C69636B20746F2072657475726E81
:1026B00000526F7461746520746F20657874727550
:1026C0006465004E6F7A7A6C652074656D70657212
:1026D00061747572653A003F3F3F005265747261E4
:1026E000637420737065656400526574726163740D
:1026F000206C656E677468003C2052455455524EFC
:10270000006D6D2F736563006D6D006D6D2F7365CA
:102710006300526574726163742073706565640050
:102720006D6D0052657472616374206C656E6774C0
:10273000680052455452414354494F4E003F3F3F79
:102740000043757272656E74204500437572726540
:102750006E74205A0043757272656E7420582F593A
:10276000004D6178207370656564205A004D617872
:102770002073706565642059004D61782073706521
:102780006564205800582F59204A65726B004163D8
:1027900063656C65726174696F6E003C20524554CC
:1027A00055524E006D41006D41006D41006D6D2F21
:1027B000736563006D6D2F736563006D6D2F7365B9
:1027C00063006D6D2F736563006D6D2F7365635EC0
:1027D00032006D410043757272656E742045006D64
:1027E000410043757272656E74205A006D4100435A
:1027F000757272656E7420582F59006D6D2F736558
:1028000063004D6178207370656564205A006D6DBA
:102810002F736563004D617820737065656420597E
:10282000006D6D2F736563004D6178207370656571
:10283000642058006D6D2F73656300582F59204A2E
:1028400065726B0030306D6D2F7365635E320041D1
:102850006363656C65726174696F6E004D4F5449B6
:102860004F4E0056657273696F6E3A5F31352E3088
:10287000340041707220313620323031352031320F
:102880003A33363A34300052657475726E006D001A
:10289000204D61743A003A005072696E74696E6737
:1028A0003A003A004D616368696E65206F6E20667C
:1028B0006F723A0052657475726E00746F206465B1
:1028C0006661756C743F005265736574206576654A
:1028D00072797468696E6700594553004E4F002540
:1028E0000046616E2073706565640047312046259F
:1028F0006920582569205925690047323820583009
:10290000205930004731205A343000473238205A9D
:102910003000473238205A300047323820583020B3
:10292000593000414456414E434544004255494CBC
:10293000442D7C504C41544500414456414E434542
:10294000440052455455524E005550455400555080
:10295000455400555045540041425300504C4100ED
:102960006D6174657269616C20696E7365727469FA
:102970006F6E0048656174696E67207072696E746D
:102980006865616420666F7200250046616E3A20BA
:1029900000430043002500466C6F773A006D6D00E0
:1029A0004D4154455249414C00636F6D6573206F32
:1029B000757420746865206E6F7A7A6C6500576153
:1029C00069742074696C6C206D6174657269616CE6
:1029D0000052454144590043414E43454C00466F27
:1029E0007277617264696E67206D61746572696186
:1029F0006C0061626F766520746865206172726F29
:102A0000772E00796F7572206D616368696E652C31
:102A10000066726F6D20746865206261636B736914
:102A20006465206F6600496E73657274206E657709
:102A3000206D6174657269616C00524541445900B2
:102A400043414E43454C0052656D6F7665206D6184
:102A500074657269616C0052454144590043414EAE
:102A600043454C00526576657273696E67206D61EF
:102A700074657269616C00666F72206D6174657255
:102A800069616C2072656D6F76616C004865617478
:102A9000696E67207072696E7468656164004732A0
:102AA0003820583020593000496D706F727420669C
:102AB000726F6D205344004578706F727420746F8C
:102AC00020534400437573746F6D697A65003C2030
:102AD00052455455524E004C6F61647320616C6CCA
:102AE000206D6174657269616C7300536176657302
:102AF00020616C6C206D6174657269616C73004D4E
:102B00006F64696679207468652073657474696E92
:102B1000677300250046616E3A200043004300259C
:102B200000466C6F773A006D6D003F3F3F00537475
:102B30006F72652061732070726573657400466CF6
:102B40006F7720250046616E004469616D6574658C
:102B50007200486561746564206275696C64706CAC
:102B60006174650054656D7065726174757265009D
:102B70003C2052455455524E00250025006D6D00F5
:102B8000430043004E657720707265736574003CA6
:102B90002052455455524E0050524553455453000F
:102BA00025004D6174657269616C20666C6F7700F9
:102BB000250046616E207370656564006D6D004D83
:102BC0006174657269616C204469616D65746572D8
:102BD0000043004275696C64706C617465205465D3
:102BE0006D702E00430054656D706572617475726E
:102BF00065004D4154455249414C00696E204D419C
:102C000054455249414C2E54585400746F207468F6
:102C100065205344206361726400536176656420CB
:102C20006D6174657269616C73004F6B000A0A0014
:102C30006469616D657465723D000A00666C6F774A
:102C40003D000A0066616E5F73706565643D000A51
:102C5000006265645F74656D70657261747572653C
:102C60003D000A0074656D70657261747572653D32
:102C7000000A006E616D653D005B6D61746572698F
:102C8000616C5D0A0052656164696E672063617200
:102C9000642E2E2E00506C6561736520696E73651D
:102CA00072742063617264004E6F2053442D43415F
:102CB0005244210066726F6D207468652053442071
:102CC00063617264004C6F61646564206D6174655A
:102CD0007269616C73004F6B006469616D65746546
:102CE0007200666C6F770066616E5F737065656415
:102CF000006265645F74656D70657261747572659C
:102D00000074656D7065726174757265006E616DD9
:102D100065005B6D6174657269616C5D00466F751D
:102D20006E64206F6E20636172642E004E6F2065AA
:102D300078706F72742066696C65005265616469B1
:102D40006E6720636172642E2E2E00506C65617375
:102D50006520696E736572742063617264004E6FE2
:102D60002053442D434152442100666F7220736505
:102D7000636F6E64617279206E6F7A7A6C6500663B
:102D80006F72207072696D617279206E6F7A7A6CE1
:102D9000650053656C6563746564206D617465726C
:102DA00069616C3A004F4B004D4154455249414CCA
:102DB000004731204625692058256920592569009A
:102DC000473238205830205930004348414E47455B
:102DD0000053455454494E47530052455455524EA2
:102DE000005052494D4152597C4E4F5A5A4C450061
:102DF0005345434F4E444152597C4E4F5A5A4C45CD
:102E00000052455455524E004300432F00436C6915
:102E1000636B20746F2072657475726E004E6F7AEA
:102E20007A6C65322074656D706572617475726557
:102E30003A004300432F00436C69636B20746F209A
:102E400072657475726E004E6F7A7A6C6520746567
:102E50006D70657261747572653A0050726570616B
:102E600072696E6720746F207072696E743A0048E0
:102E7000656174696E672075702E2E2E0054554E54
:102E8000450041424F5254004C454420427269670C
:102E900068746E6573730052657472616374696FF0
:102EA0006E004D6174657269616C20666C6F77208D
:102EB00032004D6174657269616C20666C6F7700D9
:102EC00046616E207370656564004275696C64705C
:102ED0006C6174652074656D702E0054656D70654D
:102EE00072617475726520320054656D706572612F
:102EF000747572650053706565640041626F727429
:102F0000003C2052455455524E0025002500250016
:102F100025004300430043004300430043002500D5
:102F200041626F727420746865207072696E743FBC
:102F300000594553004E4F003F3F3F0045787472A3
:102F400075646572206368616E6765206C656E00EC
:102F500052657472616374207370656564005265B4
:102F60007472616374206C656E677468003C2052F3
:102F7000455455524E006D6D006D6D2F73656300A5
:102F80006D6D006D6D0045787472756465722063B7
:102F900068616E6765006D6D2F73656300526574BF
:102FA00072616374207370656564006D6D005265B5
:102FB0007472616374206C656E6774680052455466
:102FC00052414354494F4E0025004272696768746C
:102FD0006E6573730025004D6174657269616C20C4
:102FE000666C6F7720320025004D617465726961EF
:102FF0006C20666C6F7700250046616E20737065EB
:1030000065640025005072696E7420737065656494
:103010000054554E450054696D65206C656674001A
:1030200054696D65206C65667420756E6B6E6F7784
:103030006E004300430048656174696E67206275E5
:10304000696C64706C61746500430043004865619D
:1030500074696E67005072696E74696E673A0054E5
:10306000554E4500504155534500524553554D4529
:103070007C5052494E54004348414E47457C4D4197
:1030800054455249414C0054554E45004D3834008A
:1030900047323800473238205A30004732382058FB
:1030A00030205930004731204625692045300047FF
:1030B000393220452569004D343031004D363031EC
:1030C0002058313020593230205A30204C323000D4
:1030D0004D3630312058313020593230205A32208C
:1030E0004C3230004D36303120583130205932309A
:1030F000205A3230204C323000746865207072697A
:103100006E742E00596F752063616E2072656D6F4D
:103110007665005072696E742066696E69736865C1
:1031200064004241434B20544F204D454E550043CF
:10313000004320005072696E74657220636F6F6C7B
:10314000696E6720646F776E004241434B20544F95
:10315000204D454E5500436F64653A0053442D633E
:10316000617264210072656164696E670045727204
:103170006F72207768696C650052455455524E2035
:10318000544F204D41494E0066726F6D2074686542
:1031900020736C696365722E0073657474696E6761
:1031A00020776974682073657474696E67006F7640
:1031B000657272696465206D616368696E6500544B
:1031C0006869732066696C652077696C6C00434F91
:1031D0004E54494E55450043414E43454C003C201A
:1031E0004241434B003C2052455455524E005344FB
:1031F00020434152440047312046313230303020A4
:1032000058352059313000473238003B464C415642
:103210004F523A556C746947436F6465003B464CA6
:1032200041564F523A556C746947436F6465004E7E
:103230006F2066696C657320666F756E6421004F40
:103240004B004F4B0052656164696E672063617289
:10325000642E2E2E00506C6561736520696E736557
:1032600072742063617264004E6F2053442D434199
:10327000524421004E6F20696E666F20617661694D
:103280006C61626C65006D006D006D006D004D61DC
:1032900074657269616C3A200054696D653A20006A
:1032A0003B4D4154455249414C323A003B4D41540B
:1032B000455249414C3A003B54494D453A00466F0E
:1032C0006C646572004E414E494E495459494E4610
:1032D000CDCCCC3D0AD7233C17B7D13877CC2B3295
:1032E0009595E6241FB14F0A000020410000C84216
:1032F00000401C4620BCBE4CCA1B0E5AAEC59D7475
:103300000C94CFB90C941EBD0C94B1C10C948E9A40
:103310000C9465A90C9498940C9417D40C940F9564
:103320000C94671C0C9487BF0C94CDD10C942F1C6B
:103330000C94E4B30C943CB20C94A4A90C941D9589
:103340000C9413B70C94941C0C9421950C9423B9F1
:103350000C945DBE0C948ECD0C9422AA0C9490B16A
:103360000C9480AC0C947C940C94A2BF0C942DD83B
:103370000C948A940C94CCD70C94E6D60C94491CEB
:103380000C94F6940C94531C0C94391C0C9473CB31
:103390000C946FBE0C9495990C94C8940C9496AAB6
:1033A0000C949E1C0C9417B50C94ABDD0C94DE961B
:1033B0000C9497BB0C94F81E0C94C7B10C94001D90
:1033C0000C9482AB0C943BC50C945DAD0C94A1990C
:1033D0000C94D7B10C94A81C0C94D71C0C940B958E
:1033E0000C94ED940C941F960C943CAF0C9471D9F2
:1033F0000C944CAA0C94B8C10C945FA90C949B99A2
:103400000C941B1C0C94D6940C9419950C94059553
:103410000C94DD940C947AB60C94ED1C0C94FAB3D5
:103420000C94EEAB0C94D3AA0C94FF940C94E91C6E
:103430000C9404AD0C9441B30C9402C30C9483D34C
:103440000C9471B90C94D9C20C9451CA0C94759413
:103450000C94CD1C0C9405C20C94A7940C94F31CF2
:103460000C9437D80C946DC20C94A0B30C94C9AED4
:103470000C94EF480C94E1B40C94C61C0C9462CFED
:103480000C9439BE0C9402B30C94D3560C949CDB70
:103490000C94BC1C0C94E51C0C94A9990C948F9969
:1034A0000C9406B70C94A4AF0C94F6BC0C9469CEA3
:1034B0000C945D1C0C940D950C94A8B00C941CDB22
:1034C0000C9462DA0C9438C00C94CF940C94FB1CCE
:1034D0000C9407950C9431970C94FFBD0C941595A2
:1034E0000C941ABE0C949BC80C9400BE0C940395CB
:1034F0000C9472D70C94CFC40C94ECBE0C947294C0
:103500000C94D11C0C9459B90C94D8CF0C94ADDA0E
:103510000C94F9C30C948FD70C9483940C94D7C853
:103520000C9498990C94C7AC0C94C01C0C941195F5
:103530000C9435B00C946DBD0C94201C0C94F9D0F7
:103540000C9492990C946FB30C9476AA0C9416ABCD
:103550000C94C91C0C949F940C9491940C943FB0BF
:103560000C9413950C94FAC40C946DCE0C94411CDD
:103570000C94E3A90C94F1B10C94DB1C0C94DF1CAB
:103580000C94F3C50C9490B20C94E1B50C9490CFCC
:103590000C94F71C0C94C6B30C94AACE0C947ABF6E
:1035A0000C94A4990C94801C0C94B9CF0C94DE4814
:1035B0000C94251C0C9409950C9485C30C94F89DCF
:1035C0000C9427B10C9449C70C948A1C0C94019557
:1035D0000C949E990C9439AC0C945CBC0C9417958B
:1035E0000C94761C0C942DCD0C945AD60C9413AEDE
:1035F0000C94D3DA0C941B950C94AF940C94C6B72E
:103600000C94B8940C94A3C40C94E4940C94BF94BC
:10361000DE48EF4811241FBECFEFD1E2DEBFCDBFA1
:1036200000E00CBF14E0A0E0B2E0ECE6FEED01E04B
:103630000BBF02C007900D92A034B107D9F71AE171
:10364000A0E4B4E001C01D92A33EB107E1F716E388
:10365000C2E1D6E300E006C022970109FE010BBFDC
:103660000E9408E8C031D10780E00807A9F70E944E
:10367000CEE20C9424EF0C9400001F920F920FB630
:103680000F9211242F933F938F939F93AF93BF93E8
:103690008091410490914204A0914304B09144046C
:1036A0003091400423E0230F2D3720F40196A11D13
:1036B000B11D05C026E8230F0296A11DB11D209360
:1036C00040048093410490934204A0934304B09338
:1036D00044048091450490914604A0914704B09120
:1036E00048040196A11DB11D8093450490934604A2
:1036F000A0934704B0934804BF91AF919F918F91DD
:103700003F912F910F900FBE0F901F9018952FB7DC
:10371000F894609141047091420480914304909127
:1037200044042FBF0895789484B5826084BD84B525
:10373000816084BD85B5826085BD85B5816085BDAC
:10374000EEE6F0E0808181608083E1E8F0E01082C5
:10375000808182608083808181608083E0E8F0E006
:10376000808181608083E1EBF0E0808184608083F0
:10377000E0EBF0E0808181608083E1E9F0E080812E
:1037800082608083808181608083E0E9F0E08081D5
:1037900081608083E1EAF0E08081826080838081C3
:1037A00081608083E0EAF0E0808181608083E1E2F3
:1037B000F1E0808182608083808181608083E0E2AB
:1037C000F1E0808181608083EAE7F0E080818460BD
:1037D000808380818260808380818160808380811A
:1037E000806880831092C10008951F93CF93DF9368
:1037F000182FEB0161E00E94011D209711F460E099
:1038000004C0CF3FD10539F461E0812FDF91CF9122
:103810001F910C943A1DE12FF0E0EB52FE4F4491C2
:1038200050E0FA013197E131F10508F091C0EE580E
:10383000FF4F0C94DFE784B5806884BDC7BD8DC0A1
:1038400084B5806284BDC8BD88C0809180008068D6
:1038500080938000D0938900C09388007EC08091BF
:103860008000806280938000D0938B00C0938A0098
:1038700074C08091B00080688093B000C093B300A2
:103880006CC08091B00080628093B000C093B4009F
:1038900064C080919000806880939000D0939900DC
:1038A000C09398005AC080919000806280939000ED
:1038B000D0939B00C0939A0050C080919000886084
:1038C00080939000D0939D00C0939C0046C080914F
:1038D000A00080688093A0008091A0008F7B8093DF
:1038E000A000D093A900C093A80037C08091A00089
:1038F00080628093A000D093AB00C093AA002DC03B
:103900008091A00088608093A000D093AD00C09308
:10391000AC0023C080912001806880932001D09367
:103920002901C093280119C08091200180628093F1
:103930002001D0932B01C0932A010FC08091200158
:10394000886080932001D0932D01C0932C0105C085
:10395000C038D1050CF058CF52CFDF91CF911F91D5
:10396000089590E0FC013197E131F10508F048C07D
:10397000ED57FF4F0C94DFE7809180008F7703C0F5
:10398000809180008F7D80938000089584B58F772B
:1039900002C084B58F7D84BD08958091B0008F777B
:1039A00003C08091B0008F7D8093B0000895809116
:1039B00090008F7707C0809190008F7D03C0809129
:1039C0009000877F8093900008958091A0008F776A
:1039D00007C08091A0008F7D03C08091A000877FE9
:1039E0008093A0000895809120018F7707C0809177
:1039F00020018F7D03C080912001877F809320016B
:103A00000895CF93DF9390E0FC01E55EFD4F249194
:103A1000FC01EF59FD4F8491882349F190E0880F14
:103A2000991FFC01EF53FD4FA591B49189559D4F0E
:103A3000FC01C591D4919FB7611108C0F8948C9195
:103A4000209582238C93888182230AC0623051F4AE
:103A5000F8948C91322F309583238C938881822B1C
:103A6000888304C0F8948C91822B8C939FBFDF9144
:103A7000CF9108950F931F93CF93DF931F92CDB7EC
:103A8000DEB7282F30E0F901EB52FE4F8491F901A7
:103A9000E55EFD4F1491F901EF59FD4F04910023AC
:103AA000C9F0882321F069830E94B11C6981E02F4D
:103AB000F0E0EE0FFF1FE955FD4FA591B4919FB7C0
:103AC000F8948C91611103C01095812301C0812B62
:103AD0008C939FBF0F90DF91CF911F910F9108950D
:103AE0001F920F920FB60F9211240BB60F922F93C5
:103AF0003F934F935F936F937F938F939F93AF9376
:103B0000BF93EF93FF9380914D0490914E04892BC6
:103B100029F0E0914D04F0914E041995FF91EF9139
:103B2000BF91AF919F918F917F916F915F914F91D5
:103B30003F912F910F900BBE0F900FBE0F901F90D3
:103B400018951F920F920FB60F9211240BB60F9279
:103B50002F933F934F935F936F937F938F939F9395
:103B6000AF93BF93EF93FF9380914F0490915004D4
:103B7000892B29F0E0914F04F09150041995FF91A1
:103B8000EF91BF91AF919F918F917F916F915F91D5
:103B90004F913F912F910F900BBE0F900FBE0F9042
:103BA0001F9018951F920F920FB60F9211240BB60B
:103BB0000F922F933F934F935F936F937F938F93C6
:103BC0009F93AF93BF93EF93FF9380915104909194
:103BD0005204892B29F0E0915104F0915204199577
:103BE000FF91EF91BF91AF919F918F917F916F91D5
:103BF0005F914F913F912F910F900BBE0F900FBE91
:103C00000F901F9018951F920F920FB60F921124CC
:103C10000BB60F922F933F934F935F936F937F93C6
:103C20008F939F93AF93BF93EF93FF938091530430
:103C300090915404892B29F0E0915304F09154049D
:103C40001995FF91EF91BF91AF919F918F917F91C6
:103C50006F915F914F913F912F910F900BBE0F90FD
:103C60000FBE0F901F9018951F920F920FB60F92D4
:103C700011240BB60F922F933F934F935F936F9343
:103C80007F938F939F93AF93BF93EF93FF93809115
:103C9000490490914A04892B29F0E0914904F0915C
:103CA0004A041995FF91EF91BF91AF919F918F9128
:103CB0007F916F915F914F913F912F910F900BBE2C
:103CC0000F900FBE0F901F9018951F920F920FB676
:103CD0000F9211240BB60F922F933F934F935F9344
:103CE0006F937F938F939F93AF93BF93EF93FF93C4
:103CF00080914B0490914C04892B29F0E0914B0466
:103D0000F0914C041995FF91EF91BF91AF919F9164
:103D10008F917F916F915F914F913F912F910F9074
:103D20000BBE0F900FBE0F901F9018951F920F9211
:103D30000FB60F9211240BB60F922F933F934F9310
:103D40005F936F937F938F939F93AF93BF93EF9303
:103D5000FF938091550490915604892B29F0E091AE
:103D60005504F09156041995FF91EF91BF91AF91D1
:103D70009F918F917F916F915F914F913F912F9183
:103D80000F900BBE0F900FBE0F901F9018951F92B3
:103D90000F920FB60F9211240BB60F922F933F93F1
:103DA0004F935F936F937F938F939F93AF93BF9343
:103DB000EF93FF938091570490915804892B29F039
:103DC000E0915704F09158041995FF91EF91BF913C
:103DD000AF919F918F917F916F915F914F913F91A3
:103DE0002F910F900BBE0F900FBE0F901F90189544
:103DF000CF92DF92EF92FF920F931F93CF93DF93B7
:103E00006C017A01EB01E60EF71E00E010E0CE1522
:103E1000DF0561F06991D601ED91FC910190F0818F
:103E2000E02DC6011995080F191FF1CFC801DF91C8
:103E3000CF911F910F91FF90EF90DF90CF90089559
:103E4000FC01659175918591949108950F931F934D
:103E5000CF93DF93EC01CC0FDD1FCC0FDD1FCE0124
:103E6000895D974F0E94201F8E010753154FFE0159
:103E7000E354F54F20813181428153810E94DCE27D
:103E8000F8016083718382839383CE01815C974FB5
:103E90000E94201FFE01EF54F54F608371838283DF
:103EA0009383CE018D5C974F0E94201FC85DDD4F2C
:103EB000688379838A839B83DF91CF911F910F91D0
:103EC0000895FC012491222341F03091C00035FF78
:103ED000FCCF2093C6000196F4CF22E030E08CEDB9
:103EE0009CE00C94244BFC012491222341F030915E
:103EF000C00035FFFCCF2093C6000196F4CF2AE026
:103F000030E08CED9CE00C94734ACF93DF931F92CA
:103F10001F92CDB7DEB78091DD1A9091DE1A9E0117
:103F20002F5F3F4F009719F4235E3A4102C0281BD0
:103F3000390B3A83298389819A810F900F90DF9101
:103F4000CF91089580917504909176041816190602
:103F50009CF48091790490917A04019668E070E075
:103F60000E948AE7909378048093770481E090E040
:103F70009093760480937504089520917504309190
:103F80007604283031050CF06AC0409177045091D6
:103F9000780460E6649F9001659F300D1124BC0198
:103FA000C9018D579B4F0E94BCEBEBE4F8E0849174
:103FB000882341F09091C00095FFFCCF8093C6000C
:103FC0003196F5CFE1E0F8E08491882341F09091BB
:103FD000C00095FFFCCF8093C6003196F5CF80914D
:103FE00077049091780420E6289FF001299FF00D36
:103FF0001124ED57FB4F8191882339F09091C00037
:1040000095FFFCCF8093C600F6CFEFEFF7E08491E9
:10401000882341F09091C00095FFFCCF8093C600AB
:104020003196F5CF8091C00085FFFCCF8AE0809368
:10403000C6008091770490917804019668E070E062
:104040000E948AE7909378048093770480917504A6
:104050009091760401969093760480937504089568
:104060002091750430917604283031050CF06AC037
:10407000409177045091780460E6649F9001659FB9
:10408000300D1124BC01C9018D579B4F0E9431EBAB
:10409000EBE4F8E08491882341F09091C00095FF13
:1040A000FCCF8093C6003196F5CFE4EFF7E0849122
:1040B000882341F09091C00095FFFCCF8093C6000B
:1040C0003196F5CF809177049091780420E6289F6F
:1040D000F001299FF00D1124ED57FB4F81918823AA
:1040E00039F09091C00095FFFCCF8093C600F6CFC9
:1040F000E2EFF7E08491882341F09091C00095FFB2
:10410000FCCF8093C6003196F5CF8091C00085FF2B
:10411000FCCF8AE08093C600809177049091780468
:10412000019668E070E00E948AE79093780480939B
:1041300077048091750490917604019690937604AB
:1041400080937504089581E0209175043091760480
:10415000121613060CF080E00895809175040895FE
:104160000A9A129A08950E94B02040E950ED63E047
:1041700070E08CED9CE00E942C49ECEEF7E084911D
:10418000882341F09091C00095FFFCCF8093C6003A
:104190003196F5CF8091C00085FFFCCF8AE08093F7
:1041A000C6008BE498E0FC012491222341F0309179
:1041B000C00035FFFCCF2093C6003196F5CF24B761
:1041C00020FF14C0E4EEF7E03491332341F0409136
:1041D000C00045FFFCCF3093C6003196F5CF30913B
:1041E000C00035FFFCCF3AE03093C60021FF14C079
:1041F000E4EDF7E03491332341F04091C00045FFF6
:10420000FCCF3093C6003196F5CF3091C00035FF1A
:10421000FCCF3AE03093C60022FF14C0E3ECF7E095
:104220003491332341F04091C00045FFFCCF3093DF
:10423000C6003196F5CF3091C00035FFFCCF3AE093
:104240003093C60023FF14C0E3EBF7E0349133232F
:1042500041F04091C00045FFFCCF3093C60031963D
:10426000F5CF3091C00035FFFCCF3AE03093C60067
:1042700025FF14C0E3EAF7E02491222341F03091B6
:10428000C00035FFFCCF2093C6003196F5CF2091BA
:10429000C00025FFFCCF2AE02093C60014BEEBE946
:1042A000F7E02491222341F03091C00035FFFCCF8C
:1042B0002093C6003196F5CFE5E9F7E0249122235B
:1042C00041F03091C00035FFFCCF2093C6003196FD
:1042D000F5CF2091C00025FFFCCF2AE02093C60037
:1042E000FC012491EBE4F8E0222349F03091C00076
:1042F00035FFFCCF2093C60031962491F5CFE5E839
:10430000F7E02491222341F03091C00035FFFCCF2B
:104310002093C6003196F5CFE0E7F7E02491222301
:1043200041F03091C00035FFFCCF2093C60031969C
:10433000F5CFE4E6F7E02491222341F03091C0006C
:1043400035FFFCCF2093C6003196F5CFE5E5F7E0C9
:104350002491222341F03091C00035FFFCCF2093FF
:10436000C6003196F5CF2091C00025FFFCCF2AE092
:104370002093C600EAE4F7E02491222341F0309133
:10438000C00035FFFCCF2093C6003196F5CFEEE399
:10439000F7E02491222341F03091C00035FFFCCF9B
:1043A0002093C6003196F5CF2091C00025FFFCCFA9
:1043B0002AE02093C600FC018491EBE4F8E0882316
:1043C00049F09091C00095FFFCCF8093C6003196D4
:1043D0008491F5CFEFE2F7E08491882341F090914A
:1043E000C00095FFFCCF8093C6003196F5CF0E94A8
:1043F000851F4AE050E0BC018CED9CE00E94444ADD
:10440000E8E1F7E08491882341F09091C00095FFA6
:10441000FCCF8093C6003196F5CF4AE050E060EDC6
:1044200074E08CED9CE00E94444A8091C00085FFBE
:10443000FCCF8AE08093C600EBE7F4E0119284E0C1
:10444000E338F807D9F70E94DE920E9463E00E94E9
:1044500095780E9460620E940C940E940D760C94E4
:10446000129980916F049091700460E070E0019661
:104470000C940CE880916F04909170044AE050E035
:1044800060E070E001960C9489E9682F70E020915B
:10449000790430917A0440E6429FC001439F900D19
:1044A00011248D579B4F0E94B1EB90937004809321
:1044B0006F0421E0892B09F420E0822F08950E94E7
:1044C000871B60936B0470936C0480936D049093CE
:1044D0006E04E0917904F0917A04E558FB4F8081F5
:1044E000811114C0E0E7F3E08491882341F09091BA
:1044F000C00095FFFCCF8093C6003196F5CF809128
:10450000C00085FFFCCF8AE08093C60008958CED43
:104510009CE00E947E49E3E7F3E08491882341F028
:104520009091C00095FFFCCF8093C6003196F5CFE7
:10453000409188075091890760918A0770918B0795
:104540004F5F5F4F6F4F7F4F2AE030E08CED9CE074
:104550000E941D4A8091C00085FFFCCF8AE08093B5
:10456000C6000C945F222F923F924F925F926F92FF
:104570007F928F929F92AF92BF92CF92DF92EF92F3
:10458000FF920F931F93CF93DF93CDB7DEB76F9753
:104590000FB6F894DEBF0FBECDBF30E6D32E48E095
:1045A000E42EF12CEBEDF5E0B4905AE0C52EE1E5F8
:1045B000F6E0A4909924939480915D0D90915E0D06
:1045C00020915F0D3091600D821B930B8F7799279F
:1045D000892B09F453C28091750490917604089751
:1045E0000CF04CC28CED9CE00E94624980937404F4
:1045F00020917204309173048A3061F08D3051F053
:104600008A3321F490917104992321F02F353105DB
:104610000CF4B8C12115310509F4D2C18091770499
:1046200090917804D89E8001D99E100D1124F80134
:10463000E20FF31FED57FB4F1082209171042111FF
:104640009CC110927104FC01E558FB4F1082980147
:104650002D573B4F39016EE470E0C9010E94B1EB68
:10466000009709F4A2C09093700480936F04861998
:104670009709800F911F4AE050E060E070E08C578E
:104680009B4F0E9489E960938C0770938D078093FC
:104690008E0790938F07409088075090890760900D
:1046A0008A0770908B073FEF431A530A630A730A15
:1046B00000917704109178046415750586059705B7
:1046C00009F481C1D09EC001D19E900D11246AEFE2
:1046D00076E08D579B4F0E9476EB892B09F073C1D2
:1046E000E1E5F8E08491882341F09091C00095FFC6
:1046F000FCCF8093C6003196F5CFE7ECF6E08491CD
:10470000882341F09091C00095FFFCCF8093C600B4
:104710003196F5CF409188075091890760918A07BB
:1047200070918B072AE030E08CED9CE00E941D4ADE
:104730008091C00085FFFCCF32C0909370048093BD
:104740006F0484199509860D971D60E070E08C5701
:104750009B4F0E940CE80E9424E4212F30E0261792
:10476000370709F45EC0E1E5F8E08491811176C174
:10477000E8EAF6E08491811179C14091880750916F
:10478000890760918A0770918B072AE030E08CEDF1
:104790009CE00E941D4A8091C00085FFFCCF8AE00A
:1047A0008093C6000E94872237C06AE270E0C3018E
:1047B0000E94B1EB892B09F444C0E1E5F8E0849153
:1047C000882341F09091C00095FFFCCF8093C600F4
:1047D0003196F5CFE4E5F6E08491882341F090919D
:1047E000C00095FFFCCF8093C6003196F5CF409175
:1047F00088075091890760918A0770918B072AE09A
:1048000030E08CED9CE00E941D4A8091C00085FF45
:10481000FCCF8AE08093C600109273041092720459
:10482000ECC280918C0790918D07A0918E07B0917A
:104830008F078093880790938907A0938A07B09386
:104840008B078091770490917804D89E8001D99E3F
:10485000100D1124C8018D579B4F3C0167E470E097
:104860000E94B1EB009709F442C0909370048093CA
:104870006F0486199709800F911F60E070E08C57D4
:104880009B4F0E940CE80E9424E46430710578F587
:1048900080915D04811117C08091DF0A811127C0CA
:1048A0008A2DE1E5F6E0882349F09091C00095FF5C
:1048B000FCCF8093C60031968491F5CF8091C000E3
:1048C00085FFFCCF12C08B2DEBEDF5E0882349F07E
:1048D0009091C00095FFFCCF8093C60031968491E3
:1048E000F5CF8091C00085FFFCCFC092C6008091BB
:1048F000770490917804D89E8001D99E100D1124E0
:10490000D801AD57BB4F3D016DE470E0CD010E9471
:10491000B1EB9093700480936F0486199709800F10
:10492000911F4AE050E060E070E08C579B4F0E947E
:1049300089E9693671058105910551F00E94871B4F
:104940006093AF157093B0158093B1159093B21525
:1049500080917704909178040196B7010E948AE7CC
:1049600090937804809377048091750490917604F5
:1049700001969093760480937504109273041092BC
:1049800072041ACE8B3311F49092710490917104D9
:10499000911112CE4091770450917804B9016F5F64
:1049A0007F4F7093730460937204D49EF001D59E80
:1049B000F00D1124E20FF31FED57FB4F8083FCCD68
:1049C000109271041AC2D09E3001D19E700C112435
:1049D00093012D573B4F29016AE270E0C9010E9403
:1049E000B1EB009769F5E1E5F8E08491882341F0A7
:1049F0009091C00095FFFCCF8093C6003196F5CF13
:104A0000EEE7F6E08491882341F09091C00095FF95
:104A1000FCCF8093C6003196F5CF40918807509126
:104A2000890760918A0770918B072AE030E08CED4E
:104A30009CE00E941D4A8091C00085FFFCCFAFCE54
:104A400020E010E0F301E20FF11DED57FB4F308144
:104A50003A3209F472CE2F5F1327F4CF9091C00041
:104A600095FFFCCF8093C60031967FCE9091C00019
:104A700095FFFCCF8093C60031967CCE8091E10AF1
:104A8000882309F4BAC18091720490917304892B30
:104A9000C1F00E94871B0091AF151091B0152091B5
:104AA000B1153091B215601B710B820B930B6838F6
:104AB00073418105910508F4A0C11092730410920E
:104AC00072048091E20A811198C1E8ECF5E024912A
:104AD0002F8F1AE09CE3C92ED12CE12CF12C20E180
:104AE000422E2EE0522E612C712CCE0101961C011B
:104AF000EBE4F8E004914091D20C5091D30C60911A
:104B0000D40C7091D50C8091CA0C9091CB0CA091D3
:104B1000CC0CB091CD0C481759076A077B0708F0F9
:104B20006CC1809175049091760408970CF065C172
:104B30008091B70C9091B80CA091B90CB091BA0CBF
:104B40008093D20C9093D30CA093D40CB093D50C3B
:104B50008FEA9CE00E947B502091890C2223B9F1BE
:104B60008091E30A811105C08FED9AE00E942E86A4
:104B700053CE1092890C10927304109272044091DB
:104B8000590450915A0460915B0470915C048091C7
:104B9000CA0C9091CB0CA091CC0CB091CD0C925042
:104BA000A109B10984179507A607B70718F4109251
:104BB000E10A23C14093D20C5093D30C6093D40CE0
:104BC0007093D50C8FEA9CE00E94475116C1482F84
:104BD000809374048A30A1F08D3091F08A3321F4EF
:104BE00020917104222361F02091720430917304AA
:104BF0002F3531052CF48F3FAFEF9A0709F0C9C06C
:104C00008090D20C9090D30CA090D40CB090D50C86
:104C10004091CA0C5091CB0C6091CC0C7091CD0C92
:104C200084169506A606B70608F0D3C0019609F0CB
:104C30006AC0CFC09091C00095FFFCCF8093C600A2
:104C4000319684918111F6CF8091C00085FFFCCF11
:104C50001093C6000E94871B60935F0470936004EA
:104C60008093610490936204809063049090640444
:104C7000A0906504B0906604681979098A099B09B7
:104C800028EE33E040E050E00E949EE749015A01DF
:104C9000CA01B901A70196010E949EE7CA01B901A4
:104CA000A70196010E949EE77F936F93C501B4010F
:104CB000A30192010E949EE73F932F93A4EBB5E0DE
:104CC000BF93AF933F922F920E9408EC802F0FB6B4
:104CD000F894DEBF0FBECDBFEBE4F8E081117DC0DC
:104CE000F1018191811182C08091C00085FFFCCFCC
:104CF0001093C6008FED9AE00E94108D61E08FED59
:104D00009AE00E94528A2091720430917304211516
:104D1000310509F455CE809177049091780440E6EE
:104D2000489FF001499FF00D1124E20FF31FED574A
:104D3000FB4F1082FC01E558FB4F21E020832091BE
:104D40007504309176042F5F3F4F309376042093A3
:104D50007504019668E070E00E948AE790937804F9
:104D6000809377041092710410927304109272046D
:104D70008091D20C9091D30CA091D40CB091D50C11
:104D80008093590490935A04A0935B04B0935C04FD
:104D9000B2CE4B3319F441E0409371044091710459
:104DA0004111A9CE4091770450917804B9016F5F09
:104DB0007F4F709373046093720490E6949FF001A8
:104DC000959FF00D1124E20FF31FED57FB4F8083E9
:104DD00092CE8F8DE8ECF5E035CF9091C00095FF35
:104DE000FCCF8093C6003196849178CF9091C0001B
:104DF00095FFFCCF8093C60074CF6F960FB6F894E2
:104E0000DEBF0FBECDBFDF91CF911F910F91FF90FD
:104E1000EF90DF90CF90BF90AF909F908F907F905A
:104E20006F905F904F903F902F9008954F925F92B8
:104E30006F927F928F929F92AF92BF92CF92DF92AA
:104E4000EF92FF920F931F93CF93DF9300D01F92A7
:104E5000CDB7DEB719821A821B821C826AEBA62E9E
:104E600063E0B62E79ECC72E7AE0D72EE4EAEE2E78
:104E7000E7E0FE2E00E010E099249394F501819183
:104E80005F010E944522882369F10E9431222B0193
:104E90003C01F801E552F54F8081811103C060911A
:104EA000830701C061E070E080E090E00E9457E479
:104EB000F60120813181428153810E948AE69B0163
:104EC000AC01C301B2010E94DCE2F701608371838F
:104ED00082839383E1E0F0E0EC0FFD1FE00FF11F10
:104EE00090820AC0F60180819181A281B381F7018D
:104EF00080839183A283B3830F5F1F4FF4E0CF0EB3
:104F0000D11C84E0E80EF11C0430110509F0B6CF85
:104F100086E40E9445228823D9F00E9431226B0149
:104F20007C01609394077093950780939607909304
:104F3000970720E030E0A9010E94B8E5181644F474
:104F4000C0920E02D0920F02E0921002F092110273
:104F50008091BA07882309F4BCC089818111B9C046
:104F60008A818111B6C08B818111B3C08C81882365
:104F700009F4AFC08090D50A9090D60AA090D70AC5
:104F8000B090D80AA50194016091B0077091B10763
:104F90008091B2079091B3070E94DBE26B017C0124
:104FA0002DEC3CEC4CEC5DEB0E94B5E387FF4DC073
:104FB0008091B90781118DC020911B0230911C0294
:104FC00040911D0250911E026091AC077091AD0797
:104FD0008091AE079091AF070E94DCE26093AC072E
:104FE0007093AD078093AE079093AF07C701B601EA
:104FF0009058209123023091240240912502509133
:1050000026020E94DBE29B01AC01C501B4010E94B3
:10501000DBE26093D50A7093D60A8093D70A909307
:10502000D80A80911F0290912002A0912102B09194
:10503000220280930E0290930F02A0931002B0936D
:10504000110281E08093B90744C02DEC3CEC4CEC9C
:105050005DE3C701B6010E94B8E51816D4F580914A
:10506000B9078823B1F1A7019601609123027091DD
:10507000240280912502909126020E94DBE2209179
:10508000B5073091B6074091B7075091B8070E9415
:10509000DCE29B01AC01C501B4010E94DCE260933B
:1050A000D50A7093D60A8093D70A9093D80A809134
:1050B000130290911402A0911502B09116028093F0
:1050C0000E0290930F02A0931002B093110210925F
:1050D000B9070F900F900F900F90DF91CF911F9114
:1050E0000F91FF90EF90DF90CF90BF90AF909F9087
:1050F0008F907F906F905F904F9008950E94162739
:1051000089E40E944522882359F00E94312260934D
:1051100098077093990780939A0790939B0708C00C
:10512000109298071092990710929A0710929B0775
:105130008AE40E944522882359F00E94312260931C
:105140009C0770939D0780939E0790939F070895F7
:1051500010929C0710929D0710929E0710929F0735
:105160000895CF92DF92EF92FF92CF93DF93EC01FD
:10517000C090B10AD090B20AE090B30AF090B40A9D
:10518000A7019601688179818A819B810E94B5E39C
:1051900087FF04C0C882D982EA82FB82C090B50A28
:1051A000D090B60AE090B70AF090B80AA70196012D
:1051B0006C817D818E819F810E94B5E387FF04C051
:1051C000CC82DD82EE82FF82C090B90AD090BA0A0A
:1051D000E090BB0AF090BC0AA7019601688579852A
:1051E0008A859B850E94B5E387FF04C0C886D9865F
:1051F000EA86FB86C0902802D0902902E0902A021D
:10520000F0902B02A7019601688179818A819B81A8
:105210000E94B8E5181624F4C882D982EA82FB827B
:10522000C0902C02D0902D02E0902E02F0902F0220
:10523000A70196016C817D818E819F810E94B8E5D6
:10524000181624F4CC82DD82EE82FF82C0903002F8
:10525000D0903102E0903202F0903302A701960123
:10526000688579858A859B850E94B8E5181624F49F
:10527000C886D986EA86FB86DF91CF91FF90EF90B2
:10528000DF90CF900895CF92DF92EF92FF920F932D
:105290001F9384EA97E00E94B1280E94871B6093C5
:1052A0006B0470936C0480936D0490936E04209152
:1052B000A4073091A5074091A6075091A7076091D8
:1052C000C90A7091CA0A8091CB0A9091CC0A0E94B7
:1052D000B5E3811179C02091A8073091A9074091C9
:1052E000AA075091AB076091CD0A7091CE0A8091C8
:1052F000CF0A9091D00A0E94B5E3811165C020E0E9
:1053000030E040E752E460910E0270910F0280910C
:105310001002909111020E94BCE3F0EACF2EFAE055
:10532000DF2E7B018C0120EB37E04CEA57E068EA86
:1053300077E084EA97E00E94FF628091A407909151
:10534000A507A091A607B091A7078093C90A9093DB
:10535000CA0AA093CB0AB093CC0A8091A807909177
:10536000A907A091AA07B091AB078093CD0A9093AB
:10537000CE0AA093CF0AB093D00A8091AC07909147
:10538000AD07A091AE07B091AF078093D10A90937B
:10539000D20AA093D30AB093D40A8091B007909117
:1053A000B107A091B207B091B3078093D50A90934B
:1053B000D60AA093D70AB093D80A1F910F91FF90F5
:1053C000EF90DF90CF90089560913802709139028C
:1053D000882777FD8095982F0E9457E420910E0230
:1053E00030910F0240911002509111020E948AE602
:1053F00020E030E040E752E40E94BCE320E030E0EF
:1054000048EC52E488CFAF92BF92CF92DF92EF92F6
:10541000FF920F931F93CF93DF93D82F20919C0778
:1054200030919D0740919E0750919F07609198078A
:105430007091990780919A0790919B070E94C5E50A
:10544000C62F172F082FF92E60913802709139025C
:10545000882777FD8095982F0E9457E420910E02AF
:1054600030910F0240911002509111020E948AE681
:1054700020E030E040E752E40E94BCE320E030E06E
:1054800048EC52E40E94BCE32091A00A2F93DF93E2
:10549000FF920F931F93CF935B016C01A2E0EA2E62
:1054A00001E020E048E957E064EA77E089EC9AE01F
:1054B0000E948F5B8091A4079091A507A091A607F9
:1054C000B091A7078093C90A9093CA0AA093CB0A08
:1054D000B093CC0A8091A8079091A907A091AA0740
:1054E000B091AB078093CD0A9093CE0AA093CF0AD8
:1054F000B093D00A8091AC079091AD07A091AE0710
:10550000B091AF078093D10A9093D20AA093D30AA7
:10551000B093D40A8091B0079091B107A091B207DF
:10552000B091B3078093D50A9093D60AA093D70A77
:10553000B093D80A0E94871B60936B0470936C042D
:1055400080936D0490936E040F900F900F900F90C6
:105550000F900F90DF91CF911F910F91FF90EF90DF
:10556000DF90CF90BF90AF900895F8940E948B7910
:10557000159A469A439A409A9FB7F89480910B01E6
:10558000826080930B019FBF60E088E10E94011D53
:10559000E1E5F8E08491882341F09091C00095FF07
:1055A000FCCF8093C6003196F5CFE1E5F3E084911E
:1055B000882341F09091C00095FFFCCF8093C600F6
:1055C0003196F5CF8091C00085FFFCCF8AE08093B3
:1055D000C600FFCFCF93DF931F92CDB7DEB789838D
:1055E0000E948B7990915D048981911133C08093E1
:1055F0005D048091880790918907A0918A07B091F6
:105600008B078093840790938507A0938607B093B8
:105610008707E1E5F8E08491882341F09091C0008C
:1056200095FFFCCF8093C6003196F5CFEBEDF2E00D
:105630008491882341F09091C00095FFFCCF809326
:10564000C6003196F5CF8091C00085FFFCCF8AE07F
:105650008093C6000F90DF91CF9108952F923F92D3
:105660004F925F926F927F928F929F92AF92BF9272
:10567000CF92DF92EF92FF920F931F93CF93DF931E
:1056800000D000D0CDB7DEB79E838D831C01220CE5
:10569000331C220C331C91012753354F5901F9015A
:1056A000108211821282138225ED3AE041ED5AE018
:1056B0006DEC7AE089EC9AE00E94876CC101855E0E
:1056C000974F0E94201F2D813E81245F374F3A83E0
:1056D0002983F901449091012C55384F3C832B8349
:1056E00020E030E040EC5FE30E948AE66B017C0141
:1056F000552447FC5094652C752CC301B2010E94BF
:1057000057E49B01AC01C701B6010E948AE6EB8118
:10571000FC816083718382839383F101E65CFD4F9A
:10572000608171818281938160930E0270930F0278
:10573000809310029093110220E030E040E752E4A1
:105740000E94BCE320EAC22E2AE0D22E7B018C010B
:1057500020EB37E04CEA57E068EA77E084EA97E02C
:105760000E94FF620E940E750E944C6E8111B9C0AA
:105770002D813E812230310509F077C01092D10A87
:105780001092D20A1092D30A1092D40A25ED3AE070
:1057900041ED5AE06DEC7AE089EC9AE00E94876C6A
:1057A00087E198E00E94201F6B017C01F7FAF094DA
:1057B000F7F8F094C301B2010E9457E49B01AC01D9
:1057C000C701B6010E948AE620E030E040E251E4E1
:1057D0000E948AE66093AC077093AD078093AE0792
:1057E0009093AF0720E030E040E752E460910E0272
:1057F00070910F0280911002909111020E94BCE3FF
:1058000000EAC02E0AE0D02E7B018C0120EB37E0AD
:105810004CEA57E068EA77E084EA97E00E94FF628A
:105820000E940E75E1E5F8E08491882341F09091A3
:10583000C00095FFFCCF8093C6003196F5CFEBEE0C
:10584000F3E08491882341F09091C00095FFFCCF54
:105850008093C6003196F5CF8091C00085FFFCCFC4
:105860008AE08093C60085E022C0E1E5F8E08491FB
:10587000882341F09091C00095FFFCCF8093C60033
:105880003196F5CFE4EBF3E08491882341F09091D9
:10589000C00095FFFCCF8093C6003196F5CF809174
:1058A000C00085FFFCCF8AE08093C60087E0269683
:1058B0000FB6F894DEBF0FBECDBFDF91CF911F9121
:1058C0000F91FF90EF90DF90CF90BF90AF909F909F
:1058D0008F907F906F905F904F903F902F900C949F
:1058E000EA2AF501108211821282138225ED3AE034
:1058F00041ED5AE06DEC7AE089EC9AE00E94876C09
:10590000C101815F974F0E94201F4B015C016B0119
:105910007C01F7FAF094F7F8F094C301B2010E9409
:1059200057E49B01AC01C701B6010E948AE6EB81F6
:10593000FC81608371838283938320E030E040E7C1
:1059400052E460910E0270910F02809110029091CA
:1059500011020E94BCE310EAC12E1AE0D12E7B0195
:105960008C0120EB37E04CEA57E068EA77E084EA04
:1059700097E00E94FF620E940E752D813E812130CA
:10598000310529F02230310521F0232B49F580B172
:1059900027C0079925C0E1E5F8E08491882341F00C
:1059A0009091C00095FFFCCF8093C6003196F5CF53
:1059B000ECE7F3E08491882341F09091C00095FFDB
:1059C000FCCF8093C6003196F5CF8091C00085FF53
:1059D000FCCF8AE08093C60086E00E94EA2A67C076
:1059E000E981FA81549091012C55384F3901A50174
:1059F0009401C501B4010E94DCE26B017C01652DBC
:105A0000772767FD7095872F972F0E9457E49B019A
:105A1000AC01C701B6010E948AE6F301608371837D
:105A200082839383F101E65CFD4F20E030E040E4A7
:105A300050E460817181828193810E94BCE3609314
:105A40000E0270930F02809310029093110220E0D7
:105A500030E040E752E40E94BCE3B0EACB2EBAE06B
:105A6000DB2E7B018C0120EB37E04CEA57E068EA43
:105A700077E084EA97E00E94FF620E940E758D81B4
:105A80009E810E94261FF101E753F54F808191818D
:105A9000A281B381F30180839183A283B3831092A7
:105AA0000E0210920F02109210021092110226960E
:105AB0000FB6F894DEBF0FBECDBFDF91CF911F911F
:105AC0000F91FF90EF90DF90CF90BF90AF909F909D
:105AD0008F907F906F905F904F903F902F900C949D
