:100000000C94711A0C94D71C0C94081D0C94391D77
:100010000C946A1D0C949B1D0C94CC1D0C94FD1D1E
:100020000C942E1E0C94A21A0C94A21A0C94A21AD0
:100030000C94A21A0C94A7910C94A21A0C94A21AD4
:100040000C94A21A0C941A6C0C94A21A0C94A21A76
:100050000C94A21A0C94A21A0C94307D0C94A41A3D
:100060000C94A21A0C94B2460C94A21A0C94A21AE4
:100070000C94A21A0C94A21A0C94A21A0C94A21A10
:100080000C94A21A0C94A21A0C94A21A0C94A21A00
:100090000C94A21A0C94A21A0C94A21A0C94ED9A25
:1000A0000C94A21A0C94A21A0C94A21A0C94A21AE0
:1000B0000C94A21A0C94A21A0C94A21A0C94A21AD0
:1000C0000C94A21A0C94A21A0C94A21A0C94A21AC0
:1000D0000C94A21A0C94A21A0C94A21A0C94A21AB0
:1000E0000C94A21A821B871B8C1B961B0F1CA01B37
:1000F000A81BB01BBA1BC41BCE1BDD1BE71B0F1CB0
:10010000F11BFB1B051C2D1C301C231C271C671C12
:10011000341C381C3E1C421C461C4C1C501C541CDD
:10012000671C5A1C5E1C621C5A905D9064906B9018
:10013000729079900991809087908F900991979013
:10014000A090A790B090B790BE900991C590CC9028
:10015000D5900991DE90E790E990EB90ED90EF90CB
:10016000F190F390F590F790F990FB90FD90FF904F
:1001700001910391059173957395769579957F9586
:100180008295859588958D957C95084AD73B3BCE81
:10019000016E84BCBFFDC12F3D6C74319ABD568386
:1001A0003DDA3D00C77F11BED9E4BB4C3E916BAA3E
:1001B000AABE000000803F05A84CCDB2D44EB9388D
:1001C00036A9020C50B9918688083CA6AAAA2ABE74
:1001D000000000803F0000090A02080B0C0D070612
:1001E0000304010000000000000000000000000007
:1001F00000000000000000000000000000000000FF
:100200000011100F000000000000000000000000BE
:10021000000000000000000000000001021020208B
:10022000080810204010204080020102010804024A
:1002300001010204081020408080402010080402C0
:100240000180040201804020100804020108040219
:10025000010102040810204080010204081020401F
:100260008005050505070508080808020202020ABC
:100270000A08080404040401010101010101010349
:1002800003030303030303040707070C0C0C0C0C04
:100290000C0C0C0202020206060606060606060BF7
:1002A0000B0B0B0B0B0B0B00002200250028002B67
:1002B000002E003100340002010000050108010B8E
:1002C0000100002100240027002A002D0030003307
:1002D0000001010000040107010A015072696E74F7
:1002E00065722073746F7070656420647565207426
:1002F0006F206572726F72732E2046697820746861
:1003000065206572726F7220616E6420757365205E
:100310004D39393920746F20726573746172742E8F
:10032000202854656D7065726174757265206973FB
:100330002072657365742E20536574206974206182
:10034000667465722072657374617274696E672970
:10035000005072696E7465722068616C7465642EF9
:10036000206B696C6C28292063616C6C65642100CA
:100370006F6B00526573656E643A2000456E64735E
:10038000746F70207374696C6C2070726573736520
:1003900064206166746572206261636B696E6720B8
:1003A0006F66662E20456E6473746F70207374756B
:1003B000636B3F00456E6473746F70206E6F7420C2
:1003C0007072657373656420616674657220686F0E
:1003D0006D696E6720646F776E2E20456E6473744E
:1003E0006F702062726F6B656E3F00456E64737450
:1003F0006F70206E6F742070726573736564206116
:100400006674657220686F6D696E6720646F776EC1
:100410002E20456E6473746F702062726F6B656E10
:100420003F002200556E6B6E6F776E20636F6D6DAF
:10043000616E643A202200456C656374726F6E6968
:1004400063735F746573740020423A300020423A4F
:1004500031006F6B20523A002200556E6B6E6F7741
:100460006E20636F6D6D616E643A2022007A5F6D5D
:1004700061783A2000795F6D61783A2000785F6D8D
:10048000696E3A20005A3A00593A0020436F756E5F
:100490007420583A2000453A005A3A00593A005818
:1004A0003A004649524D574152455F4E414D453AFB
:1004B0004D61726C696E20556C74696D616B65720B
:1004C000323B20537072696E7465722F6772626C72
:1004D000206D617368757020666F722067656E3677
:1004E000204649524D574152455F55524C3A687427
:1004F00074703A2F2F6769746875622E636F6D2F61
:10050000556C74696D616B65722050524F544F4346
:100510004F4C5F56455253494F4E3A312E30204D85
:10052000414348494E455F545950453A556C7469AA
:100530006D616B65722045585452554445525F4376
:100540004F554E543A310A0020423A0020453A00B5
:10055000543A0020573A0020453A00543A002042CD
:10056000403A0020403A00202F0020423A00202F3D
:10057000006F6B20543A002569206D696E2C202590
:10058000692073656300456E642066696C65206C44
:1005900069737400426567696E2066696C65206CDA
:1005A00069737400256920686F757273202569204E
:1005B0006D696E7574657300446F6E652070726945
:1005C0006E74696E672066696C65005072696E743E
:1005D00065722073746F7070656420647565207433
:1005E0006F206572726F72732E204669782074686E
:1005F00065206572726F7220616E6420757365206C
:100600004D39393920746F20726573746172742E9C
:10061000202854656D706572617475726520697308
:100620002072657365742E2053657420697420618F
:10063000667465722072657374617274696E67297D
:10064000006F6B004E6F204C696E65204E756D62B9
:100650006572207769746820636865636B73756D74
:100660002C204C617374204C696E653A20004E6FEB
:1006700020436865636B73756D2077697468206CBF
:10068000696E65206E756D6265722C204C617374A5
:10069000204C696E653A2000636865636B73756D05
:1006A000206D69736D617463682C204C61737420D4
:1006B0004C696E653A20004C696E65204E756D621E
:1006C0006572206973206E6F74204C617374204CC6
:1006D000696E65204E756D6265722B312C204C6100
:1006E0007374204C696E653A20004D3131300044FE
:1006F0006F6E6520736176696E672066696C652E22
:10070000006F6B004D3239002020506C616E6E65B9
:100710007242756666657242797465733A2000208C
:1007200046726565204D656D6F72793A20004170A3
:1007300072203136203230313500436F6D70696C74
:1007400065643A200056657273696F6E3A5F3135A1
:100750002E303400207C20417574686F723A20007E
:1007600041707220313620323031352031323A3307
:10077000363A333100204C617374205570646174D3
:1007800065643A2000312E302E30004D61726C6964
:100790006E200020536F6674776172652052657316
:1007A000657400205761746368646F6720526573D5
:1007B0006574002042726F776E206F7574205265E9
:1007C000736574002045787465726E616C205265A3
:1007D00073657400506F7765725570007374617241
:1007E00074002200656E717565696E6720220022B3
:1007F00000656E717565696E67202200FF0101005A
:1008000000E0400000E0400000E0400000664300DF
:1008100000664300006643000000000000664300DD
:100820000066430000664300006643000066430024
:1008300000000000000000000000006563686F3ADF
:10084000004572726F723A0000002110422063303E
:100850008440A550C660E770088129914AA16BB118
:100860008CC1ADD1CEE1EFF13112100273325222C0
:10087000B5529442F772D662399318837BB35AA368
:10088000BDD39CC3FFF3DEE3622443342004011490
:10089000E664C774A44485546AA54BB528850995B8
:1008A000EEE5CFF5ACC58DD5533672261116300660
:1008B000D776F6669556B4465BB77AA71997388708
:1008C000DFF7FEE79DD7BCC7C448E5588668A77820
:1008D0004008611802282338CCC9EDD98EE9AFF958
:1008E000488969990AA92BB9F55AD44AB77A966A00
:1008F000711A500A333A122AFDDBDCCBBFFB9EEBA8
:10090000799B588B3BBB1AABA66C877CE44CC55CCF
:10091000222C033C600C411CAEED8FFDECCDCDDDF7
:100920002AAD0BBD688D499D977EB66ED55EF44E9F
:10093000133E322E511E700E9FFFBEEFDDDFFCCF47
:100940001BBF3AAF599F788F8891A981CAB1EBA19B
:100950000CD12DC14EF16FE18010A100C230E32017
:100960000450254046706760B9839893FBA3DAB3BF
:100970003DC31CD37FE35EF3B1029012F322D23267
:100980003542145277625672EAB5CBA5A89589858F
:100990006EF54FE52CD50DC5E234C324A0148104B7
:1009A0006674476424540544DBA7FAB79987B8975F
:1009B0005FE77EF71DC73CD7D326F2369106B01607
:1009C00057667676154634564CD96DC90EF92FE91F
:1009D000C899E9898AB9ABA9445865480678276857
:1009E000C018E1088238A3287DCB5CDB3FEB1EFBFF
:1009F000F98BD89BBBAB9ABB754A545A376A167AA7
:100A0000F10AD01AB32A923A2EFD0FED6CDD4DCDCE
:100A1000AABD8BADE89DC98D267C076C645C454CF6
:100A2000A23C832CE01CC10C1FEF3EFF5DCF7CDF9E
:100A30009BAFBABFD98FF89F176E367E554E745E46
:100A4000932EB23ED10EF01E7C3C3E5E2B3D3F2FDE
:100A50005B5D3B2C2A225C0020746F6F206C6F6EF4
:100A60006720657874727573696F6E207072657631
:100A7000656E7465640020636F6C642065787472C1
:100A80007573696F6E2070726576656E746564004B
:100A90006563686F3A00205A3A0020593A0020589E
:100AA0003A00656E6473746F7073206869743A20DD
:100AB0000024F4D43050C38E20C2A24017828B7021
:100AC00011127A910D816CD90AA861E108C75866A4
:100AD00007615143061E4B5D05C145A7041A41112C
:100AE00004093D9803713931034036DB02653391C7
:100AF00002D4305402802E1D02632CEE01752AC5EB
:100B000001B028A001102781018F2564012B244BFF
:100B100001E0223401AC211F018D200D01801FFC5A
:100B200000841EED00971DDF00B81CD200E61BC636
:100B300000201BBC00641AB200B219A8000A19A058
:100B4000006A189900D117910040178B00B51684E0
:100B50000031167E00B31579003A157300C7146F83
:100B60000058146A00EE1366008813630025135EB4
:100B700000C7125B006C12570015125400C11151CE
:100B80000070114F0021114B00D61049008D104705
:100B9000004610440002104200C00F4000800F3E8B
:100BA00000420F3C00060F3B00CB0E3800930E377F
:100BB000005C0E3500270E3400F30D3200C10D31FC
:100BC00000900D3000600D2E00320D2D00050D2C13
:100BD00000D90C2B00AE0C2900850C29005C0C27D9
:100BE00000350C27000E0C2600E80B2400C40B2453
:100BF00000A00B23007D0B23005A0B2100390B2191
:100C000000180B2000F80A1F00D90A1E00BB0A1E9C
:100C1000009D0A1D00800A1D00630A1C00470A1B74
:100C2000002C0A1B00110A1A00F7091A00DD091925
:100C300000C4091900AB091900920917007B0918B3
:100C400000630917004C0916003609160020091622
:100C5000000A091500F5081500E0081400CC081476
:100C600000B8081400A4081400900813007D0812AE
:100C7000006B0813005808120046081200340811CF
:100C800000230811001208110001081100F00710DC
:100C900000E0071000D0071000C0071000B0070FD9
:100CA00000A107100091070E0083070F0074070FC3
:100CB0000065070E0057070E0049070E003B070DA1
:100CC000002E070E0020070D0013070D0006070D6C
:100CD00000F9060C00ED060D00E0060C00D4060C31
:100CE00000C8060C00BC060C00B0060C00A4060BE5
:100CF0000099060C008D060B0082060B0077060B90
:100D0000006C060B0061060A0057060B004C060A31
:100D10000042060A0038060A002E060A0024060AC7
:100D2000001A060A001006090007060A00FD050958
:100D300000F4050900EB050900E2050900D90509E1
:100D400000D0050900C7050900BE050900B5050862
:100D500000AD050800A50509009C050800940508DC
:100D6000008C050800840508007C0508007405084F
:100D7000006C050700650508005D050700560508BD
:100D8000004E050700470507004005080038050725
:100D900000310507002A050700230507001C05068A
:100DA00000160507000F05070008050600020507E5
:100DB00000FB040600F5040700EE040600E8040644
:100DC00000E2040700DB040600D5040600CF040699
:100DD00000C9040600C3040600BD040600B70406EB
:100DE00000B1040500AC040600A6040600A004053A
:100DF000009B04060095040500900406008A040583
:100E00000085040500800406007A040500750405C9
:100E100000700405006B040500660405006104050C
:100E2000005C04050057040500520405004D04054C
:100E30000048040500430405003E0404003A04058C
:100E40000035040500300404002C040500270404C8
:100E500000230405001E0404001A040400160405FF
:100E600000110404000D0404000904050004040436
:100E70000000040400FC030400F8030400F403046D
:100E800000F0030400EC030400E8030400E403049E
:100E900000E0030400DC030400D8030400D40304CE
:100EA00000D0030400CC030400C8030300C50303FF
:100EB0000024F404D9201BC40C5C0E9804C4095F00
:100EC0000265077101F405F900FB04B300480487CB
:100ED00000C10369005803550003034500BE023AF0
:100EE000008402310053022A002902250004022056
:100EF00000E4011C00C8011900AF0117009801149B
:100F00000084011300710110006101100051010EF5
:100F10000043010D0036010B002B010B0020010BDB
:100F200000150109000C01090003010800FB00087D
:100F300000F3000800EB000700E4000600DE0006F6
:100F400000D8000600D2000600CC000500C700054E
:100F500000C2000500BD000400B9000400B5000493
:100F600000B1000400AD000400A9000400A50003C6
:100F700000A20003009F0004009B000300980003F0
:100F8000009500020093000300900003008D000212
:100F9000008B00030088000200860002008400032A
:100FA00000810002007F0002007D0002007B000241
:100FB0000079000200770001007600020074000250
:100FC0000072000100710002006F0002006D00015C
:100FD000006C0002006A0001006900020067000165
:100FE000006600010065000100640002006200016B
:100FF0000061000100600001005F0002005D00016F
:10100000005C0001005B0001005A00010059000172
:101010000058000100570001005600010055000172
:101020000054000100530000005300010052000171
:101030000051000100500001004F0001004E00006F
:10104000004E0001004D0001004C0001004B00006B
:10105000004B0001004A0001004900010048000067
:101060000048000100470001004600000046000162
:10107000004500000045000100440001004300005D
:101080000043000100420000004200010041000056
:101090000041000100400001003F0000003F00014E
:1010A000003E0000003E0001003D0000003D000148
:1010B000003C0000003C0000003C0001003B000040
:1010C000003B0001003A0000003A00010039000036
:1010D000003900010038000000380000003800012D
:1010E0000037000000370001003600000036000025
:1010F0000036000100350000003500000035000119
:10110000003400000034000000340001003300000F
:101110000033000000330001003200000032000004
:1011200000320001003100000031000000310001F8
:10113000003000000030000000300001002F0000EF
:10114000002F0000002F0000002F0001002E0000E3
:10115000002E0000002E0001002D0000002D0000D8
:10116000002D0000002D0001002C0000002C0000CC
:10117000002C0000002C0001002B0000002B0000C0
:10118000002B0000002B0001002A0000002A0000B4
:10119000002A0000002A00010029000000290000A8
:1011A000002900000029000000290001002800009B
:1011B000002800000028000000280000002800018E
:1011C0000027000000270000002700000027000083
:1011D0000027000100260000002600000026000075
:1011E0000026000000260001002500000025000068
:1011F000002500000025000000250000002500015A
:10120000002400000024000000240000002400004E
:101210000024000100230000002300000023000040
:101220000023000000230000002300000023000131
:101230000022000000220000002200000022000026
:101240000022000000220001002100000021000017
:10125000002100000021000000210000002100000A
:1012600000210001002000000020000000200000FC
:1012700000200000002000000020000000200000EE
:1012800000200001001F0000001F0000001F0000E0
:10129000001F0000001F0000001F0000001F0001D1
:1012A000001E0000001E0000001E0000001E0000C6
:1012B000006563686F3A003A20457874727564651A
:1012C00072207377697463686564206F66662E2088
:1012D0004D494E54454D502074726967676572657B
:1012E000642021003A204578747275646572207319
:1012F00077697463686564206F66662E204D415877
:1013000054454D5020747269676765726564202189
:101310000054656D706572617475726520686561F1
:1013200074656420626564207377697463686564BA
:10133000206F66662E204D415854454D50207472E2
:101340006967676572656420212100202D20496E40
:1013500076616C6964206578747275646572206E5C
:10136000756D626572202100504944204175746F8B
:1013700074756E652066696E6973686564212050B6
:10138000757420746865204B702C204B6920616E49
:1013900064204B6420636F6E7374616E7473206994
:1013A0006E746F20436F6E66696775726174696FE2
:1013B0006E2E6800504944204175746F74756E65D7
:1013C000206661696C6564212074696D656F757450
:1013D0000020403A006F6B20543A006F6B20423A75
:1013E00000504944204175746F74756E65206661C4
:1013F000696C6564212054656D70657261747572E5
:101400006520746F6F206869676800204B643A201C
:1014100000204B693A2000204B703A200020436C9A
:10142000617369632050494420002054753A2000BC
:10143000204B753A2000206D61783A2000206D69BC
:101440006E3A200020643A200020626961733A20DD
:10145000004572726F723A00000000001807010028
:10146000A807140030082800B8083C0038095000CC
:10147000C0096400480A7800C80A8C00480BA00024
:10148000C80BB400480CC800C80CDC00400DF000CC
:10149000C00D0401380E1801B00E2C01280F4001B8
:1014A000A00F54011810680188107C0100119001F0
:1014B0003013F401481558024017BC0228192003C4
:1014C000F01A8403A81CE803401E4C044D38342055
:1014D000582059205A20450043616E6E6F74206574
:1014E0006E746572207375626469723A20004D32C1
:1014F00034004D3233202573006175746F25692ED9
:1015000067006572726F722077726974696E672006
:10151000746F2066696C6500436172642065727245
:101520006F723A004E6F74205344207072696E746B
:10153000696E67002F005344207072696E74696E83
:1015400067206279746520002E0044656C657469BB
:101550006F6E206661696C65642C2046696C653A23
:10156000200046696C652064656C657465643A00AA
:101570002E006F70656E206661696C65642C204674
:10158000696C653A200057726974696E6720746FE0
:101590002066696C653A20002E006F70656E2066CB
:1015A00061696C65642C2046696C653A20002E00E8
:1015B0006F70656E206661696C65642C2046696C8D
:1015C000653A200046696C652073656C65637465D7
:1015D00064002053697A653A200046696C65206F83
:1015E00070656E65643A20002E006F70656E20662F
:1015F00061696C65642C2046696C653A200053442F
:101600002063617264206F6B006F70656E526F6F44
:1016100074206661696C656400766F6C756D652E0B
:10162000696E6974206661696C6564005344206961
:101630006E6974206661696C006563686F3A004585
:1016400072726F723A0048617264636F64656420FD
:1016500044656661756C742053657474696E677354
:10166000204C6F6164656400563031300053746FF4
:101670007265642073657474696E67732072657433
:1016800072696576656400204400204900202020AE
:101690004D333031205000504944207365747469D3
:1016A0006E67733A00205A0020590020204D3230D6
:1016B00036205800486F6D65206F6666736574202C
:1016C000286D6D293A00204500205A00205800203E
:1016D000420020540020204D323035205300416418
:1016E00076616E636564207661726961626C6573B0
:1016F0003A20533D4D696E2066656564726174657C
:1017000020286D6D2F73292C20543D4D696E207457
:10171000726176656C206665656472617465202807
:101720006D6D2F73292C20423D6D696E696D756D4D
:10173000207365676D656E742074696D6520286D12
:1017400073292C20583D6D6178696D756D2058594D
:10175000206A65726B20286D6D2F73292C20205A0A
:101760003D6D6178696D756D205A206A65726B20D8
:10177000286D6D2F73292C2020453D6D6178696D92
:10178000756D2045206A65726B20286D6D2F732959
:101790000020540020204D32303420530041636338
:1017A000656C65726174696F6E3A20533D61636365
:1017B000656C65726174696F6E2C20543D7265743E
:1017C0007261637420616363656C65726174696FD3
:1017D0006E00204500205A0020590020204D323054
:1017E000312058004D6178696D756D2041636365E6
:1017F0006C65726174696F6E20286D6D2F7332296C
:101800003A00204500205A0020590020204D323057
:10181000332058004D6178696D756D20666565648B
:10182000726174657320286D6D2F73293A0020450D
:1018300000205A0020590020204D393220580053F2
:10184000746570732070657220756E69743A005308
:10185000657474696E67732053746F726564006594
:1018600063686F3A00544553540D0A000D0A005541
:101870006E6B6E6F776E20636F6D6D616E643A2074
:10188000000D0A003F0056657273696F6E3A5F3152
:10189000352E303400025052494E54004D415445CB
:1018A0005249414C004D41494E54454E414E4345ED
:1018B000005072696E74696E67207769746820558C
:1018C00053422E2E2E00756C74696D616B65722EFD
:1018D000636F6D2F737570706F727400476F207433
:1018E0006F3A0058206F72205920737769746368CB
:1018F00020737475636B0058206F722059207377C2
:10190000697463682062726F6B656E005A2073772A
:101910006974636820737475636B005A2073776908
:101920007463682062726F6B656E005361666574E4
:1019300079206369726375697400486561746572C2
:10194000206572726F720054656D702073656E73DE
:101950006F72204245440054656D702073656E734C
:101960006F72004552524F52202D2053544F505009
:10197000454400801506060606FEFEFEFEFC00003D
:101980000000000000FCFEFEFEFC0000000EFEFE5B
:10199000FEFE0000E0FCFEFEFCE0E0000000CECE1B
:1019A000CE000000C0C0C0C0C0C080000000000069
:1019B0000080C0C0800000000000008080C0C0C067
:1019C000C0C0C0C080800000000006FEFEFEFE0019
:1019D00000000080C0C0C00000000000008080C087
:1019E000C0C080808000000000C0C0C0C00080C0B7
:1019F000C0C0C08000000000007FFFFFFFFF80002C
:101A00000000000080FFFFFFFFFF00000000FFFF5D
:101A1000FFFF000000FFFFFFFF0000000000FFFFCE
:101A2000FF00000081F1FFFF3F0F3FFFFCF0F0FCE3
:101A3000FF3F0F3FFFFEF880000000C1E1F1F171B0
:101A400031010183FFFFFFFC000000FFFFFFFF00EB
:101A50000C3EFFFFF7C301000000FCFEFF870311EF
:101A60003131333F3F3F1E000001FFFFFFFF0703FF
:101A700001010101000000000000010307070F0F32
:101A80000F0F0F0F0F0707070F0F06000000070FBC
:101A90000F07000000070F0F0700000000000F0FE6
:101AA0000F0000060F0F070100000001070F0F07CE
:101AB0000100000001070F0F06000003070F0F0EC3
:101AC0000E060703070F0F07000000070F0F0700A0
:101AD000000000030F0F0F060000000307070F0EA2
:101AE0000E0E0E0E0E06000000000F0F0F0F00006E
:101AF000000000000043414E43454C0020736563E5
:101B000000206D696E0020686F75720020686F7527
:101B1000727300000000000000005F00000007007A
:101B20000700147F147F14242A7F2A1223130864C9
:101B30006236495522500005030000001C22410076
:101B40000041221C00082A1C2A0808083E08080038
:101B500050300000080808080800606000002010ED
:101B60000804023E5149453E00427F400042615117
:101B700049462141454B311814127F1027454545F0
:101B8000393C4A494930017109050336494949360A
:101B9000064949291E00363600000056360000006E
:101BA00008142241141414141441221408000201D0
:101BB000510906324979413E7E1111117E7F494912
:101BC00049363E414141227F4141221C7F494949DA
:101BD000417F090901013E414151327F0808087FD8
:101BE00000417F41002040413F017F081422417F96
:101BF000404040407F0204027F7F0408107F3E4146
:101C000041413E7F090909063E4151215E7F091984
:101C10002946464949493101017F01013F40404081
:101C20003F1F2040201F7F2018207F63140814636B
:101C30000304780403615149454300007F41410298
:101C40000408102041417F000004020102044040CA
:101C5000404040000102040020545454787F48441E
:101C600044383844444420384444487F3854545419
:101C700018087E090102081454543C7F08040478B3
:101C800000447D40002040443D00007F1028440077
:101C9000417F40007C041804787C080404783844B0
:101CA0004444387C14141408081414187C7C080468
:101CB00004084854545420043F4440203C404020F1
:101CC0007C1C2040201C3C4030403C4428102844D0
:101CD0000C5050503C4464544C44000836410000C1
:101CE000007F0000004136080008082A1C08081C74
:101CF0002A0808473120462569205A256920582599
:101D0000692059256900473238205A302058302040
:101D10005930006275696C64706C6174652E006F77
:101D2000662061646A757374696E6720796F757275
:101D3000007468726F756768207468652070726FD0
:101D40006365737300492077696C6C2067756964FB
:101D50006520796F7500434F4E54494E55450043F9
:101D6000414E43454C00473238205A3000746F20B2
:101D70007072696E742069742100616E64207072E3
:101D80006573732074686520627574746F6E006F7C
:101D90006E207468652053442D636172640053653E
:101DA0006C6563742061207072696E742066696C62
:101DB000650032312F3231004C45542753205052A8
:101DC000494E540052656164696E672063617264B4
:101DD0002E2E2E0032312F323100796F7572205540
:101DE0006C74696D616B6572322E2E2E00746861A1
:101DF000742063616D65207769746800506C65615B
:101E0000736520696E736572742053442D6361722B
:101E1000640032312F3231006D616B6520612033F7
:101E200044205072696E74210049276D20726561EB
:101E30006479206C657427730032302F3231004191
:101E4000524520594F552052454144593F00536552
:101E50006C65637420746865206D61746572696176
:101E60006C006974206973207573696E672E006F4A
:101E700066206D6174657269616C006B6E6F77735B
:101E80002077686174206B696E64004E6F772079EB
:101E90006F757220556C74696D616B6572320031BB
:101EA000392F323100434F4E54494E554500697326
:101EB00020746869732072696768743F00596F7590
:101EC00020686176652063686F73656E0031382F16
:101ED000323100594553004E4F00206173206D612F
:101EE00074657269616C2C0031372F3231004D41BD
:101EF00054455249414C00556C74696D616B657273
:101F0000322E00696E73657274656420696E207488
:101F1000686973006D6174657269616C20796F75B1
:101F20002068617665004E6578742C2073656C6559
:101F30006374207468650031362F32310052454198
:101F400044590066726F6D206E6F7A7A6C652E2E22
:101F50002E006D6174657269616C206578697473B7
:101F6000005075736820627574746F6E20776865B1
:101F70006E0031352F323100434F4E54494E554596
:101F8000004C6F6164696E67206D61746572696190
:101F90006C2E2E2E0031342F32310061626F766547
:101FA00020746865206172726F772E00796F757288
:101FB00020556C74696D616B6572322C0066726FAE
:101FC0006D207468652072656172206F6600496ECD
:101FD00073657274206E6577206D617465726961D6
:101FE0006C0031332F323100434F4E54494E55452A
:101FF000006D6174657269616C206C6F6164696EFB
:1020000067007072696E74686561642068656174E8
:10201000696E6720666F7200506C6561736520772A
:102020006169742C0031322F3231004D3834004751
:102030003120463132303030205831313020593162
:102040003000746F20696E73657274206D61746501
:102050007269616C2E00746865206E6578742073F7
:1020600074657020697300746865206275696C64BA
:10207000706C617465004E6F7720746861742077AE
:1020800065206C6576656C65640031312F323100F6
:10209000434F4E54494E5545007468652072696738
:1020A000687420636F726E65722E2E2E00526570FA
:1020B000656174207468697320666F720031302F17
:1020C000323100434F4E54494E554500444F4E4522
:1020D00000746865206C65667420636F726E65724B
:1020E0002E2E2E005265706561742074686973200D
:1020F000666F7200392F323100434F4E54494E55AE
:10210000450062697420726573697374616E6365FA
:102110002E00756E74696C20796F75206665656C2C
:102120002061006275696C64706C61746520616E19
:1021300064206E6F7A7A6C6500536C696465206107
:10214000207061706572206265747765656E003815
:102150002F323100434F4E54494E554500434F4EA8
:1021600054494E554500473120462569205A3000D4
:10217000473120462569205825692059256900479F
:102180003120462569205A350074686520627569DA
:102190006C64706C617465206C6576656C2E007083
:1021A0006170657220746F2066696E652D74756E3E
:1021B00065006E6F772075736520612073686565B3
:1021C00074206F660052657065617420746869736D
:1021D00020737465702C2062757400372F323100C3
:1021E000434F4E54494E55450066726F6D207468DA
:1021F00065206275696C64706C6174652E0069732A
:102200002061206D696C6C696D6574657220617701
:1022100061790073637265772074696C6C207468EF
:1022200065206E6F7A7A6C65005475726E207269E3
:10223000676874206275696C64706C6174650036DF
:102240002F323100434F4E54494E554500473120FF
:10225000462569205A3000473120462569205825F7
:10226000692059256900473120462569205A3500E3
:1022700066726F6D20746865206275696C64706C3D
:102280006174652E0069732061206D696C6C696DE5
:102290006574657220617761790073637265772078
:1022A00074696C6C20746865206E6F7A7A6C650056
:1022B0005475726E206C656674206275696C64700A
:1022C0006C61746500352F323100434F4E54494ED6
:1022D000554500473120462569205A3000473120B6
:1022E000462569205825692059256900473120462F
:1022F0002569205A350066726F6D2074686520620A
:1023000075696C64706C6174652E0061206D696C18
:102310006C696D65746572206177617900756E74A2
:10232000696C20746865206E6F7A7A6C65206973B9
:1023300000526F74617465207468652062757474EE
:102340006F6E00342F323100434F4E54494E554585
:1023500000434F4E54494E554500473120462569AC
:10236000205A2569205825692059256900473238A7
:1023700020583020593000676F696E6720746F20D5
:10238000646F2074686174206E6F772E0061646AD8
:102390007573746D656E74732C207765206172653A
:1023A000007765206E65656420746F20646F20730C
:1023B0006F6D65004166746572207472616E737032
:1023C0006F72746174696F6E00332F323100434F46
:1023D0004E54494E554500473120462569205A251F
:1023E0006900473238205A30006120666972737480
:1023F0002072756E2077697A6172642E0077616C45
:102400006B20796F75207468726F756768006669F4
:1024100072737420737461727475702049207769C7
:102420006C6C004265636175736520746869732024
:1024300069732074686500322F323100434F4E5467
:10244000494E554500627574746F6E20746F206339
:102450006F6E74696E756500556C74696D616B653E
:102460007221205072657373207468650073746103
:1024700072747570206F6620796F75720057656C85
:10248000636F6D6520746F20746865206669727370
:102490007400312F323100434F4E54494E554500A0
:1024A0004300432F00436C69636B20746F20726597
:1024B0007475726E004275696C64706C617465202D
:1024C00074656D702E3A003F3F3F00466163746F44
:1024D00072792072657365740052756E74696D65EA
:1024E0002073746174730056657273696F6E004D6A
:1024F0006F74696F6E2073657474696E67730052D0
:10250000657472616374696F6E2073657474696E4B
:102510006773005365742066616E2073706565642F
:10252000004D6F7665206D6174657269616C00495C
:102530006E73657274206D6174657269616C0052AE
:1025400061697365206275696C64706C61746500A3
:102550004C6F776572206275696C64706C6174652C
:1025600000486F6D65206865616400486561747539
:1025700070206275696C64706C6174650048656197
:10258000747570206E6F7A7A6C65004C45442073C8
:10259000657474696E6773003C2052455455524E01
:1025A0000056657273696F6E3A5F31352E303400B4
:1025B00025004300432F004300432F0025003F3FE9
:1025C0003F0020476C6F77207768656E20646F6EE0
:1025D0006500204F6E207768696C65207072696EA7
:1025E00074696E670020416C77617973204F66666D
:1025F0000020416C77617973204F6E0042726967E9
:1026000068746E657373003C2052455455524E00F9
:10261000250025004272696768746E657373004C0B
:102620004544004300432F00436C69636B20746F83
:102630002072657475726E004E6F7A7A6C652074C4
:10264000656D70657261747572653A004732382045
:102650005830205930004300432F00436C69636BAE
:1026600020746F2072657475726E00526F7461749D
:102670006520746F2065787472756465004E6F7A9A
:102680007A6C652074656D70657261747572653AF7
:10269000003F3F3F00526574726163742073706540
:1026A00065640052657472616374206C656E677452
:1026B00068003C2052455455524E006D6D2F736595
:1026C00063006D6D006D6D2F7365630052657472EC
:1026D000616374207370656564006D6D005265748C
:1026E00072616374206C656E677468005245545261
:1026F000414354494F4E003F3F3F0043757272655E
:102700006E7420450043757272656E74205A0043E2
:10271000757272656E7420582F59004D6178207360
:1027200070656564205A004D61782073706565643A
:102730002059004D617820737065656420580058F9
:102740002F59204A65726B00416363656C65726145
:1027500074696F6E003C2052455455524E006D41D5
:10276000006D41006D41006D6D2F736563006D6DEF
:102770002F736563006D6D2F736563006D6D2F732F
:102780006563006D6D2F7365635E32006D410043BC
:10279000757272656E742045006D410043757272EA
:1027A000656E74205A006D410043757272656E74D7
:1027B00020582F59006D6D2F736563004D6178208F
:1027C0007370656564205A006D6D2F736563004DED
:1027D00061782073706565642059006D6D2F736595
:1027E00063004D61782073706565642058006D6DDD
:1027F0002F73656300582F59204A65726B00303083
:102800006D6D2F7365635E3200416363656C657245
:102810006174696F6E004D4F54494F4E005665729A
:1028200073696F6E3A5F31352E303400417072201B
:10283000313620323031352031323A33363A333581
:102840000052657475726E006D00204D61743A001F
:102850003A005072696E74696E673A003A004D61D1
:102860006368696E65206F6E20666F723A0052650C
:102870007475726E00746F2064656661756C743F68
:102880000052657365742065766572797468696E47
:102890006700594553004E4F00250046616E207376
:1028A00070656564004731204625692058256920F8
:1028B00059256900473238205830205930004731B7
:1028C000205A343000473238205A300047323820FE
:1028D0005A30004732382058302059300041445691
:1028E000414E434544004255494C442D7C504C4197
:1028F000544500414456414E4345440052455455C9
:10290000524E0055504554005550455400555045C1
:10291000540041425300504C41006D61746572692E
:10292000616C20696E73657274696F6E00486561D1
:1029300074696E67207072696E7468656164206680
:102940006F7200250046616E3A2000430043002567
:1029500000466C6F773A006D6D004D415445524909
:10296000414C00636F6D6573206F757420746865EA
:10297000206E6F7A7A6C6500576169742074696C97
:102980006C206D6174657269616C005245414459F7
:102990000043414E43454C00466F72776172646953
:1029A0006E67206D6174657269616C0061626F763B
:1029B0006520746865206172726F772E00796F757B
:1029C00072206D616368696E652C0066726F6D20A0
:1029D000746865206261636B73696465206F66006B
:1029E000496E73657274206E6577206D61746572CF
:1029F00069616C0052454144590043414E43454C86
:102A00000052656D6F7665206D6174657269616CE9
:102A10000052454144590043414E43454C005265E4
:102A200076657273696E67206D6174657269616C39
:102A300000666F72206D6174657269616C207265E9
:102A40006D6F76616C0048656174696E67207072A5
:102A5000696E7468656164004732382058302059C7
:102A60003000496D706F72742066726F6D20534430
:102A7000004578706F727420746F20534400437562
:102A800073746F6D697A65003C2052455455524EFF
:102A9000004C6F61647320616C6C206D61746572B1
:102AA00069616C7300536176657320616C6C206D95
:102AB0006174657269616C73004D6F646966792039
:102AC0007468652073657474696E677300250046C9
:102AD000616E3A2000430043002500466C6F773A50
:102AE000006D6D003F3F3F0053746F72652061734E
:102AF0002070726573657400466C6F772025004600
:102B0000616E004469616D65746572004865617449
:102B10006564206275696C64706C617465005465ED
:102B20006D7065726174757265003C205245545534
:102B3000524E00250025006D6D00430043004E6598
:102B40007720707265736574003C2052455455526D
:102B50004E00505245534554530025004D61746555
:102B60007269616C20666C6F7700250046616E208B
:102B70007370656564006D6D004D617465726961A7
:102B80006C204469616D657465720043004275692B
:102B90006C64706C6174652054656D702E00430028
:102BA00054656D7065726174757265004D41544570
:102BB0005249414C00696E204D4154455249414CA7
:102BC0002E54585400746F20746865205344206359
:102BD000617264005361766564206D617465726929
:102BE000616C73004F6B000A0A006469616D657463
:102BF00065723D000A00666C6F773D000A006661F1
:102C00006E5F73706565643D000A006265645F74A1
:102C1000656D70657261747572653D000A0074655A
:102C20006D70657261747572653D000A006E616D4C
:102C3000653D005B6D6174657269616C5D0A00528F
:102C4000656164696E6720636172642E2E2E005088
:102C50006C6561736520696E73657274206361725F
:102C600064004E6F2053442D43415244210066724C
:102C70006F6D207468652053442063617264004C5A
:102C80006F61646564206D6174657269616C730065
:102C90004F6B006469616D6574657200666C6F7777
:102CA0000066616E5F7370656564006265645F7481
:102CB000656D70657261747572650074656D7065BF
:102CC000726174757265006E616D65005B6D617433
:102CD000657269616C5D00466F756E64206F6E2071
:102CE000636172642E004E6F206578706F7274207D
:102CF00066696C650052656164696E672063617224
:102D0000642E2E2E00506C6561736520696E7365AC
:102D100072742063617264004E6F2053442D4341EE
:102D20005244210053656C6563746564206D617461
:102D3000657269616C3A004F4B004D4154455249F0
:102D4000414C0047312046256920582569205925E6
:102D50006900473238205830205930004348414EEE
:102D600047450053455454494E4753005245545526
:102D7000524E004300432F00436C69636B20746F15
:102D80002072657475726E004E6F7A7A6C6520746D
:102D9000656D70657261747572653A005072657028
:102DA0006172696E6720746F207072696E743A0088
:102DB00048656174696E672075702E2E2E0054551B
:102DC0004E450041424F5254004C454420427269E6
:102DD0006768746E657373005265747261637469B9
:102DE0006F6E004D6174657269616C20666C6F77FF
:102DF0000046616E207370656564004275696C649D
:102E0000706C6174652074656D702E0054656D7012
:102E10006572617475726500537065656400416226
:102E20006F7274003C2052455455524E00250025C7
:102E30000025004300430043004300250041626F2A
:102E4000727420746865207072696E743F00594511
:102E500053004E4F003F3F3F0052657472616374F0
:102E60002073706565640052657472616374206CD0
:102E7000656E677468003C2052455455524E006D93
:102E80006D2F736563006D6D006D6D2F736563004D
:102E900052657472616374207370656564006D6D52
:102EA0000052657472616374206C656E67746800AB
:102EB00052455452414354494F4E002500427269D5
:102EC0006768746E6573730025004D61746572697F
:102ED000616C20666C6F7700250046616E20737010
:102EE0006565640025005072696E742073706565B5
:102EF000640054554E450054696D65206C656674D8
:102F00000054696D65206C65667420756E6B6E6F1C
:102F1000776E004300430048656174696E67206204
:102F200075696C64706C61746500430043004865AA
:102F30006174696E67005072696E74696E673A00F9
:102F400054554E4500504155534500524553554D3B
:102F5000457C5052494E54004348414E47457C4DB4
:102F60004154455249414C0054554E45004D38346A
:102F70000047323800473238205A30004732382074
:102F8000583020593000473120462569204530000F
:102F900047393220452569004D343031004D3630F7
:102FA000312058313020593230205A30204C3230C4
:102FB000004D3630312058313020593230205A32CD
:102FC000204C3230004D36303120583130205932CB
:102FD00030205A3230204C323000746865207072D4
:102FE000696E742E00596F752063616E2072656D75
:102FF0006F7665005072696E742066696E697368D9
:103000006564004241434B20544F204D454E5500CE
:1030100043004320005072696E74657220636F6FC5
:103020006C696E6720646F776E004241434B205499
:103030004F204D454E5500436F64653A0053442D73
:1030400063617264210072656164696E6700457234
:10305000726F72207768696C650052455455524E04
:1030600020544F204D41494E0066726F6D207468A8
:103070006520736C696365722E0073657474696E84
:103080006720776974682073657474696E67006F70
:1030900076657272696465206D616368696E65004A
:1030A000546869732066696C652077696C6C0043AD
:1030B0004F4E54494E55450043414E43454C003C0C
:1030C000204241434B003C2052455455524E005340
:1030D00044204341524400473120463132303030A1
:1030E0002058352059313000473238003B464C419A
:1030F000564F523A556C746947436F6465003B46BE
:103100004C41564F523A556C746947436F646500A1
:103110004E6F2066696C657320666F756E64210062
:103120004F4B004F4B0052656164696E67206361CD
:1031300072642E2E2E00506C6561736520696E736B
:103140006572742063617264004E6F2053442D4396
:1031500041524421004E6F20696E666F2061766196
:10316000696C61626C65006D006D004D6174657223
:1031700069616C3A200054696D653A20003B4D410D
:1031800054455249414C3A003B54494D453A00465A
:103190006F6C646572004E414E494E495459494E18
:1031A00046CDCCCC3D0AD7233C17B7D13877CC2BB2
:1031B000329595E6241FB14F0A000020410000C857
:1031C0004200401C4620BCBE4CCA1B0E5AAEC59DD8
:1031D00074000C942AA60C9476950C94CAA60C94B0
:1031E0004AB90C94CE1B0C94FCBF0C945CCA0C9492
:1031F000961B0C94EEBC0C943DB30C9436A70C9427
:10320000F3900C9446960C94B7BA0C9441B80C9475
:10321000F1900C947F950C9484B90C94FB1B0C9446
:10322000B8B80C9437BE0C9410CC0C947FAF0C94AF
:10323000F5900C94EDA70C94E9AB0C94EB900C94E6
:103240009AB90C94A0900C9427C00C94F9900C940B
:10325000B01B0C94BA1B0C944ECB0C94A01B0C947A
:10326000BABE0C944AA60C94B8A80C94051C0C94F5
:1032700019930C94C6B40C945F1E0C94671C0C94A8
:103280007DAA0C94D3AC0C9473950C940F1C0C94E5
:103290003E1C0C9400A60C9483AD0C94DE900C9410
:1032A00034A80C9420C10C9487A60C94821B0C9417
:1032B000ACB90C94E2B60C94541C0C9478B40C94F5
:1032C00075BB0C947BD10C94F0AA0C9411A90C94AE
:1032D000F7900C9497900C94E1D00C94ED900C9492
:1032E0008D950C94501C0C9454AC0C94D9C30C9434
:1032F00003910C94CC900C94341C0C94A7900C94D7
:103300003CC80C9476C20C940AAF0C945A1C0C94D2
:1033100082950C94AC990C9458A50C94FD900C9447
:10332000C8C30C94E9900C947ECD0C94A1B20C947B
:1033300073AD0C94AE460C94AEB40C942D1C0C944E
:10334000C2D30C94FF900C943DCA0C940EBE0C9406
:103350003BAF0C941BC90C94B2B00C94231C0C947E
:103360004C1C0C9495AF0C9497A50C9429BA0C9412
:10337000A7B70C949DAD0C9417C90C9405910C94AF
:103380008ED20C9458C90C94C41B0C949DAE0C9412
:1033900079900C94BE900C9468C00C947C950C941D
:1033A000621C0C94E6C90C9465B90C94F5BC0C94A1
:1033B00088950C9409910C9412CE0C944BB90C94F2
:1033C00013A50C94A2BD0C945D900C94E7900C9402
:1033D000DBC70C9442BD0C9480900C94C5900C9467
:1033E0002CD10C9401910C942EBF0C94381C0C948D
:1033F000B0900C9455D00C9461AF0C94F3AB0C943A
:10340000271C0C947CB10C9419A50C946B900C9413
:10341000E4AD0C94871B0C940BD60C94EF900C9499
:103420007CB00C9415B20C947BA80C94C7A90C9496
:10343000B7900C94301C0C945A900C942BAE0C94B6
:1034400079950C9453C50C94DFBA0C94F9D00C9474
:1034500051D30C94A81B0C94FB900C94A2A70C9431
:103460008F900C94421C0C94461C0C9421C60C9416
:103470001AB50C940BD40C9485950C9407920C946B
:103480005E1C0C94AEB20C949CD30C9492540C948D
:10349000D0BF0C94E71B0C948BD40C949D460C94D9
:1034A0008C1B0C94DCAE0C9472900C9464900C9475
:1034B000C6920C94F11B0C9458AB0C94DD1B0C942D
:1034C000D6A50C94D5900C9485D10C943CAD0C945D
:1034D000C4BA0C9469B80C9414CA0C9487909D4695
:1034E000AE4611241FBECFEFD1E2DEBFCDBF00E05C
:1034F0000CBF14E0A0E0B2E0E4E6FEEC01E00BBF9C
:1035000002C007900D92A232B107D9F71AE1A2E2E8
:10351000B4E001C01D92A334B107E1F714E3C0EE9B
:10352000D4E300E006C022970109FE010BBF0E9410
:1035300004E0CE3DD10780E00807A9F70E94CADA6F
:103540000C9420E70C9400001F920F920FB60F927C
:1035500011242F933F938F939F93AF93BF938091A9
:10356000230490912404A0912504B0912604309165
:10357000220423E0230F2D3720F40196A11DB11D55
:1035800005C026E8230F0296A11DB11D2093220439
:103590008093230490932404A0932504B0932604DD
:1035A0008091270490912804A0912904B0912A04C5
:1035B0000196A11DB11D8093270490932804A09328
:1035C0002904B0932A04BF91AF919F918F913F91AD
:1035D0002F910F900FBE0F901F9018952FB7F89452
:1035E0006091230470912404809125049091260415
:1035F0002FBF0895789484B5826084BD84B58160BE
:1036000084BD85B5826085BD85B5816085BDEEE6EA
:10361000F0E0808181608083E1E8F0E010828081C9
:1036200082608083808181608083E0E8F0E0808137
:1036300081608083E1EBF0E0808184608083E0EB57
:10364000F0E0808181608083E1E9F0E08081826048
:103650008083808181608083E0E9F0E08081816007
:103660008083E1EAF0E080818260808380818160F4
:103670008083E0EAF0E0808181608083E1E2F1E034
:10368000808182608083808181608083E0E2F1E0DC
:10369000808181608083EAE7F0E0808184608083BC
:1036A0008081826080838081816080838081806866
:1036B00080831092C10008951F93CF93DF93182F3A
:1036C000EB0161E00E94681C209711F460E004C0E7
:1036D000CF3FD10539F461E0812FDF91CF911F9168
:1036E0000C94A11CE12FF0E0EB52FE4F449150E00E
:1036F000FA013197E131F10508F091C0EE58FF4F22
:103700000C94DBDF84B5806884BDC7BD8DC084B5F3
:10371000806284BDC8BD88C080918000806880932D
:103720008000D0938900C09388007EC08091800083
:10373000806280938000D0938B00C0938A0074C015
:103740008091B00080688093B000C093B3006CC0DB
:103750008091B00080628093B000C093B40064C0D8
:1037600080919000806880939000D0939900C093DE
:1037700098005AC080919000806280939000D0930E
:103780009B00C0939A0050C0809190008860809305
:103790009000D0939D00C0939C0046C08091A000F3
:1037A00080688093A0008091A0008F7B8093A00010
:1037B000D093A900C093A80037C08091A000806278
:1037C0008093A000D093AB00C093AA002DC080913D
:1037D000A00088608093A000D093AD00C093AC009F
:1037E00023C080912001806880932001D09329011B
:1037F000C093280119C0809120018062809320012C
:10380000D0932B01C0932A010FC0809120018860C2
:1038100080932001D0932D01C0932C0105C0C038A6
:10382000D1050CF058CF52CFDF91CF911F91089561
:1038300090E0FC013197E131F10508F048C0ED5707
:10384000FF4F0C94DBDF809180008F7703C0809165
:1038500080008F7D80938000089584B58F7702C0AB
:1038600084B58F7D84BD08958091B0008F7703C0AB
:103870008091B0008F7D8093B0000895809190007A
:103880008F7707C0809190008F7D03C0809190005A
:10389000877F8093900008958091A0008F7707C064
:1038A0008091A0008F7D03C08091A000877F8093CE
:1038B000A0000895809120018F7707C0809120019A
:1038C0008F7D03C080912001877F80932001089520
:1038D000CF93DF9390E0FC01E55EFD4F2491FC0166
:1038E000EF59FD4F8491882349F190E0880F991F8B
:1038F000FC01EF53FD4FA591B49189559D4FFC01FB
:10390000C591D4919FB7611108C0F8948C9120950E
:1039100082238C93888182230AC0623051F4F89408
:103920008C91322F309583238C938881822B8883CE
:1039300004C0F8948C91822B8C939FBFDF91CF9120
:1039400008950F931F93CF93DF931F92CDB7DEB7E8
:10395000282F30E0F901EB52FE4F8491F901E55E2A
:10396000FD4F1491F901EF59FD4F04910023C9F067
:10397000882321F069830E94181C6981E02FF0E000
:10398000EE0FFF1FE955FD4FA591B4919FB7F89435
:103990008C91611103C01095812301C0812B8C9300
:1039A0009FBF0F90DF91CF911F910F9108951F92AC
:1039B0000F920FB60F9211240BB60F922F933F93D5
:1039C0004F935F936F937F938F939F93AF93BF9327
:1039D000EF93FF9380912F0490913004892B29F06D
:1039E000E0912F04F09130041995FF91EF91BF9170
:1039F000AF919F918F917F916F915F914F913F9187
:103A00002F910F900BBE0F900FBE0F901F90189527
:103A10001F920F920FB60F9211240BB60F922F9395
:103A20003F934F935F936F937F938F939F93AF9346
:103A3000BF93EF93FF938091310490913204892BCF
:103A400029F0E0913104F09132041995FF91EF9142
:103A5000BF91AF919F918F917F916F915F914F91A6
:103A60003F912F910F900BBE0F900FBE0F901F90A4
:103A700018951F920F920FB60F9211240BB60F924A
:103A80002F933F934F935F936F937F938F939F9366
:103A9000AF93BF93EF93FF938091330490913404DD
:103AA000892B29F0E0913304F09134041995FF91AA
:103AB000EF91BF91AF919F918F917F916F915F91A6
:103AC0004F913F912F910F900BBE0F900FBE0F9013
:103AD0001F9018951F920F920FB60F9211240BB6DC
:103AE0000F922F933F934F935F936F937F938F9397
:103AF0009F93AF93BF93EF93FF9380913504909181
:103B00003604892B29F0E0913504F091360419959B
:103B1000FF91EF91BF91AF919F918F917F916F91A5
:103B20005F914F913F912F910F900BBE0F900FBE61
:103B30000F901F9018951F920F920FB60F9211249D
:103B40000BB60F922F933F934F935F936F937F9397
:103B50008F939F93AF93BF93EF93FF9380912B0429
:103B600090912C04892B29F0E0912B04F0912C04E6
:103B70001995FF91EF91BF91AF919F918F917F9197
:103B80006F915F914F913F912F910F900BBE0F90CE
:103B90000FBE0F901F9018951F920F920FB60F92A5
:103BA00011240BB60F922F933F934F935F936F9314
:103BB0007F938F939F93AF93BF93EF93FF938091E6
:103BC0002D0490912E04892B29F0E0912D04F09181
:103BD0002E041995FF91EF91BF91AF919F918F9115
:103BE0007F916F915F914F913F912F910F900BBEFD
:103BF0000F900FBE0F901F9018951F920F920FB647
:103C00000F9211240BB60F922F933F934F935F9314
:103C10006F937F938F939F93AF93BF93EF93FF9394
:103C20008091370490913804892B29F0E091370472
:103C3000F09138041995FF91EF91BF91AF919F9149
:103C40008F917F916F915F914F913F912F910F9045
:103C50000BBE0F900FBE0F901F9018951F920F92E2
:103C60000FB60F9211240BB60F922F933F934F93E1
:103C70005F936F937F938F939F93AF93BF93EF93D4
:103C8000FF938091390490913A04892B29F0E091B7
:103C90003904F0913A041995FF91EF91BF91AF91DA
:103CA0009F918F917F916F915F914F913F912F9154
:103CB0000F900BBE0F900FBE0F901F901895CF92D4
:103CC000DF92EF92FF920F931F93CF93DF936C01DC
:103CD0007A01EB01E60EF71E00E010E0CE15DF05DD
:103CE00061F06991D601ED91FC910190F081E02D98
:103CF000C6011995080F191FF1CFC801DF91CF91A7
:103D00001F910F91FF90EF90DF90CF900895FC01ED
:103D1000659175918591949108950F931F93CF9319
:103D2000DF93EC01CC0FDD1FCC0FDD1FCE01895ED0
:103D3000974F0E94871E8E010D58154FFE01E959BD
:103D4000F54F20813181428153810E94D8DAF801F8
:103D50006083718382839383CE01815D974F0E943C
:103D6000871EFE01E55AF54F60837183828393833A
:103D7000CE018D5D974F0E94871ECC5DDD4F68831D
:103D800079838A839B83DF91CF911F910F9108954F
:103D9000FC012491222341F03091C00035FFFCCF7B
:103DA0002093C6000196F4CF22E030E086E89CE044
:103DB0000C94E348FC012491222341F03091C0008F
:103DC00035FFFCCF2093C6000196F4CF2AE030E007
:103DD00086E89CE00C943248CF93DF931F921F92A9
:103DE000CDB7DEB780913D1A90913E1A9E012F5FAC
:103DF0003F4F009719F423543A4102C0281B390B56
:103E00003A83298389819A810F900F90DF91CF9116
:103E100008958091570490915804181619069CF43F
:103E200080915B0490915C04019668E070E00E94D0
:103E300086DF90935A048093590481E090E0909338
:103E400058048093570408952091570430915804E2
:103E5000283031050CF06AC04091590450915A0441
:103E600060E6649F9001659F300D1124BC01C9017B
:103E70008B599B4F0E94B8E3EBE3F8E084918823D1
:103E800041F09091C00095FFFCCF8093C600319621
:103E9000F5CFE1EFF7E08491882341F09091C000E5
:103EA00095FFFCCF8093C6003196F5CF80915904E1
:103EB00090915A0420E6289FF001299FF00D1124CB
:103EC000EB59FB4F8191882339F09091C00095FF09
:103ED000FCCF8093C600F6CFEFEEF7E08491882305
:103EE00041F09091C00095FFFCCF8093C6003196C1
:103EF000F5CF8091C00085FFFCCF8AE08093C6009B
:103F00008091590490915A04019668E070E00E94F3
:103F100086DF90935A0480935904809157049091BE
:103F20005804019690935804809357040895209163
:103F3000570430915804283031050CF06AC0409184
:103F4000590450915A0460E6649F9001659F300DBA
:103F50001124BC01C9018B599B4F0E942DE3EBE357
:103F6000F8E08491882341F09091C00095FFFCCF48
:103F70008093C6003196F5CFE4EEF7E08491882374
:103F800041F09091C00095FFFCCF8093C600319620
:103F9000F5CF8091590490915A0420E6289FF001B2
:103FA000299FF00D1124EB59FB4F8191882339F0A3
:103FB0009091C00095FFFCCF8093C600F6CFE2EE53
:103FC000F7E08491882341F09091C00095FFFCCFE9
:103FD0008093C6003196F5CF8091C00085FFFCCF5D
:103FE0008AE08093C6008091590490915A0401960A
:103FF00068E070E00E9486DF90935A048093590431
:10400000809157049091580401969093580480939E
:104010005704089581E020915704309158041216F6
:1040200013060CF080E008958091570408950A9AD1
:10403000129A08950E94172040E950ED63E070E065
:1040400086E89CE00E94EB46ECEDF7E08491882343
:1040500041F09091C00095FFFCCF8093C60031964F
:10406000F5CF8091C00085FFFCCF8AE08093C60029
:104070008BE398E0FC012491222341F03091C000B1
:1040800035FFFCCF2093C6003196F5CF24B720FF33
:1040900014C0E4EDF7E03491332341F04091C000C7
:1040A00045FFFCCF3093C6003196F5CF3091C0006C
:1040B00035FFFCCF3AE03093C60021FF14C0E4EC9A
:1040C000F7E03491332341F04091C00045FFFCCF2D
:1040D0003093C6003196F5CF3091C00035FFFCCF4C
:1040E0003AE03093C60022FF14C0E3EBF7E03491CE
:1040F000332341F04091C00045FFFCCF3093C60010
:104100003196F5CF3091C00035FFFCCF3AE03093C7
:10411000C60023FF14C0E3EAF7E03491332341F0F3
:104120004091C00045FFFCCF3093C6003196F5CFDB
:104130003091C00035FFFCCF3AE03093C60025FF38
:1041400014C0E3E9F7E02491222341F03091C0004C
:1041500035FFFCCF2093C6003196F5CF2091C000EB
:1041600025FFFCCF2AE02093C60014BEEBE8F7E061
:104170002491222341F03091C00035FFFCCF2093E1
:10418000C6003196F5CFE5E8F7E02491222341F00F
:104190003091C00035FFFCCF2093C6003196F5CF9B
:1041A0002091C00025FFFCCF2AE02093C600FC012F
:1041B0002491EBE3F8E0222349F03091C00035FF71
:1041C000FCCF2093C60031962491F5CFE5E7F7E0C8
:1041D0002491222341F03091C00035FFFCCF209381
:1041E000C6003196F5CFE0E6F7E02491222341F0B6
:1041F0003091C00035FFFCCF2093C6003196F5CF3B
:10420000E4E5F7E02491222341F03091C00035FF2E
:10421000FCCF2093C6003196F5CFE5E4F7E024917A
:10422000222341F03091C00035FFFCCF2093C6001F
:104230003196F5CF2091C00025FFFCCF2AE02093D6
:10424000C600EAE3F7E02491222341F03091C00058
:1042500035FFFCCF2093C6003196F5CFEEE2F7E0B4
:104260002491222341F03091C00035FFFCCF2093F0
:10427000C6003196F5CF2091C00025FFFCCF2AE083
:104280002093C600FC018491EBE3F8E0882349F019
:104290009091C00095FFFCCF8093C6003196849129
:1042A000F5CFEFE1F7E08491882341F09091C000D1
:1042B00095FFFCCF8093C6003196F5CF0E94EC1E8F
:1042C0004AE050E0BC0186E89CE00E940348E8E038
:1042D000F7E08491882341F09091C00095FFFCCFD6
:1042E0008093C6003196F5CF4AE050E060ED74E06F
:1042F00086E89CE00E9403488091C00085FFFCCFC7
:104300008AE08093C600EDE5F4E0119284E0E536A2
:10431000F807D9F70E94C68E0E945FD80E94A67542
:104320000E941F600E94F48F0E9491730C94FA9473
:10433000809151049091520460E070E001960C94D9
:1043400008E080915104909152044AE050E060E00E
:1043500070E001960C9485E1682F70E020915B0479
:1043600030915C0440E6429FC001439F900D1124B0
:104370008B599B4F0E94ADE390935204809351045C
:1043800021E0892B09F420E0822F08950E94EE1A83
:1043900060934D0470934E0480934F0490935004A7
:1043A000E0915B04F0915C04E35AFB4F8081811142
:1043B00014C0E0E7F3E08491882341F09091C000BD
:1043C00095FFFCCF8093C6003196F5CF8091C00059
:1043D00085FFFCCF8AE08093C600089586E89CE0C4
:1043E0000E943D47E3E7F3E08491882341F09091F8
:1043F000C00095FFFCCF8093C6003196F5CF409169
:104400006A0750916B0760916C0770916D074F5F61
:104410005F4F6F4F7F4F2AE030E086E89CE00E94BC
:10442000DC478091C00085FFFCCF8AE08093C60006
:104430000C94C6212F923F924F925F926F927F927F
:104440008F929F92AF92BF92CF92DF92EF92FF92A4
:104450000F931F93CF93DF93CDB7DEB76F970FB650
:10446000F894DEBF0FBECDBF30E6D32E48E0E42E79
:10447000F12CEBECF5E0B4905AE0C52EE1E4F6E067
:10448000A490992493948091070D9091080D209108
:10449000090D30910A0D821B930B8F779927892B79
:1044A00009F453C2809157049091580408970CF076
:1044B0004CC286E89CE00E942147809356042091DC
:1044C0005404309155048A3061F08D3051F08A33B4
:1044D00021F490915304992321F02F3531050CF4E8
:1044E000B8C12115310509F4D2C1809159049091C8
:1044F0005A04D89E8001D99E100D1124F801E20FB4
:10450000F31FEB59FB4F10822091530421119CC1E2
:1045100010925304FC01E35AFB4F108298012B596F
:104520003B4F39016EE470E0C9010E94ADE3009792
:1045300009F4A2C0909352048093510486199709FC
:10454000800F911F4AE050E060E070E08A599B4F75
:104550000E9485E160936E0770936F0780937007E8
:104560009093710740906A0750906B0760906C07BA
:1045700070906D073FEF431A530A630A730A009164
:10458000590410915A04641575058605970509F4B8
:1045900081C1D09EC001D19E900D11246AEE76E0BB
:1045A0008B599B4F0E9472E3892B09F073C1E1E4A0
:1045B000F8E08491882341F09091C00095FFFCCFF2
:1045C0008093C6003196F5CFE7EBF6E0849188231F
:1045D00041F09091C00095FFFCCF8093C6003196CA
:1045E000F5CF40916A0750916B0760916C0770910D
:1045F0006D072AE030E086E89CE00E94DC4780916D
:10460000C00085FFFCCF32C09093520480935104C8
:1046100084199509860D971D60E070E08A599B4FBB
:104620000E9408E00E9420DC212F30E02617370787
:1046300009F45EC0E1E4F8E08491811176C1E8E913
:10464000F6E08491811179C140916A0750916B071E
:1046500060916C0770916D072AE030E086E89CE07D
:104660000E94DC478091C00085FFFCCF8AE08093E8
:10467000C6000E94EE2137C06AE270E0C3010E94CA
:10468000ADE3892B09F444C0E1E4F8E08491882388
:1046900041F09091C00095FFFCCF8093C600319609
:1046A000F5CFE4E4F6E08491882341F09091C000D6
:1046B00095FFFCCF8093C6003196F5CF40916A07F5
:1046C00050916B0760916C0770916D072AE030E0A4
:1046D00086E89CE00E94DC478091C00085FFFCCF0B
:1046E0008AE08093C6001092550410925404ECC2E4
:1046F00080916E0790916F07A0917007B09171073C
:1047000080936A0790936B07A0936C07B0936D0733
:104710008091590490915A04D89E8001D99E100D21
:104720001124C8018B599B4F3C0167E470E00E9443
:10473000ADE3009709F442C0909352048093510472
:1047400086199709800F911F60E070E08A599B4F8E
:104750000E9408E00E9420DC6430710578F58091A9
:104760003F04811117C08091890A811127C08A2DC9
:10477000E1E4F6E0882349F09091C00095FFFCCF7A
:104780008093C60031968491F5CF8091C00085FF5B
:10479000FCCF12C08B2DEBECF5E0882349F0909113
:1047A000C00095FFFCCF8093C60031968491F5CF71
:1047B0008091C00085FFFCCFC092C6008091590453
:1047C00090915A04D89E8001D99E100D1124D801D1
:1047D000AB59BB4F3D016DE470E0CD010E94ADE3EC
:1047E000909352048093510486199709800F911F6A
:1047F0004AE050E060E070E08A599B4F0E9485E1FA
:10480000693671058105910551F00E94EE1A609399
:104810001E1570931F15809320159093211580917C
:10482000590490915A040196B7010E9486DF909333
:104830005A0480935904809157049091580401962A
:104840009093580480935704109255041092540486
:104850001ACE8B3311F4909253049091530491111A
:1048600012CE4091590450915A04B9016F5F7F4FA5
:104870007093550460935404D49EF001D59EF00DBE
:104880001124E20FF31FEB59FB4F8083FCCD1092F4
:1048900053041AC2D09E3001D19E700C1124930192
:1048A0002B593B4F29016AE270E0C9010E94ADE338
:1048B000009769F5E1E4F8E08491882341F0909154
:1048C000C00095FFFCCF8093C6003196F5CFEEE691
:1048D000F6E08491882341F09091C00095FFFCCFD1
:1048E0008093C6003196F5CF40916A0750916B07CF
:1048F00060916C0770916D072AE030E086E89CE0DB
:104900000E94DC478091C00085FFFCCFAFCE20E045
:1049100010E0F301E20FF11DEB59FB4F30813A3209
:1049200009F472CE2F5F1327F4CF9091C00095FF4A
:10493000FCCF8093C60031967FCE9091C00095FF4A
:10494000FCCF8093C60031967CCE80918B0A882361
:1049500009F4BAC18091540490915504892BC1F097
:104960000E94EE1A00911E1510911F15209120151E
:1049700030912115601B710B820B930B68387341CA
:104980008105910508F4A0C11092550410925404B9
:1049900080918C0A811198C1E8EBF5E024912F8F6A
:1049A0001AE09CE3C92ED12CE12CF12C20E1422EFF
:1049B0002EE0522E612C712CCE0101961C01EBE3EE
:1049C000F8E0049140917C0C50917D0C60917E0C3C
:1049D00070917F0C8091740C9091750CA091760C65
:1049E000B091770C481759076A077B0708F06CC12C
:1049F000809157049091580408970CF065C18091FC
:104A0000610C9091620CA091630CB091640C809346
:104A10007C0C90937D0CA0937E0CB0937F0C89E569
:104A20009CE00E943A4E2091330C2223B9F18091F0
:104A30008D0A811105C089E89AE00E94168253CE42
:104A40001092330C109255041092540440913B0480
:104A500050913C0460913D0470913E048091740C2F
:104A60009091750CA091760CB091770C9250A109A1
:104A7000B10984179507A607B70718F410928B0A97
:104A800023C140937C0C50937D0C60937E0C7093FB
:104A90007F0C89E59CE00E94064F16C1482F809349
:104AA00056048A30A1F08D3091F08A3321F42091A0
:104AB0005304222361F020915404309155042F3582
:104AC00031052CF48F3FAFEF9A0709F0C9C08090F1
:104AD0007C0C90907D0CA0907E0CB0907F0C40914F
:104AE000740C5091750C6091760C7091770C841653
:104AF0009506A606B70608F0D3C0019609F06AC06D
:104B0000CFC09091C00095FFFCCF8093C600319636
:104B100084918111F6CF8091C00085FFFCCF109366
:104B2000C6000E94EE1A6093410470934204809381
:104B30004304909344048090450490904604A090D0
:104B40004704B0904804681979098A099B0928EE3E
:104B500033E040E050E00E949ADF49015A01CA0167
:104B6000B901A70196010E949ADFCA01B901A70104
:104B700096010E949ADF7F936F93C501B401A30150
:104B800092010E949ADF3F932F93A4EAB5E0BF936E
:104B9000AF933F922F920E9404E4802F0FB6F894B7
:104BA000DEBF0FBECDBFEBE3F8E081117DC0F101A8
:104BB0008191811182C08091C00085FFFCCF10934C
:104BC000C60089E89AE00E94F88861E089E89AE0E6
:104BD0000E943A86209154043091550421153105E4
:104BE00009F455CE8091590490915A0440E6489FAB
:104BF000F001499FF00D1124E20FF31FEB59FB4F19
:104C00001082FC01E35AFB4F21E0208320915704DE
:104C1000309158042F5F3F4F30935804209357042E
:104C2000019668E070E00E9486DF90935A048093BA
:104C30005904109253041092550410925404809118
:104C40007C0C90917D0CA0917E0CB0917F0C809398
:104C50003B0490933C04A0933D04B0933E04B2CE39
:104C60004B3319F441E040935304409153044111F4
:104C7000A9CE4091590450915A04B9016F5F7F4FFA
:104C8000709355046093540490E6949FF001959FAF
:104C9000F00D1124E20FF31FEB59FB4F808392CEEE
:104CA0008F8DE8EBF5E035CF9091C00095FFFCCFFC
:104CB0008093C6003196849178CF9091C00095FF83
:104CC000FCCF8093C60074CF6F960FB6F894DEBF0A
:104CD0000FBECDBFDF91CF911F910F91FF90EF904D
:104CE000DF90CF90BF90AF909F908F907F906F900C
:104CF0005F904F903F902F9008954F925F926F92E8
:104D00007F928F929F92AF92BF92CF92DF92EF925B
:104D1000FF920F931F93CF93DF9300D01F92CDB7D5
:104D2000DEB719821A821B821C8262EAA62E63E019
:104D3000B62E73E7C72E7AE0D72EE6E8EE2EE7E030
:104D4000FE2E00E010E099249394F50181915F011B
:104D50000E94AC21882369F10E9498212B013C011B
:104D6000F801EB57F54F8081811103C06091650711
:104D700001C061E070E080E090E00E9453DCF60149
:104D800020813181428153810E9486DE9B01AC01EA
:104D9000C301B2010E94D8DAF70160837183828374
:104DA0009383E1E0F0E0EC0FFD1FE00FF11F908234
:104DB0000AC0F60180819181A281B381F7018083CD
:104DC0009183A283B3830F5F1F4FF4E0CF0ED11CFA
:104DD00084E0E80EF11C0430110509F0B6CF86E43A
:104DE0000E94AC218823D9F00E9498216B017C019C
:104DF000609376077093770780937807909379078D
:104E000020E030E0A9010E94B4DD181644F4C092FD
:104E10000E02D0920F02E0921002F09211028091E5
:104E20009C07882309F4BCC089818111B9C08A819B
:104E30008111B6C08B818111B3C08C81882309F4A4
:104E4000AFC080907F0A9090800AA090810AB090B5
:104E5000820AA50194016091920770919307809155
:104E60009407909195070E94D7DA6B017C012DEC95
:104E70003CEC4CEC5DEB0E94B1DB87FF4DC08091B8
:104E80009B0781118DC0209117023091180240912B
:104E9000190250911A0260918E0770918F078091CC
:104EA0009007909191070E94D8DA60938E077093D3
:104EB0008F078093900790939107C701B601905890
:104EC00020911F0230912002409121025091220234
:104ED0000E94D7DA9B01AC01C501B4010E94D7DA68
:104EE00060937F0A7093800A8093810A9093820A6C
:104EF00080911B0290911C02A0911D02B0911E0294
:104F000080930E0290930F02A0931002B0931102AF
:104F100081E080939B0744C02DEC3CEC4CEC5DE3BE
:104F2000C701B6010E94B4DD1816D4F580919B0725
:104F30008823B1F1A701960160911F0270912002B0
:104F400080912102909122020E94D7DA2091970746
:104F5000309198074091990750919A070E94D8DAAA
:104F60009B01AC01C501B4010E94D8DA60937F0AAD
:104F70007093800A8093810A9093820A8091130231
:104F800090911402A0911502B091160280930E0226
:104F900090930F02A0931002B093110210929B07FE
:104FA0000F900F900F900F90DF91CF911F910F9165
:104FB000FF90EF90DF90CF90BF90AF909F908F9039
:104FC0007F906F905F904F9008950E947D2689E4B6
:104FD0000E94AC21882359F00E94982160937A079F
:104FE00070937B0780937C0790937D0708C0109295
:104FF0007A0710927B0710927C0710927D078AE453
:105000000E94AC21882359F00E94982160937E076A
:1050100070937F0780938007909381070895109283
:105020007E0710927F0710928007109281070895E3
:10503000CF92DF92EF92FF92CF93DF93EC01C0907B
:105040005B0AD0905C0AE0905D0AF0905E0AA701CE
:105050009601688179818A819B810E94B1DB87FFFB
:1050600004C0C882D982EA82FB82C0905F0AD090D5
:10507000600AE090610AF090620AA70196016C81D3
:105080007D818E819F810E94B1DB87FF04C0CC822D
:10509000DD82EE82FF82C090630AD090640AE090C5
:1050A000650AF090660AA7019601688579858A8568
:1050B0009B850E94B1DB87FF04C0C886D986EA863B
:1050C000FB86C0902402D0902502E0902602F0904A
:1050D0002702A7019601688179818A819B810E94BC
:1050E000B4DD181624F4C882D982EA82FB82C0900B
:1050F0002802D0902902E0902A02F0902B02A7010A
:1051000096016C817D818E819F810E94B4DD18168D
:1051100024F4CC82DD82EE82FF82C0902C02D090FB
:105120002D02E0902E02F0902F02A70196016885D3
:1051300079858A859B850E94B4DD181624F4C8867B
:10514000D986EA86FB86DF91CF91FF90EF90DF90C2
:10515000CF900895CF92DF92EF92FF920F931F931B
:1051600086E897E00E9418280E94EE1A60934D048A
:1051700070934E0480934F049093500420918607BF
:105180003091870740918807509189076091730A91
:105190007091740A8091750A9091760A0E94B1DB31
:1051A000811179C020918A0730918B0740918C073B
:1051B00050918D076091770A7091780A8091790AF1
:1051C00090917A0A0E94B1DB811165C020E030E045
:1051D00040E752E460910E0270910F02809110023C
:1051E000909111020E94B8DBFAE5CF2EFAE0DF2E93
:1051F0007B018C0122E937E04EE857E06AE877E06E
:1052000086E897E00E94B6608091860790918707B4
:10521000A0918807B09189078093730A9093740ACC
:10522000A093750AB093760A80918A0790918B07B4
:10523000A0918C07B0918D078093770A9093780A9C
:10524000A093790AB0937A0A80918E0790918F0784
:10525000A0919007B091910780937B0A90937C0A6C
:10526000A0937D0AB0937E0A809192079091930754
:10527000A0919407B091950780937F0A9093800A3C
:10528000A093810AB093820A1F910F91FF90EF9033
:10529000DF90CF9008956091320270913302882799
:1052A00077FD8095982F0E9453DC20910E0230915B
:1052B0000F0240911002509111020E9486DE20E000
:1052C00030E040E752E40E94B8DB20E030E048ECF8
:1052D00052E488CFAF92BF92CF92DF92EF92FF92CB
:1052E0000F931F93CF93DF93D82F20917E07309198
:1052F0007F07409180075091810760917A077091F4
:105300007B0780917C0790917D070E94C1DDC62FAD
:10531000172F082FF92E60913202709133028827DF
:1053200077FD8095982F0E9453DC20910E023091DA
:105330000F0240911002509111020E9486DE20E07F
:1053400030E040E752E40E94B8DB20E030E048EC77
:1053500052E40E94B8DB20915A0A2F93DF93FF9208
:105360000F931F93CF935B016C01A2E0EA2E01E043
:1053700020E04AE757E066E877E083E79AE00E949A
:105380004E598091860790918707A0918807B09128
:1053900089078093730A9093740AA093750AB09357
:1053A000760A80918A0790918B07A0918C07B09123
:1053B0008D078093770A9093780AA093790AB09327
:1053C0007A0A80918E0790918F07A0919007B091F3
:1053D000910780937B0A90937C0AA0937D0AB093F7
:1053E0007E0A8091920790919307A0919407B091C3
:1053F000950780937F0A9093800AA093810AB093C7
:10540000820A0E94EE1A60934D0470934E048093BA
:105410004F04909350040F900F900F900F900F90A7
:105420000F90DF91CF911F910F91FF90EF90DF9040
:10543000CF90BF90AF900895F8940E944676159A49
:10544000469A439A409A60E088E10E94681CE1E431
:10545000F8E08491882341F09091C00095FFFCCF43
:105460008093C6003196F5CFE1E5F3E0849188237F
:1054700041F09091C00095FFFCCF8093C60031961B
:10548000F5CF8091C00085FFFCCF8AE08093C600F5
:10549000FFCFCF93DF931F92CDB7DEB789830E94F2
:1054A000467690913F048981911133C080933F04E7
:1054B00080916A0790916B07A0916C07B0916D077E
:1054C0008093660790936707A0936807B093690776
:1054D000E1E4F8E08491882341F09091C00095FFC9
:1054E000FCCF8093C6003196F5CFEBEDF2E08491CE
:1054F000882341F09091C00095FFFCCF8093C600B7
:105500003196F5CF8091C00085FFFCCF8AE0809373
:10551000C6000F90DF91CF9108952F923F924F9246
:105520005F926F927F928F929F92AF92BF92CF9233
:10553000DF92EF92FF920F931F93CF93DF9300D0F0
:1055400000D0CDB7DEB79E838D831C01220C331CA7
:10555000220C331C91012D58354F5901F90110824D
:105560001182128213822FE73AE04BE75AE067E795
:105570007AE083E79AE00E94386AC101855F974F1D
:105580000E94871E2D813E812450384F3A83298303
:10559000F901449091012A57384F3C832B8320E036
:1055A00030E040EC5FE30E9486DE6B017C01552415
:1055B00047FC5094652C752CC301B2010E9453DC4A
:1055C0009B01AC01C701B6010E9486DEEB81FC8124
:1055D0006083718382839383F101EC5CFD4F608172
:1055E00071818281938160930E0270930F02809388
:1055F00010029093110220E030E040E752E40E9454
:10560000B8DB2AE5C22E2AE0D22E7B018C0122E9EA
:1056100037E04EE857E06AE877E086E897E00E94D6
:10562000B6600E949A720E94FD6B8111B9C02D81F3
:105630003E812230310509F077C010927B0A10922A
:105640007C0A10927D0A10927E0A2FE73AE04BE71F
:105650005AE067E77AE083E79AE00E94386A87E0D9
:1056600098E00E94871E6B017C01F7FAF094F7F82E
:10567000F094C301B2010E9453DC9B01AC01C7014D
:10568000B6010E9486DE20E030E040E251E40E9454
:1056900086DE60938E0770938F07809390079093B8
:1056A000910720E030E040E752E460910E027091F3
:1056B0000F0280911002909111020E94B8DB0AE55E
:1056C000C02E0AE0D02E7B018C0122E937E04EE8A3
:1056D00057E06AE877E086E897E00E94B6600E94AB
:1056E0009A72E1E4F8E08491882341F09091C0003F
:1056F00095FFFCCF8093C6003196F5CFEBEEF3E03B
:105700008491882341F09091C00095FFFCCF809355
:10571000C6003196F5CF8091C00085FFFCCF8AE0AE
:105720008093C60085E022C0E1E4F8E084918823FC
:1057300041F09091C00095FFFCCF8093C600319658
:10574000F5CFE4EBF3E08491882341F09091C00021
:1057500095FFFCCF8093C6003196F5CF8091C000B5
:1057600085FFFCCF8AE08093C60087E026960FB6BF
:10577000F894DEBF0FBECDBFDF91CF911F910F9187
:10578000FF90EF90DF90CF90BF90AF909F908F9061
:105790007F906F905F904F903F902F900C94492A8C
:1057A000F50110821182128213822FE73AE04BE753
:1057B0005AE067E77AE083E79AE00E94386AC1011D
:1057C0008150984F0E94871E4B015C016B017C0148
:1057D000F7FAF094F7F8F094C301B2010E9453DC99
:1057E0009B01AC01C701B6010E9486DEEB81FC8102
:1057F000608371838283938320E030E040E752E44A
:1058000060910E0270910F0280911002909111022E
:105810000E94B8DB1AE5C12E1AE0D12E7B018C0163
:1058200022E937E04EE857E06AE877E086E897E05B
:105830000E94B6600E949A722D813E81213031050E
:1058400029F02230310521F0232B49F580B127C002
:10585000079925C0E1E4F8E08491882341F0909114
:10586000C00095FFFCCF8093C6003196F5CFECE7E2
:10587000F3E08491882341F09091C00095FFFCCF24
:105880008093C6003196F5CF8091C00085FFFCCF94
:105890008AE08093C60086E00E94492A67C0E981B9
:1058A000FA81549091012A57384F3901A50194018A
:1058B000C501B4010E94D8DA6B017C01652D772700
:1058C00067FD7095872F972F0E9453DC9B01AC01D9
:1058D000C701B6010E9486DEF30160837183828373
:1058E0009383F101EC5CFD4F20E030E040E450E4B4
:1058F00060817181828193810E94B8DB60930E0286
:1059000070930F02809310029093110220E030E018
:1059100040E752E40E94B8DBBAE5CB2EBAE0DB2EBA
:105920007B018C0122E937E04EE857E06AE877E036
:1059300086E897E00E94B6600E949A728D819E81EF
:105940000E948D1EF101ED58F54F80819181A28159
:10595000B381F30180839183A283B38310920E02FB
:1059600010920F02109210021092110226960FB69A
:10597000F894DEBF0FBECDBFDF91CF911F910F9185
:10598000FF90EF90DF90CF90BF90AF909F908F905F
:105990007F906F905F904F903F902F900C940A6C87
:1059A000CF92DF92EF92FF920F931F930E94EE1A15
:1059B0000091490410914A0420914B0430914C0409
:1059C000C0904D04D0904E04E0904F04F0905004ED
:1059D0006C197D098E099F090617170728073907D3
:1059E00030F4012B022B032B11F00E941C2A809112
:1059F0000A0290910B02A0910C02B0910D02892B2A
:105A00008A2B8B2BF9F00E94EE1A00914D04109115
:105A10004E0420914F0430915004601B710B820B97
:105A2000930B00910A0210910B0220910C0230910D
:105A30000D02061717072807390720F480911D0F5C
:105A400080911C0F069B03C08AE00E94492A1F9187
:105A50000F91FF90EF90DF90CF900C945F6081E00A
:105A600090913F04911101C080E0089580913F041E
:105A70000895CF93DF93EC0180915A0A80934004FC
:105A800084E50E94AC21811102C080E065C00E94C3
:105A900098210E9425DC609340046623B1F3EBE378
:105AA000F8E08491882341F09091C00095FFFCCFED
:105AB0008093C6003196F5CFC936D10599F034F4FC
:105AC000C836D105C9F5E3EFF2E015C0CD36D105F2
:105AD00031F0CA3DD10581F5EEEAF2E02AC0E5ECED
